{
	"MappingTOArrays.sol": {
		"MappingToArrays": {
			"abi": [
				{
					"inputs": [
						{
							"internalType": "uint256",
							"name": "key",
							"type": "uint256"
						},
						{
							"internalType": "address",
							"name": "value",
							"type": "address"
						}
					],
					"name": "addToMapping",
					"outputs": [],
					"stateMutability": "nonpayable",
					"type": "function"
				},
				{
					"inputs": [
						{
							"internalType": "uint256",
							"name": "key",
							"type": "uint256"
						}
					],
					"name": "getArray",
					"outputs": [
						{
							"internalType": "address[]",
							"name": "",
							"type": "address[]"
						}
					],
					"stateMutability": "view",
					"type": "function"
				},
				{
					"inputs": [
						{
							"internalType": "uint256",
							"name": "key",
							"type": "uint256"
						}
					],
					"name": "getArrayLength",
					"outputs": [
						{
							"internalType": "uint256",
							"name": "",
							"type": "uint256"
						}
					],
					"stateMutability": "view",
					"type": "function"
				}
			],
			"devdoc": {
				"kind": "dev",
				"methods": {},
				"version": 1
			},
			"evm": {
				"assembly": "    /* \"MappingTOArrays.sol\":62:818  contract MappingToArrays {... */\n  mstore(0x40, 0x80)\n  callvalue\n  dup1\n  iszero\n  tag_1\n  jumpi\n  0x00\n  dup1\n  revert\ntag_1:\n  pop\n  dataSize(sub_0)\n  dup1\n  dataOffset(sub_0)\n  0x00\n  codecopy\n  0x00\n  return\nstop\n\nsub_0: assembly {\n        /* \"MappingTOArrays.sol\":62:818  contract MappingToArrays {... */\n      mstore(0x40, 0x80)\n      callvalue\n      dup1\n      iszero\n      tag_1\n      jumpi\n      0x00\n      dup1\n      revert\n    tag_1:\n      pop\n      jumpi(tag_2, lt(calldatasize, 0x04))\n      shr(0xe0, calldataload(0x00))\n      dup1\n      0x3e06e621\n      eq\n      tag_3\n      jumpi\n      dup1\n      0x5175153b\n      eq\n      tag_4\n      jumpi\n      dup1\n      0xab35ec63\n      eq\n      tag_5\n      jumpi\n    tag_2:\n      0x00\n      dup1\n      revert\n        /* \"MappingTOArrays.sol\":687:815  function getArrayLength(uint256 key) external view returns (uint256) {... */\n    tag_3:\n      tag_6\n      tag_7\n      calldatasize\n      0x04\n      tag_8\n      jump\t// in\n    tag_7:\n        /* \"MappingTOArrays.sol\":747:754  uint256 */\n      0x00\n        /* \"MappingTOArrays.sol\":774:800  uint256ToArrayMapping[key] */\n      swap1\n      dup2\n      mstore\n      0x20\n      dup2\n      swap1\n      mstore\n      0x40\n      swap1\n      keccak256\n        /* \"MappingTOArrays.sol\":774:807  uint256ToArrayMapping[key].length */\n      sload\n      swap1\n        /* \"MappingTOArrays.sol\":687:815  function getArrayLength(uint256 key) external view returns (uint256) {... */\n      jump\n    tag_6:\n      mload(0x40)\n        /* \"#utility.yul\":345:370   */\n      swap1\n      dup2\n      mstore\n        /* \"#utility.yul\":333:335   */\n      0x20\n        /* \"#utility.yul\":318:336   */\n      add\n        /* \"MappingTOArrays.sol\":687:815  function getArrayLength(uint256 key) external view returns (uint256) {... */\n    tag_10:\n      mload(0x40)\n      dup1\n      swap2\n      sub\n      swap1\n      return\n        /* \"MappingTOArrays.sol\":291:405  function addToMapping(uint256 key, address value) public {... */\n    tag_4:\n      tag_12\n      tag_13\n      calldatasize\n      0x04\n      tag_14\n      jump\t// in\n    tag_13:\n        /* \"MappingTOArrays.sol\":359:380  uint256ToArrayMapping */\n      0x00\n        /* \"MappingTOArrays.sol\":359:385  uint256ToArrayMapping[key] */\n      swap2\n      dup3\n      mstore\n      0x20\n      dup3\n      dup2\n      mstore\n      0x40\n      dup4\n      keccak256\n        /* \"MappingTOArrays.sol\":359:397  uint256ToArrayMapping[key].push(value) */\n      dup1\n      sload\n      0x01\n      dup2\n      add\n      dup3\n      sstore\n      swap1\n      dup5\n      mstore\n      swap3\n      keccak256\n      swap1\n      swap2\n      add\n      dup1\n      sload\n      not(sub(shl(0xa0, 0x01), 0x01))\n      and\n      sub(shl(0xa0, 0x01), 0x01)\n      swap1\n      swap3\n      and\n      swap2\n      swap1\n      swap2\n      or\n      swap1\n      sstore\n        /* \"MappingTOArrays.sol\":291:405  function addToMapping(uint256 key, address value) public {... */\n      jump\n    tag_12:\n      stop\n        /* \"MappingTOArrays.sol\":477:601  function getArray(uint256 key) external view returns (address[] memory) {... */\n    tag_5:\n      tag_16\n      tag_17\n      calldatasize\n      0x04\n      tag_8\n      jump\t// in\n    tag_17:\n      tag_18\n      jump\t// in\n    tag_16:\n      mload(0x40)\n      tag_10\n      swap2\n      swap1\n      tag_20\n      jump\t// in\n    tag_18:\n        /* \"MappingTOArrays.sol\":567:588  uint256ToArrayMapping */\n      0x00\n        /* \"MappingTOArrays.sol\":567:593  uint256ToArrayMapping[key] */\n      dup2\n      dup2\n      mstore\n      0x20\n      dup2\n      dup2\n      mstore\n      0x40\n      swap2\n      dup3\n      swap1\n      keccak256\n        /* \"MappingTOArrays.sol\":560:593  return uint256ToArrayMapping[key] */\n      dup1\n      sload\n      dup4\n      mload\n      dup2\n      dup5\n      mul\n      dup2\n      add\n      dup5\n      add\n      swap1\n      swap5\n      mstore\n      dup1\n      dup5\n      mstore\n        /* \"MappingTOArrays.sol\":531:547  address[] memory */\n      0x60\n      swap4\n        /* \"MappingTOArrays.sol\":560:593  return uint256ToArrayMapping[key] */\n      swap3\n      dup4\n      add\n        /* \"MappingTOArrays.sol\":567:593  uint256ToArrayMapping[key] */\n      dup3\n        /* \"MappingTOArrays.sol\":560:593  return uint256ToArrayMapping[key] */\n      dup3\n      dup1\n      iszero\n      tag_25\n      jumpi\n      0x20\n      mul\n      dup3\n      add\n      swap2\n      swap1\n      0x00\n      mstore\n      keccak256(0x00, 0x20)\n      swap1\n    tag_26:\n      dup2\n      sload\n      sub(shl(0xa0, 0x01), 0x01)\n      and\n      dup2\n      mstore\n      0x01\n      swap1\n      swap2\n      add\n      swap1\n      0x20\n      add\n      dup1\n      dup4\n      gt\n      tag_26\n      jumpi\n    tag_25:\n      pop\n      pop\n      pop\n      pop\n      pop\n      swap1\n      pop\n        /* \"MappingTOArrays.sol\":477:601  function getArray(uint256 key) external view returns (address[] memory) {... */\n      swap2\n      swap1\n      pop\n      jump\t// out\n        /* \"#utility.yul\":14:194   */\n    tag_8:\n        /* \"#utility.yul\":73:79   */\n      0x00\n        /* \"#utility.yul\":126:128   */\n      0x20\n        /* \"#utility.yul\":114:123   */\n      dup3\n        /* \"#utility.yul\":105:112   */\n      dup5\n        /* \"#utility.yul\":101:124   */\n      sub\n        /* \"#utility.yul\":97:129   */\n      slt\n        /* \"#utility.yul\":94:146   */\n      iszero\n      tag_29\n      jumpi\n        /* \"#utility.yul\":142:143   */\n      0x00\n        /* \"#utility.yul\":139:140   */\n      dup1\n        /* \"#utility.yul\":132:144   */\n      revert\n        /* \"#utility.yul\":94:146   */\n    tag_29:\n      pop\n        /* \"#utility.yul\":165:188   */\n      calldataload\n      swap2\n        /* \"#utility.yul\":14:194   */\n      swap1\n      pop\n      jump\t// out\n        /* \"#utility.yul\":381:735   */\n    tag_14:\n        /* \"#utility.yul\":449:455   */\n      0x00\n        /* \"#utility.yul\":457:463   */\n      dup1\n        /* \"#utility.yul\":510:512   */\n      0x40\n        /* \"#utility.yul\":498:507   */\n      dup4\n        /* \"#utility.yul\":489:496   */\n      dup6\n        /* \"#utility.yul\":485:508   */\n      sub\n        /* \"#utility.yul\":481:513   */\n      slt\n        /* \"#utility.yul\":478:530   */\n      iszero\n      tag_32\n      jumpi\n        /* \"#utility.yul\":526:527   */\n      0x00\n        /* \"#utility.yul\":523:524   */\n      dup1\n        /* \"#utility.yul\":516:528   */\n      revert\n        /* \"#utility.yul\":478:530   */\n    tag_32:\n        /* \"#utility.yul\":549:572   */\n      dup3\n      calldataload\n      swap2\n      pop\n        /* \"#utility.yul\":622:624   */\n      0x20\n        /* \"#utility.yul\":607:625   */\n      dup4\n      add\n        /* \"#utility.yul\":594:626   */\n      calldataload\n      sub(shl(0xa0, 0x01), 0x01)\n        /* \"#utility.yul\":655:686   */\n      dup2\n      and\n        /* \"#utility.yul\":645:687   */\n      dup2\n      eq\n        /* \"#utility.yul\":635:705   */\n      tag_33\n      jumpi\n        /* \"#utility.yul\":701:702   */\n      0x00\n        /* \"#utility.yul\":698:699   */\n      dup1\n        /* \"#utility.yul\":691:703   */\n      revert\n        /* \"#utility.yul\":635:705   */\n    tag_33:\n        /* \"#utility.yul\":724:729   */\n      dup1\n        /* \"#utility.yul\":714:729   */\n      swap2\n      pop\n      pop\n        /* \"#utility.yul\":381:735   */\n      swap3\n      pop\n      swap3\n      swap1\n      pop\n      jump\t// out\n        /* \"#utility.yul\":740:1398   */\n    tag_20:\n        /* \"#utility.yul\":911:913   */\n      0x20\n        /* \"#utility.yul\":963:984   */\n      dup1\n      dup3\n      mstore\n        /* \"#utility.yul\":1033:1046   */\n      dup3\n      mload\n        /* \"#utility.yul\":936:954   */\n      dup3\n      dup3\n      add\n        /* \"#utility.yul\":1055:1077   */\n      dup2\n      swap1\n      mstore\n        /* \"#utility.yul\":882:886   */\n      0x00\n      swap2\n        /* \"#utility.yul\":911:913   */\n      swap1\n        /* \"#utility.yul\":1134:1149   */\n      dup5\n      dup3\n      add\n      swap1\n        /* \"#utility.yul\":1108:1110   */\n      0x40\n        /* \"#utility.yul\":1093:1111   */\n      dup6\n      add\n      swap1\n        /* \"#utility.yul\":882:886   */\n      dup5\n        /* \"#utility.yul\":1177:1372   */\n    tag_35:\n        /* \"#utility.yul\":1191:1197   */\n      dup2\n        /* \"#utility.yul\":1188:1189   */\n      dup2\n        /* \"#utility.yul\":1185:1198   */\n      lt\n        /* \"#utility.yul\":1177:1372   */\n      iszero\n      tag_37\n      jumpi\n        /* \"#utility.yul\":1256:1269   */\n      dup4\n      mload\n      sub(shl(0xa0, 0x01), 0x01)\n        /* \"#utility.yul\":1252:1291   */\n      and\n        /* \"#utility.yul\":1240:1292   */\n      dup4\n      mstore\n        /* \"#utility.yul\":1347:1362   */\n      swap3\n      dup5\n      add\n      swap3\n        /* \"#utility.yul\":1312:1324   */\n      swap2\n      dup5\n      add\n      swap2\n        /* \"#utility.yul\":1288:1289   */\n      0x01\n        /* \"#utility.yul\":1206:1215   */\n      add\n        /* \"#utility.yul\":1177:1372   */\n      jump(tag_35)\n    tag_37:\n      pop\n        /* \"#utility.yul\":1389:1392   */\n      swap1\n      swap7\n        /* \"#utility.yul\":740:1398   */\n      swap6\n      pop\n      pop\n      pop\n      pop\n      pop\n      pop\n      jump\t// out\n\n    auxdata: 0xa264697066735822122094adba820e8efb2253fadf519f6ff4c07b9d263b0ff8c6850b73e3ae744f8e3264736f6c63430008140033\n}\n",
				"bytecode": {
					"linkReferences": {},
					"object": "608060405234801561000f575f80fd5b5061021a8061001d5f395ff3fe608060405234801561000f575f80fd5b506004361061003f575f3560e01c80633e06e621146100435780635175153b14610075578063ab35ec63146100c1575b5f80fd5b610062610051366004610148565b5f9081526020819052604090205490565b6040519081526020015b60405180910390f35b6100bf61008336600461015f565b5f9182526020828152604083208054600181018255908452922090910180546001600160a01b0319166001600160a01b03909216919091179055565b005b6100d46100cf366004610148565b6100e1565b60405161006c9190610198565b5f818152602081815260409182902080548351818402810184019094528084526060939283018282801561013c57602002820191905f5260205f20905b81546001600160a01b0316815260019091019060200180831161011e575b50505050509050919050565b5f60208284031215610158575f80fd5b5035919050565b5f8060408385031215610170575f80fd5b8235915060208301356001600160a01b038116811461018d575f80fd5b809150509250929050565b602080825282518282018190525f9190848201906040850190845b818110156101d85783516001600160a01b0316835292840192918401916001016101b3565b5090969550505050505056fea264697066735822122094adba820e8efb2253fadf519f6ff4c07b9d263b0ff8c6850b73e3ae744f8e3264736f6c63430008140033",
					"opcodes": "PUSH1 0x80 PUSH1 0x40 MSTORE CALLVALUE DUP1 ISZERO PUSH2 0xF JUMPI PUSH0 DUP1 REVERT JUMPDEST POP PUSH2 0x21A DUP1 PUSH2 0x1D PUSH0 CODECOPY PUSH0 RETURN INVALID PUSH1 0x80 PUSH1 0x40 MSTORE CALLVALUE DUP1 ISZERO PUSH2 0xF JUMPI PUSH0 DUP1 REVERT JUMPDEST POP PUSH1 0x4 CALLDATASIZE LT PUSH2 0x3F JUMPI PUSH0 CALLDATALOAD PUSH1 0xE0 SHR DUP1 PUSH4 0x3E06E621 EQ PUSH2 0x43 JUMPI DUP1 PUSH4 0x5175153B EQ PUSH2 0x75 JUMPI DUP1 PUSH4 0xAB35EC63 EQ PUSH2 0xC1 JUMPI JUMPDEST PUSH0 DUP1 REVERT JUMPDEST PUSH2 0x62 PUSH2 0x51 CALLDATASIZE PUSH1 0x4 PUSH2 0x148 JUMP JUMPDEST PUSH0 SWAP1 DUP2 MSTORE PUSH1 0x20 DUP2 SWAP1 MSTORE PUSH1 0x40 SWAP1 KECCAK256 SLOAD SWAP1 JUMP JUMPDEST PUSH1 0x40 MLOAD SWAP1 DUP2 MSTORE PUSH1 0x20 ADD JUMPDEST PUSH1 0x40 MLOAD DUP1 SWAP2 SUB SWAP1 RETURN JUMPDEST PUSH2 0xBF PUSH2 0x83 CALLDATASIZE PUSH1 0x4 PUSH2 0x15F JUMP JUMPDEST PUSH0 SWAP2 DUP3 MSTORE PUSH1 0x20 DUP3 DUP2 MSTORE PUSH1 0x40 DUP4 KECCAK256 DUP1 SLOAD PUSH1 0x1 DUP2 ADD DUP3 SSTORE SWAP1 DUP5 MSTORE SWAP3 KECCAK256 SWAP1 SWAP2 ADD DUP1 SLOAD PUSH1 0x1 PUSH1 0x1 PUSH1 0xA0 SHL SUB NOT AND PUSH1 0x1 PUSH1 0x1 PUSH1 0xA0 SHL SUB SWAP1 SWAP3 AND SWAP2 SWAP1 SWAP2 OR SWAP1 SSTORE JUMP JUMPDEST STOP JUMPDEST PUSH2 0xD4 PUSH2 0xCF CALLDATASIZE PUSH1 0x4 PUSH2 0x148 JUMP JUMPDEST PUSH2 0xE1 JUMP JUMPDEST PUSH1 0x40 MLOAD PUSH2 0x6C SWAP2 SWAP1 PUSH2 0x198 JUMP JUMPDEST PUSH0 DUP2 DUP2 MSTORE PUSH1 0x20 DUP2 DUP2 MSTORE PUSH1 0x40 SWAP2 DUP3 SWAP1 KECCAK256 DUP1 SLOAD DUP4 MLOAD DUP2 DUP5 MUL DUP2 ADD DUP5 ADD SWAP1 SWAP5 MSTORE DUP1 DUP5 MSTORE PUSH1 0x60 SWAP4 SWAP3 DUP4 ADD DUP3 DUP3 DUP1 ISZERO PUSH2 0x13C JUMPI PUSH1 0x20 MUL DUP3 ADD SWAP2 SWAP1 PUSH0 MSTORE PUSH1 0x20 PUSH0 KECCAK256 SWAP1 JUMPDEST DUP2 SLOAD PUSH1 0x1 PUSH1 0x1 PUSH1 0xA0 SHL SUB AND DUP2 MSTORE PUSH1 0x1 SWAP1 SWAP2 ADD SWAP1 PUSH1 0x20 ADD DUP1 DUP4 GT PUSH2 0x11E JUMPI JUMPDEST POP POP POP POP POP SWAP1 POP SWAP2 SWAP1 POP JUMP JUMPDEST PUSH0 PUSH1 0x20 DUP3 DUP5 SUB SLT ISZERO PUSH2 0x158 JUMPI PUSH0 DUP1 REVERT JUMPDEST POP CALLDATALOAD SWAP2 SWAP1 POP JUMP JUMPDEST PUSH0 DUP1 PUSH1 0x40 DUP4 DUP6 SUB SLT ISZERO PUSH2 0x170 JUMPI PUSH0 DUP1 REVERT JUMPDEST DUP3 CALLDATALOAD SWAP2 POP PUSH1 0x20 DUP4 ADD CALLDATALOAD PUSH1 0x1 PUSH1 0x1 PUSH1 0xA0 SHL SUB DUP2 AND DUP2 EQ PUSH2 0x18D JUMPI PUSH0 DUP1 REVERT JUMPDEST DUP1 SWAP2 POP POP SWAP3 POP SWAP3 SWAP1 POP JUMP JUMPDEST PUSH1 0x20 DUP1 DUP3 MSTORE DUP3 MLOAD DUP3 DUP3 ADD DUP2 SWAP1 MSTORE PUSH0 SWAP2 SWAP1 DUP5 DUP3 ADD SWAP1 PUSH1 0x40 DUP6 ADD SWAP1 DUP5 JUMPDEST DUP2 DUP2 LT ISZERO PUSH2 0x1D8 JUMPI DUP4 MLOAD PUSH1 0x1 PUSH1 0x1 PUSH1 0xA0 SHL SUB AND DUP4 MSTORE SWAP3 DUP5 ADD SWAP3 SWAP2 DUP5 ADD SWAP2 PUSH1 0x1 ADD PUSH2 0x1B3 JUMP JUMPDEST POP SWAP1 SWAP7 SWAP6 POP POP POP POP POP POP JUMP INVALID LOG2 PUSH5 0x6970667358 0x22 SLT KECCAK256 SWAP5 0xAD 0xBA DUP3 0xE DUP15 0xFB 0x22 MSTORE8 STATICCALL 0xDF MLOAD SWAP16 PUSH16 0xF4C07B9D263B0FF8C6850B73E3AE744F DUP15 ORIGIN PUSH5 0x736F6C6343 STOP ADDMOD EQ STOP CALLER "
				},
				"gasEstimates": {
					"creation": {
						"codeDepositCost": "107600",
						"executionCost": "151",
						"totalCost": "107751"
					},
					"external": {
						"addToMapping(uint256,address)": "48890",
						"getArray(uint256)": "infinite",
						"getArrayLength(uint256)": "2405"
					}
				},
				"methodIdentifiers": {
					"addToMapping(uint256,address)": "5175153b",
					"getArray(uint256)": "ab35ec63",
					"getArrayLength(uint256)": "3e06e621"
				}
			},
			"storageLayout": {
				"storage": [
					{
						"astId": 6,
						"contract": "MappingTOArrays.sol:MappingToArrays",
						"label": "uint256ToArrayMapping",
						"offset": 0,
						"slot": "0",
						"type": "t_mapping(t_uint256,t_array(t_address)dyn_storage)"
					}
				],
				"types": {
					"t_address": {
						"encoding": "inplace",
						"label": "address",
						"numberOfBytes": "20"
					},
					"t_array(t_address)dyn_storage": {
						"base": "t_address",
						"encoding": "dynamic_array",
						"label": "address[]",
						"numberOfBytes": "32"
					},
					"t_mapping(t_uint256,t_array(t_address)dyn_storage)": {
						"encoding": "mapping",
						"key": "t_uint256",
						"label": "mapping(uint256 => address[])",
						"numberOfBytes": "32",
						"value": "t_array(t_address)dyn_storage"
					},
					"t_uint256": {
						"encoding": "inplace",
						"label": "uint256",
						"numberOfBytes": "32"
					}
				}
			},
			"userdoc": {
				"kind": "user",
				"methods": {},
				"version": 1
			}
		}
	}
}