{
	"FundRaising.sol": {
		"FundRaising": {
			"abi": [
				{
					"inputs": [
						{
							"internalType": "string",
							"name": "_name",
							"type": "string"
						},
						{
							"internalType": "string",
							"name": "_symbol",
							"type": "string"
						},
						{
							"internalType": "address",
							"name": "_mappingTOArray",
							"type": "address"
						},
						{
							"internalType": "string",
							"name": "_baseURI",
							"type": "string"
						}
					],
					"stateMutability": "nonpayable",
					"type": "constructor"
				},
				{
					"inputs": [
						{
							"internalType": "address",
							"name": "sender",
							"type": "address"
						},
						{
							"internalType": "uint256",
							"name": "tokenId",
							"type": "uint256"
						},
						{
							"internalType": "address",
							"name": "owner",
							"type": "address"
						}
					],
					"name": "ERC721IncorrectOwner",
					"type": "error"
				},
				{
					"inputs": [
						{
							"internalType": "address",
							"name": "operator",
							"type": "address"
						},
						{
							"internalType": "uint256",
							"name": "tokenId",
							"type": "uint256"
						}
					],
					"name": "ERC721InsufficientApproval",
					"type": "error"
				},
				{
					"inputs": [
						{
							"internalType": "address",
							"name": "approver",
							"type": "address"
						}
					],
					"name": "ERC721InvalidApprover",
					"type": "error"
				},
				{
					"inputs": [
						{
							"internalType": "address",
							"name": "operator",
							"type": "address"
						}
					],
					"name": "ERC721InvalidOperator",
					"type": "error"
				},
				{
					"inputs": [
						{
							"internalType": "address",
							"name": "owner",
							"type": "address"
						}
					],
					"name": "ERC721InvalidOwner",
					"type": "error"
				},
				{
					"inputs": [
						{
							"internalType": "address",
							"name": "receiver",
							"type": "address"
						}
					],
					"name": "ERC721InvalidReceiver",
					"type": "error"
				},
				{
					"inputs": [
						{
							"internalType": "address",
							"name": "sender",
							"type": "address"
						}
					],
					"name": "ERC721InvalidSender",
					"type": "error"
				},
				{
					"inputs": [
						{
							"internalType": "uint256",
							"name": "tokenId",
							"type": "uint256"
						}
					],
					"name": "ERC721NonexistentToken",
					"type": "error"
				},
				{
					"inputs": [
						{
							"internalType": "address",
							"name": "owner",
							"type": "address"
						}
					],
					"name": "OwnableInvalidOwner",
					"type": "error"
				},
				{
					"inputs": [
						{
							"internalType": "address",
							"name": "account",
							"type": "address"
						}
					],
					"name": "OwnableUnauthorizedAccount",
					"type": "error"
				},
				{
					"anonymous": false,
					"inputs": [
						{
							"indexed": true,
							"internalType": "address",
							"name": "owner",
							"type": "address"
						},
						{
							"indexed": true,
							"internalType": "address",
							"name": "approved",
							"type": "address"
						},
						{
							"indexed": true,
							"internalType": "uint256",
							"name": "tokenId",
							"type": "uint256"
						}
					],
					"name": "Approval",
					"type": "event"
				},
				{
					"anonymous": false,
					"inputs": [
						{
							"indexed": true,
							"internalType": "address",
							"name": "owner",
							"type": "address"
						},
						{
							"indexed": true,
							"internalType": "address",
							"name": "operator",
							"type": "address"
						},
						{
							"indexed": false,
							"internalType": "bool",
							"name": "approved",
							"type": "bool"
						}
					],
					"name": "ApprovalForAll",
					"type": "event"
				},
				{
					"anonymous": false,
					"inputs": [
						{
							"indexed": false,
							"internalType": "uint256",
							"name": "_fromTokenId",
							"type": "uint256"
						},
						{
							"indexed": false,
							"internalType": "uint256",
							"name": "_toTokenId",
							"type": "uint256"
						}
					],
					"name": "BatchMetadataUpdate",
					"type": "event"
				},
				{
					"anonymous": false,
					"inputs": [
						{
							"indexed": false,
							"internalType": "uint256",
							"name": "_tokenId",
							"type": "uint256"
						}
					],
					"name": "MetadataUpdate",
					"type": "event"
				},
				{
					"anonymous": false,
					"inputs": [
						{
							"indexed": true,
							"internalType": "address",
							"name": "previousOwner",
							"type": "address"
						},
						{
							"indexed": true,
							"internalType": "address",
							"name": "newOwner",
							"type": "address"
						}
					],
					"name": "OwnershipTransferred",
					"type": "event"
				},
				{
					"anonymous": false,
					"inputs": [
						{
							"indexed": true,
							"internalType": "address",
							"name": "from",
							"type": "address"
						},
						{
							"indexed": true,
							"internalType": "address",
							"name": "to",
							"type": "address"
						},
						{
							"indexed": true,
							"internalType": "uint256",
							"name": "tokenId",
							"type": "uint256"
						},
						{
							"indexed": false,
							"internalType": "uint256",
							"name": "derivedFromtokenId",
							"type": "uint256"
						}
					],
					"name": "Share",
					"type": "event"
				},
				{
					"anonymous": false,
					"inputs": [
						{
							"indexed": true,
							"internalType": "address",
							"name": "from",
							"type": "address"
						},
						{
							"indexed": true,
							"internalType": "address",
							"name": "to",
							"type": "address"
						},
						{
							"indexed": true,
							"internalType": "uint256",
							"name": "tokenId",
							"type": "uint256"
						}
					],
					"name": "Transfer",
					"type": "event"
				},
				{
					"inputs": [
						{
							"internalType": "address",
							"name": "to",
							"type": "address"
						},
						{
							"internalType": "uint256",
							"name": "tokenId",
							"type": "uint256"
						}
					],
					"name": "approve",
					"outputs": [],
					"stateMutability": "nonpayable",
					"type": "function"
				},
				{
					"inputs": [
						{
							"internalType": "address",
							"name": "owner",
							"type": "address"
						}
					],
					"name": "balanceOf",
					"outputs": [
						{
							"internalType": "uint256",
							"name": "",
							"type": "uint256"
						}
					],
					"stateMutability": "view",
					"type": "function"
				},
				{
					"inputs": [],
					"name": "baseURI",
					"outputs": [
						{
							"internalType": "string",
							"name": "",
							"type": "string"
						}
					],
					"stateMutability": "view",
					"type": "function"
				},
				{
					"inputs": [
						{
							"internalType": "address",
							"name": "to",
							"type": "address"
						},
						{
							"internalType": "uint256",
							"name": "tokenIdToBeShared",
							"type": "uint256"
						},
						{
							"internalType": "uint256",
							"name": "numberOfShares",
							"type": "uint256"
						}
					],
					"name": "buyShares",
					"outputs": [],
					"stateMutability": "payable",
					"type": "function"
				},
				{
					"inputs": [
						{
							"internalType": "uint256",
							"name": "tokenId",
							"type": "uint256"
						}
					],
					"name": "getApproved",
					"outputs": [
						{
							"internalType": "address",
							"name": "",
							"type": "address"
						}
					],
					"stateMutability": "view",
					"type": "function"
				},
				{
					"inputs": [
						{
							"internalType": "address",
							"name": "to",
							"type": "address"
						},
						{
							"internalType": "uint256",
							"name": "tokenId",
							"type": "uint256"
						}
					],
					"name": "initiateSelling",
					"outputs": [],
					"stateMutability": "nonpayable",
					"type": "function"
				},
				{
					"inputs": [
						{
							"internalType": "uint256",
							"name": "tokenId",
							"type": "uint256"
						}
					],
					"name": "initiateVoting",
					"outputs": [],
					"stateMutability": "nonpayable",
					"type": "function"
				},
				{
					"inputs": [
						{
							"internalType": "address",
							"name": "owner",
							"type": "address"
						},
						{
							"internalType": "address",
							"name": "operator",
							"type": "address"
						}
					],
					"name": "isApprovedForAll",
					"outputs": [
						{
							"internalType": "bool",
							"name": "",
							"type": "bool"
						}
					],
					"stateMutability": "view",
					"type": "function"
				},
				{
					"inputs": [
						{
							"internalType": "uint256",
							"name": "tokenId",
							"type": "uint256"
						}
					],
					"name": "makeDecisionForSelling",
					"outputs": [],
					"stateMutability": "nonpayable",
					"type": "function"
				},
				{
					"inputs": [
						{
							"internalType": "address",
							"name": "account",
							"type": "address"
						},
						{
							"internalType": "uint256",
							"name": "tokenId",
							"type": "uint256"
						}
					],
					"name": "mint",
					"outputs": [],
					"stateMutability": "nonpayable",
					"type": "function"
				},
				{
					"inputs": [],
					"name": "name",
					"outputs": [
						{
							"internalType": "string",
							"name": "",
							"type": "string"
						}
					],
					"stateMutability": "view",
					"type": "function"
				},
				{
					"inputs": [],
					"name": "owner",
					"outputs": [
						{
							"internalType": "address",
							"name": "",
							"type": "address"
						}
					],
					"stateMutability": "view",
					"type": "function"
				},
				{
					"inputs": [
						{
							"internalType": "uint256",
							"name": "tokenId",
							"type": "uint256"
						}
					],
					"name": "ownerOf",
					"outputs": [
						{
							"internalType": "address",
							"name": "",
							"type": "address"
						}
					],
					"stateMutability": "view",
					"type": "function"
				},
				{
					"inputs": [
						{
							"internalType": "address",
							"name": "Investor",
							"type": "address"
						}
					],
					"name": "registerAsset",
					"outputs": [],
					"stateMutability": "nonpayable",
					"type": "function"
				},
				{
					"inputs": [
						{
							"internalType": "uint256",
							"name": "tokenId",
							"type": "uint256"
						},
						{
							"internalType": "uint256",
							"name": "totalShares",
							"type": "uint256"
						}
					],
					"name": "registerAssetForFundraising",
					"outputs": [],
					"stateMutability": "nonpayable",
					"type": "function"
				},
				{
					"inputs": [],
					"name": "renounceOwnership",
					"outputs": [],
					"stateMutability": "nonpayable",
					"type": "function"
				},
				{
					"inputs": [
						{
							"internalType": "address",
							"name": "from",
							"type": "address"
						},
						{
							"internalType": "address",
							"name": "to",
							"type": "address"
						},
						{
							"internalType": "uint256",
							"name": "tokenId",
							"type": "uint256"
						}
					],
					"name": "safeTransferFrom",
					"outputs": [],
					"stateMutability": "nonpayable",
					"type": "function"
				},
				{
					"inputs": [
						{
							"internalType": "address",
							"name": "from",
							"type": "address"
						},
						{
							"internalType": "address",
							"name": "to",
							"type": "address"
						},
						{
							"internalType": "uint256",
							"name": "tokenId",
							"type": "uint256"
						},
						{
							"internalType": "bytes",
							"name": "data",
							"type": "bytes"
						}
					],
					"name": "safeTransferFrom",
					"outputs": [],
					"stateMutability": "nonpayable",
					"type": "function"
				},
				{
					"inputs": [
						{
							"internalType": "address",
							"name": "operator",
							"type": "address"
						},
						{
							"internalType": "bool",
							"name": "approved",
							"type": "bool"
						}
					],
					"name": "setApprovalForAll",
					"outputs": [],
					"stateMutability": "nonpayable",
					"type": "function"
				},
				{
					"inputs": [
						{
							"internalType": "string",
							"name": "baseURI_",
							"type": "string"
						}
					],
					"name": "setBaseURI",
					"outputs": [],
					"stateMutability": "nonpayable",
					"type": "function"
				},
				{
					"inputs": [
						{
							"internalType": "uint256",
							"name": "tokenId",
							"type": "uint256"
						},
						{
							"internalType": "string",
							"name": "tokenURI",
							"type": "string"
						}
					],
					"name": "setTokenURI",
					"outputs": [],
					"stateMutability": "nonpayable",
					"type": "function"
				},
				{
					"inputs": [
						{
							"internalType": "address",
							"name": "to",
							"type": "address"
						},
						{
							"internalType": "uint256",
							"name": "tokenIdToBeShared",
							"type": "uint256"
						}
					],
					"name": "share",
					"outputs": [
						{
							"internalType": "uint256",
							"name": "newTokenId",
							"type": "uint256"
						}
					],
					"stateMutability": "nonpayable",
					"type": "function"
				},
				{
					"inputs": [
						{
							"internalType": "bytes4",
							"name": "interfaceId",
							"type": "bytes4"
						}
					],
					"name": "supportsInterface",
					"outputs": [
						{
							"internalType": "bool",
							"name": "",
							"type": "bool"
						}
					],
					"stateMutability": "view",
					"type": "function"
				},
				{
					"inputs": [],
					"name": "symbol",
					"outputs": [
						{
							"internalType": "string",
							"name": "",
							"type": "string"
						}
					],
					"stateMutability": "view",
					"type": "function"
				},
				{
					"inputs": [
						{
							"internalType": "uint256",
							"name": "tokenId",
							"type": "uint256"
						}
					],
					"name": "tokenURI",
					"outputs": [
						{
							"internalType": "string",
							"name": "",
							"type": "string"
						}
					],
					"stateMutability": "view",
					"type": "function"
				},
				{
					"inputs": [
						{
							"internalType": "address",
							"name": "from",
							"type": "address"
						},
						{
							"internalType": "address",
							"name": "to",
							"type": "address"
						},
						{
							"internalType": "uint256",
							"name": "tokenId",
							"type": "uint256"
						}
					],
					"name": "transferFrom",
					"outputs": [],
					"stateMutability": "nonpayable",
					"type": "function"
				},
				{
					"inputs": [
						{
							"internalType": "address",
							"name": "newOwner",
							"type": "address"
						}
					],
					"name": "transferOwnership",
					"outputs": [],
					"stateMutability": "nonpayable",
					"type": "function"
				},
				{
					"inputs": [
						{
							"internalType": "uint256",
							"name": "tokenId",
							"type": "uint256"
						},
						{
							"internalType": "uint256",
							"name": "sharedTokenId",
							"type": "uint256"
						}
					],
					"name": "vote",
					"outputs": [],
					"stateMutability": "nonpayable",
					"type": "function"
				}
			],
			"devdoc": {
				"errors": {
					"ERC721IncorrectOwner(address,uint256,address)": [
						{
							"details": "Indicates an error related to the ownership over a particular token. Used in transfers.",
							"params": {
								"owner": "Address of the current owner of a token.",
								"sender": "Address whose tokens are being transferred.",
								"tokenId": "Identifier number of a token."
							}
						}
					],
					"ERC721InsufficientApproval(address,uint256)": [
						{
							"details": "Indicates a failure with the `operator`s approval. Used in transfers.",
							"params": {
								"operator": "Address that may be allowed to operate on tokens without being their owner.",
								"tokenId": "Identifier number of a token."
							}
						}
					],
					"ERC721InvalidApprover(address)": [
						{
							"details": "Indicates a failure with the `approver` of a token to be approved. Used in approvals.",
							"params": {
								"approver": "Address initiating an approval operation."
							}
						}
					],
					"ERC721InvalidOperator(address)": [
						{
							"details": "Indicates a failure with the `operator` to be approved. Used in approvals.",
							"params": {
								"operator": "Address that may be allowed to operate on tokens without being their owner."
							}
						}
					],
					"ERC721InvalidOwner(address)": [
						{
							"details": "Indicates that an address can't be an owner. For example, `address(0)` is a forbidden owner in EIP-20. Used in balance queries.",
							"params": {
								"owner": "Address of the current owner of a token."
							}
						}
					],
					"ERC721InvalidReceiver(address)": [
						{
							"details": "Indicates a failure with the token `receiver`. Used in transfers.",
							"params": {
								"receiver": "Address to which tokens are being transferred."
							}
						}
					],
					"ERC721InvalidSender(address)": [
						{
							"details": "Indicates a failure with the token `sender`. Used in transfers.",
							"params": {
								"sender": "Address whose tokens are being transferred."
							}
						}
					],
					"ERC721NonexistentToken(uint256)": [
						{
							"details": "Indicates a `tokenId` whose `owner` is the zero address.",
							"params": {
								"tokenId": "Identifier number of a token."
							}
						}
					],
					"OwnableInvalidOwner(address)": [
						{
							"details": "The owner is not a valid owner account. (eg. `address(0)`)"
						}
					],
					"OwnableUnauthorizedAccount(address)": [
						{
							"details": "The caller account is not authorized to perform an operation."
						}
					]
				},
				"events": {
					"Approval(address,address,uint256)": {
						"details": "Emitted when `owner` enables `approved` to manage the `tokenId` token."
					},
					"ApprovalForAll(address,address,bool)": {
						"details": "Emitted when `owner` enables or disables (`approved`) `operator` to manage all of its assets."
					},
					"BatchMetadataUpdate(uint256,uint256)": {
						"details": "This event emits when the metadata of a range of tokens is changed. So that the third-party platforms such as NFT market could timely update the images and related attributes of the NFTs."
					},
					"MetadataUpdate(uint256)": {
						"details": "This event emits when the metadata of a token is changed. So that the third-party platforms such as NFT market could timely update the images and related attributes of the NFT."
					},
					"Share(address,address,uint256,uint256)": {
						"details": "This emits when a token is shared, reminted and given to another wallet that isn't function caller"
					},
					"Transfer(address,address,uint256)": {
						"details": "Emitted when `tokenId` token is transferred from `from` to `to`."
					}
				},
				"kind": "dev",
				"methods": {
					"approve(address,uint256)": {
						"details": "See {IERC721-approve}."
					},
					"balanceOf(address)": {
						"details": "See {IERC721-balanceOf}."
					},
					"getApproved(uint256)": {
						"details": "See {IERC721-getApproved}."
					},
					"isApprovedForAll(address,address)": {
						"details": "See {IERC721-isApprovedForAll}."
					},
					"name()": {
						"details": "See {IERC721Metadata-name}."
					},
					"owner()": {
						"details": "Returns the address of the current owner."
					},
					"ownerOf(uint256)": {
						"details": "See {IERC721-ownerOf}."
					},
					"renounceOwnership()": {
						"details": "Leaves the contract without owner. It will not be possible to call `onlyOwner` functions. Can only be called by the current owner. NOTE: Renouncing ownership will leave the contract without an owner, thereby disabling any functionality that is only available to the owner."
					},
					"safeTransferFrom(address,address,uint256)": {
						"details": "See {IERC721-safeTransferFrom}."
					},
					"safeTransferFrom(address,address,uint256,bytes)": {
						"details": "See {IERC721-safeTransferFrom}."
					},
					"setApprovalForAll(address,bool)": {
						"details": "See {IERC721-setApprovalForAll}."
					},
					"share(address,uint256)": {
						"details": "Shares, remints an existing token, gives a newly minted token a fresh token id, keeps original token at function callers possession and transfers newly minted token to receiver which should be another address than function caller. "
					},
					"supportsInterface(bytes4)": {
						"details": "See {IERC165-supportsInterface}"
					},
					"symbol()": {
						"details": "See {IERC721Metadata-symbol}."
					},
					"tokenURI(uint256)": {
						"details": "See {IERC721Metadata-tokenURI}."
					},
					"transferFrom(address,address,uint256)": {
						"details": "See {IERC721-transferFrom}."
					},
					"transferOwnership(address)": {
						"details": "Transfers ownership of the contract to a new account (`newOwner`). Can only be called by the current owner."
					}
				},
				"version": 1
			},
			"evm": {
				"assembly": "    /* \"FundRaising.sol\":262:7279  contract FundRaising is ERC721URIStorage, Ownable, IERC5023 {... */\n  mstore(0x40, 0x80)\n    /* \"FundRaising.sol\":1186:1491  constructor(... */\n  callvalue\n  dup1\n  iszero\n  tag_1\n  jumpi\n  0x00\n  dup1\n  revert\ntag_1:\n  pop\n  mload(0x40)\n  sub(codesize, bytecodeSize)\n  dup1\n  bytecodeSize\n  dup4\n  codecopy\n  dup2\n  add\n  0x40\n  dup2\n  swap1\n  mstore\n  tag_2\n  swap2\n  tag_3\n  jump\t// in\ntag_2:\n    /* \"FundRaising.sol\":1360:1370  msg.sender */\n  caller\n    /* \"FundRaising.sol\":1336:1341  _name */\n  dup5\n    /* \"FundRaising.sol\":1343:1350  _symbol */\n  dup5\n    /* \"@openzeppelin/contracts/token/ERC721/ERC721.sol\":1447:1452  _name */\n  0x00\n    /* \"@openzeppelin/contracts/token/ERC721/ERC721.sol\":1447:1460  _name = name_ */\n  tag_8\n    /* \"FundRaising.sol\":1336:1341  _name */\n  dup4\n    /* \"@openzeppelin/contracts/token/ERC721/ERC721.sol\":1447:1452  _name */\n  dup3\n    /* \"@openzeppelin/contracts/token/ERC721/ERC721.sol\":1447:1460  _name = name_ */\n  tag_9\n  jump\t// in\ntag_8:\n  pop\n    /* \"@openzeppelin/contracts/token/ERC721/ERC721.sol\":1470:1477  _symbol */\n  0x01\n    /* \"@openzeppelin/contracts/token/ERC721/ERC721.sol\":1470:1487  _symbol = symbol_ */\n  tag_10\n    /* \"@openzeppelin/contracts/token/ERC721/ERC721.sol\":1480:1487  symbol_ */\n  dup3\n    /* \"@openzeppelin/contracts/token/ERC721/ERC721.sol\":1470:1477  _symbol */\n  dup3\n    /* \"@openzeppelin/contracts/token/ERC721/ERC721.sol\":1470:1487  _symbol = symbol_ */\n  tag_9\n  jump\t// in\ntag_10:\n  pop\n  pop\n  pop\n  sub(shl(0xa0, 0x01), 0x01)\n    /* \"@openzeppelin/contracts/access/Ownable.sol\":1273:1299  initialOwner == address(0) */\n  dup2\n  and\n    /* \"@openzeppelin/contracts/access/Ownable.sol\":1269:1364  if (initialOwner == address(0)) {... */\n  tag_12\n  jumpi\n    /* \"@openzeppelin/contracts/access/Ownable.sol\":1322:1353  OwnableInvalidOwner(address(0)) */\n  mload(0x40)\n  shl(0xe0, 0x1e4fbdf7)\n  dup2\n  mstore\n    /* \"@openzeppelin/contracts/access/Ownable.sol\":1350:1351  0 */\n  0x00\n    /* \"@openzeppelin/contracts/access/Ownable.sol\":1322:1353  OwnableInvalidOwner(address(0)) */\n  0x04\n  dup3\n  add\n    /* \"#utility.yul\":4665:4716   */\n  mstore\n    /* \"#utility.yul\":4638:4656   */\n  0x24\n  add\n    /* \"@openzeppelin/contracts/access/Ownable.sol\":1322:1353  OwnableInvalidOwner(address(0)) */\n  mload(0x40)\n  dup1\n  swap2\n  sub\n  swap1\n  revert\n    /* \"@openzeppelin/contracts/access/Ownable.sol\":1269:1364  if (initialOwner == address(0)) {... */\ntag_12:\n    /* \"@openzeppelin/contracts/access/Ownable.sol\":1373:1405  _transferOwnership(initialOwner) */\n  tag_15\n    /* \"@openzeppelin/contracts/access/Ownable.sol\":1392:1404  initialOwner */\n  dup2\n    /* \"@openzeppelin/contracts/access/Ownable.sol\":1373:1391  _transferOwnership */\n  tag_16\n    /* \"@openzeppelin/contracts/access/Ownable.sol\":1373:1405  _transferOwnership(initialOwner) */\n  jump\t// in\ntag_15:\n  pop\n    /* \"FundRaising.sol\":1382:1389  baseURI */\n  0x08\n    /* \"FundRaising.sol\":1382:1400  baseURI = _baseURI */\n  tag_18\n    /* \"FundRaising.sol\":1392:1400  _baseURI */\n  dup3\n    /* \"FundRaising.sol\":1382:1389  baseURI */\n  dup3\n    /* \"FundRaising.sol\":1382:1400  baseURI = _baseURI */\n  tag_9\n  jump\t// in\ntag_18:\n  pop\n  pop\n    /* \"FundRaising.sol\":1410:1424  mappingToArray */\n  0x0a\n    /* \"FundRaising.sol\":1410:1459  mappingToArray = MappingToArrays(_mappingTOArray) */\n  dup1\n  sload\n  not(sub(shl(0xa0, 0x01), 0x01))\n  and\n  sub(shl(0xa0, 0x01), 0x01)\n  swap3\n  swap1\n  swap3\n  and\n  swap2\n  swap1\n  swap2\n  or\n  swap1\n  sstore\n  pop\n  pop\n  0x01\n    /* \"FundRaising.sol\":1469:1482  _currentIndex */\n  0x09\n    /* \"FundRaising.sol\":1469:1484  _currentIndex=1 */\n  sstore\n    /* \"FundRaising.sol\":262:7279  contract FundRaising is ERC721URIStorage, Ownable, IERC5023 {... */\n  jump(tag_27)\n    /* \"@openzeppelin/contracts/access/Ownable.sol\":2912:3099  function _transferOwnership(address newOwner) internal virtual {... */\ntag_16:\n    /* \"@openzeppelin/contracts/access/Ownable.sol\":3004:3010  _owner */\n  0x07\n  dup1\n  sload\n  sub(shl(0xa0, 0x01), 0x01)\n    /* \"@openzeppelin/contracts/access/Ownable.sol\":3020:3037  _owner = newOwner */\n  dup4\n  dup2\n  and\n  not(sub(shl(0xa0, 0x01), 0x01))\n  dup4\n  and\n  dup2\n  or\n  swap1\n  swap4\n  sstore\n    /* \"@openzeppelin/contracts/access/Ownable.sol\":3052:3092  OwnershipTransferred(oldOwner, newOwner) */\n  mload(0x40)\n    /* \"@openzeppelin/contracts/access/Ownable.sol\":3004:3010  _owner */\n  swap2\n  and\n  swap2\n    /* \"@openzeppelin/contracts/access/Ownable.sol\":3020:3037  _owner = newOwner */\n  swap1\n    /* \"@openzeppelin/contracts/access/Ownable.sol\":3004:3010  _owner */\n  dup3\n  swap1\n    /* \"@openzeppelin/contracts/access/Ownable.sol\":3052:3092  OwnershipTransferred(oldOwner, newOwner) */\n  0x8be0079c531659141344cd1fd0a4f28419497f9722a3daafe3b4186f6b6457e0\n  swap1\n    /* \"@openzeppelin/contracts/access/Ownable.sol\":2985:3001  address oldOwner */\n  0x00\n  swap1\n    /* \"@openzeppelin/contracts/access/Ownable.sol\":3052:3092  OwnershipTransferred(oldOwner, newOwner) */\n  log3\n    /* \"@openzeppelin/contracts/access/Ownable.sol\":2975:3099  {... */\n  pop\n    /* \"@openzeppelin/contracts/access/Ownable.sol\":2912:3099  function _transferOwnership(address newOwner) internal virtual {... */\n  pop\n  jump\t// out\n    /* \"#utility.yul\":14:141   */\ntag_21:\n    /* \"#utility.yul\":75:85   */\n  0x4e487b71\n    /* \"#utility.yul\":70:73   */\n  0xe0\n    /* \"#utility.yul\":66:86   */\n  shl\n    /* \"#utility.yul\":63:64   */\n  0x00\n    /* \"#utility.yul\":56:87   */\n  mstore\n    /* \"#utility.yul\":106:110   */\n  0x41\n    /* \"#utility.yul\":103:104   */\n  0x04\n    /* \"#utility.yul\":96:111   */\n  mstore\n    /* \"#utility.yul\":130:134   */\n  0x24\n    /* \"#utility.yul\":127:128   */\n  0x00\n    /* \"#utility.yul\":120:135   */\n  revert\n    /* \"#utility.yul\":146:986   */\ntag_22:\n    /* \"#utility.yul\":200:205   */\n  0x00\n    /* \"#utility.yul\":253:256   */\n  dup3\n    /* \"#utility.yul\":246:250   */\n  0x1f\n    /* \"#utility.yul\":238:244   */\n  dup4\n    /* \"#utility.yul\":234:251   */\n  add\n    /* \"#utility.yul\":230:257   */\n  slt\n    /* \"#utility.yul\":220:275   */\n  tag_30\n  jumpi\n    /* \"#utility.yul\":271:272   */\n  0x00\n    /* \"#utility.yul\":268:269   */\n  dup1\n    /* \"#utility.yul\":261:273   */\n  revert\n    /* \"#utility.yul\":220:275   */\ntag_30:\n    /* \"#utility.yul\":294:307   */\n  dup2\n  mload\n  sub(shl(0x40, 0x01), 0x01)\n    /* \"#utility.yul\":356:366   */\n  dup1\n  dup3\n  gt\n    /* \"#utility.yul\":353:389   */\n  iszero\n  tag_32\n  jumpi\n    /* \"#utility.yul\":369:387   */\n  tag_32\n  tag_21\n  jump\t// in\ntag_32:\n    /* \"#utility.yul\":444:446   */\n  0x40\n    /* \"#utility.yul\":438:447   */\n  mload\n    /* \"#utility.yul\":412:414   */\n  0x1f\n    /* \"#utility.yul\":498:511   */\n  dup4\n  add\n  not(0x1f)\n    /* \"#utility.yul\":494:516   */\n  swap1\n  dup2\n  and\n    /* \"#utility.yul\":518:520   */\n  0x3f\n    /* \"#utility.yul\":490:521   */\n  add\n    /* \"#utility.yul\":486:526   */\n  and\n    /* \"#utility.yul\":474:527   */\n  dup2\n  add\n  swap1\n    /* \"#utility.yul\":542:560   */\n  dup3\n  dup3\n  gt\n    /* \"#utility.yul\":562:584   */\n  dup2\n  dup4\n  lt\n    /* \"#utility.yul\":539:585   */\n  or\n    /* \"#utility.yul\":536:608   */\n  iszero\n  tag_34\n  jumpi\n    /* \"#utility.yul\":588:606   */\n  tag_34\n  tag_21\n  jump\t// in\ntag_34:\n    /* \"#utility.yul\":628:638   */\n  dup2\n    /* \"#utility.yul\":624:626   */\n  0x40\n    /* \"#utility.yul\":617:639   */\n  mstore\n    /* \"#utility.yul\":663:665   */\n  dup4\n    /* \"#utility.yul\":655:661   */\n  dup2\n    /* \"#utility.yul\":648:666   */\n  mstore\n    /* \"#utility.yul\":685:689   */\n  0x20\n    /* \"#utility.yul\":675:689   */\n  swap3\n  pop\n    /* \"#utility.yul\":730:733   */\n  dup7\n    /* \"#utility.yul\":725:727   */\n  dup4\n    /* \"#utility.yul\":720:722   */\n  dup6\n    /* \"#utility.yul\":712:718   */\n  dup9\n    /* \"#utility.yul\":708:723   */\n  add\n    /* \"#utility.yul\":704:728   */\n  add\n    /* \"#utility.yul\":701:734   */\n  gt\n    /* \"#utility.yul\":698:751   */\n  iszero\n  tag_35\n  jumpi\n    /* \"#utility.yul\":747:748   */\n  0x00\n    /* \"#utility.yul\":744:745   */\n  dup1\n    /* \"#utility.yul\":737:749   */\n  revert\n    /* \"#utility.yul\":698:751   */\ntag_35:\n    /* \"#utility.yul\":769:770   */\n  0x00\n    /* \"#utility.yul\":760:770   */\n  swap2\n  pop\n    /* \"#utility.yul\":779:912   */\ntag_36:\n    /* \"#utility.yul\":793:795   */\n  dup4\n    /* \"#utility.yul\":790:791   */\n  dup3\n    /* \"#utility.yul\":787:796   */\n  lt\n    /* \"#utility.yul\":779:912   */\n  iszero\n  tag_38\n  jumpi\n    /* \"#utility.yul\":881:895   */\n  dup6\n  dup3\n  add\n    /* \"#utility.yul\":877:900   */\n  dup4\n  add\n    /* \"#utility.yul\":871:901   */\n  mload\n    /* \"#utility.yul\":850:864   */\n  dup2\n  dup4\n  add\n    /* \"#utility.yul\":846:869   */\n  dup5\n  add\n    /* \"#utility.yul\":839:902   */\n  mstore\n    /* \"#utility.yul\":804:814   */\n  swap1\n  dup3\n  add\n  swap1\n    /* \"#utility.yul\":779:912   */\n  jump(tag_36)\ntag_38:\n    /* \"#utility.yul\":954:955   */\n  0x00\n    /* \"#utility.yul\":932:947   */\n  swap4\n  dup2\n  add\n    /* \"#utility.yul\":928:952   */\n  swap1\n  swap3\n  add\n    /* \"#utility.yul\":921:956   */\n  swap3\n  swap1\n  swap3\n  mstore\n    /* \"#utility.yul\":936:942   */\n  swap5\n    /* \"#utility.yul\":146:986   */\n  swap4\n  pop\n  pop\n  pop\n  pop\n  jump\t// out\n    /* \"#utility.yul\":991:1925   */\ntag_3:\n    /* \"#utility.yul\":1118:1124   */\n  0x00\n    /* \"#utility.yul\":1126:1132   */\n  dup1\n    /* \"#utility.yul\":1134:1140   */\n  0x00\n    /* \"#utility.yul\":1142:1148   */\n  dup1\n    /* \"#utility.yul\":1195:1198   */\n  0x80\n    /* \"#utility.yul\":1183:1192   */\n  dup6\n    /* \"#utility.yul\":1174:1181   */\n  dup8\n    /* \"#utility.yul\":1170:1193   */\n  sub\n    /* \"#utility.yul\":1166:1199   */\n  slt\n    /* \"#utility.yul\":1163:1216   */\n  iszero\n  tag_40\n  jumpi\n    /* \"#utility.yul\":1212:1213   */\n  0x00\n    /* \"#utility.yul\":1209:1210   */\n  dup1\n    /* \"#utility.yul\":1202:1214   */\n  revert\n    /* \"#utility.yul\":1163:1216   */\ntag_40:\n    /* \"#utility.yul\":1239:1255   */\n  dup5\n  mload\n  sub(shl(0x40, 0x01), 0x01)\n    /* \"#utility.yul\":1304:1318   */\n  dup1\n  dup3\n  gt\n    /* \"#utility.yul\":1301:1335   */\n  iszero\n  tag_41\n  jumpi\n    /* \"#utility.yul\":1331:1332   */\n  0x00\n    /* \"#utility.yul\":1328:1329   */\n  dup1\n    /* \"#utility.yul\":1321:1333   */\n  revert\n    /* \"#utility.yul\":1301:1335   */\ntag_41:\n    /* \"#utility.yul\":1354:1415   */\n  tag_42\n    /* \"#utility.yul\":1407:1414   */\n  dup9\n    /* \"#utility.yul\":1398:1404   */\n  dup4\n    /* \"#utility.yul\":1387:1396   */\n  dup10\n    /* \"#utility.yul\":1383:1405   */\n  add\n    /* \"#utility.yul\":1354:1415   */\n  tag_22\n  jump\t// in\ntag_42:\n    /* \"#utility.yul\":1344:1415   */\n  swap6\n  pop\n    /* \"#utility.yul\":1461:1463   */\n  0x20\n    /* \"#utility.yul\":1450:1459   */\n  dup8\n    /* \"#utility.yul\":1446:1464   */\n  add\n    /* \"#utility.yul\":1440:1465   */\n  mload\n    /* \"#utility.yul\":1424:1465   */\n  swap2\n  pop\n    /* \"#utility.yul\":1490:1492   */\n  dup1\n    /* \"#utility.yul\":1480:1488   */\n  dup3\n    /* \"#utility.yul\":1477:1493   */\n  gt\n    /* \"#utility.yul\":1474:1510   */\n  iszero\n  tag_43\n  jumpi\n    /* \"#utility.yul\":1506:1507   */\n  0x00\n    /* \"#utility.yul\":1503:1504   */\n  dup1\n    /* \"#utility.yul\":1496:1508   */\n  revert\n    /* \"#utility.yul\":1474:1510   */\ntag_43:\n    /* \"#utility.yul\":1529:1592   */\n  tag_44\n    /* \"#utility.yul\":1584:1591   */\n  dup9\n    /* \"#utility.yul\":1573:1581   */\n  dup4\n    /* \"#utility.yul\":1562:1571   */\n  dup10\n    /* \"#utility.yul\":1558:1582   */\n  add\n    /* \"#utility.yul\":1529:1592   */\n  tag_22\n  jump\t// in\ntag_44:\n    /* \"#utility.yul\":1635:1637   */\n  0x40\n    /* \"#utility.yul\":1620:1638   */\n  dup9\n  add\n    /* \"#utility.yul\":1614:1639   */\n  mload\n    /* \"#utility.yul\":1519:1592   */\n  swap1\n  swap6\n  pop\n    /* \"#utility.yul\":1614:1639   */\n  swap2\n  pop\n  sub(shl(0xa0, 0x01), 0x01)\n    /* \"#utility.yul\":1668:1699   */\n  dup3\n  and\n    /* \"#utility.yul\":1658:1700   */\n  dup3\n  eq\n    /* \"#utility.yul\":1648:1718   */\n  tag_45\n  jumpi\n    /* \"#utility.yul\":1714:1715   */\n  0x00\n    /* \"#utility.yul\":1711:1712   */\n  dup1\n    /* \"#utility.yul\":1704:1716   */\n  revert\n    /* \"#utility.yul\":1648:1718   */\ntag_45:\n    /* \"#utility.yul\":1788:1790   */\n  0x60\n    /* \"#utility.yul\":1773:1791   */\n  dup8\n  add\n    /* \"#utility.yul\":1767:1792   */\n  mload\n    /* \"#utility.yul\":1737:1742   */\n  swap2\n  swap4\n  pop\n    /* \"#utility.yul\":1804:1820   */\n  dup1\n  dup3\n  gt\n    /* \"#utility.yul\":1801:1837   */\n  iszero\n  tag_46\n  jumpi\n    /* \"#utility.yul\":1833:1834   */\n  0x00\n    /* \"#utility.yul\":1830:1831   */\n  dup1\n    /* \"#utility.yul\":1823:1835   */\n  revert\n    /* \"#utility.yul\":1801:1837   */\ntag_46:\n  pop\n    /* \"#utility.yul\":1856:1919   */\n  tag_47\n    /* \"#utility.yul\":1911:1918   */\n  dup8\n    /* \"#utility.yul\":1900:1908   */\n  dup3\n    /* \"#utility.yul\":1889:1898   */\n  dup9\n    /* \"#utility.yul\":1885:1909   */\n  add\n    /* \"#utility.yul\":1856:1919   */\n  tag_22\n  jump\t// in\ntag_47:\n    /* \"#utility.yul\":1846:1919   */\n  swap2\n  pop\n  pop\n    /* \"#utility.yul\":991:1925   */\n  swap3\n  swap6\n  swap2\n  swap5\n  pop\n  swap3\n  pop\n  jump\t// out\n    /* \"#utility.yul\":1930:2310   */\ntag_23:\n    /* \"#utility.yul\":2009:2010   */\n  0x01\n    /* \"#utility.yul\":2005:2017   */\n  dup2\n  dup2\n  shr\n  swap1\n    /* \"#utility.yul\":2052:2064   */\n  dup3\n  and\n  dup1\n    /* \"#utility.yul\":2073:2134   */\n  tag_49\n  jumpi\n    /* \"#utility.yul\":2127:2131   */\n  0x7f\n    /* \"#utility.yul\":2119:2125   */\n  dup3\n    /* \"#utility.yul\":2115:2132   */\n  and\n    /* \"#utility.yul\":2105:2132   */\n  swap2\n  pop\n    /* \"#utility.yul\":2073:2134   */\ntag_49:\n    /* \"#utility.yul\":2180:2182   */\n  0x20\n    /* \"#utility.yul\":2172:2178   */\n  dup3\n    /* \"#utility.yul\":2169:2183   */\n  lt\n    /* \"#utility.yul\":2149:2167   */\n  dup2\n    /* \"#utility.yul\":2146:2184   */\n  sub\n    /* \"#utility.yul\":2143:2304   */\n  tag_50\n  jumpi\n    /* \"#utility.yul\":2226:2236   */\n  0x4e487b71\n    /* \"#utility.yul\":2221:2224   */\n  0xe0\n    /* \"#utility.yul\":2217:2237   */\n  shl\n    /* \"#utility.yul\":2214:2215   */\n  0x00\n    /* \"#utility.yul\":2207:2238   */\n  mstore\n    /* \"#utility.yul\":2261:2265   */\n  0x22\n    /* \"#utility.yul\":2258:2259   */\n  0x04\n    /* \"#utility.yul\":2251:2266   */\n  mstore\n    /* \"#utility.yul\":2289:2293   */\n  0x24\n    /* \"#utility.yul\":2286:2287   */\n  0x00\n    /* \"#utility.yul\":2279:2294   */\n  revert\n    /* \"#utility.yul\":2143:2304   */\ntag_50:\n  pop\n    /* \"#utility.yul\":1930:2310   */\n  swap2\n  swap1\n  pop\n  jump\t// out\n    /* \"#utility.yul\":2441:2986   */\ntag_25:\n    /* \"#utility.yul\":2543:2545   */\n  0x1f\n    /* \"#utility.yul\":2538:2541   */\n  dup3\n    /* \"#utility.yul\":2535:2546   */\n  gt\n    /* \"#utility.yul\":2532:2980   */\n  iszero\n  tag_53\n  jumpi\n    /* \"#utility.yul\":2579:2580   */\n  0x00\n    /* \"#utility.yul\":2604:2609   */\n  dup2\n    /* \"#utility.yul\":2600:2602   */\n  dup2\n    /* \"#utility.yul\":2593:2610   */\n  mstore\n    /* \"#utility.yul\":2649:2653   */\n  0x20\n    /* \"#utility.yul\":2645:2647   */\n  dup2\n    /* \"#utility.yul\":2635:2654   */\n  keccak256\n    /* \"#utility.yul\":2719:2721   */\n  0x1f\n    /* \"#utility.yul\":2707:2717   */\n  dup6\n    /* \"#utility.yul\":2703:2722   */\n  add\n    /* \"#utility.yul\":2700:2701   */\n  0x05\n    /* \"#utility.yul\":2696:2723   */\n  shr\n    /* \"#utility.yul\":2690:2694   */\n  dup2\n    /* \"#utility.yul\":2686:2724   */\n  add\n    /* \"#utility.yul\":2755:2759   */\n  0x20\n    /* \"#utility.yul\":2743:2753   */\n  dup7\n    /* \"#utility.yul\":2740:2760   */\n  lt\n    /* \"#utility.yul\":2737:2784   */\n  iszero\n  tag_54\n  jumpi\n  pop\n    /* \"#utility.yul\":2778:2782   */\n  dup1\n    /* \"#utility.yul\":2737:2784   */\ntag_54:\n    /* \"#utility.yul\":2833:2835   */\n  0x1f\n    /* \"#utility.yul\":2828:2831   */\n  dup6\n    /* \"#utility.yul\":2824:2836   */\n  add\n    /* \"#utility.yul\":2821:2822   */\n  0x05\n    /* \"#utility.yul\":2817:2837   */\n  shr\n    /* \"#utility.yul\":2811:2815   */\n  dup3\n    /* \"#utility.yul\":2807:2838   */\n  add\n    /* \"#utility.yul\":2797:2838   */\n  swap2\n  pop\n    /* \"#utility.yul\":2888:2970   */\ntag_55:\n    /* \"#utility.yul\":2906:2908   */\n  dup2\n    /* \"#utility.yul\":2899:2904   */\n  dup2\n    /* \"#utility.yul\":2896:2909   */\n  lt\n    /* \"#utility.yul\":2888:2970   */\n  iszero\n  tag_57\n  jumpi\n    /* \"#utility.yul\":2951:2968   */\n  dup3\n  dup2\n  sstore\n    /* \"#utility.yul\":2932:2933   */\n  0x01\n    /* \"#utility.yul\":2921:2934   */\n  add\n    /* \"#utility.yul\":2888:2970   */\n  jump(tag_55)\ntag_57:\n    /* \"#utility.yul\":2892:2895   */\n  pop\n  pop\n  pop\n    /* \"#utility.yul\":2532:2980   */\ntag_53:\n    /* \"#utility.yul\":2441:2986   */\n  pop\n  pop\n  pop\n  jump\t// out\n    /* \"#utility.yul\":3162:4514   */\ntag_9:\n    /* \"#utility.yul\":3282:3292   */\n  dup2\n  mload\n  sub(shl(0x40, 0x01), 0x01)\n    /* \"#utility.yul\":3304:3334   */\n  dup2\n  gt\n    /* \"#utility.yul\":3301:3357   */\n  iszero\n  tag_61\n  jumpi\n    /* \"#utility.yul\":3337:3355   */\n  tag_61\n  tag_21\n  jump\t// in\ntag_61:\n    /* \"#utility.yul\":3366:3463   */\n  tag_62\n    /* \"#utility.yul\":3456:3462   */\n  dup2\n    /* \"#utility.yul\":3416:3454   */\n  tag_63\n    /* \"#utility.yul\":3448:3452   */\n  dup5\n    /* \"#utility.yul\":3442:3453   */\n  sload\n    /* \"#utility.yul\":3416:3454   */\n  tag_23\n  jump\t// in\ntag_63:\n    /* \"#utility.yul\":3410:3414   */\n  dup5\n    /* \"#utility.yul\":3366:3463   */\n  tag_25\n  jump\t// in\ntag_62:\n    /* \"#utility.yul\":3518:3522   */\n  0x20\n  dup1\n    /* \"#utility.yul\":3582:3584   */\n  0x1f\n    /* \"#utility.yul\":3571:3585   */\n  dup4\n  gt\n    /* \"#utility.yul\":3599:3600   */\n  0x01\n    /* \"#utility.yul\":3594:4257   */\n  dup2\n  eq\n  tag_65\n  jumpi\n    /* \"#utility.yul\":4301:4302   */\n  0x00\n    /* \"#utility.yul\":4318:4324   */\n  dup5\n    /* \"#utility.yul\":4315:4404   */\n  iszero\n  tag_66\n  jumpi\n  pop\n    /* \"#utility.yul\":4370:4389   */\n  dup6\n  dup4\n  add\n    /* \"#utility.yul\":4364:4390   */\n  mload\n    /* \"#utility.yul\":4315:4404   */\ntag_66:\n  not(0x00)\n    /* \"#utility.yul\":3119:3120   */\n  0x03\n    /* \"#utility.yul\":3115:3126   */\n  dup7\n  swap1\n  shl\n    /* \"#utility.yul\":3111:3135   */\n  shr\n    /* \"#utility.yul\":3107:3136   */\n  not\n    /* \"#utility.yul\":3097:3137   */\n  and\n    /* \"#utility.yul\":3143:3144   */\n  0x01\n    /* \"#utility.yul\":3139:3150   */\n  dup6\n  swap1\n  shl\n    /* \"#utility.yul\":3094:3151   */\n  or\n    /* \"#utility.yul\":4417:4498   */\n  dup6\n  sstore\n    /* \"#utility.yul\":3564:4508   */\n  jump(tag_57)\n    /* \"#utility.yul\":3594:4257   */\ntag_65:\n    /* \"#utility.yul\":2388:2389   */\n  0x00\n    /* \"#utility.yul\":2381:2395   */\n  dup6\n  dup2\n  mstore\n    /* \"#utility.yul\":2425:2429   */\n  0x20\n    /* \"#utility.yul\":2412:2430   */\n  dup2\n  keccak256\n  not(0x1f)\n    /* \"#utility.yul\":3630:3650   */\n  dup7\n  and\n  swap2\n    /* \"#utility.yul\":3748:3984   */\ntag_69:\n    /* \"#utility.yul\":3762:3769   */\n  dup3\n    /* \"#utility.yul\":3759:3760   */\n  dup2\n    /* \"#utility.yul\":3756:3770   */\n  lt\n    /* \"#utility.yul\":3748:3984   */\n  iszero\n  tag_71\n  jumpi\n    /* \"#utility.yul\":3851:3870   */\n  dup9\n  dup7\n  add\n    /* \"#utility.yul\":3845:3871   */\n  mload\n    /* \"#utility.yul\":3830:3872   */\n  dup3\n  sstore\n    /* \"#utility.yul\":3943:3970   */\n  swap5\n  dup5\n  add\n  swap5\n    /* \"#utility.yul\":3911:3912   */\n  0x01\n    /* \"#utility.yul\":3899:3913   */\n  swap1\n  swap2\n  add\n  swap1\n    /* \"#utility.yul\":3778:3797   */\n  dup5\n  add\n    /* \"#utility.yul\":3748:3984   */\n  jump(tag_69)\ntag_71:\n    /* \"#utility.yul\":3752:3755   */\n  pop\n    /* \"#utility.yul\":4012:4018   */\n  dup6\n    /* \"#utility.yul\":4003:4010   */\n  dup3\n    /* \"#utility.yul\":4000:4019   */\n  lt\n    /* \"#utility.yul\":3997:4198   */\n  iszero\n  tag_72\n  jumpi\n    /* \"#utility.yul\":4073:4092   */\n  dup8\n  dup6\n  add\n    /* \"#utility.yul\":4067:4093   */\n  mload\n  not(0x00)\n    /* \"#utility.yul\":4156:4157   */\n  0x03\n    /* \"#utility.yul\":4152:4166   */\n  dup9\n  swap1\n  shl\n    /* \"#utility.yul\":4168:4171   */\n  0xf8\n    /* \"#utility.yul\":4148:4172   */\n  and\n    /* \"#utility.yul\":4144:4181   */\n  shr\n    /* \"#utility.yul\":4140:4182   */\n  not\n    /* \"#utility.yul\":4125:4183   */\n  and\n    /* \"#utility.yul\":4110:4184   */\n  dup2\n  sstore\n    /* \"#utility.yul\":3997:4198   */\ntag_72:\n  pop\n  pop\n  pop\n  pop\n  pop\n    /* \"#utility.yul\":4244:4245   */\n  0x01\n    /* \"#utility.yul\":4228:4242   */\n  swap1\n  dup2\n  shl\n    /* \"#utility.yul\":4224:4246   */\n  add\n    /* \"#utility.yul\":4211:4247   */\n  swap1\n  sstore\n  pop\n    /* \"#utility.yul\":3162:4514   */\n  jump\t// out\n    /* \"#utility.yul\":4519:4722   */\ntag_27:\n    /* \"FundRaising.sol\":262:7279  contract FundRaising is ERC721URIStorage, Ownable, IERC5023 {... */\n  dataSize(sub_0)\n  dup1\n  dataOffset(sub_0)\n  0x00\n  codecopy\n  0x00\n  return\nstop\n\nsub_0: assembly {\n        /* \"FundRaising.sol\":262:7279  contract FundRaising is ERC721URIStorage, Ownable, IERC5023 {... */\n      mstore(0x40, 0x80)\n      jumpi(tag_1, lt(calldatasize, 0x04))\n      shr(0xe0, calldataload(0x00))\n      dup1\n      0x01ffc9a7\n      eq\n      tag_2\n      jumpi\n      dup1\n      0x06fdde03\n      eq\n      tag_3\n      jumpi\n      dup1\n      0x081812fc\n      eq\n      tag_4\n      jumpi\n      dup1\n      0x095ea7b3\n      eq\n      tag_5\n      jumpi\n      dup1\n      0x162094c4\n      eq\n      tag_6\n      jumpi\n      dup1\n      0x17f69222\n      eq\n      tag_7\n      jumpi\n      dup1\n      0x23b872dd\n      eq\n      tag_8\n      jumpi\n      dup1\n      0x24c9cd4e\n      eq\n      tag_9\n      jumpi\n      dup1\n      0x3d14a02b\n      eq\n      tag_10\n      jumpi\n      dup1\n      0x40c10f19\n      eq\n      tag_11\n      jumpi\n      dup1\n      0x42842e0e\n      eq\n      tag_12\n      jumpi\n      dup1\n      0x45714684\n      eq\n      tag_13\n      jumpi\n      dup1\n      0x55f804b3\n      eq\n      tag_14\n      jumpi\n      dup1\n      0x6352211e\n      eq\n      tag_15\n      jumpi\n      dup1\n      0x6c0360eb\n      eq\n      tag_16\n      jumpi\n      dup1\n      0x70a08231\n      eq\n      tag_17\n      jumpi\n      dup1\n      0x715018a6\n      eq\n      tag_18\n      jumpi\n      dup1\n      0x8da5cb5b\n      eq\n      tag_19\n      jumpi\n      dup1\n      0x95d89b41\n      eq\n      tag_20\n      jumpi\n      dup1\n      0xa22cb465\n      eq\n      tag_21\n      jumpi\n      dup1\n      0xb384abef\n      eq\n      tag_22\n      jumpi\n      dup1\n      0xb88d4fde\n      eq\n      tag_23\n      jumpi\n      dup1\n      0xc87b56dd\n      eq\n      tag_24\n      jumpi\n      dup1\n      0xd312998f\n      eq\n      tag_25\n      jumpi\n      dup1\n      0xd8d7c169\n      eq\n      tag_26\n      jumpi\n      dup1\n      0xded6338b\n      eq\n      tag_27\n      jumpi\n      dup1\n      0xe985e9c5\n      eq\n      tag_28\n      jumpi\n      dup1\n      0xf2fde38b\n      eq\n      tag_29\n      jumpi\n    tag_1:\n      0x00\n      dup1\n      revert\n        /* \"@openzeppelin/contracts/token/ERC721/extensions/ERC721URIStorage.sol\":937:1144  function supportsInterface(bytes4 interfaceId) public view virtual override(ERC721, IERC165) returns (bool) {... */\n    tag_2:\n      callvalue\n      dup1\n      iszero\n      tag_30\n      jumpi\n      0x00\n      dup1\n      revert\n    tag_30:\n      pop\n      tag_31\n      tag_32\n      calldatasize\n      0x04\n      tag_33\n      jump\t// in\n    tag_32:\n      tag_34\n      jump\t// in\n    tag_31:\n      mload(0x40)\n        /* \"#utility.yul\":565:579   */\n      swap1\n      iszero\n        /* \"#utility.yul\":558:580   */\n      iszero\n        /* \"#utility.yul\":540:581   */\n      dup2\n      mstore\n        /* \"#utility.yul\":528:530   */\n      0x20\n        /* \"#utility.yul\":513:531   */\n      add\n        /* \"@openzeppelin/contracts/token/ERC721/extensions/ERC721URIStorage.sol\":937:1144  function supportsInterface(bytes4 interfaceId) public view virtual override(ERC721, IERC165) returns (bool) {... */\n    tag_35:\n      mload(0x40)\n      dup1\n      swap2\n      sub\n      swap1\n      return\n        /* \"@openzeppelin/contracts/token/ERC721/ERC721.sol\":2365:2454  function name() public view virtual returns (string memory) {... */\n    tag_3:\n      callvalue\n      dup1\n      iszero\n      tag_37\n      jumpi\n      0x00\n      dup1\n      revert\n    tag_37:\n      pop\n      tag_38\n      tag_39\n      jump\t// in\n    tag_38:\n      mload(0x40)\n      tag_35\n      swap2\n      swap1\n      tag_41\n      jump\t// in\n        /* \"@openzeppelin/contracts/token/ERC721/ERC721.sol\":3497:3651  function getApproved(uint256 tokenId) public view virtual returns (address) {... */\n    tag_4:\n      callvalue\n      dup1\n      iszero\n      tag_42\n      jumpi\n      0x00\n      dup1\n      revert\n    tag_42:\n      pop\n      tag_43\n      tag_44\n      calldatasize\n      0x04\n      tag_45\n      jump\t// in\n    tag_44:\n      tag_46\n      jump\t// in\n    tag_43:\n      mload(0x40)\n      tag_35\n      swap2\n      swap1\n      tag_48\n      jump\t// in\n        /* \"@openzeppelin/contracts/token/ERC721/ERC721.sol\":3323:3436  function approve(address to, uint256 tokenId) public virtual {... */\n    tag_5:\n      callvalue\n      dup1\n      iszero\n      tag_49\n      jumpi\n      0x00\n      dup1\n      revert\n    tag_49:\n      pop\n      tag_50\n      tag_51\n      calldatasize\n      0x04\n      tag_52\n      jump\t// in\n    tag_51:\n      tag_53\n      jump\t// in\n    tag_50:\n      stop\n        /* \"FundRaising.sol\":1610:1759  function setTokenURI(uint256 tokenId, string memory tokenURI)... */\n    tag_6:\n      callvalue\n      dup1\n      iszero\n      tag_54\n      jumpi\n      0x00\n      dup1\n      revert\n    tag_54:\n      pop\n      tag_50\n      tag_56\n      calldatasize\n      0x04\n      tag_57\n      jump\t// in\n    tag_56:\n      tag_58\n      jump\t// in\n        /* \"FundRaising.sol\":3461:4901  function buyShares(... */\n    tag_7:\n      tag_50\n      tag_60\n      calldatasize\n      0x04\n      tag_61\n      jump\t// in\n    tag_60:\n      tag_62\n      jump\t// in\n        /* \"@openzeppelin/contracts/token/ERC721/ERC721.sol\":4143:4722  function transferFrom(address from, address to, uint256 tokenId) public virtual  {... */\n    tag_8:\n      callvalue\n      dup1\n      iszero\n      tag_63\n      jumpi\n      0x00\n      dup1\n      revert\n    tag_63:\n      pop\n      tag_50\n      tag_65\n      calldatasize\n      0x04\n      tag_66\n      jump\t// in\n    tag_65:\n      tag_67\n      jump\t// in\n        /* \"FundRaising.sol\":2986:3455  function registerAssetForFundraising(uint256 tokenId, uint256 totalShares)... */\n    tag_9:\n      callvalue\n      dup1\n      iszero\n      tag_68\n      jumpi\n      0x00\n      dup1\n      revert\n    tag_68:\n      pop\n      tag_50\n      tag_70\n      calldatasize\n      0x04\n      tag_71\n      jump\t// in\n    tag_70:\n      tag_72\n      jump\t// in\n        /* \"FundRaising.sol\":6685:7115  function initiateSelling(address to,uint256 tokenId)public{... */\n    tag_10:\n      callvalue\n      dup1\n      iszero\n      tag_73\n      jumpi\n      0x00\n      dup1\n      revert\n    tag_73:\n      pop\n      tag_50\n      tag_75\n      calldatasize\n      0x04\n      tag_52\n      jump\t// in\n    tag_75:\n      tag_76\n      jump\t// in\n        /* \"FundRaising.sol\":1497:1604  function mint(address account, uint256 tokenId) external onlyOwner {... */\n    tag_11:\n      callvalue\n      dup1\n      iszero\n      tag_77\n      jumpi\n      0x00\n      dup1\n      revert\n    tag_77:\n      pop\n      tag_50\n      tag_79\n      calldatasize\n      0x04\n      tag_52\n      jump\t// in\n    tag_79:\n      tag_80\n      jump\t// in\n        /* \"@openzeppelin/contracts/token/ERC721/ERC721.sol\":4788:4928  function safeTransferFrom(address from, address to, uint256 tokenId) public virtual {... */\n    tag_12:\n      callvalue\n      dup1\n      iszero\n      tag_81\n      jumpi\n      0x00\n      dup1\n      revert\n    tag_81:\n      pop\n      tag_50\n      tag_83\n      calldatasize\n      0x04\n      tag_66\n      jump\t// in\n    tag_83:\n      tag_84\n      jump\t// in\n        /* \"FundRaising.sol\":4907:5138  function initiateVoting(uint256 tokenId) public {... */\n    tag_13:\n      callvalue\n      dup1\n      iszero\n      tag_85\n      jumpi\n      0x00\n      dup1\n      revert\n    tag_85:\n      pop\n      tag_50\n      tag_87\n      calldatasize\n      0x04\n      tag_45\n      jump\t// in\n    tag_87:\n      tag_88\n      jump\t// in\n        /* \"FundRaising.sol\":1765:1863  function setBaseURI(string memory baseURI_) external onlyOwner {... */\n    tag_14:\n      callvalue\n      dup1\n      iszero\n      tag_89\n      jumpi\n      0x00\n      dup1\n      revert\n    tag_89:\n      pop\n      tag_50\n      tag_91\n      calldatasize\n      0x04\n      tag_92\n      jump\t// in\n    tag_91:\n      tag_93\n      jump\t// in\n        /* \"@openzeppelin/contracts/token/ERC721/ERC721.sol\":2185:2303  function ownerOf(uint256 tokenId) public view virtual returns (address) {... */\n    tag_15:\n      callvalue\n      dup1\n      iszero\n      tag_94\n      jumpi\n      0x00\n      dup1\n      revert\n    tag_94:\n      pop\n      tag_43\n      tag_96\n      calldatasize\n      0x04\n      tag_45\n      jump\t// in\n    tag_96:\n      tag_97\n      jump\t// in\n        /* \"FundRaising.sol\":328:349  string public baseURI */\n    tag_16:\n      callvalue\n      dup1\n      iszero\n      tag_99\n      jumpi\n      0x00\n      dup1\n      revert\n    tag_99:\n      pop\n      tag_38\n      tag_101\n      jump\t// in\n        /* \"@openzeppelin/contracts/token/ERC721/ERC721.sol\":1920:2128  function balanceOf(address owner) public view virtual returns (uint256) {... */\n    tag_17:\n      callvalue\n      dup1\n      iszero\n      tag_103\n      jumpi\n      0x00\n      dup1\n      revert\n    tag_103:\n      pop\n      tag_104\n      tag_105\n      calldatasize\n      0x04\n      tag_106\n      jump\t// in\n    tag_105:\n      tag_107\n      jump\t// in\n    tag_104:\n      mload(0x40)\n        /* \"#utility.yul\":5201:5226   */\n      swap1\n      dup2\n      mstore\n        /* \"#utility.yul\":5189:5191   */\n      0x20\n        /* \"#utility.yul\":5174:5192   */\n      add\n        /* \"@openzeppelin/contracts/token/ERC721/ERC721.sol\":1920:2128  function balanceOf(address owner) public view virtual returns (uint256) {... */\n      tag_35\n        /* \"#utility.yul\":5055:5232   */\n      jump\n        /* \"@openzeppelin/contracts/access/Ownable.sol\":2293:2394  function renounceOwnership() public virtual onlyOwner {... */\n    tag_18:\n      callvalue\n      dup1\n      iszero\n      tag_110\n      jumpi\n      0x00\n      dup1\n      revert\n    tag_110:\n      pop\n      tag_50\n      tag_112\n      jump\t// in\n        /* \"@openzeppelin/contracts/access/Ownable.sol\":1638:1723  function owner() public view virtual returns (address) {... */\n    tag_19:\n      callvalue\n      dup1\n      iszero\n      tag_113\n      jumpi\n      0x00\n      dup1\n      revert\n    tag_113:\n      pop\n      tag_43\n      tag_115\n      jump\t// in\n        /* \"@openzeppelin/contracts/token/ERC721/ERC721.sol\":2518:2611  function symbol() public view virtual returns (string memory) {... */\n    tag_20:\n      callvalue\n      dup1\n      iszero\n      tag_117\n      jumpi\n      0x00\n      dup1\n      revert\n    tag_117:\n      pop\n      tag_38\n      tag_119\n      jump\t// in\n        /* \"@openzeppelin/contracts/token/ERC721/ERC721.sol\":3718:3862  function setApprovalForAll(address operator, bool approved) public virtual {... */\n    tag_21:\n      callvalue\n      dup1\n      iszero\n      tag_121\n      jumpi\n      0x00\n      dup1\n      revert\n    tag_121:\n      pop\n      tag_50\n      tag_123\n      calldatasize\n      0x04\n      tag_124\n      jump\t// in\n    tag_123:\n      tag_125\n      jump\t// in\n        /* \"FundRaising.sol\":5194:5454  function vote(uint256 tokenId, uint256 sharedTokenId) external {... */\n    tag_22:\n      callvalue\n      dup1\n      iszero\n      tag_126\n      jumpi\n      0x00\n      dup1\n      revert\n    tag_126:\n      pop\n      tag_50\n      tag_128\n      calldatasize\n      0x04\n      tag_71\n      jump\t// in\n    tag_128:\n      tag_129\n      jump\t// in\n        /* \"@openzeppelin/contracts/token/ERC721/ERC721.sol\":4994:5202  function safeTransferFrom(address from, address to, uint256 tokenId, bytes memory data) public virtual {... */\n    tag_23:\n      callvalue\n      dup1\n      iszero\n      tag_130\n      jumpi\n      0x00\n      dup1\n      revert\n    tag_130:\n      pop\n      tag_50\n      tag_132\n      calldatasize\n      0x04\n      tag_133\n      jump\t// in\n    tag_132:\n      tag_134\n      jump\t// in\n        /* \"@openzeppelin/contracts/token/ERC721/extensions/ERC721URIStorage.sol\":1210:1803  function tokenURI(uint256 tokenId) public view virtual override returns (string memory) {... */\n    tag_24:\n      callvalue\n      dup1\n      iszero\n      tag_135\n      jumpi\n      0x00\n      dup1\n      revert\n    tag_135:\n      pop\n      tag_38\n      tag_137\n      calldatasize\n      0x04\n      tag_45\n      jump\t// in\n    tag_137:\n      tag_138\n      jump\t// in\n        /* \"FundRaising.sol\":2697:2980  function registerAsset(address Investor) public {... */\n    tag_25:\n      callvalue\n      dup1\n      iszero\n      tag_140\n      jumpi\n      0x00\n      dup1\n      revert\n    tag_140:\n      pop\n      tag_50\n      tag_142\n      calldatasize\n      0x04\n      tag_106\n      jump\t// in\n    tag_142:\n      tag_143\n      jump\t// in\n        /* \"FundRaising.sol\":5503:6679  function makeDecisionForSelling(uint256 tokenId) external onlyOwner {... */\n    tag_26:\n      callvalue\n      dup1\n      iszero\n      tag_144\n      jumpi\n      0x00\n      dup1\n      revert\n    tag_144:\n      pop\n      tag_50\n      tag_146\n      calldatasize\n      0x04\n      tag_45\n      jump\t// in\n    tag_146:\n      tag_147\n      jump\t// in\n        /* \"FundRaising.sol\":1973:2691  function share(address to, uint256 tokenIdToBeShared)... */\n    tag_27:\n      callvalue\n      dup1\n      iszero\n      tag_148\n      jumpi\n      0x00\n      dup1\n      revert\n    tag_148:\n      pop\n      tag_104\n      tag_150\n      calldatasize\n      0x04\n      tag_52\n      jump\t// in\n    tag_150:\n      tag_151\n      jump\t// in\n        /* \"@openzeppelin/contracts/token/ERC721/ERC721.sol\":3928:4081  function isApprovedForAll(address owner, address operator) public view virtual returns (bool) {... */\n    tag_28:\n      callvalue\n      dup1\n      iszero\n      tag_153\n      jumpi\n      0x00\n      dup1\n      revert\n    tag_153:\n      pop\n      tag_31\n      tag_155\n      calldatasize\n      0x04\n      tag_156\n      jump\t// in\n    tag_155:\n      tag_157\n      jump\t// in\n        /* \"@openzeppelin/contracts/access/Ownable.sol\":2543:2758  function transferOwnership(address newOwner) public virtual onlyOwner {... */\n    tag_29:\n      callvalue\n      dup1\n      iszero\n      tag_159\n      jumpi\n      0x00\n      dup1\n      revert\n    tag_159:\n      pop\n      tag_50\n      tag_161\n      calldatasize\n      0x04\n      tag_106\n      jump\t// in\n    tag_161:\n      tag_162\n      jump\t// in\n        /* \"@openzeppelin/contracts/token/ERC721/extensions/ERC721URIStorage.sol\":937:1144  function supportsInterface(bytes4 interfaceId) public view virtual override(ERC721, IERC165) returns (bool) {... */\n    tag_34:\n        /* \"@openzeppelin/contracts/token/ERC721/extensions/ERC721URIStorage.sol\":1039:1043  bool */\n      0x00\n      not(sub(shl(0xe0, 0x01), 0x01))\n        /* \"@openzeppelin/contracts/token/ERC721/extensions/ERC721URIStorage.sol\":1062:1097  interfaceId == ERC4906_INTERFACE_ID */\n      dup3\n      and\n      shl(0xe1, 0x24832483)\n      eq\n      dup1\n        /* \"@openzeppelin/contracts/token/ERC721/extensions/ERC721URIStorage.sol\":1062:1137  interfaceId == ERC4906_INTERFACE_ID || super.supportsInterface(interfaceId) */\n      tag_165\n      jumpi\n      pop\n        /* \"@openzeppelin/contracts/token/ERC721/extensions/ERC721URIStorage.sol\":1101:1137  super.supportsInterface(interfaceId) */\n      tag_165\n        /* \"@openzeppelin/contracts/token/ERC721/extensions/ERC721URIStorage.sol\":1125:1136  interfaceId */\n      dup3\n        /* \"@openzeppelin/contracts/token/ERC721/extensions/ERC721URIStorage.sol\":1101:1124  super.supportsInterface */\n      tag_166\n        /* \"@openzeppelin/contracts/token/ERC721/extensions/ERC721URIStorage.sol\":1101:1137  super.supportsInterface(interfaceId) */\n      jump\t// in\n    tag_165:\n        /* \"@openzeppelin/contracts/token/ERC721/extensions/ERC721URIStorage.sol\":1055:1137  return interfaceId == ERC4906_INTERFACE_ID || super.supportsInterface(interfaceId) */\n      swap3\n        /* \"@openzeppelin/contracts/token/ERC721/extensions/ERC721URIStorage.sol\":937:1144  function supportsInterface(bytes4 interfaceId) public view virtual override(ERC721, IERC165) returns (bool) {... */\n      swap2\n      pop\n      pop\n      jump\t// out\n        /* \"@openzeppelin/contracts/token/ERC721/ERC721.sol\":2365:2454  function name() public view virtual returns (string memory) {... */\n    tag_39:\n        /* \"@openzeppelin/contracts/token/ERC721/ERC721.sol\":2410:2423  string memory */\n      0x60\n        /* \"@openzeppelin/contracts/token/ERC721/ERC721.sol\":2442:2447  _name */\n      0x00\n        /* \"@openzeppelin/contracts/token/ERC721/ERC721.sol\":2435:2447  return _name */\n      dup1\n      sload\n      tag_168\n      swap1\n      tag_169\n      jump\t// in\n    tag_168:\n      dup1\n      0x1f\n      add\n      0x20\n      dup1\n      swap2\n      div\n      mul\n      0x20\n      add\n      mload(0x40)\n      swap1\n      dup2\n      add\n      0x40\n      mstore\n      dup1\n      swap3\n      swap2\n      swap1\n      dup2\n      dup2\n      mstore\n      0x20\n      add\n      dup3\n      dup1\n      sload\n      tag_170\n      swap1\n      tag_169\n      jump\t// in\n    tag_170:\n      dup1\n      iszero\n      tag_171\n      jumpi\n      dup1\n      0x1f\n      lt\n      tag_172\n      jumpi\n      0x0100\n      dup1\n      dup4\n      sload\n      div\n      mul\n      dup4\n      mstore\n      swap2\n      0x20\n      add\n      swap2\n      jump(tag_171)\n    tag_172:\n      dup3\n      add\n      swap2\n      swap1\n      0x00\n      mstore\n      keccak256(0x00, 0x20)\n      swap1\n    tag_173:\n      dup2\n      sload\n      dup2\n      mstore\n      swap1\n      0x01\n      add\n      swap1\n      0x20\n      add\n      dup1\n      dup4\n      gt\n      tag_173\n      jumpi\n      dup3\n      swap1\n      sub\n      0x1f\n      and\n      dup3\n      add\n      swap2\n    tag_171:\n      pop\n      pop\n      pop\n      pop\n      pop\n      swap1\n      pop\n        /* \"@openzeppelin/contracts/token/ERC721/ERC721.sol\":2365:2454  function name() public view virtual returns (string memory) {... */\n      swap1\n      jump\t// out\n        /* \"@openzeppelin/contracts/token/ERC721/ERC721.sol\":3497:3651  function getApproved(uint256 tokenId) public view virtual returns (address) {... */\n    tag_46:\n        /* \"@openzeppelin/contracts/token/ERC721/ERC721.sol\":3564:3571  address */\n      0x00\n        /* \"@openzeppelin/contracts/token/ERC721/ERC721.sol\":3583:3605  _requireOwned(tokenId) */\n      tag_175\n        /* \"@openzeppelin/contracts/token/ERC721/ERC721.sol\":3597:3604  tokenId */\n      dup3\n        /* \"@openzeppelin/contracts/token/ERC721/ERC721.sol\":3583:3596  _requireOwned */\n      tag_176\n        /* \"@openzeppelin/contracts/token/ERC721/ERC721.sol\":3583:3605  _requireOwned(tokenId) */\n      jump\t// in\n    tag_175:\n      pop\n        /* \"@openzeppelin/contracts/token/ERC721/ERC721.sol\":3623:3644  _getApproved(tokenId) */\n      tag_165\n        /* \"@openzeppelin/contracts/token/ERC721/ERC721.sol\":3636:3643  tokenId */\n      dup3\n        /* \"@openzeppelin/contracts/token/ERC721/ERC721.sol\":3623:3635  _getApproved */\n      tag_178\n        /* \"@openzeppelin/contracts/token/ERC721/ERC721.sol\":3623:3644  _getApproved(tokenId) */\n      jump\t// in\n        /* \"@openzeppelin/contracts/token/ERC721/ERC721.sol\":3323:3436  function approve(address to, uint256 tokenId) public virtual {... */\n    tag_53:\n        /* \"@openzeppelin/contracts/token/ERC721/ERC721.sol\":3394:3429  _approve(to, tokenId, _msgSender()) */\n      tag_180\n        /* \"@openzeppelin/contracts/token/ERC721/ERC721.sol\":3403:3405  to */\n      dup3\n        /* \"@openzeppelin/contracts/token/ERC721/ERC721.sol\":3407:3414  tokenId */\n      dup3\n        /* \"@openzeppelin/contracts/utils/Context.sol\":735:745  msg.sender */\n      caller\n        /* \"@openzeppelin/contracts/token/ERC721/ERC721.sol\":3394:3402  _approve */\n      tag_183\n        /* \"@openzeppelin/contracts/token/ERC721/ERC721.sol\":3394:3429  _approve(to, tokenId, _msgSender()) */\n      jump\t// in\n    tag_180:\n        /* \"@openzeppelin/contracts/token/ERC721/ERC721.sol\":3323:3436  function approve(address to, uint256 tokenId) public virtual {... */\n      pop\n      pop\n      jump\t// out\n        /* \"FundRaising.sol\":1610:1759  function setTokenURI(uint256 tokenId, string memory tokenURI)... */\n    tag_58:\n        /* \"@openzeppelin/contracts/access/Ownable.sol\":1531:1544  _checkOwner() */\n      tag_185\n        /* \"@openzeppelin/contracts/access/Ownable.sol\":1531:1542  _checkOwner */\n      tag_186\n        /* \"@openzeppelin/contracts/access/Ownable.sol\":1531:1544  _checkOwner() */\n      jump\t// in\n    tag_185:\n        /* \"FundRaising.sol\":1721:1752  _setTokenURI(tokenId, tokenURI) */\n      tag_180\n        /* \"FundRaising.sol\":1734:1741  tokenId */\n      dup3\n        /* \"FundRaising.sol\":1743:1751  tokenURI */\n      dup3\n        /* \"FundRaising.sol\":1721:1733  _setTokenURI */\n      tag_189\n        /* \"FundRaising.sol\":1721:1752  _setTokenURI(tokenId, tokenURI) */\n      jump\t// in\n        /* \"FundRaising.sol\":3461:4901  function buyShares(... */\n    tag_62:\n        /* \"FundRaising.sol\":3620:3646  _exists(tokenIdToBeShared) */\n      tag_191\n        /* \"FundRaising.sol\":3628:3645  tokenIdToBeShared */\n      dup3\n        /* \"FundRaising.sol\":3620:3627  _exists */\n      tag_192\n        /* \"FundRaising.sol\":3620:3646  _exists(tokenIdToBeShared) */\n      jump\t// in\n    tag_191:\n        /* \"FundRaising.sol\":3599:3705  require(... */\n      tag_193\n      jumpi\n      mload(0x40)\n      shl(0xe5, 0x461bcd)\n      dup2\n      mstore\n      0x04\n      add\n      tag_194\n      swap1\n      tag_195\n      jump\t// in\n    tag_194:\n      mload(0x40)\n      dup1\n      swap2\n      sub\n      swap1\n      revert\n    tag_193:\n        /* \"FundRaising.sol\":3736:3774  _FundRaisingDetails[tokenIdToBeShared] */\n      0x00\n      dup3\n      dup2\n      mstore\n        /* \"FundRaising.sol\":3736:3755  _FundRaisingDetails */\n      0x0c\n        /* \"FundRaising.sol\":3736:3774  _FundRaisingDetails[tokenIdToBeShared] */\n      0x20\n      mstore\n      0x40\n      swap1\n      keccak256\n        /* \"FundRaising.sol\":3736:3786  _FundRaisingDetails[tokenIdToBeShared].assetLocked */\n      0x02\n      add\n      sload\n      0xff\n      and\n        /* \"FundRaising.sol\":3715:3860  require(... */\n      tag_196\n      jumpi\n      mload(0x40)\n      shl(0xe5, 0x461bcd)\n      dup2\n      mstore\n        /* \"#utility.yul\":7515:7517   */\n      0x20\n        /* \"FundRaising.sol\":3715:3860  require(... */\n      0x04\n      dup3\n      add\n        /* \"#utility.yul\":7497:7518   */\n      mstore\n        /* \"#utility.yul\":7554:7556   */\n      0x30\n        /* \"#utility.yul\":7534:7552   */\n      0x24\n      dup3\n      add\n        /* \"#utility.yul\":7527:7557   */\n      mstore\n        /* \"#utility.yul\":7593:7627   */\n      0x46756e6452616973696e673a206173736574206973206e6f74206c6f636b6564\n        /* \"#utility.yul\":7573:7591   */\n      0x44\n      dup3\n      add\n        /* \"#utility.yul\":7566:7628   */\n      mstore\n      shl(0x80, 0x20666f722066756e6472616973696e67)\n        /* \"#utility.yul\":7644:7662   */\n      0x64\n      dup3\n      add\n        /* \"#utility.yul\":7637:7683   */\n      mstore\n        /* \"#utility.yul\":7700:7719   */\n      0x84\n      add\n        /* \"FundRaising.sol\":3715:3860  require(... */\n      tag_194\n        /* \"#utility.yul\":7313:7725   */\n      jump\n        /* \"FundRaising.sol\":3715:3860  require(... */\n    tag_196:\n        /* \"FundRaising.sol\":3993:4031  _FundRaisingDetails[tokenIdToBeShared] */\n      0x00\n      dup3\n      dup2\n      mstore\n        /* \"FundRaising.sol\":3993:4012  _FundRaisingDetails */\n      0x0c\n        /* \"FundRaising.sol\":3993:4031  _FundRaisingDetails[tokenIdToBeShared] */\n      0x20\n      mstore\n      0x40\n      swap1\n      keccak256\n        /* \"FundRaising.sol\":3993:4043  _FundRaisingDetails[tokenIdToBeShared].totalShares */\n      dup1\n      sload\n        /* \"FundRaising.sol\":3891:3940  _FundRaisingDetails[tokenIdToBeShared].sharesSold */\n      0x01\n      swap1\n      swap2\n      add\n      sload\n        /* \"FundRaising.sol\":3891:3973  _FundRaisingDetails[tokenIdToBeShared].sharesSold +... */\n      tag_199\n      swap1\n        /* \"FundRaising.sol\":3959:3973  numberOfShares */\n      dup4\n      swap1\n        /* \"FundRaising.sol\":3891:3973  _FundRaisingDetails[tokenIdToBeShared].sharesSold +... */\n      tag_200\n      jump\t// in\n    tag_199:\n        /* \"FundRaising.sol\":3891:4043  _FundRaisingDetails[tokenIdToBeShared].sharesSold +... */\n      gt\n      iszero\n        /* \"FundRaising.sol\":3870:4109  require(... */\n      tag_201\n      jumpi\n      mload(0x40)\n      shl(0xe5, 0x461bcd)\n      dup2\n      mstore\n        /* \"#utility.yul\":8194:8196   */\n      0x20\n        /* \"FundRaising.sol\":3870:4109  require(... */\n      0x04\n      dup3\n      add\n        /* \"#utility.yul\":8176:8197   */\n      mstore\n        /* \"#utility.yul\":8233:8235   */\n      0x28\n        /* \"#utility.yul\":8213:8231   */\n      0x24\n      dup3\n      add\n        /* \"#utility.yul\":8206:8236   */\n      mstore\n        /* \"#utility.yul\":8272:8306   */\n      0x46756e6452616973696e673a206e6f7420656e6f756768207368617265732061\n        /* \"#utility.yul\":8252:8270   */\n      0x44\n      dup3\n      add\n        /* \"#utility.yul\":8245:8307   */\n      mstore\n      shl(0xc0, 0x7661696c61626c65)\n        /* \"#utility.yul\":8323:8341   */\n      0x64\n      dup3\n      add\n        /* \"#utility.yul\":8316:8354   */\n      mstore\n        /* \"#utility.yul\":8371:8390   */\n      0x84\n      add\n        /* \"FundRaising.sol\":3870:4109  require(... */\n      tag_194\n        /* \"#utility.yul\":7992:8396   */\n      jump\n        /* \"FundRaising.sol\":3870:4109  require(... */\n    tag_201:\n        /* \"FundRaising.sol\":4221:4259  _FundRaisingDetails[tokenIdToBeShared] */\n      0x00\n      dup3\n      dup2\n      mstore\n        /* \"FundRaising.sol\":4221:4240  _FundRaisingDetails */\n      0x0c\n        /* \"FundRaising.sol\":4221:4259  _FundRaisingDetails[tokenIdToBeShared] */\n      0x20\n      mstore\n      0x40\n      dup2\n      keccak256\n        /* \"FundRaising.sol\":4221:4270  _FundRaisingDetails[tokenIdToBeShared].sharesSold */\n      0x01\n      add\n        /* \"FundRaising.sol\":4221:4288  _FundRaisingDetails[tokenIdToBeShared].sharesSold += numberOfShares */\n      dup1\n      sload\n        /* \"FundRaising.sol\":4274:4288  numberOfShares */\n      dup4\n      swap3\n        /* \"FundRaising.sol\":4221:4259  _FundRaisingDetails[tokenIdToBeShared] */\n      swap1\n        /* \"FundRaising.sol\":4221:4288  _FundRaisingDetails[tokenIdToBeShared].sharesSold += numberOfShares */\n      tag_204\n      swap1\n        /* \"FundRaising.sol\":4274:4288  numberOfShares */\n      dup5\n      swap1\n        /* \"FundRaising.sol\":4221:4288  _FundRaisingDetails[tokenIdToBeShared].sharesSold += numberOfShares */\n      tag_200\n      jump\t// in\n    tag_204:\n      swap1\n      swap2\n      sstore\n      pop\n      pop\n        /* \"FundRaising.sol\":4380:4418  _FundRaisingDetails[tokenIdToBeShared] */\n      0x00\n      dup3\n      dup2\n      mstore\n        /* \"FundRaising.sol\":4380:4399  _FundRaisingDetails */\n      0x0c\n        /* \"FundRaising.sol\":4380:4418  _FundRaisingDetails[tokenIdToBeShared] */\n      0x20\n      mstore\n      0x40\n      swap1\n      keccak256\n        /* \"FundRaising.sol\":4380:4430  _FundRaisingDetails[tokenIdToBeShared].totalShares */\n      dup1\n      sload\n        /* \"FundRaising.sol\":4315:4364  _FundRaisingDetails[tokenIdToBeShared].sharesSold */\n      0x01\n      swap1\n      swap2\n      add\n      sload\n        /* \"FundRaising.sol\":4315:4430  _FundRaisingDetails[tokenIdToBeShared].sharesSold ==... */\n      sub\n        /* \"FundRaising.sol\":4298:4523  if (... */\n      tag_205\n      jumpi\n        /* \"FundRaising.sol\":4455:4493  _FundRaisingDetails[tokenIdToBeShared] */\n      0x00\n      dup3\n      dup2\n      mstore\n        /* \"FundRaising.sol\":4455:4474  _FundRaisingDetails */\n      0x0c\n        /* \"FundRaising.sol\":4455:4493  _FundRaisingDetails[tokenIdToBeShared] */\n      0x20\n      mstore\n      0x40\n      swap1\n      keccak256\n        /* \"FundRaising.sol\":4455:4505  _FundRaisingDetails[tokenIdToBeShared].assetLocked */\n      0x02\n      add\n        /* \"FundRaising.sol\":4455:4512  _FundRaisingDetails[tokenIdToBeShared].assetLocked = true */\n      dup1\n      sload\n      not(0xff)\n      and\n        /* \"FundRaising.sol\":4508:4512  true */\n      0x01\n        /* \"FundRaising.sol\":4455:4512  _FundRaisingDetails[tokenIdToBeShared].assetLocked = true */\n      or\n      swap1\n      sstore\n        /* \"FundRaising.sol\":4298:4523  if (... */\n    tag_205:\n        /* \"FundRaising.sol\":4581:4712  SharedOwnersDetails(... */\n      0x40\n      dup1\n      mload\n      0x80\n      dup2\n      add\n      dup3\n      mstore\n      sub(shl(0xa0, 0x01), 0x01)\n      dup6\n      dup2\n      and\n      dup3\n      mstore\n      0x20\n      dup1\n      dup4\n      add\n      dup7\n      dup2\n      mstore\n        /* \"FundRaising.sol\":4661:4674  _currentIndex */\n      0x09\n      dup1\n      sload\n        /* \"FundRaising.sol\":4581:4712  SharedOwnersDetails(... */\n      dup6\n      dup8\n      add\n      dup2\n      dup2\n      mstore\n      0x60\n      dup8\n      add\n      dup10\n      dup2\n      mstore\n      0x00\n        /* \"FundRaising.sol\":4532:4563  sharedOwners[tokenIdToBeShared] */\n      dup12\n      dup2\n      mstore\n        /* \"FundRaising.sol\":4532:4544  sharedOwners */\n      0x0f\n        /* \"FundRaising.sol\":4532:4563  sharedOwners[tokenIdToBeShared] */\n      dup8\n      mstore\n      dup10\n      dup2\n      keccak256\n        /* \"FundRaising.sol\":4532:4578  sharedOwners[tokenIdToBeShared][_currentIndex] */\n      swap4\n      dup2\n      mstore\n      swap3\n      swap1\n      swap6\n      mstore\n      swap1\n      dup8\n      swap1\n      keccak256\n        /* \"FundRaising.sol\":4532:4712  sharedOwners[tokenIdToBeShared][_currentIndex] = SharedOwnersDetails(... */\n      swap6\n      mload\n      dup7\n      sload\n      not(sub(shl(0xa0, 0x01), 0x01))\n      and\n      swap1\n      dup7\n      and\n      or\n      dup7\n      sstore\n      swap2\n      mload\n      0x01\n      dup7\n      add\n      sstore\n      swap1\n      mload\n      0x02\n      dup6\n      add\n      sstore\n      swap1\n      mload\n      0x03\n      swap1\n      swap4\n      add\n      swap3\n      swap1\n      swap3\n      sstore\n        /* \"FundRaising.sol\":4724:4738  mappingToArray */\n      sload(0x0a)\n        /* \"FundRaising.sol\":4771:4784  _currentIndex */\n      swap2\n      sload\n        /* \"FundRaising.sol\":4724:4785  mappingToArray.addToMapping(tokenIdToBeShared, _currentIndex) */\n      swap3\n      mload\n      shl(0xe0, 0xa29f6977)\n      dup2\n      mstore\n      0x04\n      dup2\n      add\n        /* \"#utility.yul\":8575:8600   */\n      dup7\n      swap1\n      mstore\n        /* \"#utility.yul\":8616:8634   */\n      0x24\n      dup2\n      add\n        /* \"#utility.yul\":8609:8643   */\n      swap4\n      swap1\n      swap4\n      mstore\n        /* \"FundRaising.sol\":4724:4738  mappingToArray */\n      and\n      swap1\n        /* \"FundRaising.sol\":4724:4751  mappingToArray.addToMapping */\n      0xa29f6977\n      swap1\n        /* \"#utility.yul\":8548:8566   */\n      0x44\n      add\n        /* \"FundRaising.sol\":4724:4785  mappingToArray.addToMapping(tokenIdToBeShared, _currentIndex) */\n      0x00\n      mload(0x40)\n      dup1\n      dup4\n      sub\n      dup2\n      0x00\n      dup8\n      dup1\n      extcodesize\n      iszero\n      dup1\n      iszero\n      tag_208\n      jumpi\n      0x00\n      dup1\n      revert\n    tag_208:\n      pop\n      gas\n      call\n      iszero\n      dup1\n      iszero\n      tag_210\n      jumpi\n      returndatasize\n      0x00\n      dup1\n      returndatacopy\n      revert(0x00, returndatasize)\n    tag_210:\n      pop\n      pop\n      pop\n      pop\n        /* \"FundRaising.sol\":4859:4887  share(to, tokenIdToBeShared) */\n      tag_211\n        /* \"FundRaising.sol\":4865:4867  to */\n      dup4\n        /* \"FundRaising.sol\":4869:4886  tokenIdToBeShared */\n      dup4\n        /* \"FundRaising.sol\":4859:4864  share */\n      tag_151\n        /* \"FundRaising.sol\":4859:4887  share(to, tokenIdToBeShared) */\n      jump\t// in\n    tag_211:\n      pop\n        /* \"FundRaising.sol\":3461:4901  function buyShares(... */\n      pop\n      pop\n      pop\n      jump\t// out\n        /* \"@openzeppelin/contracts/token/ERC721/ERC721.sol\":4143:4722  function transferFrom(address from, address to, uint256 tokenId) public virtual  {... */\n    tag_67:\n      sub(shl(0xa0, 0x01), 0x01)\n        /* \"@openzeppelin/contracts/token/ERC721/ERC721.sol\":4238:4254  to == address(0) */\n      dup3\n      and\n        /* \"@openzeppelin/contracts/token/ERC721/ERC721.sol\":4234:4321  if (to == address(0)) {... */\n      tag_213\n      jumpi\n        /* \"@openzeppelin/contracts/token/ERC721/ERC721.sol\":4307:4308  0 */\n      0x00\n        /* \"@openzeppelin/contracts/token/ERC721/ERC721.sol\":4277:4310  ERC721InvalidReceiver(address(0)) */\n      mload(0x40)\n      shl(0xe1, 0x32505749)\n      dup2\n      mstore\n      0x04\n      add\n      tag_194\n      swap2\n      swap1\n      tag_48\n      jump\t// in\n        /* \"@openzeppelin/contracts/token/ERC721/ERC721.sol\":4234:4321  if (to == address(0)) {... */\n    tag_213:\n        /* \"@openzeppelin/contracts/token/ERC721/ERC721.sol\":4539:4560  address previousOwner */\n      0x00\n        /* \"@openzeppelin/contracts/token/ERC721/ERC721.sol\":4563:4597  _update(to, tokenId, _msgSender()) */\n      tag_215\n        /* \"@openzeppelin/contracts/token/ERC721/ERC721.sol\":4571:4573  to */\n      dup4\n        /* \"@openzeppelin/contracts/token/ERC721/ERC721.sol\":4575:4582  tokenId */\n      dup4\n        /* \"@openzeppelin/contracts/utils/Context.sol\":735:745  msg.sender */\n      caller\n        /* \"@openzeppelin/contracts/token/ERC721/ERC721.sol\":4563:4570  _update */\n      tag_217\n        /* \"@openzeppelin/contracts/token/ERC721/ERC721.sol\":4563:4597  _update(to, tokenId, _msgSender()) */\n      jump\t// in\n    tag_215:\n        /* \"@openzeppelin/contracts/token/ERC721/ERC721.sol\":4539:4597  address previousOwner = _update(to, tokenId, _msgSender()) */\n      swap1\n      pop\n        /* \"@openzeppelin/contracts/token/ERC721/ERC721.sol\":4628:4632  from */\n      dup4\n      sub(shl(0xa0, 0x01), 0x01)\n        /* \"@openzeppelin/contracts/token/ERC721/ERC721.sol\":4611:4632  previousOwner != from */\n      and\n        /* \"@openzeppelin/contracts/token/ERC721/ERC721.sol\":4611:4624  previousOwner */\n      dup2\n      sub(shl(0xa0, 0x01), 0x01)\n        /* \"@openzeppelin/contracts/token/ERC721/ERC721.sol\":4611:4632  previousOwner != from */\n      and\n      eq\n        /* \"@openzeppelin/contracts/token/ERC721/ERC721.sol\":4607:4716  if (previousOwner != from) {... */\n      tag_211\n      jumpi\n        /* \"@openzeppelin/contracts/token/ERC721/ERC721.sol\":4655:4705  ERC721IncorrectOwner(from, tokenId, previousOwner) */\n      mload(0x40)\n      shl(0xe0, 0x64283d7b)\n      dup2\n      mstore\n      sub(shl(0xa0, 0x01), 0x01)\n        /* \"#utility.yul\":8912:8927   */\n      dup1\n      dup7\n      and\n        /* \"@openzeppelin/contracts/token/ERC721/ERC721.sol\":4655:4705  ERC721IncorrectOwner(from, tokenId, previousOwner) */\n      0x04\n      dup4\n      add\n        /* \"#utility.yul\":8894:8928   */\n      mstore\n        /* \"#utility.yul\":8944:8962   */\n      0x24\n      dup3\n      add\n        /* \"#utility.yul\":8937:8971   */\n      dup5\n      swap1\n      mstore\n        /* \"#utility.yul\":9007:9022   */\n      dup3\n      and\n        /* \"#utility.yul\":8987:9005   */\n      0x44\n      dup3\n      add\n        /* \"#utility.yul\":8980:9023   */\n      mstore\n        /* \"#utility.yul\":8829:8847   */\n      0x64\n      add\n        /* \"@openzeppelin/contracts/token/ERC721/ERC721.sol\":4655:4705  ERC721IncorrectOwner(from, tokenId, previousOwner) */\n      tag_194\n        /* \"#utility.yul\":8654:9029   */\n      jump\n        /* \"FundRaising.sol\":2986:3455  function registerAssetForFundraising(uint256 tokenId, uint256 totalShares)... */\n    tag_72:\n        /* \"@openzeppelin/contracts/access/Ownable.sol\":1531:1544  _checkOwner() */\n      tag_222\n        /* \"@openzeppelin/contracts/access/Ownable.sol\":1531:1542  _checkOwner */\n      tag_186\n        /* \"@openzeppelin/contracts/access/Ownable.sol\":1531:1544  _checkOwner() */\n      jump\t// in\n    tag_222:\n        /* \"FundRaising.sol\":3117:3133  _exists(tokenId) */\n      tag_224\n        /* \"FundRaising.sol\":3125:3132  tokenId */\n      dup3\n        /* \"FundRaising.sol\":3117:3124  _exists */\n      tag_192\n        /* \"FundRaising.sol\":3117:3133  _exists(tokenId) */\n      jump\t// in\n    tag_224:\n        /* \"FundRaising.sol\":3109:3171  require(_exists(tokenId), \"ShareableERC721: token must exist\") */\n      tag_225\n      jumpi\n      mload(0x40)\n      shl(0xe5, 0x461bcd)\n      dup2\n      mstore\n      0x04\n      add\n      tag_194\n      swap1\n      tag_195\n      jump\t// in\n    tag_225:\n        /* \"FundRaising.sol\":3203:3231  _FundRaisingDetails[tokenId] */\n      0x00\n      dup3\n      dup2\n      mstore\n        /* \"FundRaising.sol\":3203:3222  _FundRaisingDetails */\n      0x0c\n        /* \"FundRaising.sol\":3203:3231  _FundRaisingDetails[tokenId] */\n      0x20\n      mstore\n      0x40\n      swap1\n      keccak256\n        /* \"FundRaising.sol\":3203:3243  _FundRaisingDetails[tokenId].assetLocked */\n      0x02\n      add\n      sload\n      0xff\n      and\n        /* \"FundRaising.sol\":3202:3243  !_FundRaisingDetails[tokenId].assetLocked */\n      iszero\n        /* \"FundRaising.sol\":3181:3321  require(... */\n      tag_227\n      jumpi\n      mload(0x40)\n      shl(0xe5, 0x461bcd)\n      dup2\n      mstore\n        /* \"#utility.yul\":9236:9238   */\n      0x20\n        /* \"FundRaising.sol\":3181:3321  require(... */\n      0x04\n      dup3\n      add\n        /* \"#utility.yul\":9218:9239   */\n      mstore\n        /* \"#utility.yul\":9275:9277   */\n      0x34\n        /* \"#utility.yul\":9255:9273   */\n      0x24\n      dup3\n      add\n        /* \"#utility.yul\":9248:9278   */\n      mstore\n        /* \"#utility.yul\":9314:9348   */\n      0x46756e6452616973696e673a20617373657420697320616c7265616479206c6f\n        /* \"#utility.yul\":9294:9312   */\n      0x44\n      dup3\n      add\n        /* \"#utility.yul\":9287:9349   */\n      mstore\n      shl(0x60, 0x636b656420666f722066756e6472616973696e67)\n        /* \"#utility.yul\":9365:9383   */\n      0x64\n      dup3\n      add\n        /* \"#utility.yul\":9358:9408   */\n      mstore\n        /* \"#utility.yul\":9425:9444   */\n      0x84\n      add\n        /* \"FundRaising.sol\":3181:3321  require(... */\n      tag_194\n        /* \"#utility.yul\":9034:9450   */\n      jump\n        /* \"FundRaising.sol\":3181:3321  require(... */\n    tag_227:\n        /* \"FundRaising.sol\":3362:3448  FundRaisingDetails(... */\n      0x40\n      dup1\n      mload\n      0x60\n      dup2\n      add\n      dup3\n      mstore\n      swap2\n      dup3\n      mstore\n      0x00\n      0x20\n      dup1\n      dup5\n      add\n      dup3\n      dup2\n      mstore\n        /* \"FundRaising.sol\":3434:3438  true */\n      0x01\n        /* \"FundRaising.sol\":3362:3448  FundRaisingDetails(... */\n      dup6\n      dup6\n      add\n      dup2\n      dup2\n      mstore\n        /* \"FundRaising.sol\":3331:3359  _FundRaisingDetails[tokenId] */\n      swap7\n      dup5\n      mstore\n        /* \"FundRaising.sol\":3331:3350  _FundRaisingDetails */\n      0x0c\n        /* \"FundRaising.sol\":3331:3359  _FundRaisingDetails[tokenId] */\n      swap1\n      swap3\n      mstore\n      swap3\n      swap1\n      swap2\n      keccak256\n        /* \"FundRaising.sol\":3331:3448  _FundRaisingDetails[tokenId] = FundRaisingDetails(... */\n      swap3\n      mload\n      dup4\n      sstore\n      swap1\n      mload\n      swap1\n      dup3\n      add\n      sstore\n      swap1\n      mload\n      0x02\n      swap1\n      swap2\n      add\n      dup1\n      sload\n      not(0xff)\n      and\n      swap2\n      iszero\n      iszero\n      swap2\n      swap1\n      swap2\n      or\n      swap1\n      sstore\n        /* \"FundRaising.sol\":2986:3455  function registerAssetForFundraising(uint256 tokenId, uint256 totalShares)... */\n      jump\t// out\n        /* \"FundRaising.sol\":6685:7115  function initiateSelling(address to,uint256 tokenId)public{... */\n    tag_76:\n        /* \"FundRaising.sol\":6773:6793  assetOwners[tokenId] */\n      0x00\n      dup2\n      dup2\n      mstore\n        /* \"FundRaising.sol\":6773:6784  assetOwners */\n      0x0d\n        /* \"FundRaising.sol\":6773:6793  assetOwners[tokenId] */\n      0x20\n      mstore\n      0x40\n      swap1\n      keccak256\n      sload\n      sub(shl(0xa0, 0x01), 0x01)\n      and\n        /* \"FundRaising.sol\":6761:6771  msg.sender */\n      caller\n        /* \"FundRaising.sol\":6761:6793  msg.sender==assetOwners[tokenId] */\n      eq\n        /* \"FundRaising.sol\":6753:6840  require(msg.sender==assetOwners[tokenId],\"FundRaising:only owner can initiate selling\") */\n      tag_231\n      jumpi\n      mload(0x40)\n      shl(0xe5, 0x461bcd)\n      dup2\n      mstore\n        /* \"#utility.yul\":9657:9659   */\n      0x20\n        /* \"FundRaising.sol\":6753:6840  require(msg.sender==assetOwners[tokenId],\"FundRaising:only owner can initiate selling\") */\n      0x04\n      dup3\n      add\n        /* \"#utility.yul\":9639:9660   */\n      mstore\n        /* \"#utility.yul\":9696:9698   */\n      0x2b\n        /* \"#utility.yul\":9676:9694   */\n      0x24\n      dup3\n      add\n        /* \"#utility.yul\":9669:9699   */\n      mstore\n        /* \"#utility.yul\":9735:9769   */\n      0x46756e6452616973696e673a6f6e6c79206f776e65722063616e20696e697469\n        /* \"#utility.yul\":9715:9733   */\n      0x44\n      dup3\n      add\n        /* \"#utility.yul\":9708:9770   */\n      mstore\n      shl(0xa8, 0x6174652073656c6c696e67)\n        /* \"#utility.yul\":9786:9804   */\n      0x64\n      dup3\n      add\n        /* \"#utility.yul\":9779:9820   */\n      mstore\n        /* \"#utility.yul\":9837:9856   */\n      0x84\n      add\n        /* \"FundRaising.sol\":6753:6840  require(msg.sender==assetOwners[tokenId],\"FundRaising:only owner can initiate selling\") */\n      tag_194\n        /* \"#utility.yul\":9455:9862   */\n      jump\n        /* \"FundRaising.sol\":6753:6840  require(msg.sender==assetOwners[tokenId],\"FundRaising:only owner can initiate selling\") */\n    tag_231:\n        /* \"FundRaising.sol\":6861:6877  _exists(tokenId) */\n      tag_234\n        /* \"FundRaising.sol\":6869:6876  tokenId */\n      dup2\n        /* \"FundRaising.sol\":6861:6868  _exists */\n      tag_192\n        /* \"FundRaising.sol\":6861:6877  _exists(tokenId) */\n      jump\t// in\n    tag_234:\n        /* \"FundRaising.sol\":6853:6911  require(_exists(tokenId), \"FundRaising: token must exist\") */\n      tag_235\n      jumpi\n      mload(0x40)\n      shl(0xe5, 0x461bcd)\n      dup2\n      mstore\n      0x04\n      add\n      tag_194\n      swap1\n      tag_237\n      jump\t// in\n    tag_235:\n        /* \"FundRaising.sol\":6930:6950  _votingOpen[tokenId] */\n      0x00\n      dup2\n      dup2\n      mstore\n        /* \"FundRaising.sol\":6930:6941  _votingOpen */\n      0x0e\n        /* \"FundRaising.sol\":6930:6950  _votingOpen[tokenId] */\n      0x20\n      mstore\n      0x40\n      swap1\n      keccak256\n      sload\n      0xff\n      and\n        /* \"FundRaising.sol\":6929:6950  !_votingOpen[tokenId] */\n      iszero\n        /* \"FundRaising.sol\":6921:6982  require(!_votingOpen[tokenId], \"FundRaising: Voting is open\") */\n      tag_238\n      jumpi\n      mload(0x40)\n      shl(0xe5, 0x461bcd)\n      dup2\n      mstore\n        /* \"#utility.yul\":10427:10429   */\n      0x20\n        /* \"FundRaising.sol\":6921:6982  require(!_votingOpen[tokenId], \"FundRaising: Voting is open\") */\n      0x04\n      dup3\n      add\n        /* \"#utility.yul\":10409:10430   */\n      mstore\n        /* \"#utility.yul\":10466:10468   */\n      0x1b\n        /* \"#utility.yul\":10446:10464   */\n      0x24\n      dup3\n      add\n        /* \"#utility.yul\":10439:10469   */\n      mstore\n      shl(0x29, 0x233ab7322930b4b9b4b7339d102b37ba34b7339034b99037b832b7)\n        /* \"#utility.yul\":10485:10503   */\n      0x44\n      dup3\n      add\n        /* \"#utility.yul\":10478:10535   */\n      mstore\n        /* \"#utility.yul\":10552:10570   */\n      0x64\n      add\n        /* \"FundRaising.sol\":6921:6982  require(!_votingOpen[tokenId], \"FundRaising: Voting is open\") */\n      tag_194\n        /* \"#utility.yul\":10225:10576   */\n      jump\n        /* \"FundRaising.sol\":6921:6982  require(!_votingOpen[tokenId], \"FundRaising: Voting is open\") */\n    tag_238:\n        /* \"FundRaising.sol\":7002:7022  _saleIsOpen[tokenId] */\n      0x00\n      dup2\n      dup2\n      mstore\n        /* \"FundRaising.sol\":7002:7013  _saleIsOpen */\n      0x10\n        /* \"FundRaising.sol\":7002:7022  _saleIsOpen[tokenId] */\n      0x20\n      mstore\n      0x40\n      swap1\n      keccak256\n      sload\n      0xff\n      and\n        /* \"FundRaising.sol\":6994:7056  require(_saleIsOpen[tokenId], \"FundRaising: Sale is not open\") */\n      tag_241\n      jumpi\n      mload(0x40)\n      shl(0xe5, 0x461bcd)\n      dup2\n      mstore\n        /* \"#utility.yul\":10783:10785   */\n      0x20\n        /* \"FundRaising.sol\":6994:7056  require(_saleIsOpen[tokenId], \"FundRaising: Sale is not open\") */\n      0x04\n      dup3\n      add\n        /* \"#utility.yul\":10765:10786   */\n      mstore\n        /* \"#utility.yul\":10822:10824   */\n      0x1d\n        /* \"#utility.yul\":10802:10820   */\n      0x24\n      dup3\n      add\n        /* \"#utility.yul\":10795:10825   */\n      mstore\n        /* \"#utility.yul\":10861:10892   */\n      0x46756e6452616973696e673a2053616c65206973206e6f74206f70656e000000\n        /* \"#utility.yul\":10841:10859   */\n      0x44\n      dup3\n      add\n        /* \"#utility.yul\":10834:10893   */\n      mstore\n        /* \"#utility.yul\":10910:10928   */\n      0x64\n      add\n        /* \"FundRaising.sol\":6994:7056  require(_saleIsOpen[tokenId], \"FundRaising: Sale is not open\") */\n      tag_194\n        /* \"#utility.yul\":10581:10934   */\n      jump\n        /* \"FundRaising.sol\":6994:7056  require(_saleIsOpen[tokenId], \"FundRaising: Sale is not open\") */\n    tag_241:\n        /* \"FundRaising.sol\":7068:7107  safeTransferFrom(msg.sender,to,tokenId) */\n      tag_180\n        /* \"FundRaising.sol\":7085:7095  msg.sender */\n      caller\n        /* \"FundRaising.sol\":7096:7098  to */\n      dup4\n        /* \"FundRaising.sol\":7099:7106  tokenId */\n      dup4\n        /* \"FundRaising.sol\":7068:7084  safeTransferFrom */\n      tag_84\n        /* \"FundRaising.sol\":7068:7107  safeTransferFrom(msg.sender,to,tokenId) */\n      jump\t// in\n        /* \"FundRaising.sol\":1497:1604  function mint(address account, uint256 tokenId) external onlyOwner {... */\n    tag_80:\n        /* \"@openzeppelin/contracts/access/Ownable.sol\":1531:1544  _checkOwner() */\n      tag_246\n        /* \"@openzeppelin/contracts/access/Ownable.sol\":1531:1542  _checkOwner */\n      tag_186\n        /* \"@openzeppelin/contracts/access/Ownable.sol\":1531:1544  _checkOwner() */\n      jump\t// in\n    tag_246:\n        /* \"FundRaising.sol\":1574:1597  _mint(account, tokenId) */\n      tag_180\n        /* \"FundRaising.sol\":1580:1587  account */\n      dup3\n        /* \"FundRaising.sol\":1589:1596  tokenId */\n      dup3\n        /* \"FundRaising.sol\":1574:1579  _mint */\n      tag_249\n        /* \"FundRaising.sol\":1574:1597  _mint(account, tokenId) */\n      jump\t// in\n        /* \"@openzeppelin/contracts/token/ERC721/ERC721.sol\":4788:4928  function safeTransferFrom(address from, address to, uint256 tokenId) public virtual {... */\n    tag_84:\n        /* \"@openzeppelin/contracts/token/ERC721/ERC721.sol\":4882:4921  safeTransferFrom(from, to, tokenId, \"\") */\n      tag_251\n        /* \"@openzeppelin/contracts/token/ERC721/ERC721.sol\":4899:4903  from */\n      dup4\n        /* \"@openzeppelin/contracts/token/ERC721/ERC721.sol\":4905:4907  to */\n      dup4\n        /* \"@openzeppelin/contracts/token/ERC721/ERC721.sol\":4909:4916  tokenId */\n      dup4\n        /* \"@openzeppelin/contracts/token/ERC721/ERC721.sol\":4882:4921  safeTransferFrom(from, to, tokenId, \"\") */\n      mload(0x40)\n      dup1\n      0x20\n      add\n      0x40\n      mstore\n      dup1\n      0x00\n      dup2\n      mstore\n      pop\n        /* \"@openzeppelin/contracts/token/ERC721/ERC721.sol\":4882:4898  safeTransferFrom */\n      tag_134\n        /* \"@openzeppelin/contracts/token/ERC721/ERC721.sol\":4882:4921  safeTransferFrom(from, to, tokenId, \"\") */\n      jump\t// in\n    tag_251:\n        /* \"@openzeppelin/contracts/token/ERC721/ERC721.sol\":4788:4928  function safeTransferFrom(address from, address to, uint256 tokenId) public virtual {... */\n      pop\n      pop\n      pop\n      jump\t// out\n        /* \"FundRaising.sol\":4907:5138  function initiateVoting(uint256 tokenId) public {... */\n    tag_88:\n        /* \"FundRaising.sol\":4973:4989  _exists(tokenId) */\n      tag_253\n        /* \"FundRaising.sol\":4981:4988  tokenId */\n      dup2\n        /* \"FundRaising.sol\":4973:4980  _exists */\n      tag_192\n        /* \"FundRaising.sol\":4973:4989  _exists(tokenId) */\n      jump\t// in\n    tag_253:\n        /* \"FundRaising.sol\":4965:5019  require(_exists(tokenId), \"ERC5023: token must exist\") */\n      tag_254\n      jumpi\n      mload(0x40)\n      shl(0xe5, 0x461bcd)\n      dup2\n      mstore\n      0x04\n      add\n      tag_194\n      swap1\n      tag_256\n      jump\t// in\n    tag_254:\n        /* \"FundRaising.sol\":5038:5058  _votingOpen[tokenId] */\n      0x00\n      dup2\n      dup2\n      mstore\n        /* \"FundRaising.sol\":5038:5049  _votingOpen */\n      0x0e\n        /* \"FundRaising.sol\":5038:5058  _votingOpen[tokenId] */\n      0x20\n      mstore\n      0x40\n      swap1\n      keccak256\n      sload\n      0xff\n      and\n        /* \"FundRaising.sol\":5037:5058  !_votingOpen[tokenId] */\n      iszero\n        /* \"FundRaising.sol\":5029:5094  require(!_votingOpen[tokenId], \"FundRaising:Voting already open\") */\n      tag_257\n      jumpi\n      mload(0x40)\n      shl(0xe5, 0x461bcd)\n      dup2\n      mstore\n        /* \"#utility.yul\":11495:11497   */\n      0x20\n        /* \"FundRaising.sol\":5029:5094  require(!_votingOpen[tokenId], \"FundRaising:Voting already open\") */\n      0x04\n      dup3\n      add\n        /* \"#utility.yul\":11477:11498   */\n      mstore\n        /* \"#utility.yul\":11534:11536   */\n      0x1f\n        /* \"#utility.yul\":11514:11532   */\n      0x24\n      dup3\n      add\n        /* \"#utility.yul\":11507:11537   */\n      mstore\n        /* \"#utility.yul\":11573:11606   */\n      0x46756e6452616973696e673a566f74696e6720616c7265616479206f70656e00\n        /* \"#utility.yul\":11553:11571   */\n      0x44\n      dup3\n      add\n        /* \"#utility.yul\":11546:11607   */\n      mstore\n        /* \"#utility.yul\":11624:11642   */\n      0x64\n      add\n        /* \"FundRaising.sol\":5029:5094  require(!_votingOpen[tokenId], \"FundRaising:Voting already open\") */\n      tag_194\n        /* \"#utility.yul\":11293:11648   */\n      jump\n        /* \"FundRaising.sol\":5029:5094  require(!_votingOpen[tokenId], \"FundRaising:Voting already open\") */\n    tag_257:\n        /* \"FundRaising.sol\":5104:5124  _votingOpen[tokenId] */\n      0x00\n      swap1\n      dup2\n      mstore\n        /* \"FundRaising.sol\":5104:5115  _votingOpen */\n      0x0e\n        /* \"FundRaising.sol\":5104:5124  _votingOpen[tokenId] */\n      0x20\n      mstore\n      0x40\n      swap1\n      keccak256\n        /* \"FundRaising.sol\":5104:5131  _votingOpen[tokenId] = true */\n      dup1\n      sload\n      not(0xff)\n      and\n        /* \"FundRaising.sol\":5127:5131  true */\n      0x01\n        /* \"FundRaising.sol\":5104:5131  _votingOpen[tokenId] = true */\n      or\n      swap1\n      sstore\n        /* \"FundRaising.sol\":4907:5138  function initiateVoting(uint256 tokenId) public {... */\n      jump\t// out\n        /* \"FundRaising.sol\":1765:1863  function setBaseURI(string memory baseURI_) external onlyOwner {... */\n    tag_93:\n        /* \"@openzeppelin/contracts/access/Ownable.sol\":1531:1544  _checkOwner() */\n      tag_261\n        /* \"@openzeppelin/contracts/access/Ownable.sol\":1531:1542  _checkOwner */\n      tag_186\n        /* \"@openzeppelin/contracts/access/Ownable.sol\":1531:1544  _checkOwner() */\n      jump\t// in\n    tag_261:\n        /* \"FundRaising.sol\":1838:1845  baseURI */\n      0x08\n        /* \"FundRaising.sol\":1838:1856  baseURI = baseURI_ */\n      tag_180\n        /* \"FundRaising.sol\":1848:1856  baseURI_ */\n      dup3\n        /* \"FundRaising.sol\":1838:1845  baseURI */\n      dup3\n        /* \"FundRaising.sol\":1838:1856  baseURI = baseURI_ */\n      tag_264\n      jump\t// in\n        /* \"@openzeppelin/contracts/token/ERC721/ERC721.sol\":2185:2303  function ownerOf(uint256 tokenId) public view virtual returns (address) {... */\n    tag_97:\n        /* \"@openzeppelin/contracts/token/ERC721/ERC721.sol\":2248:2255  address */\n      0x00\n        /* \"@openzeppelin/contracts/token/ERC721/ERC721.sol\":2274:2296  _requireOwned(tokenId) */\n      tag_165\n        /* \"@openzeppelin/contracts/token/ERC721/ERC721.sol\":2288:2295  tokenId */\n      dup3\n        /* \"@openzeppelin/contracts/token/ERC721/ERC721.sol\":2274:2287  _requireOwned */\n      tag_176\n        /* \"@openzeppelin/contracts/token/ERC721/ERC721.sol\":2274:2296  _requireOwned(tokenId) */\n      jump\t// in\n        /* \"FundRaising.sol\":328:349  string public baseURI */\n    tag_101:\n      0x08\n      dup1\n      sload\n      tag_267\n      swap1\n      tag_169\n      jump\t// in\n    tag_267:\n      dup1\n      0x1f\n      add\n      0x20\n      dup1\n      swap2\n      div\n      mul\n      0x20\n      add\n      mload(0x40)\n      swap1\n      dup2\n      add\n      0x40\n      mstore\n      dup1\n      swap3\n      swap2\n      swap1\n      dup2\n      dup2\n      mstore\n      0x20\n      add\n      dup3\n      dup1\n      sload\n      tag_268\n      swap1\n      tag_169\n      jump\t// in\n    tag_268:\n      dup1\n      iszero\n      tag_269\n      jumpi\n      dup1\n      0x1f\n      lt\n      tag_270\n      jumpi\n      0x0100\n      dup1\n      dup4\n      sload\n      div\n      mul\n      dup4\n      mstore\n      swap2\n      0x20\n      add\n      swap2\n      jump(tag_269)\n    tag_270:\n      dup3\n      add\n      swap2\n      swap1\n      0x00\n      mstore\n      keccak256(0x00, 0x20)\n      swap1\n    tag_271:\n      dup2\n      sload\n      dup2\n      mstore\n      swap1\n      0x01\n      add\n      swap1\n      0x20\n      add\n      dup1\n      dup4\n      gt\n      tag_271\n      jumpi\n      dup3\n      swap1\n      sub\n      0x1f\n      and\n      dup3\n      add\n      swap2\n    tag_269:\n      pop\n      pop\n      pop\n      pop\n      pop\n      dup2\n      jump\t// out\n        /* \"@openzeppelin/contracts/token/ERC721/ERC721.sol\":1920:2128  function balanceOf(address owner) public view virtual returns (uint256) {... */\n    tag_107:\n        /* \"@openzeppelin/contracts/token/ERC721/ERC721.sol\":1983:1990  uint256 */\n      0x00\n      sub(shl(0xa0, 0x01), 0x01)\n        /* \"@openzeppelin/contracts/token/ERC721/ERC721.sol\":2006:2025  owner == address(0) */\n      dup3\n      and\n        /* \"@openzeppelin/contracts/token/ERC721/ERC721.sol\":2002:2089  if (owner == address(0)) {... */\n      tag_273\n      jumpi\n        /* \"@openzeppelin/contracts/token/ERC721/ERC721.sol\":2075:2076  0 */\n      0x00\n        /* \"@openzeppelin/contracts/token/ERC721/ERC721.sol\":2048:2078  ERC721InvalidOwner(address(0)) */\n      mload(0x40)\n      shl(0xe2, 0x22718ad9)\n      dup2\n      mstore\n      0x04\n      add\n      tag_194\n      swap2\n      swap1\n      tag_48\n      jump\t// in\n        /* \"@openzeppelin/contracts/token/ERC721/ERC721.sol\":2002:2089  if (owner == address(0)) {... */\n    tag_273:\n      pop\n      sub(shl(0xa0, 0x01), 0x01)\n        /* \"@openzeppelin/contracts/token/ERC721/ERC721.sol\":2105:2121  _balances[owner] */\n      and\n      0x00\n      swap1\n      dup2\n      mstore\n        /* \"@openzeppelin/contracts/token/ERC721/ERC721.sol\":2105:2114  _balances */\n      0x03\n        /* \"@openzeppelin/contracts/token/ERC721/ERC721.sol\":2105:2121  _balances[owner] */\n      0x20\n      mstore\n      0x40\n      swap1\n      keccak256\n      sload\n      swap1\n        /* \"@openzeppelin/contracts/token/ERC721/ERC721.sol\":1920:2128  function balanceOf(address owner) public view virtual returns (uint256) {... */\n      jump\t// out\n        /* \"@openzeppelin/contracts/access/Ownable.sol\":2293:2394  function renounceOwnership() public virtual onlyOwner {... */\n    tag_112:\n        /* \"@openzeppelin/contracts/access/Ownable.sol\":1531:1544  _checkOwner() */\n      tag_276\n        /* \"@openzeppelin/contracts/access/Ownable.sol\":1531:1542  _checkOwner */\n      tag_186\n        /* \"@openzeppelin/contracts/access/Ownable.sol\":1531:1544  _checkOwner() */\n      jump\t// in\n    tag_276:\n        /* \"@openzeppelin/contracts/access/Ownable.sol\":2357:2387  _transferOwnership(address(0)) */\n      tag_278\n        /* \"@openzeppelin/contracts/access/Ownable.sol\":2384:2385  0 */\n      0x00\n        /* \"@openzeppelin/contracts/access/Ownable.sol\":2357:2375  _transferOwnership */\n      tag_279\n        /* \"@openzeppelin/contracts/access/Ownable.sol\":2357:2387  _transferOwnership(address(0)) */\n      jump\t// in\n    tag_278:\n        /* \"@openzeppelin/contracts/access/Ownable.sol\":2293:2394  function renounceOwnership() public virtual onlyOwner {... */\n      jump\t// out\n        /* \"@openzeppelin/contracts/access/Ownable.sol\":1638:1723  function owner() public view virtual returns (address) {... */\n    tag_115:\n        /* \"@openzeppelin/contracts/access/Ownable.sol\":1710:1716  _owner */\n      and(sub(shl(0xa0, 0x01), 0x01), sload(0x07))\n      swap1\n        /* \"@openzeppelin/contracts/access/Ownable.sol\":1638:1723  function owner() public view virtual returns (address) {... */\n      jump\t// out\n        /* \"@openzeppelin/contracts/token/ERC721/ERC721.sol\":2518:2611  function symbol() public view virtual returns (string memory) {... */\n    tag_119:\n        /* \"@openzeppelin/contracts/token/ERC721/ERC721.sol\":2565:2578  string memory */\n      0x60\n        /* \"@openzeppelin/contracts/token/ERC721/ERC721.sol\":2597:2604  _symbol */\n      0x01\n        /* \"@openzeppelin/contracts/token/ERC721/ERC721.sol\":2590:2604  return _symbol */\n      dup1\n      sload\n      tag_168\n      swap1\n      tag_169\n      jump\t// in\n        /* \"@openzeppelin/contracts/token/ERC721/ERC721.sol\":3718:3862  function setApprovalForAll(address operator, bool approved) public virtual {... */\n    tag_125:\n        /* \"@openzeppelin/contracts/token/ERC721/ERC721.sol\":3803:3855  _setApprovalForAll(_msgSender(), operator, approved) */\n      tag_180\n        /* \"@openzeppelin/contracts/utils/Context.sol\":735:745  msg.sender */\n      caller\n        /* \"@openzeppelin/contracts/token/ERC721/ERC721.sol\":3836:3844  operator */\n      dup4\n        /* \"@openzeppelin/contracts/token/ERC721/ERC721.sol\":3846:3854  approved */\n      dup4\n        /* \"@openzeppelin/contracts/token/ERC721/ERC721.sol\":3803:3821  _setApprovalForAll */\n      tag_290\n        /* \"@openzeppelin/contracts/token/ERC721/ERC721.sol\":3803:3855  _setApprovalForAll(_msgSender(), operator, approved) */\n      jump\t// in\n        /* \"FundRaising.sol\":5194:5454  function vote(uint256 tokenId, uint256 sharedTokenId) external {... */\n    tag_129:\n        /* \"FundRaising.sol\":5274:5290  _exists(tokenId) */\n      tag_292\n        /* \"FundRaising.sol\":5282:5289  tokenId */\n      dup3\n        /* \"FundRaising.sol\":5274:5281  _exists */\n      tag_192\n        /* \"FundRaising.sol\":5274:5290  _exists(tokenId) */\n      jump\t// in\n    tag_292:\n        /* \"FundRaising.sol\":5266:5320  require(_exists(tokenId), \"ERC5023: token must exist\") */\n      tag_293\n      jumpi\n      mload(0x40)\n      shl(0xe5, 0x461bcd)\n      dup2\n      mstore\n      0x04\n      add\n      tag_194\n      swap1\n      tag_256\n      jump\t// in\n    tag_293:\n        /* \"FundRaising.sol\":5338:5358  _votingOpen[tokenId] */\n      0x00\n      dup3\n      dup2\n      mstore\n        /* \"FundRaising.sol\":5338:5349  _votingOpen */\n      0x0e\n        /* \"FundRaising.sol\":5338:5358  _votingOpen[tokenId] */\n      0x20\n      mstore\n      0x40\n      swap1\n      keccak256\n      sload\n      0xff\n      and\n        /* \"FundRaising.sol\":5330:5393  require(_votingOpen[tokenId], \"FundRaising:Voting is not open\") */\n      tag_295\n      jumpi\n      mload(0x40)\n      shl(0xe5, 0x461bcd)\n      dup2\n      mstore\n        /* \"#utility.yul\":14059:14061   */\n      0x20\n        /* \"FundRaising.sol\":5330:5393  require(_votingOpen[tokenId], \"FundRaising:Voting is not open\") */\n      0x04\n      dup3\n      add\n        /* \"#utility.yul\":14041:14062   */\n      mstore\n        /* \"#utility.yul\":14098:14100   */\n      0x1e\n        /* \"#utility.yul\":14078:14096   */\n      0x24\n      dup3\n      add\n        /* \"#utility.yul\":14071:14101   */\n      mstore\n        /* \"#utility.yul\":14137:14169   */\n      0x46756e6452616973696e673a566f74696e67206973206e6f74206f70656e0000\n        /* \"#utility.yul\":14117:14135   */\n      0x44\n      dup3\n      add\n        /* \"#utility.yul\":14110:14170   */\n      mstore\n        /* \"#utility.yul\":14187:14205   */\n      0x64\n      add\n        /* \"FundRaising.sol\":5330:5393  require(_votingOpen[tokenId], \"FundRaising:Voting is not open\") */\n      tag_194\n        /* \"#utility.yul\":13857:14211   */\n      jump\n        /* \"FundRaising.sol\":5330:5393  require(_votingOpen[tokenId], \"FundRaising:Voting is not open\") */\n    tag_295:\n        /* \"FundRaising.sol\":5403:5425  _votingStatus[tokenId] */\n      0x00\n      swap2\n      dup3\n      mstore\n        /* \"FundRaising.sol\":5403:5416  _votingStatus */\n      0x0b\n        /* \"FundRaising.sol\":5403:5425  _votingStatus[tokenId] */\n      0x20\n      swap1\n      dup2\n      mstore\n      0x40\n      dup1\n      dup5\n      keccak256\n        /* \"FundRaising.sol\":5403:5440  _votingStatus[tokenId][sharedTokenId] */\n      swap3\n      dup5\n      mstore\n      swap2\n      swap1\n      mstore\n      swap1\n      keccak256\n        /* \"FundRaising.sol\":5403:5447  _votingStatus[tokenId][sharedTokenId] = true */\n      dup1\n      sload\n      not(0xff)\n      and\n        /* \"FundRaising.sol\":5443:5447  true */\n      0x01\n        /* \"FundRaising.sol\":5403:5447  _votingStatus[tokenId][sharedTokenId] = true */\n      or\n      swap1\n      sstore\n        /* \"FundRaising.sol\":5194:5454  function vote(uint256 tokenId, uint256 sharedTokenId) external {... */\n      jump\t// out\n        /* \"@openzeppelin/contracts/token/ERC721/ERC721.sol\":4994:5202  function safeTransferFrom(address from, address to, uint256 tokenId, bytes memory data) public virtual {... */\n    tag_134:\n        /* \"@openzeppelin/contracts/token/ERC721/ERC721.sol\":5107:5138  transferFrom(from, to, tokenId) */\n      tag_299\n        /* \"@openzeppelin/contracts/token/ERC721/ERC721.sol\":5120:5124  from */\n      dup5\n        /* \"@openzeppelin/contracts/token/ERC721/ERC721.sol\":5126:5128  to */\n      dup5\n        /* \"@openzeppelin/contracts/token/ERC721/ERC721.sol\":5130:5137  tokenId */\n      dup5\n        /* \"@openzeppelin/contracts/token/ERC721/ERC721.sol\":5107:5119  transferFrom */\n      tag_67\n        /* \"@openzeppelin/contracts/token/ERC721/ERC721.sol\":5107:5138  transferFrom(from, to, tokenId) */\n      jump\t// in\n    tag_299:\n        /* \"@openzeppelin/contracts/token/ERC721/ERC721.sol\":5148:5195  _checkOnERC721Received(from, to, tokenId, data) */\n      tag_211\n        /* \"@openzeppelin/contracts/token/ERC721/ERC721.sol\":5171:5175  from */\n      dup5\n        /* \"@openzeppelin/contracts/token/ERC721/ERC721.sol\":5177:5179  to */\n      dup5\n        /* \"@openzeppelin/contracts/token/ERC721/ERC721.sol\":5181:5188  tokenId */\n      dup5\n        /* \"@openzeppelin/contracts/token/ERC721/ERC721.sol\":5190:5194  data */\n      dup5\n        /* \"@openzeppelin/contracts/token/ERC721/ERC721.sol\":5148:5170  _checkOnERC721Received */\n      tag_301\n        /* \"@openzeppelin/contracts/token/ERC721/ERC721.sol\":5148:5195  _checkOnERC721Received(from, to, tokenId, data) */\n      jump\t// in\n        /* \"@openzeppelin/contracts/token/ERC721/extensions/ERC721URIStorage.sol\":1210:1803  function tokenURI(uint256 tokenId) public view virtual override returns (string memory) {... */\n    tag_138:\n        /* \"@openzeppelin/contracts/token/ERC721/extensions/ERC721URIStorage.sol\":1283:1296  string memory */\n      0x60\n        /* \"@openzeppelin/contracts/token/ERC721/extensions/ERC721URIStorage.sol\":1308:1330  _requireOwned(tokenId) */\n      tag_303\n        /* \"@openzeppelin/contracts/token/ERC721/extensions/ERC721URIStorage.sol\":1322:1329  tokenId */\n      dup3\n        /* \"@openzeppelin/contracts/token/ERC721/extensions/ERC721URIStorage.sol\":1308:1321  _requireOwned */\n      tag_176\n        /* \"@openzeppelin/contracts/token/ERC721/extensions/ERC721URIStorage.sol\":1308:1330  _requireOwned(tokenId) */\n      jump\t// in\n    tag_303:\n      pop\n        /* \"@openzeppelin/contracts/token/ERC721/extensions/ERC721URIStorage.sol\":1341:1364  string memory _tokenURI */\n      0x00\n        /* \"@openzeppelin/contracts/token/ERC721/extensions/ERC721URIStorage.sol\":1367:1386  _tokenURIs[tokenId] */\n      dup3\n      dup2\n      mstore\n        /* \"@openzeppelin/contracts/token/ERC721/extensions/ERC721URIStorage.sol\":1367:1377  _tokenURIs */\n      0x06\n        /* \"@openzeppelin/contracts/token/ERC721/extensions/ERC721URIStorage.sol\":1367:1386  _tokenURIs[tokenId] */\n      0x20\n      mstore\n      0x40\n      dup2\n      keccak256\n        /* \"@openzeppelin/contracts/token/ERC721/extensions/ERC721URIStorage.sol\":1341:1386  string memory _tokenURI = _tokenURIs[tokenId] */\n      dup1\n      sload\n      tag_304\n      swap1\n      tag_169\n      jump\t// in\n    tag_304:\n      dup1\n      0x1f\n      add\n      0x20\n      dup1\n      swap2\n      div\n      mul\n      0x20\n      add\n      mload(0x40)\n      swap1\n      dup2\n      add\n      0x40\n      mstore\n      dup1\n      swap3\n      swap2\n      swap1\n      dup2\n      dup2\n      mstore\n      0x20\n      add\n      dup3\n      dup1\n      sload\n      tag_305\n      swap1\n      tag_169\n      jump\t// in\n    tag_305:\n      dup1\n      iszero\n      tag_306\n      jumpi\n      dup1\n      0x1f\n      lt\n      tag_307\n      jumpi\n      0x0100\n      dup1\n      dup4\n      sload\n      div\n      mul\n      dup4\n      mstore\n      swap2\n      0x20\n      add\n      swap2\n      jump(tag_306)\n    tag_307:\n      dup3\n      add\n      swap2\n      swap1\n      0x00\n      mstore\n      keccak256(0x00, 0x20)\n      swap1\n    tag_308:\n      dup2\n      sload\n      dup2\n      mstore\n      swap1\n      0x01\n      add\n      swap1\n      0x20\n      add\n      dup1\n      dup4\n      gt\n      tag_308\n      jumpi\n      dup3\n      swap1\n      sub\n      0x1f\n      and\n      dup3\n      add\n      swap2\n    tag_306:\n      pop\n      pop\n      pop\n      pop\n      pop\n      swap1\n      pop\n        /* \"@openzeppelin/contracts/token/ERC721/extensions/ERC721URIStorage.sol\":1396:1414  string memory base */\n      0x00\n        /* \"@openzeppelin/contracts/token/ERC721/extensions/ERC721URIStorage.sol\":1417:1427  _baseURI() */\n      tag_309\n        /* \"@openzeppelin/contracts/token/ERC721/extensions/ERC721URIStorage.sol\":1417:1425  _baseURI */\n      tag_310\n        /* \"@openzeppelin/contracts/token/ERC721/extensions/ERC721URIStorage.sol\":1417:1427  _baseURI() */\n      jump\t// in\n    tag_309:\n        /* \"@openzeppelin/contracts/token/ERC721/extensions/ERC721URIStorage.sol\":1396:1427  string memory base = _baseURI() */\n      swap1\n      pop\n        /* \"@openzeppelin/contracts/token/ERC721/extensions/ERC721URIStorage.sol\":1506:1510  base */\n      dup1\n        /* \"@openzeppelin/contracts/token/ERC721/extensions/ERC721URIStorage.sol\":1500:1518  bytes(base).length */\n      mload\n        /* \"@openzeppelin/contracts/token/ERC721/extensions/ERC721URIStorage.sol\":1522:1523  0 */\n      0x00\n        /* \"@openzeppelin/contracts/token/ERC721/extensions/ERC721URIStorage.sol\":1500:1523  bytes(base).length == 0 */\n      sub\n        /* \"@openzeppelin/contracts/token/ERC721/extensions/ERC721URIStorage.sol\":1496:1566  if (bytes(base).length == 0) {... */\n      tag_311\n      jumpi\n      pop\n        /* \"@openzeppelin/contracts/token/ERC721/extensions/ERC721URIStorage.sol\":1546:1555  _tokenURI */\n      swap3\n        /* \"@openzeppelin/contracts/token/ERC721/extensions/ERC721URIStorage.sol\":1210:1803  function tokenURI(uint256 tokenId) public view virtual override returns (string memory) {... */\n      swap2\n      pop\n      pop\n      jump\t// out\n        /* \"@openzeppelin/contracts/token/ERC721/extensions/ERC721URIStorage.sol\":1496:1566  if (bytes(base).length == 0) {... */\n    tag_311:\n        /* \"@openzeppelin/contracts/token/ERC721/extensions/ERC721URIStorage.sol\":1665:1688  bytes(_tokenURI).length */\n      dup2\n      mload\n        /* \"@openzeppelin/contracts/token/ERC721/extensions/ERC721URIStorage.sol\":1665:1692  bytes(_tokenURI).length > 0 */\n      iszero\n        /* \"@openzeppelin/contracts/token/ERC721/extensions/ERC721URIStorage.sol\":1661:1756  if (bytes(_tokenURI).length > 0) {... */\n      tag_312\n      jumpi\n        /* \"@openzeppelin/contracts/token/ERC721/extensions/ERC721URIStorage.sol\":1729:1733  base */\n      dup1\n        /* \"@openzeppelin/contracts/token/ERC721/extensions/ERC721URIStorage.sol\":1735:1744  _tokenURI */\n      dup3\n        /* \"@openzeppelin/contracts/token/ERC721/extensions/ERC721URIStorage.sol\":1715:1745  string.concat(base, _tokenURI) */\n      add(0x20, mload(0x40))\n      tag_313\n      swap3\n      swap2\n      swap1\n      tag_314\n      jump\t// in\n    tag_313:\n      mload(0x40)\n      0x20\n      dup2\n      dup4\n      sub\n      sub\n      dup2\n      mstore\n      swap1\n      0x40\n      mstore\n        /* \"@openzeppelin/contracts/token/ERC721/extensions/ERC721URIStorage.sol\":1708:1745  return string.concat(base, _tokenURI) */\n      swap3\n      pop\n      pop\n      pop\n        /* \"@openzeppelin/contracts/token/ERC721/extensions/ERC721URIStorage.sol\":1210:1803  function tokenURI(uint256 tokenId) public view virtual override returns (string memory) {... */\n      swap2\n      swap1\n      pop\n      jump\t// out\n        /* \"@openzeppelin/contracts/token/ERC721/extensions/ERC721URIStorage.sol\":1661:1756  if (bytes(_tokenURI).length > 0) {... */\n    tag_312:\n        /* \"@openzeppelin/contracts/token/ERC721/extensions/ERC721URIStorage.sol\":1773:1796  super.tokenURI(tokenId) */\n      tag_315\n        /* \"@openzeppelin/contracts/token/ERC721/extensions/ERC721URIStorage.sol\":1788:1795  tokenId */\n      dup5\n        /* \"@openzeppelin/contracts/token/ERC721/extensions/ERC721URIStorage.sol\":1773:1787  super.tokenURI */\n      tag_316\n        /* \"@openzeppelin/contracts/token/ERC721/extensions/ERC721URIStorage.sol\":1773:1796  super.tokenURI(tokenId) */\n      jump\t// in\n    tag_315:\n        /* \"@openzeppelin/contracts/token/ERC721/extensions/ERC721URIStorage.sol\":1766:1796  return super.tokenURI(tokenId) */\n      swap5\n        /* \"@openzeppelin/contracts/token/ERC721/extensions/ERC721URIStorage.sol\":1210:1803  function tokenURI(uint256 tokenId) public view virtual override returns (string memory) {... */\n      swap4\n      pop\n      pop\n      pop\n      pop\n      jump\t// out\n        /* \"FundRaising.sol\":2697:2980  function registerAsset(address Investor) public {... */\n    tag_143:\n      sub(shl(0xa0, 0x01), 0x01)\n        /* \"FundRaising.sol\":2763:2785  Investor != address(0) */\n      dup2\n      and\n        /* \"FundRaising.sol\":2755:2819  require(Investor != address(0), \"Invesotr: not a valid address\") */\n      tag_318\n      jumpi\n      mload(0x40)\n      shl(0xe5, 0x461bcd)\n      dup2\n      mstore\n        /* \"#utility.yul\":14919:14921   */\n      0x20\n        /* \"FundRaising.sol\":2755:2819  require(Investor != address(0), \"Invesotr: not a valid address\") */\n      0x04\n      dup3\n      add\n        /* \"#utility.yul\":14901:14922   */\n      mstore\n        /* \"#utility.yul\":14958:14960   */\n      0x1d\n        /* \"#utility.yul\":14938:14956   */\n      0x24\n      dup3\n      add\n        /* \"#utility.yul\":14931:14961   */\n      mstore\n        /* \"#utility.yul\":14997:15028   */\n      0x496e7665736f74723a206e6f7420612076616c69642061646472657373000000\n        /* \"#utility.yul\":14977:14995   */\n      0x44\n      dup3\n      add\n        /* \"#utility.yul\":14970:15029   */\n      mstore\n        /* \"#utility.yul\":15046:15064   */\n      0x64\n      add\n        /* \"FundRaising.sol\":2755:2819  require(Investor != address(0), \"Invesotr: not a valid address\") */\n      tag_194\n        /* \"#utility.yul\":14717:15070   */\n      jump\n        /* \"FundRaising.sol\":2755:2819  require(Investor != address(0), \"Invesotr: not a valid address\") */\n    tag_318:\n        /* \"FundRaising.sol\":2829:2859  _mint(Investor, _currentIndex) */\n      tag_321\n        /* \"FundRaising.sol\":2835:2843  Investor */\n      dup2\n        /* \"FundRaising.sol\":2845:2858  _currentIndex */\n      sload(0x09)\n        /* \"FundRaising.sol\":2829:2834  _mint */\n      tag_249\n        /* \"FundRaising.sol\":2829:2859  _mint(Investor, _currentIndex) */\n      jump\t// in\n    tag_321:\n        /* \"FundRaising.sol\":2881:2894  _currentIndex */\n      0x09\n      dup1\n      sload\n        /* \"FundRaising.sol\":2898:2903  false */\n      0x00\n        /* \"FundRaising.sol\":2869:2895  _votingOpen[_currentIndex] */\n      swap1\n      dup2\n      mstore\n        /* \"FundRaising.sol\":2869:2880  _votingOpen */\n      0x0e\n        /* \"FundRaising.sol\":2869:2895  _votingOpen[_currentIndex] */\n      0x20\n      swap1\n      dup2\n      mstore\n      0x40\n      dup1\n      dup4\n      keccak256\n        /* \"FundRaising.sol\":2869:2903  _votingOpen[_currentIndex] = false */\n      dup1\n      sload\n      not(0xff)\n      and\n      swap1\n      sstore\n        /* \"FundRaising.sol\":2925:2938  _currentIndex */\n      dup4\n      sload\n        /* \"FundRaising.sol\":2913:2939  assetOwners[_currentIndex] */\n      dup4\n      mstore\n        /* \"FundRaising.sol\":2913:2924  assetOwners */\n      0x0d\n        /* \"FundRaising.sol\":2913:2939  assetOwners[_currentIndex] */\n      swap1\n      swap2\n      mstore\n      dup2\n      keccak256\n        /* \"FundRaising.sol\":2913:2948  assetOwners[_currentIndex]=Investor */\n      dup1\n      sload\n      not(sub(shl(0xa0, 0x01), 0x01))\n      and\n      sub(shl(0xa0, 0x01), 0x01)\n      dup6\n      and\n      or\n      swap1\n      sstore\n        /* \"FundRaising.sol\":2958:2973  _currentIndex++ */\n      dup2\n      sload\n      swap2\n        /* \"FundRaising.sol\":2881:2894  _currentIndex */\n      swap1\n        /* \"FundRaising.sol\":2958:2973  _currentIndex++ */\n      tag_322\n      dup4\n      tag_323\n      jump\t// in\n    tag_322:\n      swap2\n      swap1\n      pop\n      sstore\n      pop\n        /* \"FundRaising.sol\":2697:2980  function registerAsset(address Investor) public {... */\n      pop\n      jump\t// out\n        /* \"FundRaising.sol\":5503:6679  function makeDecisionForSelling(uint256 tokenId) external onlyOwner {... */\n    tag_147:\n        /* \"@openzeppelin/contracts/access/Ownable.sol\":1531:1544  _checkOwner() */\n      tag_325\n        /* \"@openzeppelin/contracts/access/Ownable.sol\":1531:1542  _checkOwner */\n      tag_186\n        /* \"@openzeppelin/contracts/access/Ownable.sol\":1531:1544  _checkOwner() */\n      jump\t// in\n    tag_325:\n        /* \"FundRaising.sol\":5589:5605  _exists(tokenId) */\n      tag_327\n        /* \"FundRaising.sol\":5597:5604  tokenId */\n      dup2\n        /* \"FundRaising.sol\":5589:5596  _exists */\n      tag_192\n        /* \"FundRaising.sol\":5589:5605  _exists(tokenId) */\n      jump\t// in\n    tag_327:\n        /* \"FundRaising.sol\":5581:5639  require(_exists(tokenId), \"FundRaising: token must exist\") */\n      tag_328\n      jumpi\n      mload(0x40)\n      shl(0xe5, 0x461bcd)\n      dup2\n      mstore\n      0x04\n      add\n      tag_194\n      swap1\n      tag_237\n      jump\t// in\n    tag_328:\n        /* \"FundRaising.sol\":5657:5677  _votingOpen[tokenId] */\n      0x00\n      dup2\n      dup2\n      mstore\n        /* \"FundRaising.sol\":5657:5668  _votingOpen */\n      0x0e\n        /* \"FundRaising.sol\":5657:5677  _votingOpen[tokenId] */\n      0x20\n      mstore\n      0x40\n      swap1\n      keccak256\n      sload\n      0xff\n      and\n        /* \"FundRaising.sol\":5649:5713  require(_votingOpen[tokenId], \"FundRaising: Voting is not open\") */\n      tag_330\n      jumpi\n      mload(0x40)\n      shl(0xe5, 0x461bcd)\n      dup2\n      mstore\n        /* \"#utility.yul\":15417:15419   */\n      0x20\n        /* \"FundRaising.sol\":5649:5713  require(_votingOpen[tokenId], \"FundRaising: Voting is not open\") */\n      0x04\n      dup3\n      add\n        /* \"#utility.yul\":15399:15420   */\n      mstore\n        /* \"#utility.yul\":15456:15458   */\n      0x1f\n        /* \"#utility.yul\":15436:15454   */\n      0x24\n      dup3\n      add\n        /* \"#utility.yul\":15429:15459   */\n      mstore\n        /* \"#utility.yul\":15495:15528   */\n      0x46756e6452616973696e673a20566f74696e67206973206e6f74206f70656e00\n        /* \"#utility.yul\":15475:15493   */\n      0x44\n      dup3\n      add\n        /* \"#utility.yul\":15468:15529   */\n      mstore\n        /* \"#utility.yul\":15546:15564   */\n      0x64\n      add\n        /* \"FundRaising.sol\":5649:5713  require(_votingOpen[tokenId], \"FundRaising: Voting is not open\") */\n      tag_194\n        /* \"#utility.yul\":15215:15570   */\n      jump\n        /* \"FundRaising.sol\":5649:5713  require(_votingOpen[tokenId], \"FundRaising: Voting is not open\") */\n    tag_330:\n        /* \"FundRaising.sol\":5793:5818  uint256 totalSharedOwners */\n      0x00\n        /* \"FundRaising.sol\":5821:5849  _FundRaisingDetails[tokenId] */\n      dup2\n      dup2\n      mstore\n        /* \"FundRaising.sol\":5821:5840  _FundRaisingDetails */\n      0x0c\n        /* \"FundRaising.sol\":5821:5849  _FundRaisingDetails[tokenId] */\n      0x20\n      mstore\n      0x40\n      dup1\n      dup3\n      keccak256\n        /* \"FundRaising.sol\":5821:5860  _FundRaisingDetails[tokenId].sharesSold */\n      0x01\n      add\n      sload\n        /* \"FundRaising.sol\":5947:5961  mappingToArray */\n      sload(0x0a)\n        /* \"FundRaising.sol\":5947:5979  mappingToArray.getArray(tokenId) */\n      swap2\n      mload\n      shl(0xe0, 0xab35ec63)\n      dup2\n      mstore\n      0x04\n      dup2\n      add\n        /* \"#utility.yul\":5201:5226   */\n      dup6\n      swap1\n      mstore\n        /* \"FundRaising.sol\":5821:5860  _FundRaisingDetails[tokenId].sharesSold */\n      swap1\n      swap3\n        /* \"FundRaising.sol\":5793:5818  uint256 totalSharedOwners */\n      swap2\n      sub(shl(0xa0, 0x01), 0x01)\n        /* \"FundRaising.sol\":5947:5961  mappingToArray */\n      and\n      swap1\n        /* \"FundRaising.sol\":5947:5970  mappingToArray.getArray */\n      0xab35ec63\n      swap1\n        /* \"#utility.yul\":5174:5192   */\n      0x24\n      add\n        /* \"FundRaising.sol\":5947:5979  mappingToArray.getArray(tokenId) */\n      0x00\n      mload(0x40)\n      dup1\n      dup4\n      sub\n      dup2\n      dup7\n      gas\n      staticcall\n      iszero\n      dup1\n      iszero\n      tag_335\n      jumpi\n      returndatasize\n      0x00\n      dup1\n      returndatacopy\n      revert(0x00, returndatasize)\n    tag_335:\n      pop\n      pop\n      pop\n      pop\n      mload(0x40)\n      returndatasize\n      0x00\n      dup3\n      returndatacopy\n      0x1f\n      returndatasize\n      swap1\n      dup2\n      add\n      not(0x1f)\n      and\n      dup3\n      add\n      0x40\n      mstore\n      tag_336\n      swap2\n      swap1\n      dup2\n      add\n      swap1\n      tag_337\n      jump\t// in\n    tag_336:\n        /* \"FundRaising.sol\":5913:5979  uint256[] memory sharedTokenIds = mappingToArray.getArray(tokenId) */\n      swap1\n      pop\n        /* \"FundRaising.sol\":6069:6078  uint256 i */\n      0x00\n        /* \"FundRaising.sol\":6064:6328  for (uint256 i = 0; i < totalSharedOwners; i++) {... */\n    tag_338:\n        /* \"FundRaising.sol\":6088:6105  totalSharedOwners */\n      dup3\n        /* \"FundRaising.sol\":6084:6085  i */\n      dup2\n        /* \"FundRaising.sol\":6084:6105  i < totalSharedOwners */\n      lt\n        /* \"FundRaising.sol\":6064:6328  for (uint256 i = 0; i < totalSharedOwners; i++) {... */\n      iszero\n      tag_339\n      jumpi\n        /* \"FundRaising.sol\":6126:6147  uint256 sharedTokenId */\n      0x00\n        /* \"FundRaising.sol\":6150:6164  sharedTokenIds */\n      dup3\n        /* \"FundRaising.sol\":6165:6166  i */\n      dup3\n        /* \"FundRaising.sol\":6150:6167  sharedTokenIds[i] */\n      dup2\n      mload\n      dup2\n      lt\n      tag_342\n      jumpi\n      tag_342\n      tag_343\n      jump\t// in\n    tag_342:\n      0x20\n      swap1\n      dup2\n      mul\n      swap2\n      swap1\n      swap2\n      add\n      dup2\n      add\n      mload\n        /* \"FundRaising.sol\":6206:6228  _votingStatus[tokenId] */\n      0x00\n      dup8\n      dup2\n      mstore\n        /* \"FundRaising.sol\":6206:6219  _votingStatus */\n      0x0b\n        /* \"FundRaising.sol\":6206:6228  _votingStatus[tokenId] */\n      dup4\n      mstore\n      0x40\n      dup1\n      dup3\n      keccak256\n        /* \"FundRaising.sol\":6206:6243  _votingStatus[tokenId][sharedTokenId] */\n      dup4\n      dup4\n      mstore\n      swap1\n      swap4\n      mstore\n      swap2\n      swap1\n      swap2\n      keccak256\n      sload\n        /* \"FundRaising.sol\":6150:6167  sharedTokenIds[i] */\n      swap1\n      swap2\n      pop\n        /* \"FundRaising.sol\":6206:6243  _votingStatus[tokenId][sharedTokenId] */\n      0xff\n      and\n        /* \"FundRaising.sol\":6181:6317  require(... */\n      tag_344\n      jumpi\n      mload(0x40)\n      shl(0xe5, 0x461bcd)\n      dup2\n      mstore\n        /* \"#utility.yul\":16850:16852   */\n      0x20\n        /* \"FundRaising.sol\":6181:6317  require(... */\n      0x04\n      dup3\n      add\n        /* \"#utility.yul\":16832:16853   */\n      mstore\n        /* \"#utility.yul\":16889:16891   */\n      0x28\n        /* \"#utility.yul\":16869:16887   */\n      0x24\n      dup3\n      add\n        /* \"#utility.yul\":16862:16892   */\n      mstore\n        /* \"#utility.yul\":16928:16962   */\n      0x46756e6452616973696e673a20416c6c20736861726564206f776e657273206d\n        /* \"#utility.yul\":16908:16926   */\n      0x44\n      dup3\n      add\n        /* \"#utility.yul\":16901:16963   */\n      mstore\n      shl(0xc0, 0x75737420766f7465)\n        /* \"#utility.yul\":16979:16997   */\n      0x64\n      dup3\n      add\n        /* \"#utility.yul\":16972:17010   */\n      mstore\n        /* \"#utility.yul\":17027:17046   */\n      0x84\n      add\n        /* \"FundRaising.sol\":6181:6317  require(... */\n      tag_194\n        /* \"#utility.yul\":16648:17052   */\n      jump\n        /* \"FundRaising.sol\":6181:6317  require(... */\n    tag_344:\n      pop\n        /* \"FundRaising.sol\":6107:6110  i++ */\n      dup1\n      tag_347\n      dup2\n      tag_323\n      jump\t// in\n    tag_347:\n      swap2\n      pop\n      pop\n        /* \"FundRaising.sol\":6064:6328  for (uint256 i = 0; i < totalSharedOwners; i++) {... */\n      jump(tag_338)\n    tag_339:\n      pop\n        /* \"FundRaising.sol\":6337:6357  _saleIsOpen[tokenId] */\n      0x00\n      dup4\n      dup2\n      mstore\n        /* \"FundRaising.sol\":6337:6348  _saleIsOpen */\n      0x10\n        /* \"FundRaising.sol\":6337:6357  _saleIsOpen[tokenId] */\n      0x20\n      mstore\n      0x40\n      dup2\n      keccak256\n        /* \"FundRaising.sol\":6337:6364  _saleIsOpen[tokenId] = true */\n      dup1\n      sload\n      not(0xff)\n      and\n        /* \"FundRaising.sol\":6360:6364  true */\n      0x01\n        /* \"FundRaising.sol\":6337:6364  _saleIsOpen[tokenId] = true */\n      or\n      swap1\n      sstore\n        /* \"FundRaising.sol\":6434:6607  for (uint256 i = 0; i < totalSharedOwners; i++) {... */\n    tag_348:\n        /* \"FundRaising.sol\":6458:6475  totalSharedOwners */\n      dup3\n        /* \"FundRaising.sol\":6454:6455  i */\n      dup2\n        /* \"FundRaising.sol\":6454:6475  i < totalSharedOwners */\n      lt\n        /* \"FundRaising.sol\":6434:6607  for (uint256 i = 0; i < totalSharedOwners; i++) {... */\n      iszero\n      tag_349\n      jumpi\n        /* \"FundRaising.sol\":6496:6517  uint256 sharedTokenId */\n      0x00\n        /* \"FundRaising.sol\":6520:6534  sharedTokenIds */\n      dup3\n        /* \"FundRaising.sol\":6535:6536  i */\n      dup3\n        /* \"FundRaising.sol\":6520:6537  sharedTokenIds[i] */\n      dup2\n      mload\n      dup2\n      lt\n      tag_352\n      jumpi\n      tag_352\n      tag_343\n      jump\t// in\n    tag_352:\n      0x20\n      swap1\n      dup2\n      mul\n      swap2\n      swap1\n      swap2\n      add\n      dup2\n      add\n      mload\n        /* \"FundRaising.sol\":6591:6596  false */\n      0x00\n        /* \"FundRaising.sol\":6551:6573  _votingStatus[tokenId] */\n      dup8\n      dup2\n      mstore\n        /* \"FundRaising.sol\":6551:6564  _votingStatus */\n      0x0b\n        /* \"FundRaising.sol\":6551:6573  _votingStatus[tokenId] */\n      dup4\n      mstore\n      0x40\n      dup1\n      dup3\n      keccak256\n        /* \"FundRaising.sol\":6551:6588  _votingStatus[tokenId][sharedTokenId] */\n      swap3\n      dup3\n      mstore\n      swap2\n      swap1\n      swap3\n      mstore\n      swap1\n      keccak256\n        /* \"FundRaising.sol\":6551:6596  _votingStatus[tokenId][sharedTokenId] = false */\n      dup1\n      sload\n      not(0xff)\n      and\n      swap1\n      sstore\n      pop\n        /* \"FundRaising.sol\":6477:6480  i++ */\n      dup1\n      tag_353\n      dup2\n      tag_323\n      jump\t// in\n    tag_353:\n      swap2\n      pop\n      pop\n        /* \"FundRaising.sol\":6434:6607  for (uint256 i = 0; i < totalSharedOwners; i++) {... */\n      jump(tag_348)\n    tag_349:\n      pop\n      pop\n      pop\n        /* \"FundRaising.sol\":6667:6672  false */\n      0x00\n        /* \"FundRaising.sol\":6644:6664  _votingOpen[tokenId] */\n      swap1\n      dup2\n      mstore\n        /* \"FundRaising.sol\":6644:6655  _votingOpen */\n      0x0e\n        /* \"FundRaising.sol\":6644:6664  _votingOpen[tokenId] */\n      0x20\n      mstore\n      0x40\n      swap1\n      keccak256\n        /* \"FundRaising.sol\":6644:6672  _votingOpen[tokenId] = false */\n      dup1\n      sload\n      not(0xff)\n      and\n      swap1\n      sstore\n        /* \"FundRaising.sol\":5503:6679  function makeDecisionForSelling(uint256 tokenId) external onlyOwner {... */\n      jump\t// out\n        /* \"FundRaising.sol\":1973:2691  function share(address to, uint256 tokenIdToBeShared)... */\n    tag_151:\n        /* \"FundRaising.sol\":2059:2077  uint256 newTokenId */\n      0x00\n      sub(shl(0xa0, 0x01), 0x01)\n        /* \"FundRaising.sol\":2101:2117  to != address(0) */\n      dup4\n      and\n        /* \"FundRaising.sol\":2093:2154  require(to != address(0), \"ERC721: mint to the zero address\") */\n      tag_355\n      jumpi\n      mload(0x40)\n      shl(0xe5, 0x461bcd)\n      dup2\n      mstore\n        /* \"#utility.yul\":17259:17261   */\n      0x20\n        /* \"FundRaising.sol\":2093:2154  require(to != address(0), \"ERC721: mint to the zero address\") */\n      0x04\n      dup3\n      add\n        /* \"#utility.yul\":17241:17262   */\n      dup2\n      swap1\n      mstore\n        /* \"#utility.yul\":17278:17296   */\n      0x24\n      dup3\n      add\n        /* \"#utility.yul\":17271:17301   */\n      mstore\n        /* \"#utility.yul\":17337:17371   */\n      0x4552433732313a206d696e7420746f20746865207a65726f2061646472657373\n        /* \"#utility.yul\":17317:17335   */\n      0x44\n      dup3\n      add\n        /* \"#utility.yul\":17310:17372   */\n      mstore\n        /* \"#utility.yul\":17389:17407   */\n      0x64\n      add\n        /* \"FundRaising.sol\":2093:2154  require(to != address(0), \"ERC721: mint to the zero address\") */\n      tag_194\n        /* \"#utility.yul\":17057:17413   */\n      jump\n        /* \"FundRaising.sol\":2093:2154  require(to != address(0), \"ERC721: mint to the zero address\") */\n    tag_355:\n        /* \"FundRaising.sol\":2185:2211  _exists(tokenIdToBeShared) */\n      tag_358\n        /* \"FundRaising.sol\":2193:2210  tokenIdToBeShared */\n      dup3\n        /* \"FundRaising.sol\":2185:2192  _exists */\n      tag_192\n        /* \"FundRaising.sol\":2185:2211  _exists(tokenIdToBeShared) */\n      jump\t// in\n    tag_358:\n        /* \"FundRaising.sol\":2164:2283  require(... */\n      tag_359\n      jumpi\n      mload(0x40)\n      shl(0xe5, 0x461bcd)\n      dup2\n      mstore\n        /* \"#utility.yul\":17620:17622   */\n      0x20\n        /* \"FundRaising.sol\":2164:2283  require(... */\n      0x04\n      dup3\n      add\n        /* \"#utility.yul\":17602:17623   */\n      mstore\n        /* \"#utility.yul\":17659:17661   */\n      0x2e\n        /* \"#utility.yul\":17639:17657   */\n      0x24\n      dup3\n      add\n        /* \"#utility.yul\":17632:17662   */\n      mstore\n        /* \"#utility.yul\":17698:17732   */\n      0x536861726561626c654552433732313a20746f6b656e20746f20626520736861\n        /* \"#utility.yul\":17678:17696   */\n      0x44\n      dup3\n      add\n        /* \"#utility.yul\":17671:17733   */\n      mstore\n      shl(0x92, 0x1c9959081b5d5cdd08195e1a5cdd)\n        /* \"#utility.yul\":17749:17767   */\n      0x64\n      dup3\n      add\n        /* \"#utility.yul\":17742:17786   */\n      mstore\n        /* \"#utility.yul\":17803:17822   */\n      0x84\n      add\n        /* \"FundRaising.sol\":2164:2283  require(... */\n      tag_194\n        /* \"#utility.yul\":17418:17828   */\n      jump\n        /* \"FundRaising.sol\":2164:2283  require(... */\n    tag_359:\n        /* \"FundRaising.sol\":2344:2354  msg.sender */\n      caller\n        /* \"FundRaising.sol\":2314:2340  ownerOf(tokenIdToBeShared) */\n      tag_362\n        /* \"FundRaising.sol\":2322:2339  tokenIdToBeShared */\n      dup4\n        /* \"FundRaising.sol\":2314:2321  ownerOf */\n      tag_97\n        /* \"FundRaising.sol\":2314:2340  ownerOf(tokenIdToBeShared) */\n      jump\t// in\n    tag_362:\n      sub(shl(0xa0, 0x01), 0x01)\n        /* \"FundRaising.sol\":2314:2354  ownerOf(tokenIdToBeShared) == msg.sender */\n      and\n      eq\n        /* \"FundRaising.sol\":2293:2434  require(... */\n      tag_363\n      jumpi\n      mload(0x40)\n      shl(0xe5, 0x461bcd)\n      dup2\n      mstore\n        /* \"#utility.yul\":18035:18037   */\n      0x20\n        /* \"FundRaising.sol\":2293:2434  require(... */\n      0x04\n      dup3\n      add\n        /* \"#utility.yul\":18017:18038   */\n      mstore\n        /* \"#utility.yul\":18074:18076   */\n      0x36\n        /* \"#utility.yul\":18054:18072   */\n      0x24\n      dup3\n      add\n        /* \"#utility.yul\":18047:18077   */\n      mstore\n        /* \"#utility.yul\":18113:18147   */\n      0x536861726561626c654552433732313a2073656e646572206d75737420626520\n        /* \"#utility.yul\":18093:18111   */\n      0x44\n      dup3\n      add\n        /* \"#utility.yul\":18086:18148   */\n      mstore\n      shl(0x51, 0x3a34329037bbb732b91037b3103a3432903a37b5b2b7)\n        /* \"#utility.yul\":18164:18182   */\n      0x64\n      dup3\n      add\n        /* \"#utility.yul\":18157:18209   */\n      mstore\n        /* \"#utility.yul\":18226:18245   */\n      0x84\n      add\n        /* \"FundRaising.sol\":2293:2434  require(... */\n      tag_194\n        /* \"#utility.yul\":17833:18251   */\n      jump\n        /* \"FundRaising.sol\":2293:2434  require(... */\n    tag_363:\n        /* \"FundRaising.sol\":2445:2468  string memory _tokenURI */\n      0x00\n        /* \"FundRaising.sol\":2471:2498  tokenURI(tokenIdToBeShared) */\n      tag_366\n        /* \"FundRaising.sol\":2480:2497  tokenIdToBeShared */\n      dup4\n        /* \"FundRaising.sol\":2471:2479  tokenURI */\n      tag_138\n        /* \"FundRaising.sol\":2471:2498  tokenURI(tokenIdToBeShared) */\n      jump\t// in\n    tag_366:\n        /* \"FundRaising.sol\":2445:2498  string memory _tokenURI = tokenURI(tokenIdToBeShared) */\n      swap1\n      pop\n        /* \"FundRaising.sol\":2508:2532  _mint(to, _currentIndex) */\n      tag_367\n        /* \"FundRaising.sol\":2514:2516  to */\n      dup5\n        /* \"FundRaising.sol\":2518:2531  _currentIndex */\n      sload(0x09)\n        /* \"FundRaising.sol\":2508:2513  _mint */\n      tag_249\n        /* \"FundRaising.sol\":2508:2532  _mint(to, _currentIndex) */\n      jump\t// in\n    tag_367:\n        /* \"FundRaising.sol\":2542:2580  _setTokenURI(_currentIndex, _tokenURI) */\n      tag_368\n        /* \"FundRaising.sol\":2555:2568  _currentIndex */\n      sload(0x09)\n        /* \"FundRaising.sol\":2570:2579  _tokenURI */\n      dup3\n        /* \"FundRaising.sol\":2542:2554  _setTokenURI */\n      tag_189\n        /* \"FundRaising.sol\":2542:2580  _setTokenURI(_currentIndex, _tokenURI) */\n      jump\t// in\n    tag_368:\n        /* \"FundRaising.sol\":2618:2631  _currentIndex */\n      sload(0x09)\n        /* \"FundRaising.sol\":2596:2651  Share(msg.sender, to, _currentIndex, tokenIdToBeShared) */\n      mload(0x40)\n        /* \"#utility.yul\":5201:5226   */\n      dup5\n      dup2\n      mstore\n      sub(shl(0xa0, 0x01), 0x01)\n        /* \"FundRaising.sol\":2596:2651  Share(msg.sender, to, _currentIndex, tokenIdToBeShared) */\n      dup7\n      and\n      swap1\n        /* \"FundRaising.sol\":2602:2612  msg.sender */\n      caller\n      swap1\n        /* \"FundRaising.sol\":2596:2651  Share(msg.sender, to, _currentIndex, tokenIdToBeShared) */\n      0xc9a349c2b09c746e2edebb75faaf556c1c0c89d2c196a1f988ece46ee152bd52\n      swap1\n        /* \"#utility.yul\":5189:5191   */\n      0x20\n        /* \"#utility.yul\":5174:5192   */\n      add\n        /* \"FundRaising.sol\":2596:2651  Share(msg.sender, to, _currentIndex, tokenIdToBeShared) */\n      mload(0x40)\n      dup1\n      swap2\n      sub\n      swap1\n      log4\n        /* \"FundRaising.sol\":2669:2682  _currentIndex */\n      0x09\n        /* \"FundRaising.sol\":2669:2684  _currentIndex++ */\n      dup1\n      sload\n      swap1\n        /* \"FundRaising.sol\":2669:2682  _currentIndex */\n      0x00\n        /* \"FundRaising.sol\":2669:2684  _currentIndex++ */\n      tag_370\n      dup4\n      tag_323\n      jump\t// in\n    tag_370:\n      swap1\n      swap2\n      sstore\n      pop\n        /* \"FundRaising.sol\":2662:2684  return _currentIndex++ */\n      swap5\n        /* \"FundRaising.sol\":1973:2691  function share(address to, uint256 tokenIdToBeShared)... */\n      swap4\n      pop\n      pop\n      pop\n      pop\n      jump\t// out\n        /* \"@openzeppelin/contracts/token/ERC721/ERC721.sol\":3928:4081  function isApprovedForAll(address owner, address operator) public view virtual returns (bool) {... */\n    tag_157:\n      sub(shl(0xa0, 0x01), 0x01)\n        /* \"@openzeppelin/contracts/token/ERC721/ERC721.sol\":4039:4064  _operatorApprovals[owner] */\n      swap2\n      dup3\n      and\n        /* \"@openzeppelin/contracts/token/ERC721/ERC721.sol\":4016:4020  bool */\n      0x00\n        /* \"@openzeppelin/contracts/token/ERC721/ERC721.sol\":4039:4064  _operatorApprovals[owner] */\n      swap1\n      dup2\n      mstore\n        /* \"@openzeppelin/contracts/token/ERC721/ERC721.sol\":4039:4057  _operatorApprovals */\n      0x05\n        /* \"@openzeppelin/contracts/token/ERC721/ERC721.sol\":4039:4064  _operatorApprovals[owner] */\n      0x20\n      swap1\n      dup2\n      mstore\n      0x40\n      dup1\n      dup4\n      keccak256\n        /* \"@openzeppelin/contracts/token/ERC721/ERC721.sol\":4039:4074  _operatorApprovals[owner][operator] */\n      swap4\n      swap1\n      swap5\n      and\n      dup3\n      mstore\n      swap2\n      swap1\n      swap2\n      mstore\n      keccak256\n      sload\n      0xff\n      and\n      swap1\n        /* \"@openzeppelin/contracts/token/ERC721/ERC721.sol\":3928:4081  function isApprovedForAll(address owner, address operator) public view virtual returns (bool) {... */\n      jump\t// out\n        /* \"@openzeppelin/contracts/access/Ownable.sol\":2543:2758  function transferOwnership(address newOwner) public virtual onlyOwner {... */\n    tag_162:\n        /* \"@openzeppelin/contracts/access/Ownable.sol\":1531:1544  _checkOwner() */\n      tag_373\n        /* \"@openzeppelin/contracts/access/Ownable.sol\":1531:1542  _checkOwner */\n      tag_186\n        /* \"@openzeppelin/contracts/access/Ownable.sol\":1531:1544  _checkOwner() */\n      jump\t// in\n    tag_373:\n      sub(shl(0xa0, 0x01), 0x01)\n        /* \"@openzeppelin/contracts/access/Ownable.sol\":2627:2649  newOwner == address(0) */\n      dup2\n      and\n        /* \"@openzeppelin/contracts/access/Ownable.sol\":2623:2714  if (newOwner == address(0)) {... */\n      tag_375\n      jumpi\n        /* \"@openzeppelin/contracts/access/Ownable.sol\":2700:2701  0 */\n      0x00\n        /* \"@openzeppelin/contracts/access/Ownable.sol\":2672:2703  OwnableInvalidOwner(address(0)) */\n      mload(0x40)\n      shl(0xe0, 0x1e4fbdf7)\n      dup2\n      mstore\n      0x04\n      add\n      tag_194\n      swap2\n      swap1\n      tag_48\n      jump\t// in\n        /* \"@openzeppelin/contracts/access/Ownable.sol\":2623:2714  if (newOwner == address(0)) {... */\n    tag_375:\n        /* \"@openzeppelin/contracts/access/Ownable.sol\":2723:2751  _transferOwnership(newOwner) */\n      tag_377\n        /* \"@openzeppelin/contracts/access/Ownable.sol\":2742:2750  newOwner */\n      dup2\n        /* \"@openzeppelin/contracts/access/Ownable.sol\":2723:2741  _transferOwnership */\n      tag_279\n        /* \"@openzeppelin/contracts/access/Ownable.sol\":2723:2751  _transferOwnership(newOwner) */\n      jump\t// in\n    tag_377:\n        /* \"@openzeppelin/contracts/access/Ownable.sol\":2543:2758  function transferOwnership(address newOwner) public virtual onlyOwner {... */\n      pop\n      jump\t// out\n        /* \"@openzeppelin/contracts/token/ERC721/ERC721.sol\":1561:1861  function supportsInterface(bytes4 interfaceId) public view virtual override(ERC165, IERC165) returns (bool) {... */\n    tag_166:\n        /* \"@openzeppelin/contracts/token/ERC721/ERC721.sol\":1663:1667  bool */\n      0x00\n      not(sub(shl(0xe0, 0x01), 0x01))\n        /* \"@openzeppelin/contracts/token/ERC721/ERC721.sol\":1698:1738  interfaceId == type(IERC721).interfaceId */\n      dup3\n      and\n      shl(0xe0, 0x80ac58cd)\n      eq\n      dup1\n        /* \"@openzeppelin/contracts/token/ERC721/ERC721.sol\":1698:1802  interfaceId == type(IERC721).interfaceId ||... */\n      tag_379\n      jumpi\n      pop\n      not(sub(shl(0xe0, 0x01), 0x01))\n        /* \"@openzeppelin/contracts/token/ERC721/ERC721.sol\":1754:1802  interfaceId == type(IERC721Metadata).interfaceId */\n      dup3\n      and\n      shl(0xe0, 0x5b5e139f)\n      eq\n        /* \"@openzeppelin/contracts/token/ERC721/ERC721.sol\":1698:1802  interfaceId == type(IERC721).interfaceId ||... */\n    tag_379:\n        /* \"@openzeppelin/contracts/token/ERC721/ERC721.sol\":1698:1854  interfaceId == type(IERC721).interfaceId ||... */\n      dup1\n      tag_165\n      jumpi\n      pop\n      shl(0xe0, 0x01ffc9a7)\n      not(sub(shl(0xe0, 0x01), 0x01))\n        /* \"@openzeppelin/contracts/utils/introspection/ERC165.sol\":861:901  interfaceId == type(IERC165).interfaceId */\n      dup4\n      and\n      eq\n        /* \"@openzeppelin/contracts/token/ERC721/ERC721.sol\":1818:1854  super.supportsInterface(interfaceId) */\n      tag_165\n        /* \"@openzeppelin/contracts/utils/introspection/ERC165.sol\":762:908  function supportsInterface(bytes4 interfaceId) public view virtual returns (bool) {... */\n      jump\n        /* \"@openzeppelin/contracts/token/ERC721/ERC721.sol\":16147:16388  function _requireOwned(uint256 tokenId) internal view returns (address) {... */\n    tag_176:\n        /* \"@openzeppelin/contracts/token/ERC721/ERC721.sol\":16210:16217  address */\n      0x00\n        /* \"@openzeppelin/contracts/token/ERC721/ERC721.sol\":16229:16242  address owner */\n      dup1\n        /* \"@openzeppelin/contracts/token/ERC721/ERC721.sol\":16245:16262  _ownerOf(tokenId) */\n      tag_384\n        /* \"@openzeppelin/contracts/token/ERC721/ERC721.sol\":16254:16261  tokenId */\n      dup4\n        /* \"@openzeppelin/contracts/token/ERC721/ERC721.sol\":16245:16253  _ownerOf */\n      tag_385\n        /* \"@openzeppelin/contracts/token/ERC721/ERC721.sol\":16245:16262  _ownerOf(tokenId) */\n      jump\t// in\n    tag_384:\n        /* \"@openzeppelin/contracts/token/ERC721/ERC721.sol\":16229:16262  address owner = _ownerOf(tokenId) */\n      swap1\n      pop\n      sub(shl(0xa0, 0x01), 0x01)\n        /* \"@openzeppelin/contracts/token/ERC721/ERC721.sol\":16276:16295  owner == address(0) */\n      dup2\n      and\n        /* \"@openzeppelin/contracts/token/ERC721/ERC721.sol\":16272:16360  if (owner == address(0)) {... */\n      tag_165\n      jumpi\n        /* \"@openzeppelin/contracts/token/ERC721/ERC721.sol\":16318:16349  ERC721NonexistentToken(tokenId) */\n      mload(0x40)\n      shl(0xe0, 0x7e273289)\n      dup2\n      mstore\n      0x04\n      dup2\n      add\n        /* \"#utility.yul\":5201:5226   */\n      dup5\n      swap1\n      mstore\n        /* \"#utility.yul\":5174:5192   */\n      0x24\n      add\n        /* \"@openzeppelin/contracts/token/ERC721/ERC721.sol\":16318:16349  ERC721NonexistentToken(tokenId) */\n      tag_194\n        /* \"#utility.yul\":5055:5232   */\n      jump\n        /* \"@openzeppelin/contracts/token/ERC721/ERC721.sol\":5947:6074  function _getApproved(uint256 tokenId) internal view virtual returns (address) {... */\n    tag_178:\n        /* \"@openzeppelin/contracts/token/ERC721/ERC721.sol\":6017:6024  address */\n      0x00\n        /* \"@openzeppelin/contracts/token/ERC721/ERC721.sol\":6043:6067  _tokenApprovals[tokenId] */\n      swap1\n      dup2\n      mstore\n        /* \"@openzeppelin/contracts/token/ERC721/ERC721.sol\":6043:6058  _tokenApprovals */\n      0x04\n        /* \"@openzeppelin/contracts/token/ERC721/ERC721.sol\":6043:6067  _tokenApprovals[tokenId] */\n      0x20\n      mstore\n      0x40\n      swap1\n      keccak256\n      sload\n      sub(shl(0xa0, 0x01), 0x01)\n      and\n      swap1\n        /* \"@openzeppelin/contracts/token/ERC721/ERC721.sol\":5947:6074  function _getApproved(uint256 tokenId) internal view virtual returns (address) {... */\n      jump\t// out\n        /* \"@openzeppelin/contracts/token/ERC721/ERC721.sol\":14427:14547  function _approve(address to, uint256 tokenId, address auth) internal {... */\n    tag_183:\n        /* \"@openzeppelin/contracts/token/ERC721/ERC721.sol\":14507:14540  _approve(to, tokenId, auth, true) */\n      tag_251\n        /* \"@openzeppelin/contracts/token/ERC721/ERC721.sol\":14516:14518  to */\n      dup4\n        /* \"@openzeppelin/contracts/token/ERC721/ERC721.sol\":14520:14527  tokenId */\n      dup4\n        /* \"@openzeppelin/contracts/token/ERC721/ERC721.sol\":14529:14533  auth */\n      dup4\n        /* \"@openzeppelin/contracts/token/ERC721/ERC721.sol\":14535:14539  true */\n      0x01\n        /* \"@openzeppelin/contracts/token/ERC721/ERC721.sol\":14507:14515  _approve */\n      tag_392\n        /* \"@openzeppelin/contracts/token/ERC721/ERC721.sol\":14507:14540  _approve(to, tokenId, auth, true) */\n      jump\t// in\n        /* \"@openzeppelin/contracts/access/Ownable.sol\":1796:1958  function _checkOwner() internal view virtual {... */\n    tag_186:\n        /* \"@openzeppelin/contracts/utils/Context.sol\":735:745  msg.sender */\n      caller\n        /* \"@openzeppelin/contracts/access/Ownable.sol\":1855:1862  owner() */\n      tag_395\n        /* \"@openzeppelin/contracts/access/Ownable.sol\":1855:1860  owner */\n      tag_115\n        /* \"@openzeppelin/contracts/access/Ownable.sol\":1855:1862  owner() */\n      jump\t// in\n    tag_395:\n      sub(shl(0xa0, 0x01), 0x01)\n        /* \"@openzeppelin/contracts/access/Ownable.sol\":1855:1878  owner() != _msgSender() */\n      and\n      eq\n        /* \"@openzeppelin/contracts/access/Ownable.sol\":1851:1952  if (owner() != _msgSender()) {... */\n      tag_278\n      jumpi\n        /* \"@openzeppelin/contracts/utils/Context.sol\":735:745  msg.sender */\n      caller\n        /* \"@openzeppelin/contracts/access/Ownable.sol\":1901:1941  OwnableUnauthorizedAccount(_msgSender()) */\n      mload(0x40)\n      shl(0xe0, 0x118cdaa7)\n      dup2\n      mstore\n      0x04\n      add\n      tag_194\n      swap2\n      swap1\n      tag_48\n      jump\t// in\n        /* \"@openzeppelin/contracts/token/ERC721/extensions/ERC721URIStorage.sol\":1922:2089  function _setTokenURI(uint256 tokenId, string memory _tokenURI) internal virtual {... */\n    tag_189:\n        /* \"@openzeppelin/contracts/token/ERC721/extensions/ERC721URIStorage.sol\":2013:2032  _tokenURIs[tokenId] */\n      0x00\n      dup3\n      dup2\n      mstore\n        /* \"@openzeppelin/contracts/token/ERC721/extensions/ERC721URIStorage.sol\":2013:2023  _tokenURIs */\n      0x06\n        /* \"@openzeppelin/contracts/token/ERC721/extensions/ERC721URIStorage.sol\":2013:2032  _tokenURIs[tokenId] */\n      0x20\n      mstore\n      0x40\n      swap1\n      keccak256\n        /* \"@openzeppelin/contracts/token/ERC721/extensions/ERC721URIStorage.sol\":2013:2044  _tokenURIs[tokenId] = _tokenURI */\n      tag_400\n        /* \"@openzeppelin/contracts/token/ERC721/extensions/ERC721URIStorage.sol\":2035:2044  _tokenURI */\n      dup3\n        /* \"@openzeppelin/contracts/token/ERC721/extensions/ERC721URIStorage.sol\":2013:2032  _tokenURIs[tokenId] */\n      dup3\n        /* \"@openzeppelin/contracts/token/ERC721/extensions/ERC721URIStorage.sol\":2013:2044  _tokenURIs[tokenId] = _tokenURI */\n      tag_264\n      jump\t// in\n    tag_400:\n      pop\n        /* \"@openzeppelin/contracts/token/ERC721/extensions/ERC721URIStorage.sol\":2059:2082  MetadataUpdate(tokenId) */\n      mload(0x40)\n        /* \"#utility.yul\":5201:5226   */\n      dup3\n      dup2\n      mstore\n        /* \"@openzeppelin/contracts/token/ERC721/extensions/ERC721URIStorage.sol\":2059:2082  MetadataUpdate(tokenId) */\n      0xf8e1a15aba9398e019f0b49df1a4fde98ee17ae345cb5f6b5e2c27f5033e8ce7\n      swap1\n        /* \"#utility.yul\":5189:5191   */\n      0x20\n        /* \"#utility.yul\":5174:5192   */\n      add\n        /* \"@openzeppelin/contracts/token/ERC721/extensions/ERC721URIStorage.sol\":2059:2082  MetadataUpdate(tokenId) */\n      mload(0x40)\n      dup1\n      swap2\n      sub\n      swap1\n      log1\n        /* \"@openzeppelin/contracts/token/ERC721/extensions/ERC721URIStorage.sol\":1922:2089  function _setTokenURI(uint256 tokenId, string memory _tokenURI) internal virtual {... */\n      pop\n      pop\n      jump\t// out\n        /* \"FundRaising.sol\":7160:7277  function _exists(uint256 tokenId) internal view returns (bool) {... */\n    tag_192:\n        /* \"FundRaising.sol\":7217:7221  bool */\n      0x00\n        /* \"FundRaising.sol\":7240:7256  _owners[tokenId] */\n      swap1\n      dup2\n      mstore\n        /* \"FundRaising.sol\":7240:7247  _owners */\n      0x11\n        /* \"FundRaising.sol\":7240:7256  _owners[tokenId] */\n      0x20\n      mstore\n      0x40\n      swap1\n      keccak256\n      sload\n      sub(shl(0xa0, 0x01), 0x01)\n      and\n        /* \"FundRaising.sol\":7240:7270  _owners[tokenId] != address(0) */\n      iszero\n      iszero\n      swap1\n        /* \"FundRaising.sol\":7160:7277  function _exists(uint256 tokenId) internal view returns (bool) {... */\n      jump\t// out\n        /* \"@openzeppelin/contracts/token/ERC721/ERC721.sol\":8847:9642  function _update(address to, uint256 tokenId, address auth) internal virtual returns (address) {... */\n    tag_217:\n        /* \"@openzeppelin/contracts/token/ERC721/ERC721.sol\":8933:8940  address */\n      0x00\n        /* \"@openzeppelin/contracts/token/ERC721/ERC721.sol\":8952:8964  address from */\n      dup1\n        /* \"@openzeppelin/contracts/token/ERC721/ERC721.sol\":8967:8984  _ownerOf(tokenId) */\n      tag_404\n        /* \"@openzeppelin/contracts/token/ERC721/ERC721.sol\":8976:8983  tokenId */\n      dup5\n        /* \"@openzeppelin/contracts/token/ERC721/ERC721.sol\":8967:8975  _ownerOf */\n      tag_385\n        /* \"@openzeppelin/contracts/token/ERC721/ERC721.sol\":8967:8984  _ownerOf(tokenId) */\n      jump\t// in\n    tag_404:\n        /* \"@openzeppelin/contracts/token/ERC721/ERC721.sol\":8952:8984  address from = _ownerOf(tokenId) */\n      swap1\n      pop\n      sub(shl(0xa0, 0x01), 0x01)\n        /* \"@openzeppelin/contracts/token/ERC721/ERC721.sol\":9044:9062  auth != address(0) */\n      dup4\n      and\n      iszero\n        /* \"@openzeppelin/contracts/token/ERC721/ERC721.sol\":9040:9126  if (auth != address(0)) {... */\n      tag_406\n      jumpi\n        /* \"@openzeppelin/contracts/token/ERC721/ERC721.sol\":9078:9115  _checkAuthorized(from, auth, tokenId) */\n      tag_406\n        /* \"@openzeppelin/contracts/token/ERC721/ERC721.sol\":9095:9099  from */\n      dup2\n        /* \"@openzeppelin/contracts/token/ERC721/ERC721.sol\":9101:9105  auth */\n      dup5\n        /* \"@openzeppelin/contracts/token/ERC721/ERC721.sol\":9107:9114  tokenId */\n      dup7\n        /* \"@openzeppelin/contracts/token/ERC721/ERC721.sol\":9078:9094  _checkAuthorized */\n      tag_407\n        /* \"@openzeppelin/contracts/token/ERC721/ERC721.sol\":9078:9115  _checkAuthorized(from, auth, tokenId) */\n      jump\t// in\n    tag_406:\n      sub(shl(0xa0, 0x01), 0x01)\n        /* \"@openzeppelin/contracts/token/ERC721/ERC721.sol\":9170:9188  from != address(0) */\n      dup2\n      and\n      iszero\n        /* \"@openzeppelin/contracts/token/ERC721/ERC721.sol\":9166:9422  if (from != address(0)) {... */\n      tag_408\n      jumpi\n        /* \"@openzeppelin/contracts/token/ERC721/ERC721.sol\":9286:9334  _approve(address(0), tokenId, address(0), false) */\n      tag_409\n        /* \"@openzeppelin/contracts/token/ERC721/ERC721.sol\":9303:9304  0 */\n      0x00\n        /* \"@openzeppelin/contracts/token/ERC721/ERC721.sol\":9307:9314  tokenId */\n      dup6\n        /* \"@openzeppelin/contracts/token/ERC721/ERC721.sol\":9324:9325  0 */\n      0x00\n        /* \"@openzeppelin/contracts/token/ERC721/ERC721.sol\":9328:9333  false */\n      dup1\n        /* \"@openzeppelin/contracts/token/ERC721/ERC721.sol\":9286:9294  _approve */\n      tag_392\n        /* \"@openzeppelin/contracts/token/ERC721/ERC721.sol\":9286:9334  _approve(address(0), tokenId, address(0), false) */\n      jump\t// in\n    tag_409:\n      sub(shl(0xa0, 0x01), 0x01)\n        /* \"@openzeppelin/contracts/token/ERC721/ERC721.sol\":9377:9392  _balances[from] */\n      dup2\n      and\n      0x00\n      swap1\n      dup2\n      mstore\n        /* \"@openzeppelin/contracts/token/ERC721/ERC721.sol\":9377:9386  _balances */\n      0x03\n        /* \"@openzeppelin/contracts/token/ERC721/ERC721.sol\":9377:9392  _balances[from] */\n      0x20\n      mstore\n      0x40\n      swap1\n      keccak256\n        /* \"@openzeppelin/contracts/token/ERC721/ERC721.sol\":9377:9397  _balances[from] -= 1 */\n      dup1\n      sload\n      not(0x00)\n      add\n      swap1\n      sstore\n        /* \"@openzeppelin/contracts/token/ERC721/ERC721.sol\":9166:9422  if (from != address(0)) {... */\n    tag_408:\n      sub(shl(0xa0, 0x01), 0x01)\n        /* \"@openzeppelin/contracts/token/ERC721/ERC721.sol\":9436:9452  to != address(0) */\n      dup6\n      and\n      iszero\n        /* \"@openzeppelin/contracts/token/ERC721/ERC721.sol\":9432:9539  if (to != address(0)) {... */\n      tag_410\n      jumpi\n      sub(shl(0xa0, 0x01), 0x01)\n        /* \"@openzeppelin/contracts/token/ERC721/ERC721.sol\":9496:9509  _balances[to] */\n      dup6\n      and\n      0x00\n      swap1\n      dup2\n      mstore\n        /* \"@openzeppelin/contracts/token/ERC721/ERC721.sol\":9496:9505  _balances */\n      0x03\n        /* \"@openzeppelin/contracts/token/ERC721/ERC721.sol\":9496:9509  _balances[to] */\n      0x20\n      mstore\n      0x40\n      swap1\n      keccak256\n        /* \"@openzeppelin/contracts/token/ERC721/ERC721.sol\":9496:9514  _balances[to] += 1 */\n      dup1\n      sload\n        /* \"@openzeppelin/contracts/token/ERC721/ERC721.sol\":9513:9514  1 */\n      0x01\n        /* \"@openzeppelin/contracts/token/ERC721/ERC721.sol\":9496:9514  _balances[to] += 1 */\n      add\n      swap1\n      sstore\n        /* \"@openzeppelin/contracts/token/ERC721/ERC721.sol\":9432:9539  if (to != address(0)) {... */\n    tag_410:\n        /* \"@openzeppelin/contracts/token/ERC721/ERC721.sol\":9549:9565  _owners[tokenId] */\n      0x00\n      dup5\n      dup2\n      mstore\n        /* \"@openzeppelin/contracts/token/ERC721/ERC721.sol\":9549:9556  _owners */\n      0x02\n        /* \"@openzeppelin/contracts/token/ERC721/ERC721.sol\":9549:9565  _owners[tokenId] */\n      0x20\n      mstore\n      0x40\n      dup1\n      dup3\n      keccak256\n        /* \"@openzeppelin/contracts/token/ERC721/ERC721.sol\":9549:9570  _owners[tokenId] = to */\n      dup1\n      sload\n      not(sub(shl(0xa0, 0x01), 0x01))\n      and\n      sub(shl(0xa0, 0x01), 0x01)\n      dup10\n      dup2\n      and\n      swap2\n      dup3\n      or\n      swap1\n      swap3\n      sstore\n        /* \"@openzeppelin/contracts/token/ERC721/ERC721.sol\":9586:9613  Transfer(from, to, tokenId) */\n      swap2\n      mload\n        /* \"@openzeppelin/contracts/token/ERC721/ERC721.sol\":9549:9565  _owners[tokenId] */\n      dup8\n      swap4\n        /* \"@openzeppelin/contracts/token/ERC721/ERC721.sol\":9586:9613  Transfer(from, to, tokenId) */\n      swap2\n      dup6\n      and\n      swap2\n      0xddf252ad1be2c89b69c2b068fc378daa952ba7f163c4a11628f55a4df523b3ef\n      swap2\n      log4\n        /* \"@openzeppelin/contracts/token/ERC721/ERC721.sol\":9631:9635  from */\n      swap5\n        /* \"@openzeppelin/contracts/token/ERC721/ERC721.sol\":8847:9642  function _update(address to, uint256 tokenId, address auth) internal virtual returns (address) {... */\n      swap4\n      pop\n      pop\n      pop\n      pop\n      jump\t// out\n        /* \"@openzeppelin/contracts/token/ERC721/ERC721.sol\":9964:10291  function _mint(address to, uint256 tokenId) internal {... */\n    tag_249:\n      sub(shl(0xa0, 0x01), 0x01)\n        /* \"@openzeppelin/contracts/token/ERC721/ERC721.sol\":10031:10047  to == address(0) */\n      dup3\n      and\n        /* \"@openzeppelin/contracts/token/ERC721/ERC721.sol\":10027:10114  if (to == address(0)) {... */\n      tag_412\n      jumpi\n        /* \"@openzeppelin/contracts/token/ERC721/ERC721.sol\":10100:10101  0 */\n      0x00\n        /* \"@openzeppelin/contracts/token/ERC721/ERC721.sol\":10070:10103  ERC721InvalidReceiver(address(0)) */\n      mload(0x40)\n      shl(0xe1, 0x32505749)\n      dup2\n      mstore\n      0x04\n      add\n      tag_194\n      swap2\n      swap1\n      tag_48\n      jump\t// in\n        /* \"@openzeppelin/contracts/token/ERC721/ERC721.sol\":10027:10114  if (to == address(0)) {... */\n    tag_412:\n        /* \"@openzeppelin/contracts/token/ERC721/ERC721.sol\":10123:10144  address previousOwner */\n      0x00\n        /* \"@openzeppelin/contracts/token/ERC721/ERC721.sol\":10147:10179  _update(to, tokenId, address(0)) */\n      tag_414\n        /* \"@openzeppelin/contracts/token/ERC721/ERC721.sol\":10155:10157  to */\n      dup4\n        /* \"@openzeppelin/contracts/token/ERC721/ERC721.sol\":10159:10166  tokenId */\n      dup4\n        /* \"@openzeppelin/contracts/token/ERC721/ERC721.sol\":10176:10177  0 */\n      0x00\n        /* \"@openzeppelin/contracts/token/ERC721/ERC721.sol\":10147:10154  _update */\n      tag_217\n        /* \"@openzeppelin/contracts/token/ERC721/ERC721.sol\":10147:10179  _update(to, tokenId, address(0)) */\n      jump\t// in\n    tag_414:\n        /* \"@openzeppelin/contracts/token/ERC721/ERC721.sol\":10123:10179  address previousOwner = _update(to, tokenId, address(0)) */\n      swap1\n      pop\n      sub(shl(0xa0, 0x01), 0x01)\n        /* \"@openzeppelin/contracts/token/ERC721/ERC721.sol\":10193:10220  previousOwner != address(0) */\n      dup2\n      and\n      iszero\n        /* \"@openzeppelin/contracts/token/ERC721/ERC721.sol\":10189:10285  if (previousOwner != address(0)) {... */\n      tag_251\n      jumpi\n        /* \"@openzeppelin/contracts/token/ERC721/ERC721.sol\":10271:10272  0 */\n      0x00\n        /* \"@openzeppelin/contracts/token/ERC721/ERC721.sol\":10243:10274  ERC721InvalidSender(address(0)) */\n      mload(0x40)\n      shl(0xe1, 0x39e35637)\n      dup2\n      mstore\n      0x04\n      add\n      tag_194\n      swap2\n      swap1\n      tag_48\n      jump\t// in\n        /* \"@openzeppelin/contracts/access/Ownable.sol\":2912:3099  function _transferOwnership(address newOwner) internal virtual {... */\n    tag_279:\n        /* \"@openzeppelin/contracts/access/Ownable.sol\":3004:3010  _owner */\n      0x07\n      dup1\n      sload\n      sub(shl(0xa0, 0x01), 0x01)\n        /* \"@openzeppelin/contracts/access/Ownable.sol\":3020:3037  _owner = newOwner */\n      dup4\n      dup2\n      and\n      not(sub(shl(0xa0, 0x01), 0x01))\n      dup4\n      and\n      dup2\n      or\n      swap1\n      swap4\n      sstore\n        /* \"@openzeppelin/contracts/access/Ownable.sol\":3052:3092  OwnershipTransferred(oldOwner, newOwner) */\n      mload(0x40)\n        /* \"@openzeppelin/contracts/access/Ownable.sol\":3004:3010  _owner */\n      swap2\n      and\n      swap2\n        /* \"@openzeppelin/contracts/access/Ownable.sol\":3020:3037  _owner = newOwner */\n      swap1\n        /* \"@openzeppelin/contracts/access/Ownable.sol\":3004:3010  _owner */\n      dup3\n      swap1\n        /* \"@openzeppelin/contracts/access/Ownable.sol\":3052:3092  OwnershipTransferred(oldOwner, newOwner) */\n      0x8be0079c531659141344cd1fd0a4f28419497f9722a3daafe3b4186f6b6457e0\n      swap1\n        /* \"@openzeppelin/contracts/access/Ownable.sol\":2985:3001  address oldOwner */\n      0x00\n      swap1\n        /* \"@openzeppelin/contracts/access/Ownable.sol\":3052:3092  OwnershipTransferred(oldOwner, newOwner) */\n      log3\n        /* \"@openzeppelin/contracts/access/Ownable.sol\":2975:3099  {... */\n      pop\n        /* \"@openzeppelin/contracts/access/Ownable.sol\":2912:3099  function _transferOwnership(address newOwner) internal virtual {... */\n      pop\n      jump\t// out\n        /* \"@openzeppelin/contracts/token/ERC721/ERC721.sol\":15600:15912  function _setApprovalForAll(address owner, address operator, bool approved) internal virtual {... */\n    tag_290:\n      sub(shl(0xa0, 0x01), 0x01)\n        /* \"@openzeppelin/contracts/token/ERC721/ERC721.sol\":15707:15729  operator == address(0) */\n      dup3\n      and\n        /* \"@openzeppelin/contracts/token/ERC721/ERC721.sol\":15703:15794  if (operator == address(0)) {... */\n      tag_419\n      jumpi\n        /* \"@openzeppelin/contracts/token/ERC721/ERC721.sol\":15774:15782  operator */\n      dup2\n        /* \"@openzeppelin/contracts/token/ERC721/ERC721.sol\":15752:15783  ERC721InvalidOperator(operator) */\n      mload(0x40)\n      shl(0xe3, 0x0b611743)\n      dup2\n      mstore\n      0x04\n      add\n      tag_194\n      swap2\n      swap1\n      tag_48\n      jump\t// in\n        /* \"@openzeppelin/contracts/token/ERC721/ERC721.sol\":15703:15794  if (operator == address(0)) {... */\n    tag_419:\n      sub(shl(0xa0, 0x01), 0x01)\n        /* \"@openzeppelin/contracts/token/ERC721/ERC721.sol\":15803:15828  _operatorApprovals[owner] */\n      dup4\n      dup2\n      and\n      0x00\n      dup2\n      dup2\n      mstore\n        /* \"@openzeppelin/contracts/token/ERC721/ERC721.sol\":15803:15821  _operatorApprovals */\n      0x05\n        /* \"@openzeppelin/contracts/token/ERC721/ERC721.sol\":15803:15828  _operatorApprovals[owner] */\n      0x20\n      swap1\n      dup2\n      mstore\n      0x40\n      dup1\n      dup4\n      keccak256\n        /* \"@openzeppelin/contracts/token/ERC721/ERC721.sol\":15803:15838  _operatorApprovals[owner][operator] */\n      swap5\n      dup8\n      and\n      dup1\n      dup5\n      mstore\n      swap5\n      dup3\n      mstore\n      swap2\n      dup3\n      swap1\n      keccak256\n        /* \"@openzeppelin/contracts/token/ERC721/ERC721.sol\":15803:15849  _operatorApprovals[owner][operator] = approved */\n      dup1\n      sload\n      not(0xff)\n      and\n      dup7\n      iszero\n      iszero\n      swap1\n      dup2\n      or\n      swap1\n      swap2\n      sstore\n        /* \"@openzeppelin/contracts/token/ERC721/ERC721.sol\":15864:15905  ApprovalForAll(owner, operator, approved) */\n      swap2\n      mload\n        /* \"#utility.yul\":540:581   */\n      swap2\n      dup3\n      mstore\n        /* \"@openzeppelin/contracts/token/ERC721/ERC721.sol\":15864:15905  ApprovalForAll(owner, operator, approved) */\n      0x17307eab39ab6107e8899845ad3d59bd9653f200f220920489ca2b5937696c31\n      swap2\n        /* \"#utility.yul\":513:531   */\n      add\n        /* \"@openzeppelin/contracts/token/ERC721/ERC721.sol\":15864:15905  ApprovalForAll(owner, operator, approved) */\n      mload(0x40)\n      dup1\n      swap2\n      sub\n      swap1\n      log3\n        /* \"@openzeppelin/contracts/token/ERC721/ERC721.sol\":15600:15912  function _setApprovalForAll(address owner, address operator, bool approved) internal virtual {... */\n      pop\n      pop\n      pop\n      jump\t// out\n        /* \"@openzeppelin/contracts/token/ERC721/ERC721.sol\":16927:17709  function _checkOnERC721Received(address from, address to, uint256 tokenId, bytes memory data) private {... */\n    tag_301:\n      sub(shl(0xa0, 0x01), 0x01)\n        /* \"@openzeppelin/contracts/token/ERC721/ERC721.sol\":17043:17057  to.code.length */\n      dup4\n      and\n      extcodesize\n        /* \"@openzeppelin/contracts/token/ERC721/ERC721.sol\":17043:17061  to.code.length > 0 */\n      iszero\n        /* \"@openzeppelin/contracts/token/ERC721/ERC721.sol\":17039:17703  if (to.code.length > 0) {... */\n      tag_211\n      jumpi\n        /* \"@openzeppelin/contracts/token/ERC721/ERC721.sol\":17081:17152  IERC721Receiver(to).onERC721Received(_msgSender(), from, tokenId, data) */\n      mload(0x40)\n      shl(0xe1, 0x0a85bd01)\n      dup2\n      mstore\n      sub(shl(0xa0, 0x01), 0x01)\n        /* \"@openzeppelin/contracts/token/ERC721/ERC721.sol\":17081:17117  IERC721Receiver(to).onERC721Received */\n      dup5\n      and\n      swap1\n      0x150b7a02\n      swap1\n        /* \"@openzeppelin/contracts/token/ERC721/ERC721.sol\":17081:17152  IERC721Receiver(to).onERC721Received(_msgSender(), from, tokenId, data) */\n      tag_425\n      swap1\n        /* \"@openzeppelin/contracts/utils/Context.sol\":735:745  msg.sender */\n      caller\n      swap1\n        /* \"@openzeppelin/contracts/token/ERC721/ERC721.sol\":17132:17136  from */\n      dup9\n      swap1\n        /* \"@openzeppelin/contracts/token/ERC721/ERC721.sol\":17138:17145  tokenId */\n      dup8\n      swap1\n        /* \"@openzeppelin/contracts/token/ERC721/ERC721.sol\":17147:17151  data */\n      dup8\n      swap1\n        /* \"@openzeppelin/contracts/token/ERC721/ERC721.sol\":17081:17152  IERC721Receiver(to).onERC721Received(_msgSender(), from, tokenId, data) */\n      0x04\n      add\n      tag_426\n      jump\t// in\n    tag_425:\n      0x20\n      mload(0x40)\n      dup1\n      dup4\n      sub\n      dup2\n      0x00\n      dup8\n      gas\n      call\n      swap3\n      pop\n      pop\n      pop\n      dup1\n      iszero\n      tag_427\n      jumpi\n      pop\n      0x40\n      dup1\n      mload\n      0x1f\n      returndatasize\n      swap1\n      dup2\n      add\n      not(0x1f)\n      and\n      dup3\n      add\n      swap1\n      swap3\n      mstore\n      tag_428\n      swap2\n      dup2\n      add\n      swap1\n      tag_429\n      jump\t// in\n    tag_428:\n      0x01\n    tag_427:\n        /* \"@openzeppelin/contracts/token/ERC721/ERC721.sol\":17077:17693  try IERC721Receiver(to).onERC721Received(_msgSender(), from, tokenId, data) returns (bytes4 retval) {... */\n      tag_430\n      jumpi\n      returndatasize\n      dup1\n      dup1\n      iszero\n      tag_435\n      jumpi\n      mload(0x40)\n      swap2\n      pop\n      and(add(returndatasize, 0x3f), not(0x1f))\n      dup3\n      add\n      0x40\n      mstore\n      returndatasize\n      dup3\n      mstore\n      returndatasize\n      0x00\n      0x20\n      dup5\n      add\n      returndatacopy\n      jump(tag_434)\n    tag_435:\n      0x60\n      swap2\n      pop\n    tag_434:\n      pop\n        /* \"@openzeppelin/contracts/token/ERC721/ERC721.sol\":17390:17396  reason */\n      dup1\n        /* \"@openzeppelin/contracts/token/ERC721/ERC721.sol\":17390:17403  reason.length */\n      mload\n        /* \"@openzeppelin/contracts/token/ERC721/ERC721.sol\":17407:17408  0 */\n      0x00\n        /* \"@openzeppelin/contracts/token/ERC721/ERC721.sol\":17390:17408  reason.length == 0 */\n      sub\n        /* \"@openzeppelin/contracts/token/ERC721/ERC721.sol\":17386:17679  if (reason.length == 0) {... */\n      tag_436\n      jumpi\n        /* \"@openzeppelin/contracts/token/ERC721/ERC721.sol\":17461:17463  to */\n      dup4\n        /* \"@openzeppelin/contracts/token/ERC721/ERC721.sol\":17439:17464  ERC721InvalidReceiver(to) */\n      mload(0x40)\n      shl(0xe1, 0x32505749)\n      dup2\n      mstore\n      0x04\n      add\n      tag_194\n      swap2\n      swap1\n      tag_48\n      jump\t// in\n        /* \"@openzeppelin/contracts/token/ERC721/ERC721.sol\":17386:17679  if (reason.length == 0) {... */\n    tag_436:\n        /* \"@openzeppelin/contracts/token/ERC721/ERC721.sol\":17631:17637  reason */\n      dup1\n        /* \"@openzeppelin/contracts/token/ERC721/ERC721.sol\":17625:17638  mload(reason) */\n      mload\n        /* \"@openzeppelin/contracts/token/ERC721/ERC721.sol\":17616:17622  reason */\n      dup2\n        /* \"@openzeppelin/contracts/token/ERC721/ERC721.sol\":17612:17614  32 */\n      0x20\n        /* \"@openzeppelin/contracts/token/ERC721/ERC721.sol\":17608:17623  add(32, reason) */\n      add\n        /* \"@openzeppelin/contracts/token/ERC721/ERC721.sol\":17601:17639  revert(add(32, reason), mload(reason)) */\n      revert\n        /* \"@openzeppelin/contracts/token/ERC721/ERC721.sol\":17077:17693  try IERC721Receiver(to).onERC721Received(_msgSender(), from, tokenId, data) returns (bytes4 retval) {... */\n    tag_430:\n      not(sub(shl(0xe0, 0x01), 0x01))\n        /* \"@openzeppelin/contracts/token/ERC721/ERC721.sol\":17199:17250  retval != IERC721Receiver.onERC721Received.selector */\n      dup2\n      and\n      shl(0xe1, 0x0a85bd01)\n      eq\n        /* \"@openzeppelin/contracts/token/ERC721/ERC721.sol\":17195:17325  if (retval != IERC721Receiver.onERC721Received.selector) {... */\n      tag_440\n      jumpi\n        /* \"@openzeppelin/contracts/token/ERC721/ERC721.sol\":17303:17305  to */\n      dup4\n        /* \"@openzeppelin/contracts/token/ERC721/ERC721.sol\":17281:17306  ERC721InvalidReceiver(to) */\n      mload(0x40)\n      shl(0xe1, 0x32505749)\n      dup2\n      mstore\n      0x04\n      add\n      tag_194\n      swap2\n      swap1\n      tag_48\n      jump\t// in\n        /* \"@openzeppelin/contracts/token/ERC721/ERC721.sol\":17195:17325  if (retval != IERC721Receiver.onERC721Received.selector) {... */\n    tag_440:\n        /* \"@openzeppelin/contracts/token/ERC721/ERC721.sol\":17153:17339  returns (bytes4 retval) {... */\n      pop\n        /* \"@openzeppelin/contracts/token/ERC721/ERC721.sol\":16927:17709  function _checkOnERC721Received(address from, address to, uint256 tokenId, bytes memory data) private {... */\n      pop\n      pop\n      pop\n      pop\n      jump\t// out\n        /* \"FundRaising.sol\":1869:1967  function _baseURI() internal view override returns (string memory) {... */\n    tag_310:\n        /* \"FundRaising.sol\":1921:1934  string memory */\n      0x60\n        /* \"FundRaising.sol\":1953:1960  baseURI */\n      0x08\n        /* \"FundRaising.sol\":1946:1960  return baseURI */\n      dup1\n      sload\n      tag_168\n      swap1\n      tag_169\n      jump\t// in\n        /* \"@openzeppelin/contracts/token/ERC721/ERC721.sol\":2677:2932  function tokenURI(uint256 tokenId) public view virtual returns (string memory) {... */\n    tag_316:\n        /* \"@openzeppelin/contracts/token/ERC721/ERC721.sol\":2741:2754  string memory */\n      0x60\n        /* \"@openzeppelin/contracts/token/ERC721/ERC721.sol\":2766:2788  _requireOwned(tokenId) */\n      tag_449\n        /* \"@openzeppelin/contracts/token/ERC721/ERC721.sol\":2780:2787  tokenId */\n      dup3\n        /* \"@openzeppelin/contracts/token/ERC721/ERC721.sol\":2766:2779  _requireOwned */\n      tag_176\n        /* \"@openzeppelin/contracts/token/ERC721/ERC721.sol\":2766:2788  _requireOwned(tokenId) */\n      jump\t// in\n    tag_449:\n      pop\n        /* \"@openzeppelin/contracts/token/ERC721/ERC721.sol\":2799:2820  string memory baseURI */\n      0x00\n        /* \"@openzeppelin/contracts/token/ERC721/ERC721.sol\":2823:2833  _baseURI() */\n      tag_450\n        /* \"@openzeppelin/contracts/token/ERC721/ERC721.sol\":2823:2831  _baseURI */\n      tag_310\n        /* \"@openzeppelin/contracts/token/ERC721/ERC721.sol\":2823:2833  _baseURI() */\n      jump\t// in\n    tag_450:\n        /* \"@openzeppelin/contracts/token/ERC721/ERC721.sol\":2799:2833  string memory baseURI = _baseURI() */\n      swap1\n      pop\n        /* \"@openzeppelin/contracts/token/ERC721/ERC721.sol\":2874:2875  0 */\n      0x00\n        /* \"@openzeppelin/contracts/token/ERC721/ERC721.sol\":2856:2863  baseURI */\n      dup2\n        /* \"@openzeppelin/contracts/token/ERC721/ERC721.sol\":2850:2871  bytes(baseURI).length */\n      mload\n        /* \"@openzeppelin/contracts/token/ERC721/ERC721.sol\":2850:2875  bytes(baseURI).length > 0 */\n      gt\n        /* \"@openzeppelin/contracts/token/ERC721/ERC721.sol\":2850:2925  bytes(baseURI).length > 0 ? string.concat(baseURI, tokenId.toString()) : \"\" */\n      tag_451\n      jumpi\n      mload(0x40)\n      dup1\n      0x20\n      add\n      0x40\n      mstore\n      dup1\n      0x00\n      dup2\n      mstore\n      pop\n      jump(tag_452)\n    tag_451:\n        /* \"@openzeppelin/contracts/token/ERC721/ERC721.sol\":2892:2899  baseURI */\n      dup1\n        /* \"@openzeppelin/contracts/token/ERC721/ERC721.sol\":2901:2919  tokenId.toString() */\n      tag_453\n        /* \"@openzeppelin/contracts/token/ERC721/ERC721.sol\":2901:2908  tokenId */\n      dup5\n        /* \"@openzeppelin/contracts/token/ERC721/ERC721.sol\":2901:2917  tokenId.toString */\n      tag_454\n        /* \"@openzeppelin/contracts/token/ERC721/ERC721.sol\":2901:2919  tokenId.toString() */\n      jump\t// in\n    tag_453:\n        /* \"@openzeppelin/contracts/token/ERC721/ERC721.sol\":2878:2920  string.concat(baseURI, tokenId.toString()) */\n      add(0x20, mload(0x40))\n      tag_455\n      swap3\n      swap2\n      swap1\n      tag_314\n      jump\t// in\n    tag_455:\n      mload(0x40)\n      0x20\n      dup2\n      dup4\n      sub\n      sub\n      dup2\n      mstore\n      swap1\n      0x40\n      mstore\n        /* \"@openzeppelin/contracts/token/ERC721/ERC721.sol\":2850:2925  bytes(baseURI).length > 0 ? string.concat(baseURI, tokenId.toString()) : \"\" */\n    tag_452:\n        /* \"@openzeppelin/contracts/token/ERC721/ERC721.sol\":2843:2925  return bytes(baseURI).length > 0 ? string.concat(baseURI, tokenId.toString()) : \"\" */\n      swap4\n        /* \"@openzeppelin/contracts/token/ERC721/ERC721.sol\":2677:2932  function tokenURI(uint256 tokenId) public view virtual returns (string memory) {... */\n      swap3\n      pop\n      pop\n      pop\n      jump\t// out\n        /* \"@openzeppelin/contracts/token/ERC721/ERC721.sol\":5716:5831  function _ownerOf(uint256 tokenId) internal view virtual returns (address) {... */\n    tag_385:\n        /* \"@openzeppelin/contracts/token/ERC721/ERC721.sol\":5782:5789  address */\n      0x00\n        /* \"@openzeppelin/contracts/token/ERC721/ERC721.sol\":5808:5824  _owners[tokenId] */\n      swap1\n      dup2\n      mstore\n        /* \"@openzeppelin/contracts/token/ERC721/ERC721.sol\":5808:5815  _owners */\n      0x02\n        /* \"@openzeppelin/contracts/token/ERC721/ERC721.sol\":5808:5824  _owners[tokenId] */\n      0x20\n      mstore\n      0x40\n      swap1\n      keccak256\n      sload\n      sub(shl(0xa0, 0x01), 0x01)\n      and\n      swap1\n        /* \"@openzeppelin/contracts/token/ERC721/ERC721.sol\":5716:5831  function _ownerOf(uint256 tokenId) internal view virtual returns (address) {... */\n      jump\t// out\n        /* \"@openzeppelin/contracts/token/ERC721/ERC721.sol\":14729:15391  function _approve(address to, uint256 tokenId, address auth, bool emitEvent) internal virtual {... */\n    tag_392:\n        /* \"@openzeppelin/contracts/token/ERC721/ERC721.sol\":14889:14898  emitEvent */\n      dup1\n        /* \"@openzeppelin/contracts/token/ERC721/ERC721.sol\":14889:14920  emitEvent || auth != address(0) */\n      dup1\n      tag_459\n      jumpi\n      pop\n      sub(shl(0xa0, 0x01), 0x01)\n        /* \"@openzeppelin/contracts/token/ERC721/ERC721.sol\":14902:14920  auth != address(0) */\n      dup3\n      and\n      iszero\n      iszero\n        /* \"@openzeppelin/contracts/token/ERC721/ERC721.sol\":14889:14920  emitEvent || auth != address(0) */\n    tag_459:\n        /* \"@openzeppelin/contracts/token/ERC721/ERC721.sol\":14885:15345  if (emitEvent || auth != address(0)) {... */\n      iszero\n      tag_460\n      jumpi\n        /* \"@openzeppelin/contracts/token/ERC721/ERC721.sol\":14936:14949  address owner */\n      0x00\n        /* \"@openzeppelin/contracts/token/ERC721/ERC721.sol\":14952:14974  _requireOwned(tokenId) */\n      tag_461\n        /* \"@openzeppelin/contracts/token/ERC721/ERC721.sol\":14966:14973  tokenId */\n      dup5\n        /* \"@openzeppelin/contracts/token/ERC721/ERC721.sol\":14952:14965  _requireOwned */\n      tag_176\n        /* \"@openzeppelin/contracts/token/ERC721/ERC721.sol\":14952:14974  _requireOwned(tokenId) */\n      jump\t// in\n    tag_461:\n        /* \"@openzeppelin/contracts/token/ERC721/ERC721.sol\":14936:14974  address owner = _requireOwned(tokenId) */\n      swap1\n      pop\n      sub(shl(0xa0, 0x01), 0x01)\n        /* \"@openzeppelin/contracts/token/ERC721/ERC721.sol\":15102:15120  auth != address(0) */\n      dup4\n      and\n      iszero\n      dup1\n      iszero\n      swap1\n        /* \"@openzeppelin/contracts/token/ERC721/ERC721.sol\":15102:15137  auth != address(0) && owner != auth */\n      tag_462\n      jumpi\n      pop\n        /* \"@openzeppelin/contracts/token/ERC721/ERC721.sol\":15133:15137  auth */\n      dup3\n      sub(shl(0xa0, 0x01), 0x01)\n        /* \"@openzeppelin/contracts/token/ERC721/ERC721.sol\":15124:15137  owner != auth */\n      and\n        /* \"@openzeppelin/contracts/token/ERC721/ERC721.sol\":15124:15129  owner */\n      dup2\n      sub(shl(0xa0, 0x01), 0x01)\n        /* \"@openzeppelin/contracts/token/ERC721/ERC721.sol\":15124:15137  owner != auth */\n      and\n      eq\n      iszero\n        /* \"@openzeppelin/contracts/token/ERC721/ERC721.sol\":15102:15137  auth != address(0) && owner != auth */\n    tag_462:\n        /* \"@openzeppelin/contracts/token/ERC721/ERC721.sol\":15102:15171  auth != address(0) && owner != auth && !isApprovedForAll(owner, auth) */\n      dup1\n      iszero\n      tag_463\n      jumpi\n      pop\n        /* \"@openzeppelin/contracts/token/ERC721/ERC721.sol\":15142:15171  isApprovedForAll(owner, auth) */\n      tag_464\n        /* \"@openzeppelin/contracts/token/ERC721/ERC721.sol\":15159:15164  owner */\n      dup2\n        /* \"@openzeppelin/contracts/token/ERC721/ERC721.sol\":15166:15170  auth */\n      dup5\n        /* \"@openzeppelin/contracts/token/ERC721/ERC721.sol\":15142:15158  isApprovedForAll */\n      tag_157\n        /* \"@openzeppelin/contracts/token/ERC721/ERC721.sol\":15142:15171  isApprovedForAll(owner, auth) */\n      jump\t// in\n    tag_464:\n        /* \"@openzeppelin/contracts/token/ERC721/ERC721.sol\":15141:15171  !isApprovedForAll(owner, auth) */\n      iszero\n        /* \"@openzeppelin/contracts/token/ERC721/ERC721.sol\":15102:15171  auth != address(0) && owner != auth && !isApprovedForAll(owner, auth) */\n    tag_463:\n        /* \"@openzeppelin/contracts/token/ERC721/ERC721.sol\":15098:15240  if (auth != address(0) && owner != auth && !isApprovedForAll(owner, auth)) {... */\n      iszero\n      tag_465\n      jumpi\n        /* \"@openzeppelin/contracts/token/ERC721/ERC721.sol\":15220:15224  auth */\n      dup3\n        /* \"@openzeppelin/contracts/token/ERC721/ERC721.sol\":15198:15225  ERC721InvalidApprover(auth) */\n      mload(0x40)\n      shl(0xe0, 0xa9fbf51f)\n      dup2\n      mstore\n      0x04\n      add\n      tag_194\n      swap2\n      swap1\n      tag_48\n      jump\t// in\n        /* \"@openzeppelin/contracts/token/ERC721/ERC721.sol\":15098:15240  if (auth != address(0) && owner != auth && !isApprovedForAll(owner, auth)) {... */\n    tag_465:\n        /* \"@openzeppelin/contracts/token/ERC721/ERC721.sol\":15258:15267  emitEvent */\n      dup2\n        /* \"@openzeppelin/contracts/token/ERC721/ERC721.sol\":15254:15335  if (emitEvent) {... */\n      iszero\n      tag_467\n      jumpi\n        /* \"@openzeppelin/contracts/token/ERC721/ERC721.sol\":15312:15319  tokenId */\n      dup4\n        /* \"@openzeppelin/contracts/token/ERC721/ERC721.sol\":15308:15310  to */\n      dup6\n      sub(shl(0xa0, 0x01), 0x01)\n        /* \"@openzeppelin/contracts/token/ERC721/ERC721.sol\":15292:15320  Approval(owner, to, tokenId) */\n      and\n        /* \"@openzeppelin/contracts/token/ERC721/ERC721.sol\":15301:15306  owner */\n      dup3\n      sub(shl(0xa0, 0x01), 0x01)\n        /* \"@openzeppelin/contracts/token/ERC721/ERC721.sol\":15292:15320  Approval(owner, to, tokenId) */\n      and\n      0x8c5be1e5ebec7d5bd14f71427d1e84f3dd0314c0f7b2291e5b200ac8c7c3b925\n      mload(0x40)\n      mload(0x40)\n      dup1\n      swap2\n      sub\n      swap1\n      log4\n        /* \"@openzeppelin/contracts/token/ERC721/ERC721.sol\":15254:15335  if (emitEvent) {... */\n    tag_467:\n        /* \"@openzeppelin/contracts/token/ERC721/ERC721.sol\":14922:15345  {... */\n      pop\n        /* \"@openzeppelin/contracts/token/ERC721/ERC721.sol\":14885:15345  if (emitEvent || auth != address(0)) {... */\n    tag_460:\n      pop\n      pop\n        /* \"@openzeppelin/contracts/token/ERC721/ERC721.sol\":15355:15379  _tokenApprovals[tokenId] */\n      0x00\n      swap1\n      dup2\n      mstore\n        /* \"@openzeppelin/contracts/token/ERC721/ERC721.sol\":15355:15370  _tokenApprovals */\n      0x04\n        /* \"@openzeppelin/contracts/token/ERC721/ERC721.sol\":15355:15379  _tokenApprovals[tokenId] */\n      0x20\n      mstore\n      0x40\n      swap1\n      keccak256\n        /* \"@openzeppelin/contracts/token/ERC721/ERC721.sol\":15355:15384  _tokenApprovals[tokenId] = to */\n      dup1\n      sload\n      not(sub(shl(0xa0, 0x01), 0x01))\n      and\n      sub(shl(0xa0, 0x01), 0x01)\n      swap3\n      swap1\n      swap3\n      and\n      swap2\n      swap1\n      swap2\n      or\n      swap1\n      sstore\n        /* \"@openzeppelin/contracts/token/ERC721/ERC721.sol\":14729:15391  function _approve(address to, uint256 tokenId, address auth, bool emitEvent) internal virtual {... */\n      jump\t// out\n        /* \"@openzeppelin/contracts/token/ERC721/ERC721.sol\":7091:7459  function _checkAuthorized(address owner, address spender, uint256 tokenId) internal view virtual {... */\n    tag_407:\n        /* \"@openzeppelin/contracts/token/ERC721/ERC721.sol\":7203:7241  _isAuthorized(owner, spender, tokenId) */\n      tag_469\n        /* \"@openzeppelin/contracts/token/ERC721/ERC721.sol\":7217:7222  owner */\n      dup4\n        /* \"@openzeppelin/contracts/token/ERC721/ERC721.sol\":7224:7231  spender */\n      dup4\n        /* \"@openzeppelin/contracts/token/ERC721/ERC721.sol\":7233:7240  tokenId */\n      dup4\n        /* \"@openzeppelin/contracts/token/ERC721/ERC721.sol\":7203:7216  _isAuthorized */\n      tag_470\n        /* \"@openzeppelin/contracts/token/ERC721/ERC721.sol\":7203:7241  _isAuthorized(owner, spender, tokenId) */\n      jump\t// in\n    tag_469:\n        /* \"@openzeppelin/contracts/token/ERC721/ERC721.sol\":7198:7453  if (!_isAuthorized(owner, spender, tokenId)) {... */\n      tag_251\n      jumpi\n      sub(shl(0xa0, 0x01), 0x01)\n        /* \"@openzeppelin/contracts/token/ERC721/ERC721.sol\":7261:7280  owner == address(0) */\n      dup4\n      and\n        /* \"@openzeppelin/contracts/token/ERC721/ERC721.sol\":7257:7443  if (owner == address(0)) {... */\n      tag_472\n      jumpi\n        /* \"@openzeppelin/contracts/token/ERC721/ERC721.sol\":7307:7338  ERC721NonexistentToken(tokenId) */\n      mload(0x40)\n      shl(0xe0, 0x7e273289)\n      dup2\n      mstore\n      0x04\n      dup2\n      add\n        /* \"#utility.yul\":5201:5226   */\n      dup3\n      swap1\n      mstore\n        /* \"#utility.yul\":5174:5192   */\n      0x24\n      add\n        /* \"@openzeppelin/contracts/token/ERC721/ERC721.sol\":7307:7338  ERC721NonexistentToken(tokenId) */\n      tag_194\n        /* \"#utility.yul\":5055:5232   */\n      jump\n        /* \"@openzeppelin/contracts/token/ERC721/ERC721.sol\":7257:7443  if (owner == address(0)) {... */\n    tag_472:\n        /* \"@openzeppelin/contracts/token/ERC721/ERC721.sol\":7384:7428  ERC721InsufficientApproval(spender, tokenId) */\n      mload(0x40)\n      shl(0xe0, 0x177e802f)\n      dup2\n      mstore\n      sub(shl(0xa0, 0x01), 0x01)\n        /* \"#utility.yul\":19196:19228   */\n      dup4\n      and\n        /* \"@openzeppelin/contracts/token/ERC721/ERC721.sol\":7384:7428  ERC721InsufficientApproval(spender, tokenId) */\n      0x04\n      dup3\n      add\n        /* \"#utility.yul\":19178:19229   */\n      mstore\n        /* \"#utility.yul\":19245:19263   */\n      0x24\n      dup2\n      add\n        /* \"#utility.yul\":19238:19272   */\n      dup3\n      swap1\n      mstore\n        /* \"#utility.yul\":19151:19169   */\n      0x44\n      add\n        /* \"@openzeppelin/contracts/token/ERC721/ERC721.sol\":7384:7428  ERC721InsufficientApproval(spender, tokenId) */\n      tag_194\n        /* \"#utility.yul\":19004:19278   */\n      jump\n        /* \"@openzeppelin/contracts/utils/Strings.sol\":637:1335  function toString(uint256 value) internal pure returns (string memory) {... */\n    tag_454:\n        /* \"@openzeppelin/contracts/utils/Strings.sol\":693:706  string memory */\n      0x60\n        /* \"@openzeppelin/contracts/utils/Strings.sol\":742:756  uint256 length */\n      0x00\n        /* \"@openzeppelin/contracts/utils/Strings.sol\":759:776  Math.log10(value) */\n      tag_478\n        /* \"@openzeppelin/contracts/utils/Strings.sol\":770:775  value */\n      dup4\n        /* \"@openzeppelin/contracts/utils/Strings.sol\":759:769  Math.log10 */\n      tag_479\n        /* \"@openzeppelin/contracts/utils/Strings.sol\":759:776  Math.log10(value) */\n      jump\t// in\n    tag_478:\n        /* \"@openzeppelin/contracts/utils/Strings.sol\":779:780  1 */\n      0x01\n        /* \"@openzeppelin/contracts/utils/Strings.sol\":759:780  Math.log10(value) + 1 */\n      add\n        /* \"@openzeppelin/contracts/utils/Strings.sol\":742:780  uint256 length = Math.log10(value) + 1 */\n      swap1\n      pop\n        /* \"@openzeppelin/contracts/utils/Strings.sol\":794:814  string memory buffer */\n      0x00\n        /* \"@openzeppelin/contracts/utils/Strings.sol\":828:834  length */\n      dup2\n      sub(shl(0x40, 0x01), 0x01)\n        /* \"@openzeppelin/contracts/utils/Strings.sol\":817:835  new string(length) */\n      dup2\n      gt\n      iszero\n      tag_481\n      jumpi\n      tag_481\n      tag_482\n      jump\t// in\n    tag_481:\n      mload(0x40)\n      swap1\n      dup1\n      dup3\n      mstore\n      dup1\n      0x1f\n      add\n      not(0x1f)\n      and\n      0x20\n      add\n      dup3\n      add\n      0x40\n      mstore\n      dup1\n      iszero\n      tag_483\n      jumpi\n      0x20\n      dup3\n      add\n      dup2\n      dup1\n      calldatasize\n      dup4\n      calldatacopy\n      add\n      swap1\n      pop\n    tag_483:\n      pop\n        /* \"@openzeppelin/contracts/utils/Strings.sol\":794:835  string memory buffer = new string(length) */\n      swap1\n      pop\n        /* \"@openzeppelin/contracts/utils/Strings.sol\":955:983  add(buffer, add(32, length)) */\n      dup2\n      dup2\n      add\n        /* \"@openzeppelin/contracts/utils/Strings.sol\":971:973  32 */\n      0x20\n        /* \"@openzeppelin/contracts/utils/Strings.sol\":955:983  add(buffer, add(32, length)) */\n      add\n        /* \"@openzeppelin/contracts/utils/Strings.sol\":1010:1292  while (true) {... */\n    tag_484:\n      not(0x00)\n        /* \"@openzeppelin/contracts/utils/Strings.sol\":1041:1046  ptr-- */\n      add\n      shl(0x81, 0x181899199a1a9b1b9c1cb0b131b232b3)\n        /* \"@openzeppelin/contracts/utils/Strings.sol\":1175:1177  10 */\n      0x0a\n        /* \"@openzeppelin/contracts/utils/Strings.sol\":1164:1178  mod(value, 10) */\n      dup7\n      mod\n        /* \"@openzeppelin/contracts/utils/Strings.sol\":1159:1191  byte(mod(value, 10), HEX_DIGITS) */\n      byte\n        /* \"@openzeppelin/contracts/utils/Strings.sol\":1041:1046  ptr-- */\n      dup2\n        /* \"@openzeppelin/contracts/utils/Strings.sol\":1146:1192  mstore8(ptr, byte(mod(value, 10), HEX_DIGITS)) */\n      mstore8\n        /* \"@openzeppelin/contracts/utils/Strings.sol\":1236:1238  10 */\n      0x0a\n        /* \"@openzeppelin/contracts/utils/Strings.sol\":1227:1238  value /= 10 */\n      dup6\n      div\n      swap5\n      pop\n        /* \"@openzeppelin/contracts/utils/Strings.sol\":1256:1277  if (value == 0) break */\n      dup5\n        /* \"@openzeppelin/contracts/utils/Strings.sol\":1010:1292  while (true) {... */\n      tag_484\n        /* \"@openzeppelin/contracts/utils/Strings.sol\":1256:1277  if (value == 0) break */\n      jumpi\n      pop\n        /* \"@openzeppelin/contracts/utils/Strings.sol\":1312:1318  buffer */\n      swap4\n        /* \"@openzeppelin/contracts/utils/Strings.sol\":637:1335  function toString(uint256 value) internal pure returns (string memory) {... */\n      swap3\n      pop\n      pop\n      pop\n      jump\t// out\n        /* \"@openzeppelin/contracts/token/ERC721/ERC721.sol\":6385:6657  function _isAuthorized(address owner, address spender, uint256 tokenId) internal view virtual returns (bool) {... */\n    tag_470:\n        /* \"@openzeppelin/contracts/token/ERC721/ERC721.sol\":6488:6492  bool */\n      0x00\n      sub(shl(0xa0, 0x01), 0x01)\n        /* \"@openzeppelin/contracts/token/ERC721/ERC721.sol\":6523:6544  spender != address(0) */\n      dup4\n      and\n      iszero\n      dup1\n      iszero\n      swap1\n        /* \"@openzeppelin/contracts/token/ERC721/ERC721.sol\":6523:6650  spender != address(0) &&... */\n      tag_315\n      jumpi\n      pop\n        /* \"@openzeppelin/contracts/token/ERC721/ERC721.sol\":6570:6577  spender */\n      dup3\n      sub(shl(0xa0, 0x01), 0x01)\n        /* \"@openzeppelin/contracts/token/ERC721/ERC721.sol\":6561:6577  owner == spender */\n      and\n        /* \"@openzeppelin/contracts/token/ERC721/ERC721.sol\":6561:6566  owner */\n      dup5\n      sub(shl(0xa0, 0x01), 0x01)\n        /* \"@openzeppelin/contracts/token/ERC721/ERC721.sol\":6561:6577  owner == spender */\n      and\n      eq\n        /* \"@openzeppelin/contracts/token/ERC721/ERC721.sol\":6561:6613  owner == spender || isApprovedForAll(owner, spender) */\n      dup1\n      tag_493\n      jumpi\n      pop\n        /* \"@openzeppelin/contracts/token/ERC721/ERC721.sol\":6581:6613  isApprovedForAll(owner, spender) */\n      tag_493\n        /* \"@openzeppelin/contracts/token/ERC721/ERC721.sol\":6598:6603  owner */\n      dup5\n        /* \"@openzeppelin/contracts/token/ERC721/ERC721.sol\":6605:6612  spender */\n      dup5\n        /* \"@openzeppelin/contracts/token/ERC721/ERC721.sol\":6581:6597  isApprovedForAll */\n      tag_157\n        /* \"@openzeppelin/contracts/token/ERC721/ERC721.sol\":6581:6613  isApprovedForAll(owner, spender) */\n      jump\t// in\n    tag_493:\n        /* \"@openzeppelin/contracts/token/ERC721/ERC721.sol\":6561:6649  owner == spender || isApprovedForAll(owner, spender) || _getApproved(tokenId) == spender */\n      dup1\n      tag_315\n      jumpi\n      pop\n        /* \"@openzeppelin/contracts/token/ERC721/ERC721.sol\":6642:6649  spender */\n      dup3\n      sub(shl(0xa0, 0x01), 0x01)\n        /* \"@openzeppelin/contracts/token/ERC721/ERC721.sol\":6617:6649  _getApproved(tokenId) == spender */\n      and\n        /* \"@openzeppelin/contracts/token/ERC721/ERC721.sol\":6617:6638  _getApproved(tokenId) */\n      tag_495\n        /* \"@openzeppelin/contracts/token/ERC721/ERC721.sol\":6630:6637  tokenId */\n      dup4\n        /* \"@openzeppelin/contracts/token/ERC721/ERC721.sol\":6617:6629  _getApproved */\n      tag_178\n        /* \"@openzeppelin/contracts/token/ERC721/ERC721.sol\":6617:6638  _getApproved(tokenId) */\n      jump\t// in\n    tag_495:\n      sub(shl(0xa0, 0x01), 0x01)\n        /* \"@openzeppelin/contracts/token/ERC721/ERC721.sol\":6617:6649  _getApproved(tokenId) == spender */\n      and\n      eq\n        /* \"@openzeppelin/contracts/token/ERC721/ERC721.sol\":6504:6650  return... */\n      swap5\n        /* \"@openzeppelin/contracts/token/ERC721/ERC721.sol\":6385:6657  function _isAuthorized(address owner, address spender, uint256 tokenId) internal view virtual returns (bool) {... */\n      swap4\n      pop\n      pop\n      pop\n      pop\n      jump\t// out\n        /* \"@openzeppelin/contracts/utils/math/Math.sol\":12214:13130  function log10(uint256 value) internal pure returns (uint256) {... */\n    tag_479:\n        /* \"@openzeppelin/contracts/utils/math/Math.sol\":12267:12274  uint256 */\n      0x00\n      dup1\n      shl(0x40, 0x184f03e93ff9f4daa797ed6e38ed64bf6a1f01)\n        /* \"@openzeppelin/contracts/utils/math/Math.sol\":12342:12359  value >= 10 ** 64 */\n      dup4\n      lt\n        /* \"@openzeppelin/contracts/utils/math/Math.sol\":12338:12441  if (value >= 10 ** 64) {... */\n      tag_497\n      jumpi\n      shl(0x40, 0x184f03e93ff9f4daa797ed6e38ed64bf6a1f01)\n        /* \"@openzeppelin/contracts/utils/math/Math.sol\":12379:12396  value /= 10 ** 64 */\n      dup4\n      div\n      swap3\n      pop\n        /* \"@openzeppelin/contracts/utils/math/Math.sol\":12424:12426  64 */\n      0x40\n        /* \"@openzeppelin/contracts/utils/math/Math.sol\":12414:12426  result += 64 */\n      add\n        /* \"@openzeppelin/contracts/utils/math/Math.sol\":12338:12441  if (value >= 10 ** 64) {... */\n    tag_497:\n      shl(0x20, 0x04ee2d6d415b85acef81)\n        /* \"@openzeppelin/contracts/utils/math/Math.sol\":12458:12463  value */\n      dup4\n        /* \"@openzeppelin/contracts/utils/math/Math.sol\":12458:12475  value >= 10 ** 32 */\n      lt\n        /* \"@openzeppelin/contracts/utils/math/Math.sol\":12454:12557  if (value >= 10 ** 32) {... */\n      tag_500\n      jumpi\n      shl(0x20, 0x04ee2d6d415b85acef81)\n        /* \"@openzeppelin/contracts/utils/math/Math.sol\":12495:12512  value /= 10 ** 32 */\n      dup4\n      div\n      swap3\n      pop\n        /* \"@openzeppelin/contracts/utils/math/Math.sol\":12540:12542  32 */\n      0x20\n        /* \"@openzeppelin/contracts/utils/math/Math.sol\":12530:12542  result += 32 */\n      add\n        /* \"@openzeppelin/contracts/utils/math/Math.sol\":12454:12557  if (value >= 10 ** 32) {... */\n    tag_500:\n        /* \"@openzeppelin/contracts/utils/math/Math.sol\":12583:12591  10 ** 16 */\n      0x2386f26fc10000\n        /* \"@openzeppelin/contracts/utils/math/Math.sol\":12574:12579  value */\n      dup4\n        /* \"@openzeppelin/contracts/utils/math/Math.sol\":12574:12591  value >= 10 ** 16 */\n      lt\n        /* \"@openzeppelin/contracts/utils/math/Math.sol\":12570:12673  if (value >= 10 ** 16) {... */\n      tag_503\n      jumpi\n        /* \"@openzeppelin/contracts/utils/math/Math.sol\":12620:12628  10 ** 16 */\n      0x2386f26fc10000\n        /* \"@openzeppelin/contracts/utils/math/Math.sol\":12611:12628  value /= 10 ** 16 */\n      dup4\n      div\n      swap3\n      pop\n        /* \"@openzeppelin/contracts/utils/math/Math.sol\":12656:12658  16 */\n      0x10\n        /* \"@openzeppelin/contracts/utils/math/Math.sol\":12646:12658  result += 16 */\n      add\n        /* \"@openzeppelin/contracts/utils/math/Math.sol\":12570:12673  if (value >= 10 ** 16) {... */\n    tag_503:\n        /* \"@openzeppelin/contracts/utils/math/Math.sol\":12699:12706  10 ** 8 */\n      0x05f5e100\n        /* \"@openzeppelin/contracts/utils/math/Math.sol\":12690:12695  value */\n      dup4\n        /* \"@openzeppelin/contracts/utils/math/Math.sol\":12690:12706  value >= 10 ** 8 */\n      lt\n        /* \"@openzeppelin/contracts/utils/math/Math.sol\":12686:12786  if (value >= 10 ** 8) {... */\n      tag_506\n      jumpi\n        /* \"@openzeppelin/contracts/utils/math/Math.sol\":12735:12742  10 ** 8 */\n      0x05f5e100\n        /* \"@openzeppelin/contracts/utils/math/Math.sol\":12726:12742  value /= 10 ** 8 */\n      dup4\n      div\n      swap3\n      pop\n        /* \"@openzeppelin/contracts/utils/math/Math.sol\":12770:12771  8 */\n      0x08\n        /* \"@openzeppelin/contracts/utils/math/Math.sol\":12760:12771  result += 8 */\n      add\n        /* \"@openzeppelin/contracts/utils/math/Math.sol\":12686:12786  if (value >= 10 ** 8) {... */\n    tag_506:\n        /* \"@openzeppelin/contracts/utils/math/Math.sol\":12812:12819  10 ** 4 */\n      0x2710\n        /* \"@openzeppelin/contracts/utils/math/Math.sol\":12803:12808  value */\n      dup4\n        /* \"@openzeppelin/contracts/utils/math/Math.sol\":12803:12819  value >= 10 ** 4 */\n      lt\n        /* \"@openzeppelin/contracts/utils/math/Math.sol\":12799:12899  if (value >= 10 ** 4) {... */\n      tag_509\n      jumpi\n        /* \"@openzeppelin/contracts/utils/math/Math.sol\":12848:12855  10 ** 4 */\n      0x2710\n        /* \"@openzeppelin/contracts/utils/math/Math.sol\":12839:12855  value /= 10 ** 4 */\n      dup4\n      div\n      swap3\n      pop\n        /* \"@openzeppelin/contracts/utils/math/Math.sol\":12883:12884  4 */\n      0x04\n        /* \"@openzeppelin/contracts/utils/math/Math.sol\":12873:12884  result += 4 */\n      add\n        /* \"@openzeppelin/contracts/utils/math/Math.sol\":12799:12899  if (value >= 10 ** 4) {... */\n    tag_509:\n        /* \"@openzeppelin/contracts/utils/math/Math.sol\":12925:12932  10 ** 2 */\n      0x64\n        /* \"@openzeppelin/contracts/utils/math/Math.sol\":12916:12921  value */\n      dup4\n        /* \"@openzeppelin/contracts/utils/math/Math.sol\":12916:12932  value >= 10 ** 2 */\n      lt\n        /* \"@openzeppelin/contracts/utils/math/Math.sol\":12912:13012  if (value >= 10 ** 2) {... */\n      tag_512\n      jumpi\n        /* \"@openzeppelin/contracts/utils/math/Math.sol\":12961:12968  10 ** 2 */\n      0x64\n        /* \"@openzeppelin/contracts/utils/math/Math.sol\":12952:12968  value /= 10 ** 2 */\n      dup4\n      div\n      swap3\n      pop\n        /* \"@openzeppelin/contracts/utils/math/Math.sol\":12996:12997  2 */\n      0x02\n        /* \"@openzeppelin/contracts/utils/math/Math.sol\":12986:12997  result += 2 */\n      add\n        /* \"@openzeppelin/contracts/utils/math/Math.sol\":12912:13012  if (value >= 10 ** 2) {... */\n    tag_512:\n        /* \"@openzeppelin/contracts/utils/math/Math.sol\":13038:13045  10 ** 1 */\n      0x0a\n        /* \"@openzeppelin/contracts/utils/math/Math.sol\":13029:13034  value */\n      dup4\n        /* \"@openzeppelin/contracts/utils/math/Math.sol\":13029:13045  value >= 10 ** 1 */\n      lt\n        /* \"@openzeppelin/contracts/utils/math/Math.sol\":13025:13091  if (value >= 10 ** 1) {... */\n      tag_165\n      jumpi\n        /* \"@openzeppelin/contracts/utils/math/Math.sol\":13075:13076  1 */\n      0x01\n        /* \"@openzeppelin/contracts/utils/math/Math.sol\":13065:13076  result += 1 */\n      add\n        /* \"@openzeppelin/contracts/utils/math/Math.sol\":13117:13123  result */\n      swap3\n        /* \"@openzeppelin/contracts/utils/math/Math.sol\":12214:13130  function log10(uint256 value) internal pure returns (uint256) {... */\n      swap2\n      pop\n      pop\n      jump\t// out\n        /* \"#utility.yul\":14:145   */\n    tag_516:\n      not(sub(shl(0xe0, 0x01), 0x01))\n        /* \"#utility.yul\":88:120   */\n      dup2\n      and\n        /* \"#utility.yul\":78:121   */\n      dup2\n      eq\n        /* \"#utility.yul\":68:139   */\n      tag_377\n      jumpi\n        /* \"#utility.yul\":135:136   */\n      0x00\n        /* \"#utility.yul\":132:133   */\n      dup1\n        /* \"#utility.yul\":125:137   */\n      revert\n        /* \"#utility.yul\":150:395   */\n    tag_33:\n        /* \"#utility.yul\":208:214   */\n      0x00\n        /* \"#utility.yul\":261:263   */\n      0x20\n        /* \"#utility.yul\":249:258   */\n      dup3\n        /* \"#utility.yul\":240:247   */\n      dup5\n        /* \"#utility.yul\":236:259   */\n      sub\n        /* \"#utility.yul\":232:264   */\n      slt\n        /* \"#utility.yul\":229:281   */\n      iszero\n      tag_531\n      jumpi\n        /* \"#utility.yul\":277:278   */\n      0x00\n        /* \"#utility.yul\":274:275   */\n      dup1\n        /* \"#utility.yul\":267:279   */\n      revert\n        /* \"#utility.yul\":229:281   */\n    tag_531:\n        /* \"#utility.yul\":316:325   */\n      dup2\n        /* \"#utility.yul\":303:326   */\n      calldataload\n        /* \"#utility.yul\":335:365   */\n      tag_452\n        /* \"#utility.yul\":359:364   */\n      dup2\n        /* \"#utility.yul\":335:365   */\n      tag_516\n      jump\t// in\n        /* \"#utility.yul\":592:842   */\n    tag_517:\n        /* \"#utility.yul\":677:678   */\n      0x00\n        /* \"#utility.yul\":687:800   */\n    tag_535:\n        /* \"#utility.yul\":701:707   */\n      dup4\n        /* \"#utility.yul\":698:699   */\n      dup2\n        /* \"#utility.yul\":695:708   */\n      lt\n        /* \"#utility.yul\":687:800   */\n      iszero\n      tag_537\n      jumpi\n        /* \"#utility.yul\":777:788   */\n      dup2\n      dup2\n      add\n        /* \"#utility.yul\":771:789   */\n      mload\n        /* \"#utility.yul\":758:769   */\n      dup4\n      dup3\n      add\n        /* \"#utility.yul\":751:790   */\n      mstore\n        /* \"#utility.yul\":723:725   */\n      0x20\n        /* \"#utility.yul\":716:726   */\n      add\n        /* \"#utility.yul\":687:800   */\n      jump(tag_535)\n    tag_537:\n      pop\n      pop\n        /* \"#utility.yul\":834:835   */\n      0x00\n        /* \"#utility.yul\":816:832   */\n      swap2\n      add\n        /* \"#utility.yul\":809:836   */\n      mstore\n        /* \"#utility.yul\":592:842   */\n      jump\t// out\n        /* \"#utility.yul\":847:1118   */\n    tag_518:\n        /* \"#utility.yul\":889:892   */\n      0x00\n        /* \"#utility.yul\":927:932   */\n      dup2\n        /* \"#utility.yul\":921:933   */\n      mload\n        /* \"#utility.yul\":954:960   */\n      dup1\n        /* \"#utility.yul\":949:952   */\n      dup5\n        /* \"#utility.yul\":942:961   */\n      mstore\n        /* \"#utility.yul\":970:1046   */\n      tag_539\n        /* \"#utility.yul\":1039:1045   */\n      dup2\n        /* \"#utility.yul\":1032:1036   */\n      0x20\n        /* \"#utility.yul\":1027:1030   */\n      dup7\n        /* \"#utility.yul\":1023:1037   */\n      add\n        /* \"#utility.yul\":1016:1020   */\n      0x20\n        /* \"#utility.yul\":1009:1014   */\n      dup7\n        /* \"#utility.yul\":1005:1021   */\n      add\n        /* \"#utility.yul\":970:1046   */\n      tag_517\n      jump\t// in\n    tag_539:\n        /* \"#utility.yul\":1100:1102   */\n      0x1f\n        /* \"#utility.yul\":1079:1094   */\n      add\n      not(0x1f)\n        /* \"#utility.yul\":1075:1104   */\n      and\n        /* \"#utility.yul\":1066:1105   */\n      swap3\n      swap1\n      swap3\n      add\n        /* \"#utility.yul\":1107:1111   */\n      0x20\n        /* \"#utility.yul\":1062:1112   */\n      add\n      swap3\n        /* \"#utility.yul\":847:1118   */\n      swap2\n      pop\n      pop\n      jump\t// out\n        /* \"#utility.yul\":1123:1343   */\n    tag_41:\n        /* \"#utility.yul\":1272:1274   */\n      0x20\n        /* \"#utility.yul\":1261:1270   */\n      dup2\n        /* \"#utility.yul\":1254:1275   */\n      mstore\n        /* \"#utility.yul\":1235:1239   */\n      0x00\n        /* \"#utility.yul\":1292:1337   */\n      tag_452\n        /* \"#utility.yul\":1333:1335   */\n      0x20\n        /* \"#utility.yul\":1322:1331   */\n      dup4\n        /* \"#utility.yul\":1318:1336   */\n      add\n        /* \"#utility.yul\":1310:1316   */\n      dup5\n        /* \"#utility.yul\":1292:1337   */\n      tag_518\n      jump\t// in\n        /* \"#utility.yul\":1348:1528   */\n    tag_45:\n        /* \"#utility.yul\":1407:1413   */\n      0x00\n        /* \"#utility.yul\":1460:1462   */\n      0x20\n        /* \"#utility.yul\":1448:1457   */\n      dup3\n        /* \"#utility.yul\":1439:1446   */\n      dup5\n        /* \"#utility.yul\":1435:1458   */\n      sub\n        /* \"#utility.yul\":1431:1463   */\n      slt\n        /* \"#utility.yul\":1428:1480   */\n      iszero\n      tag_543\n      jumpi\n        /* \"#utility.yul\":1476:1477   */\n      0x00\n        /* \"#utility.yul\":1473:1474   */\n      dup1\n        /* \"#utility.yul\":1466:1478   */\n      revert\n        /* \"#utility.yul\":1428:1480   */\n    tag_543:\n      pop\n        /* \"#utility.yul\":1499:1522   */\n      calldataload\n      swap2\n        /* \"#utility.yul\":1348:1528   */\n      swap1\n      pop\n      jump\t// out\n        /* \"#utility.yul\":1533:1736   */\n    tag_48:\n      sub(shl(0xa0, 0x01), 0x01)\n        /* \"#utility.yul\":1697:1729   */\n      swap2\n      swap1\n      swap2\n      and\n        /* \"#utility.yul\":1679:1730   */\n      dup2\n      mstore\n        /* \"#utility.yul\":1667:1669   */\n      0x20\n        /* \"#utility.yul\":1652:1670   */\n      add\n      swap1\n        /* \"#utility.yul\":1533:1736   */\n      jump\t// out\n        /* \"#utility.yul\":1741:1914   */\n    tag_519:\n        /* \"#utility.yul\":1809:1829   */\n      dup1\n      calldataload\n      sub(shl(0xa0, 0x01), 0x01)\n        /* \"#utility.yul\":1858:1889   */\n      dup2\n      and\n        /* \"#utility.yul\":1848:1890   */\n      dup2\n      eq\n        /* \"#utility.yul\":1838:1908   */\n      tag_546\n      jumpi\n        /* \"#utility.yul\":1904:1905   */\n      0x00\n        /* \"#utility.yul\":1901:1902   */\n      dup1\n        /* \"#utility.yul\":1894:1906   */\n      revert\n        /* \"#utility.yul\":1838:1908   */\n    tag_546:\n        /* \"#utility.yul\":1741:1914   */\n      swap2\n      swap1\n      pop\n      jump\t// out\n        /* \"#utility.yul\":1919:2173   */\n    tag_52:\n        /* \"#utility.yul\":1987:1993   */\n      0x00\n        /* \"#utility.yul\":1995:2001   */\n      dup1\n        /* \"#utility.yul\":2048:2050   */\n      0x40\n        /* \"#utility.yul\":2036:2045   */\n      dup4\n        /* \"#utility.yul\":2027:2034   */\n      dup6\n        /* \"#utility.yul\":2023:2046   */\n      sub\n        /* \"#utility.yul\":2019:2051   */\n      slt\n        /* \"#utility.yul\":2016:2068   */\n      iszero\n      tag_548\n      jumpi\n        /* \"#utility.yul\":2064:2065   */\n      0x00\n        /* \"#utility.yul\":2061:2062   */\n      dup1\n        /* \"#utility.yul\":2054:2066   */\n      revert\n        /* \"#utility.yul\":2016:2068   */\n    tag_548:\n        /* \"#utility.yul\":2087:2116   */\n      tag_549\n        /* \"#utility.yul\":2106:2115   */\n      dup4\n        /* \"#utility.yul\":2087:2116   */\n      tag_519\n      jump\t// in\n    tag_549:\n        /* \"#utility.yul\":2077:2116   */\n      swap5\n        /* \"#utility.yul\":2163:2165   */\n      0x20\n        /* \"#utility.yul\":2148:2166   */\n      swap4\n      swap1\n      swap4\n      add\n        /* \"#utility.yul\":2135:2167   */\n      calldataload\n      swap4\n      pop\n      pop\n      pop\n        /* \"#utility.yul\":1919:2173   */\n      jump\t// out\n        /* \"#utility.yul\":2178:2305   */\n    tag_482:\n        /* \"#utility.yul\":2239:2249   */\n      0x4e487b71\n        /* \"#utility.yul\":2234:2237   */\n      0xe0\n        /* \"#utility.yul\":2230:2250   */\n      shl\n        /* \"#utility.yul\":2227:2228   */\n      0x00\n        /* \"#utility.yul\":2220:2251   */\n      mstore\n        /* \"#utility.yul\":2270:2274   */\n      0x41\n        /* \"#utility.yul\":2267:2268   */\n      0x04\n        /* \"#utility.yul\":2260:2275   */\n      mstore\n        /* \"#utility.yul\":2294:2298   */\n      0x24\n        /* \"#utility.yul\":2291:2292   */\n      0x00\n        /* \"#utility.yul\":2284:2299   */\n      revert\n        /* \"#utility.yul\":2310:2585   */\n    tag_520:\n        /* \"#utility.yul\":2381:2383   */\n      0x40\n        /* \"#utility.yul\":2375:2384   */\n      mload\n        /* \"#utility.yul\":2446:2448   */\n      0x1f\n        /* \"#utility.yul\":2427:2440   */\n      dup3\n      add\n      not(0x1f)\n        /* \"#utility.yul\":2423:2450   */\n      and\n        /* \"#utility.yul\":2411:2451   */\n      dup2\n      add\n      sub(shl(0x40, 0x01), 0x01)\n        /* \"#utility.yul\":2466:2500   */\n      dup2\n      gt\n        /* \"#utility.yul\":2502:2524   */\n      dup3\n      dup3\n      lt\n        /* \"#utility.yul\":2463:2525   */\n      or\n        /* \"#utility.yul\":2460:2548   */\n      iszero\n      tag_553\n      jumpi\n        /* \"#utility.yul\":2528:2546   */\n      tag_553\n      tag_482\n      jump\t// in\n    tag_553:\n        /* \"#utility.yul\":2564:2566   */\n      0x40\n        /* \"#utility.yul\":2557:2579   */\n      mstore\n        /* \"#utility.yul\":2310:2585   */\n      swap2\n      swap1\n      pop\n      jump\t// out\n        /* \"#utility.yul\":2590:2997   */\n    tag_521:\n        /* \"#utility.yul\":2655:2660   */\n      0x00\n      sub(shl(0x40, 0x01), 0x01)\n        /* \"#utility.yul\":2678:2708   */\n      dup4\n      gt\n        /* \"#utility.yul\":2675:2731   */\n      iszero\n      tag_556\n      jumpi\n        /* \"#utility.yul\":2711:2729   */\n      tag_556\n      tag_482\n      jump\t// in\n    tag_556:\n        /* \"#utility.yul\":2749:2806   */\n      tag_557\n        /* \"#utility.yul\":2794:2796   */\n      0x1f\n        /* \"#utility.yul\":2773:2788   */\n      dup5\n      add\n      not(0x1f)\n        /* \"#utility.yul\":2769:2798   */\n      and\n        /* \"#utility.yul\":2800:2804   */\n      0x20\n        /* \"#utility.yul\":2765:2805   */\n      add\n        /* \"#utility.yul\":2749:2806   */\n      tag_520\n      jump\t// in\n    tag_557:\n        /* \"#utility.yul\":2740:2806   */\n      swap1\n      pop\n        /* \"#utility.yul\":2829:2835   */\n      dup3\n        /* \"#utility.yul\":2822:2827   */\n      dup2\n        /* \"#utility.yul\":2815:2836   */\n      mstore\n        /* \"#utility.yul\":2869:2872   */\n      dup4\n        /* \"#utility.yul\":2860:2866   */\n      dup4\n        /* \"#utility.yul\":2855:2858   */\n      dup4\n        /* \"#utility.yul\":2851:2867   */\n      add\n        /* \"#utility.yul\":2848:2873   */\n      gt\n        /* \"#utility.yul\":2845:2890   */\n      iszero\n      tag_558\n      jumpi\n        /* \"#utility.yul\":2886:2887   */\n      0x00\n        /* \"#utility.yul\":2883:2884   */\n      dup1\n        /* \"#utility.yul\":2876:2888   */\n      revert\n        /* \"#utility.yul\":2845:2890   */\n    tag_558:\n        /* \"#utility.yul\":2935:2941   */\n      dup3\n        /* \"#utility.yul\":2930:2933   */\n      dup3\n        /* \"#utility.yul\":2923:2927   */\n      0x20\n        /* \"#utility.yul\":2916:2921   */\n      dup4\n        /* \"#utility.yul\":2912:2928   */\n      add\n        /* \"#utility.yul\":2899:2942   */\n      calldatacopy\n        /* \"#utility.yul\":2989:2990   */\n      0x00\n        /* \"#utility.yul\":2982:2986   */\n      0x20\n        /* \"#utility.yul\":2973:2979   */\n      dup5\n        /* \"#utility.yul\":2966:2971   */\n      dup4\n        /* \"#utility.yul\":2962:2980   */\n      add\n        /* \"#utility.yul\":2958:2987   */\n      add\n        /* \"#utility.yul\":2951:2991   */\n      mstore\n        /* \"#utility.yul\":2590:2997   */\n      swap4\n      swap3\n      pop\n      pop\n      pop\n      jump\t// out\n        /* \"#utility.yul\":3002:3224   */\n    tag_522:\n        /* \"#utility.yul\":3045:3050   */\n      0x00\n        /* \"#utility.yul\":3098:3101   */\n      dup3\n        /* \"#utility.yul\":3091:3095   */\n      0x1f\n        /* \"#utility.yul\":3083:3089   */\n      dup4\n        /* \"#utility.yul\":3079:3096   */\n      add\n        /* \"#utility.yul\":3075:3102   */\n      slt\n        /* \"#utility.yul\":3065:3120   */\n      tag_560\n      jumpi\n        /* \"#utility.yul\":3116:3117   */\n      0x00\n        /* \"#utility.yul\":3113:3114   */\n      dup1\n        /* \"#utility.yul\":3106:3118   */\n      revert\n        /* \"#utility.yul\":3065:3120   */\n    tag_560:\n        /* \"#utility.yul\":3138:3218   */\n      tag_452\n        /* \"#utility.yul\":3214:3217   */\n      dup4\n        /* \"#utility.yul\":3205:3211   */\n      dup4\n        /* \"#utility.yul\":3192:3212   */\n      calldataload\n        /* \"#utility.yul\":3185:3189   */\n      0x20\n        /* \"#utility.yul\":3177:3183   */\n      dup6\n        /* \"#utility.yul\":3173:3190   */\n      add\n        /* \"#utility.yul\":3138:3218   */\n      tag_521\n      jump\t// in\n        /* \"#utility.yul\":3229:3619   */\n    tag_57:\n        /* \"#utility.yul\":3307:3313   */\n      0x00\n        /* \"#utility.yul\":3315:3321   */\n      dup1\n        /* \"#utility.yul\":3368:3370   */\n      0x40\n        /* \"#utility.yul\":3356:3365   */\n      dup4\n        /* \"#utility.yul\":3347:3354   */\n      dup6\n        /* \"#utility.yul\":3343:3366   */\n      sub\n        /* \"#utility.yul\":3339:3371   */\n      slt\n        /* \"#utility.yul\":3336:3388   */\n      iszero\n      tag_563\n      jumpi\n        /* \"#utility.yul\":3384:3385   */\n      0x00\n        /* \"#utility.yul\":3381:3382   */\n      dup1\n        /* \"#utility.yul\":3374:3386   */\n      revert\n        /* \"#utility.yul\":3336:3388   */\n    tag_563:\n        /* \"#utility.yul\":3407:3430   */\n      dup3\n      calldataload\n      swap2\n      pop\n        /* \"#utility.yul\":3481:3483   */\n      0x20\n        /* \"#utility.yul\":3466:3484   */\n      dup4\n      add\n        /* \"#utility.yul\":3453:3485   */\n      calldataload\n      sub(shl(0x40, 0x01), 0x01)\n        /* \"#utility.yul\":3497:3527   */\n      dup2\n      gt\n        /* \"#utility.yul\":3494:3544   */\n      iszero\n      tag_564\n      jumpi\n        /* \"#utility.yul\":3540:3541   */\n      0x00\n        /* \"#utility.yul\":3537:3538   */\n      dup1\n        /* \"#utility.yul\":3530:3542   */\n      revert\n        /* \"#utility.yul\":3494:3544   */\n    tag_564:\n        /* \"#utility.yul\":3563:3613   */\n      tag_565\n        /* \"#utility.yul\":3605:3612   */\n      dup6\n        /* \"#utility.yul\":3596:3602   */\n      dup3\n        /* \"#utility.yul\":3585:3594   */\n      dup7\n        /* \"#utility.yul\":3581:3603   */\n      add\n        /* \"#utility.yul\":3563:3613   */\n      tag_522\n      jump\t// in\n    tag_565:\n        /* \"#utility.yul\":3553:3613   */\n      swap2\n      pop\n      pop\n        /* \"#utility.yul\":3229:3619   */\n      swap3\n      pop\n      swap3\n      swap1\n      pop\n      jump\t// out\n        /* \"#utility.yul\":3624:3946   */\n    tag_61:\n        /* \"#utility.yul\":3701:3707   */\n      0x00\n        /* \"#utility.yul\":3709:3715   */\n      dup1\n        /* \"#utility.yul\":3717:3723   */\n      0x00\n        /* \"#utility.yul\":3770:3772   */\n      0x60\n        /* \"#utility.yul\":3758:3767   */\n      dup5\n        /* \"#utility.yul\":3749:3756   */\n      dup7\n        /* \"#utility.yul\":3745:3768   */\n      sub\n        /* \"#utility.yul\":3741:3773   */\n      slt\n        /* \"#utility.yul\":3738:3790   */\n      iszero\n      tag_567\n      jumpi\n        /* \"#utility.yul\":3786:3787   */\n      0x00\n        /* \"#utility.yul\":3783:3784   */\n      dup1\n        /* \"#utility.yul\":3776:3788   */\n      revert\n        /* \"#utility.yul\":3738:3790   */\n    tag_567:\n        /* \"#utility.yul\":3809:3838   */\n      tag_568\n        /* \"#utility.yul\":3828:3837   */\n      dup5\n        /* \"#utility.yul\":3809:3838   */\n      tag_519\n      jump\t// in\n    tag_568:\n        /* \"#utility.yul\":3799:3838   */\n      swap6\n        /* \"#utility.yul\":3885:3887   */\n      0x20\n        /* \"#utility.yul\":3870:3888   */\n      dup6\n      add\n        /* \"#utility.yul\":3857:3889   */\n      calldataload\n      swap6\n      pop\n        /* \"#utility.yul\":3936:3938   */\n      0x40\n        /* \"#utility.yul\":3921:3939   */\n      swap1\n      swap5\n      add\n        /* \"#utility.yul\":3908:3940   */\n      calldataload\n      swap4\n        /* \"#utility.yul\":3624:3946   */\n      swap3\n      pop\n      pop\n      pop\n      jump\t// out\n        /* \"#utility.yul\":3951:4279   */\n    tag_66:\n        /* \"#utility.yul\":4028:4034   */\n      0x00\n        /* \"#utility.yul\":4036:4042   */\n      dup1\n        /* \"#utility.yul\":4044:4050   */\n      0x00\n        /* \"#utility.yul\":4097:4099   */\n      0x60\n        /* \"#utility.yul\":4085:4094   */\n      dup5\n        /* \"#utility.yul\":4076:4083   */\n      dup7\n        /* \"#utility.yul\":4072:4095   */\n      sub\n        /* \"#utility.yul\":4068:4100   */\n      slt\n        /* \"#utility.yul\":4065:4117   */\n      iszero\n      tag_570\n      jumpi\n        /* \"#utility.yul\":4113:4114   */\n      0x00\n        /* \"#utility.yul\":4110:4111   */\n      dup1\n        /* \"#utility.yul\":4103:4115   */\n      revert\n        /* \"#utility.yul\":4065:4117   */\n    tag_570:\n        /* \"#utility.yul\":4136:4165   */\n      tag_571\n        /* \"#utility.yul\":4155:4164   */\n      dup5\n        /* \"#utility.yul\":4136:4165   */\n      tag_519\n      jump\t// in\n    tag_571:\n        /* \"#utility.yul\":4126:4165   */\n      swap3\n      pop\n        /* \"#utility.yul\":4184:4222   */\n      tag_572\n        /* \"#utility.yul\":4218:4220   */\n      0x20\n        /* \"#utility.yul\":4207:4216   */\n      dup6\n        /* \"#utility.yul\":4203:4221   */\n      add\n        /* \"#utility.yul\":4184:4222   */\n      tag_519\n      jump\t// in\n    tag_572:\n        /* \"#utility.yul\":4174:4222   */\n      swap2\n      pop\n        /* \"#utility.yul\":4269:4271   */\n      0x40\n        /* \"#utility.yul\":4258:4267   */\n      dup5\n        /* \"#utility.yul\":4254:4272   */\n      add\n        /* \"#utility.yul\":4241:4273   */\n      calldataload\n        /* \"#utility.yul\":4231:4273   */\n      swap1\n      pop\n        /* \"#utility.yul\":3951:4279   */\n      swap3\n      pop\n      swap3\n      pop\n      swap3\n      jump\t// out\n        /* \"#utility.yul\":4284:4532   */\n    tag_71:\n        /* \"#utility.yul\":4352:4358   */\n      0x00\n        /* \"#utility.yul\":4360:4366   */\n      dup1\n        /* \"#utility.yul\":4413:4415   */\n      0x40\n        /* \"#utility.yul\":4401:4410   */\n      dup4\n        /* \"#utility.yul\":4392:4399   */\n      dup6\n        /* \"#utility.yul\":4388:4411   */\n      sub\n        /* \"#utility.yul\":4384:4416   */\n      slt\n        /* \"#utility.yul\":4381:4433   */\n      iszero\n      tag_574\n      jumpi\n        /* \"#utility.yul\":4429:4430   */\n      0x00\n        /* \"#utility.yul\":4426:4427   */\n      dup1\n        /* \"#utility.yul\":4419:4431   */\n      revert\n        /* \"#utility.yul\":4381:4433   */\n    tag_574:\n      pop\n      pop\n        /* \"#utility.yul\":4452:4475   */\n      dup1\n      calldataload\n      swap3\n        /* \"#utility.yul\":4522:4524   */\n      0x20\n        /* \"#utility.yul\":4507:4525   */\n      swap1\n      swap2\n      add\n        /* \"#utility.yul\":4494:4526   */\n      calldataload\n      swap2\n      pop\n        /* \"#utility.yul\":4284:4532   */\n      jump\t// out\n        /* \"#utility.yul\":4537:4859   */\n    tag_92:\n        /* \"#utility.yul\":4606:4612   */\n      0x00\n        /* \"#utility.yul\":4659:4661   */\n      0x20\n        /* \"#utility.yul\":4647:4656   */\n      dup3\n        /* \"#utility.yul\":4638:4645   */\n      dup5\n        /* \"#utility.yul\":4634:4657   */\n      sub\n        /* \"#utility.yul\":4630:4662   */\n      slt\n        /* \"#utility.yul\":4627:4679   */\n      iszero\n      tag_576\n      jumpi\n        /* \"#utility.yul\":4675:4676   */\n      0x00\n        /* \"#utility.yul\":4672:4673   */\n      dup1\n        /* \"#utility.yul\":4665:4677   */\n      revert\n        /* \"#utility.yul\":4627:4679   */\n    tag_576:\n        /* \"#utility.yul\":4702:4725   */\n      dup2\n      calldataload\n      sub(shl(0x40, 0x01), 0x01)\n        /* \"#utility.yul\":4737:4767   */\n      dup2\n      gt\n        /* \"#utility.yul\":4734:4784   */\n      iszero\n      tag_577\n      jumpi\n        /* \"#utility.yul\":4780:4781   */\n      0x00\n        /* \"#utility.yul\":4777:4778   */\n      dup1\n        /* \"#utility.yul\":4770:4782   */\n      revert\n        /* \"#utility.yul\":4734:4784   */\n    tag_577:\n        /* \"#utility.yul\":4803:4853   */\n      tag_315\n        /* \"#utility.yul\":4845:4852   */\n      dup5\n        /* \"#utility.yul\":4836:4842   */\n      dup3\n        /* \"#utility.yul\":4825:4834   */\n      dup6\n        /* \"#utility.yul\":4821:4843   */\n      add\n        /* \"#utility.yul\":4803:4853   */\n      tag_522\n      jump\t// in\n        /* \"#utility.yul\":4864:5050   */\n    tag_106:\n        /* \"#utility.yul\":4923:4929   */\n      0x00\n        /* \"#utility.yul\":4976:4978   */\n      0x20\n        /* \"#utility.yul\":4964:4973   */\n      dup3\n        /* \"#utility.yul\":4955:4962   */\n      dup5\n        /* \"#utility.yul\":4951:4974   */\n      sub\n        /* \"#utility.yul\":4947:4979   */\n      slt\n        /* \"#utility.yul\":4944:4996   */\n      iszero\n      tag_580\n      jumpi\n        /* \"#utility.yul\":4992:4993   */\n      0x00\n        /* \"#utility.yul\":4989:4990   */\n      dup1\n        /* \"#utility.yul\":4982:4994   */\n      revert\n        /* \"#utility.yul\":4944:4996   */\n    tag_580:\n        /* \"#utility.yul\":5015:5044   */\n      tag_452\n        /* \"#utility.yul\":5034:5043   */\n      dup3\n        /* \"#utility.yul\":5015:5044   */\n      tag_519\n      jump\t// in\n        /* \"#utility.yul\":5237:5584   */\n    tag_124:\n        /* \"#utility.yul\":5302:5308   */\n      0x00\n        /* \"#utility.yul\":5310:5316   */\n      dup1\n        /* \"#utility.yul\":5363:5365   */\n      0x40\n        /* \"#utility.yul\":5351:5360   */\n      dup4\n        /* \"#utility.yul\":5342:5349   */\n      dup6\n        /* \"#utility.yul\":5338:5361   */\n      sub\n        /* \"#utility.yul\":5334:5366   */\n      slt\n        /* \"#utility.yul\":5331:5383   */\n      iszero\n      tag_584\n      jumpi\n        /* \"#utility.yul\":5379:5380   */\n      0x00\n        /* \"#utility.yul\":5376:5377   */\n      dup1\n        /* \"#utility.yul\":5369:5381   */\n      revert\n        /* \"#utility.yul\":5331:5383   */\n    tag_584:\n        /* \"#utility.yul\":5402:5431   */\n      tag_585\n        /* \"#utility.yul\":5421:5430   */\n      dup4\n        /* \"#utility.yul\":5402:5431   */\n      tag_519\n      jump\t// in\n    tag_585:\n        /* \"#utility.yul\":5392:5431   */\n      swap2\n      pop\n        /* \"#utility.yul\":5481:5483   */\n      0x20\n        /* \"#utility.yul\":5470:5479   */\n      dup4\n        /* \"#utility.yul\":5466:5484   */\n      add\n        /* \"#utility.yul\":5453:5485   */\n      calldataload\n        /* \"#utility.yul\":5528:5533   */\n      dup1\n        /* \"#utility.yul\":5521:5534   */\n      iszero\n        /* \"#utility.yul\":5514:5535   */\n      iszero\n        /* \"#utility.yul\":5507:5512   */\n      dup2\n        /* \"#utility.yul\":5504:5536   */\n      eq\n        /* \"#utility.yul\":5494:5554   */\n      tag_586\n      jumpi\n        /* \"#utility.yul\":5550:5551   */\n      0x00\n        /* \"#utility.yul\":5547:5548   */\n      dup1\n        /* \"#utility.yul\":5540:5552   */\n      revert\n        /* \"#utility.yul\":5494:5554   */\n    tag_586:\n        /* \"#utility.yul\":5573:5578   */\n      dup1\n        /* \"#utility.yul\":5563:5578   */\n      swap2\n      pop\n      pop\n        /* \"#utility.yul\":5237:5584   */\n      swap3\n      pop\n      swap3\n      swap1\n      pop\n      jump\t// out\n        /* \"#utility.yul\":5589:6256   */\n    tag_133:\n        /* \"#utility.yul\":5684:5690   */\n      0x00\n        /* \"#utility.yul\":5692:5698   */\n      dup1\n        /* \"#utility.yul\":5700:5706   */\n      0x00\n        /* \"#utility.yul\":5708:5714   */\n      dup1\n        /* \"#utility.yul\":5761:5764   */\n      0x80\n        /* \"#utility.yul\":5749:5758   */\n      dup6\n        /* \"#utility.yul\":5740:5747   */\n      dup8\n        /* \"#utility.yul\":5736:5759   */\n      sub\n        /* \"#utility.yul\":5732:5765   */\n      slt\n        /* \"#utility.yul\":5729:5782   */\n      iszero\n      tag_588\n      jumpi\n        /* \"#utility.yul\":5778:5779   */\n      0x00\n        /* \"#utility.yul\":5775:5776   */\n      dup1\n        /* \"#utility.yul\":5768:5780   */\n      revert\n        /* \"#utility.yul\":5729:5782   */\n    tag_588:\n        /* \"#utility.yul\":5801:5830   */\n      tag_589\n        /* \"#utility.yul\":5820:5829   */\n      dup6\n        /* \"#utility.yul\":5801:5830   */\n      tag_519\n      jump\t// in\n    tag_589:\n        /* \"#utility.yul\":5791:5830   */\n      swap4\n      pop\n        /* \"#utility.yul\":5849:5887   */\n      tag_590\n        /* \"#utility.yul\":5883:5885   */\n      0x20\n        /* \"#utility.yul\":5872:5881   */\n      dup7\n        /* \"#utility.yul\":5868:5886   */\n      add\n        /* \"#utility.yul\":5849:5887   */\n      tag_519\n      jump\t// in\n    tag_590:\n        /* \"#utility.yul\":5839:5887   */\n      swap3\n      pop\n        /* \"#utility.yul\":5934:5936   */\n      0x40\n        /* \"#utility.yul\":5919:5937   */\n      dup6\n      add\n        /* \"#utility.yul\":5906:5938   */\n      calldataload\n      swap2\n      pop\n        /* \"#utility.yul\":5989:5991   */\n      0x60\n        /* \"#utility.yul\":5974:5992   */\n      dup6\n      add\n        /* \"#utility.yul\":5961:5993   */\n      calldataload\n      sub(shl(0x40, 0x01), 0x01)\n        /* \"#utility.yul\":6005:6035   */\n      dup2\n      gt\n        /* \"#utility.yul\":6002:6052   */\n      iszero\n      tag_591\n      jumpi\n        /* \"#utility.yul\":6048:6049   */\n      0x00\n        /* \"#utility.yul\":6045:6046   */\n      dup1\n        /* \"#utility.yul\":6038:6050   */\n      revert\n        /* \"#utility.yul\":6002:6052   */\n    tag_591:\n        /* \"#utility.yul\":6071:6093   */\n      dup6\n      add\n        /* \"#utility.yul\":6124:6128   */\n      0x1f\n        /* \"#utility.yul\":6116:6129   */\n      dup2\n      add\n        /* \"#utility.yul\":6112:6139   */\n      dup8\n      sgt\n        /* \"#utility.yul\":6102:6157   */\n      tag_592\n      jumpi\n        /* \"#utility.yul\":6153:6154   */\n      0x00\n        /* \"#utility.yul\":6150:6151   */\n      dup1\n        /* \"#utility.yul\":6143:6155   */\n      revert\n        /* \"#utility.yul\":6102:6157   */\n    tag_592:\n        /* \"#utility.yul\":6176:6250   */\n      tag_593\n        /* \"#utility.yul\":6242:6249   */\n      dup8\n        /* \"#utility.yul\":6237:6239   */\n      dup3\n        /* \"#utility.yul\":6224:6240   */\n      calldataload\n        /* \"#utility.yul\":6219:6221   */\n      0x20\n        /* \"#utility.yul\":6215:6217   */\n      dup5\n        /* \"#utility.yul\":6211:6222   */\n      add\n        /* \"#utility.yul\":6176:6250   */\n      tag_521\n      jump\t// in\n    tag_593:\n        /* \"#utility.yul\":6166:6250   */\n      swap2\n      pop\n      pop\n        /* \"#utility.yul\":5589:6256   */\n      swap3\n      swap6\n      swap2\n      swap5\n      pop\n      swap3\n      pop\n      jump\t// out\n        /* \"#utility.yul\":6261:6521   */\n    tag_156:\n        /* \"#utility.yul\":6329:6335   */\n      0x00\n        /* \"#utility.yul\":6337:6343   */\n      dup1\n        /* \"#utility.yul\":6390:6392   */\n      0x40\n        /* \"#utility.yul\":6378:6387   */\n      dup4\n        /* \"#utility.yul\":6369:6376   */\n      dup6\n        /* \"#utility.yul\":6365:6388   */\n      sub\n        /* \"#utility.yul\":6361:6393   */\n      slt\n        /* \"#utility.yul\":6358:6410   */\n      iszero\n      tag_595\n      jumpi\n        /* \"#utility.yul\":6406:6407   */\n      0x00\n        /* \"#utility.yul\":6403:6404   */\n      dup1\n        /* \"#utility.yul\":6396:6408   */\n      revert\n        /* \"#utility.yul\":6358:6410   */\n    tag_595:\n        /* \"#utility.yul\":6429:6458   */\n      tag_596\n        /* \"#utility.yul\":6448:6457   */\n      dup4\n        /* \"#utility.yul\":6429:6458   */\n      tag_519\n      jump\t// in\n    tag_596:\n        /* \"#utility.yul\":6419:6458   */\n      swap2\n      pop\n        /* \"#utility.yul\":6477:6515   */\n      tag_597\n        /* \"#utility.yul\":6511:6513   */\n      0x20\n        /* \"#utility.yul\":6500:6509   */\n      dup5\n        /* \"#utility.yul\":6496:6514   */\n      add\n        /* \"#utility.yul\":6477:6515   */\n      tag_519\n      jump\t// in\n    tag_597:\n        /* \"#utility.yul\":6467:6515   */\n      swap1\n      pop\n        /* \"#utility.yul\":6261:6521   */\n      swap3\n      pop\n      swap3\n      swap1\n      pop\n      jump\t// out\n        /* \"#utility.yul\":6526:6906   */\n    tag_169:\n        /* \"#utility.yul\":6605:6606   */\n      0x01\n        /* \"#utility.yul\":6601:6613   */\n      dup2\n      dup2\n      shr\n      swap1\n        /* \"#utility.yul\":6648:6660   */\n      dup3\n      and\n      dup1\n        /* \"#utility.yul\":6669:6730   */\n      tag_599\n      jumpi\n        /* \"#utility.yul\":6723:6727   */\n      0x7f\n        /* \"#utility.yul\":6715:6721   */\n      dup3\n        /* \"#utility.yul\":6711:6728   */\n      and\n        /* \"#utility.yul\":6701:6728   */\n      swap2\n      pop\n        /* \"#utility.yul\":6669:6730   */\n    tag_599:\n        /* \"#utility.yul\":6776:6778   */\n      0x20\n        /* \"#utility.yul\":6768:6774   */\n      dup3\n        /* \"#utility.yul\":6765:6779   */\n      lt\n        /* \"#utility.yul\":6745:6763   */\n      dup2\n        /* \"#utility.yul\":6742:6780   */\n      sub\n        /* \"#utility.yul\":6739:6900   */\n      tag_600\n      jumpi\n        /* \"#utility.yul\":6822:6832   */\n      0x4e487b71\n        /* \"#utility.yul\":6817:6820   */\n      0xe0\n        /* \"#utility.yul\":6813:6833   */\n      shl\n        /* \"#utility.yul\":6810:6811   */\n      0x00\n        /* \"#utility.yul\":6803:6834   */\n      mstore\n        /* \"#utility.yul\":6857:6861   */\n      0x22\n        /* \"#utility.yul\":6854:6855   */\n      0x04\n        /* \"#utility.yul\":6847:6862   */\n      mstore\n        /* \"#utility.yul\":6885:6889   */\n      0x24\n        /* \"#utility.yul\":6882:6883   */\n      0x00\n        /* \"#utility.yul\":6875:6890   */\n      revert\n        /* \"#utility.yul\":6739:6900   */\n    tag_600:\n      pop\n        /* \"#utility.yul\":6526:6906   */\n      swap2\n      swap1\n      pop\n      jump\t// out\n        /* \"#utility.yul\":6911:7308   */\n    tag_195:\n        /* \"#utility.yul\":7113:7115   */\n      0x20\n        /* \"#utility.yul\":7095:7116   */\n      dup1\n      dup3\n      mstore\n        /* \"#utility.yul\":7152:7154   */\n      0x21\n        /* \"#utility.yul\":7132:7150   */\n      swap1\n      dup3\n      add\n        /* \"#utility.yul\":7125:7155   */\n      mstore\n        /* \"#utility.yul\":7191:7225   */\n      0x536861726561626c654552433732313a20746f6b656e206d7573742065786973\n        /* \"#utility.yul\":7186:7188   */\n      0x40\n        /* \"#utility.yul\":7171:7189   */\n      dup3\n      add\n        /* \"#utility.yul\":7164:7226   */\n      mstore\n      shl(0xfa, 0x1d)\n        /* \"#utility.yul\":7257:7259   */\n      0x60\n        /* \"#utility.yul\":7242:7260   */\n      dup3\n      add\n        /* \"#utility.yul\":7235:7266   */\n      mstore\n        /* \"#utility.yul\":7298:7301   */\n      0x80\n        /* \"#utility.yul\":7283:7302   */\n      add\n      swap1\n        /* \"#utility.yul\":6911:7308   */\n      jump\t// out\n        /* \"#utility.yul\":7730:7857   */\n    tag_523:\n        /* \"#utility.yul\":7791:7801   */\n      0x4e487b71\n        /* \"#utility.yul\":7786:7789   */\n      0xe0\n        /* \"#utility.yul\":7782:7802   */\n      shl\n        /* \"#utility.yul\":7779:7780   */\n      0x00\n        /* \"#utility.yul\":7772:7803   */\n      mstore\n        /* \"#utility.yul\":7822:7826   */\n      0x11\n        /* \"#utility.yul\":7819:7820   */\n      0x04\n        /* \"#utility.yul\":7812:7827   */\n      mstore\n        /* \"#utility.yul\":7846:7850   */\n      0x24\n        /* \"#utility.yul\":7843:7844   */\n      0x00\n        /* \"#utility.yul\":7836:7851   */\n      revert\n        /* \"#utility.yul\":7862:7987   */\n    tag_200:\n        /* \"#utility.yul\":7927:7936   */\n      dup1\n      dup3\n      add\n        /* \"#utility.yul\":7948:7958   */\n      dup1\n      dup3\n      gt\n        /* \"#utility.yul\":7945:7981   */\n      iszero\n      tag_165\n      jumpi\n        /* \"#utility.yul\":7961:7979   */\n      tag_165\n      tag_523\n      jump\t// in\n        /* \"#utility.yul\":9867:10220   */\n    tag_237:\n        /* \"#utility.yul\":10069:10071   */\n      0x20\n        /* \"#utility.yul\":10051:10072   */\n      dup1\n      dup3\n      mstore\n        /* \"#utility.yul\":10108:10110   */\n      0x1d\n        /* \"#utility.yul\":10088:10106   */\n      swap1\n      dup3\n      add\n        /* \"#utility.yul\":10081:10111   */\n      mstore\n        /* \"#utility.yul\":10147:10178   */\n      0x46756e6452616973696e673a20746f6b656e206d757374206578697374000000\n        /* \"#utility.yul\":10142:10144   */\n      0x40\n        /* \"#utility.yul\":10127:10145   */\n      dup3\n      add\n        /* \"#utility.yul\":10120:10179   */\n      mstore\n        /* \"#utility.yul\":10211:10213   */\n      0x60\n        /* \"#utility.yul\":10196:10214   */\n      add\n      swap1\n        /* \"#utility.yul\":9867:10220   */\n      jump\t// out\n        /* \"#utility.yul\":10939:11288   */\n    tag_256:\n        /* \"#utility.yul\":11141:11143   */\n      0x20\n        /* \"#utility.yul\":11123:11144   */\n      dup1\n      dup3\n      mstore\n        /* \"#utility.yul\":11180:11182   */\n      0x19\n        /* \"#utility.yul\":11160:11178   */\n      swap1\n      dup3\n      add\n        /* \"#utility.yul\":11153:11183   */\n      mstore\n      shl(0x3a, 0x115490cd4c0c8cce881d1bdad95b881b5d5cdd08195e1a5cdd)\n        /* \"#utility.yul\":11214:11216   */\n      0x40\n        /* \"#utility.yul\":11199:11217   */\n      dup3\n      add\n        /* \"#utility.yul\":11192:11247   */\n      mstore\n        /* \"#utility.yul\":11279:11281   */\n      0x60\n        /* \"#utility.yul\":11264:11282   */\n      add\n      swap1\n        /* \"#utility.yul\":10939:11288   */\n      jump\t// out\n        /* \"#utility.yul\":11779:12324   */\n    tag_525:\n        /* \"#utility.yul\":11881:11883   */\n      0x1f\n        /* \"#utility.yul\":11876:11879   */\n      dup3\n        /* \"#utility.yul\":11873:11884   */\n      gt\n        /* \"#utility.yul\":11870:12318   */\n      iszero\n      tag_251\n      jumpi\n        /* \"#utility.yul\":11917:11918   */\n      0x00\n        /* \"#utility.yul\":11942:11947   */\n      dup2\n        /* \"#utility.yul\":11938:11940   */\n      dup2\n        /* \"#utility.yul\":11931:11948   */\n      mstore\n        /* \"#utility.yul\":11987:11991   */\n      0x20\n        /* \"#utility.yul\":11983:11985   */\n      dup2\n        /* \"#utility.yul\":11973:11992   */\n      keccak256\n        /* \"#utility.yul\":12057:12059   */\n      0x1f\n        /* \"#utility.yul\":12045:12055   */\n      dup6\n        /* \"#utility.yul\":12041:12060   */\n      add\n        /* \"#utility.yul\":12038:12039   */\n      0x05\n        /* \"#utility.yul\":12034:12061   */\n      shr\n        /* \"#utility.yul\":12028:12032   */\n      dup2\n        /* \"#utility.yul\":12024:12062   */\n      add\n        /* \"#utility.yul\":12093:12097   */\n      0x20\n        /* \"#utility.yul\":12081:12091   */\n      dup7\n        /* \"#utility.yul\":12078:12098   */\n      lt\n        /* \"#utility.yul\":12075:12122   */\n      iszero\n      tag_620\n      jumpi\n      pop\n        /* \"#utility.yul\":12116:12120   */\n      dup1\n        /* \"#utility.yul\":12075:12122   */\n    tag_620:\n        /* \"#utility.yul\":12171:12173   */\n      0x1f\n        /* \"#utility.yul\":12166:12169   */\n      dup6\n        /* \"#utility.yul\":12162:12174   */\n      add\n        /* \"#utility.yul\":12159:12160   */\n      0x05\n        /* \"#utility.yul\":12155:12175   */\n      shr\n        /* \"#utility.yul\":12149:12153   */\n      dup3\n        /* \"#utility.yul\":12145:12176   */\n      add\n        /* \"#utility.yul\":12135:12176   */\n      swap2\n      pop\n        /* \"#utility.yul\":12226:12308   */\n    tag_621:\n        /* \"#utility.yul\":12244:12246   */\n      dup2\n        /* \"#utility.yul\":12237:12242   */\n      dup2\n        /* \"#utility.yul\":12234:12247   */\n      lt\n        /* \"#utility.yul\":12226:12308   */\n      iszero\n      tag_623\n      jumpi\n        /* \"#utility.yul\":12289:12306   */\n      dup3\n      dup2\n      sstore\n        /* \"#utility.yul\":12270:12271   */\n      0x01\n        /* \"#utility.yul\":12259:12272   */\n      add\n        /* \"#utility.yul\":12226:12308   */\n      jump(tag_621)\n    tag_623:\n        /* \"#utility.yul\":12230:12233   */\n      pop\n      pop\n      pop\n        /* \"#utility.yul\":11779:12324   */\n      pop\n      pop\n      pop\n      jump\t// out\n        /* \"#utility.yul\":12500:13852   */\n    tag_264:\n        /* \"#utility.yul\":12620:12630   */\n      dup2\n      mload\n      sub(shl(0x40, 0x01), 0x01)\n        /* \"#utility.yul\":12642:12672   */\n      dup2\n      gt\n        /* \"#utility.yul\":12639:12695   */\n      iszero\n      tag_627\n      jumpi\n        /* \"#utility.yul\":12675:12693   */\n      tag_627\n      tag_482\n      jump\t// in\n    tag_627:\n        /* \"#utility.yul\":12704:12801   */\n      tag_628\n        /* \"#utility.yul\":12794:12800   */\n      dup2\n        /* \"#utility.yul\":12754:12792   */\n      tag_629\n        /* \"#utility.yul\":12786:12790   */\n      dup5\n        /* \"#utility.yul\":12780:12791   */\n      sload\n        /* \"#utility.yul\":12754:12792   */\n      tag_169\n      jump\t// in\n    tag_629:\n        /* \"#utility.yul\":12748:12752   */\n      dup5\n        /* \"#utility.yul\":12704:12801   */\n      tag_525\n      jump\t// in\n    tag_628:\n        /* \"#utility.yul\":12856:12860   */\n      0x20\n      dup1\n        /* \"#utility.yul\":12920:12922   */\n      0x1f\n        /* \"#utility.yul\":12909:12923   */\n      dup4\n      gt\n        /* \"#utility.yul\":12937:12938   */\n      0x01\n        /* \"#utility.yul\":12932:13595   */\n      dup2\n      eq\n      tag_631\n      jumpi\n        /* \"#utility.yul\":13639:13640   */\n      0x00\n        /* \"#utility.yul\":13656:13662   */\n      dup5\n        /* \"#utility.yul\":13653:13742   */\n      iszero\n      tag_632\n      jumpi\n      pop\n        /* \"#utility.yul\":13708:13727   */\n      dup6\n      dup4\n      add\n        /* \"#utility.yul\":13702:13728   */\n      mload\n        /* \"#utility.yul\":13653:13742   */\n    tag_632:\n      not(0x00)\n        /* \"#utility.yul\":12457:12458   */\n      0x03\n        /* \"#utility.yul\":12453:12464   */\n      dup7\n      swap1\n      shl\n        /* \"#utility.yul\":12449:12473   */\n      shr\n        /* \"#utility.yul\":12445:12474   */\n      not\n        /* \"#utility.yul\":12435:12475   */\n      and\n        /* \"#utility.yul\":12481:12482   */\n      0x01\n        /* \"#utility.yul\":12477:12488   */\n      dup6\n      swap1\n      shl\n        /* \"#utility.yul\":12432:12489   */\n      or\n        /* \"#utility.yul\":13755:13836   */\n      dup6\n      sstore\n        /* \"#utility.yul\":12902:13846   */\n      jump(tag_623)\n        /* \"#utility.yul\":12932:13595   */\n    tag_631:\n        /* \"#utility.yul\":11726:11727   */\n      0x00\n        /* \"#utility.yul\":11719:11733   */\n      dup6\n      dup2\n      mstore\n        /* \"#utility.yul\":11763:11767   */\n      0x20\n        /* \"#utility.yul\":11750:11768   */\n      dup2\n      keccak256\n      not(0x1f)\n        /* \"#utility.yul\":12968:12988   */\n      dup7\n      and\n      swap2\n        /* \"#utility.yul\":13086:13322   */\n    tag_635:\n        /* \"#utility.yul\":13100:13107   */\n      dup3\n        /* \"#utility.yul\":13097:13098   */\n      dup2\n        /* \"#utility.yul\":13094:13108   */\n      lt\n        /* \"#utility.yul\":13086:13322   */\n      iszero\n      tag_637\n      jumpi\n        /* \"#utility.yul\":13189:13208   */\n      dup9\n      dup7\n      add\n        /* \"#utility.yul\":13183:13209   */\n      mload\n        /* \"#utility.yul\":13168:13210   */\n      dup3\n      sstore\n        /* \"#utility.yul\":13281:13308   */\n      swap5\n      dup5\n      add\n      swap5\n        /* \"#utility.yul\":13249:13250   */\n      0x01\n        /* \"#utility.yul\":13237:13251   */\n      swap1\n      swap2\n      add\n      swap1\n        /* \"#utility.yul\":13116:13135   */\n      dup5\n      add\n        /* \"#utility.yul\":13086:13322   */\n      jump(tag_635)\n    tag_637:\n        /* \"#utility.yul\":13090:13093   */\n      pop\n        /* \"#utility.yul\":13350:13356   */\n      dup6\n        /* \"#utility.yul\":13341:13348   */\n      dup3\n        /* \"#utility.yul\":13338:13357   */\n      lt\n        /* \"#utility.yul\":13335:13536   */\n      iszero\n      tag_638\n      jumpi\n        /* \"#utility.yul\":13411:13430   */\n      dup8\n      dup6\n      add\n        /* \"#utility.yul\":13405:13431   */\n      mload\n      not(0x00)\n        /* \"#utility.yul\":13494:13495   */\n      0x03\n        /* \"#utility.yul\":13490:13504   */\n      dup9\n      swap1\n      shl\n        /* \"#utility.yul\":13506:13509   */\n      0xf8\n        /* \"#utility.yul\":13486:13510   */\n      and\n        /* \"#utility.yul\":13482:13519   */\n      shr\n        /* \"#utility.yul\":13478:13520   */\n      not\n        /* \"#utility.yul\":13463:13521   */\n      and\n        /* \"#utility.yul\":13448:13522   */\n      dup2\n      sstore\n        /* \"#utility.yul\":13335:13536   */\n    tag_638:\n      pop\n      pop\n      pop\n      pop\n      pop\n        /* \"#utility.yul\":13582:13583   */\n      0x01\n        /* \"#utility.yul\":13566:13580   */\n      swap1\n      dup2\n      shl\n        /* \"#utility.yul\":13562:13584   */\n      add\n        /* \"#utility.yul\":13549:13585   */\n      swap1\n      sstore\n      pop\n        /* \"#utility.yul\":12500:13852   */\n      jump\t// out\n        /* \"#utility.yul\":14216:14712   */\n    tag_314:\n        /* \"#utility.yul\":14395:14398   */\n      0x00\n        /* \"#utility.yul\":14433:14439   */\n      dup4\n        /* \"#utility.yul\":14427:14440   */\n      mload\n        /* \"#utility.yul\":14449:14515   */\n      tag_641\n        /* \"#utility.yul\":14508:14514   */\n      dup2\n        /* \"#utility.yul\":14503:14506   */\n      dup5\n        /* \"#utility.yul\":14496:14500   */\n      0x20\n        /* \"#utility.yul\":14488:14494   */\n      dup9\n        /* \"#utility.yul\":14484:14501   */\n      add\n        /* \"#utility.yul\":14449:14515   */\n      tag_517\n      jump\t// in\n    tag_641:\n        /* \"#utility.yul\":14578:14591   */\n      dup4\n      mload\n        /* \"#utility.yul\":14537:14553   */\n      swap1\n      dup4\n      add\n      swap1\n        /* \"#utility.yul\":14600:14670   */\n      tag_642\n        /* \"#utility.yul\":14578:14591   */\n      dup2\n        /* \"#utility.yul\":14537:14553   */\n      dup4\n        /* \"#utility.yul\":14647:14651   */\n      0x20\n        /* \"#utility.yul\":14635:14652   */\n      dup9\n      add\n        /* \"#utility.yul\":14600:14670   */\n      tag_517\n      jump\t// in\n    tag_642:\n        /* \"#utility.yul\":14686:14706   */\n      add\n      swap5\n        /* \"#utility.yul\":14216:14712   */\n      swap4\n      pop\n      pop\n      pop\n      pop\n      jump\t// out\n        /* \"#utility.yul\":15075:15210   */\n    tag_323:\n        /* \"#utility.yul\":15114:15117   */\n      0x00\n        /* \"#utility.yul\":15135:15152   */\n      0x01\n      dup3\n      add\n        /* \"#utility.yul\":15132:15175   */\n      tag_646\n      jumpi\n        /* \"#utility.yul\":15155:15173   */\n      tag_646\n      tag_523\n      jump\t// in\n    tag_646:\n      pop\n        /* \"#utility.yul\":15202:15203   */\n      0x01\n        /* \"#utility.yul\":15191:15204   */\n      add\n      swap1\n        /* \"#utility.yul\":15075:15210   */\n      jump\t// out\n        /* \"#utility.yul\":15575:16511   */\n    tag_337:\n        /* \"#utility.yul\":15670:15676   */\n      0x00\n        /* \"#utility.yul\":15701:15703   */\n      0x20\n        /* \"#utility.yul\":15744:15746   */\n      dup1\n        /* \"#utility.yul\":15732:15741   */\n      dup4\n        /* \"#utility.yul\":15723:15730   */\n      dup6\n        /* \"#utility.yul\":15719:15742   */\n      sub\n        /* \"#utility.yul\":15715:15747   */\n      slt\n        /* \"#utility.yul\":15712:15764   */\n      iszero\n      tag_649\n      jumpi\n        /* \"#utility.yul\":15760:15761   */\n      0x00\n        /* \"#utility.yul\":15757:15758   */\n      dup1\n        /* \"#utility.yul\":15750:15762   */\n      revert\n        /* \"#utility.yul\":15712:15764   */\n    tag_649:\n        /* \"#utility.yul\":15787:15803   */\n      dup3\n      mload\n      sub(shl(0x40, 0x01), 0x01)\n        /* \"#utility.yul\":15852:15866   */\n      dup1\n      dup3\n      gt\n        /* \"#utility.yul\":15849:15883   */\n      iszero\n      tag_650\n      jumpi\n        /* \"#utility.yul\":15879:15880   */\n      0x00\n        /* \"#utility.yul\":15876:15877   */\n      dup1\n        /* \"#utility.yul\":15869:15881   */\n      revert\n        /* \"#utility.yul\":15849:15883   */\n    tag_650:\n        /* \"#utility.yul\":15917:15923   */\n      dup2\n        /* \"#utility.yul\":15906:15915   */\n      dup6\n        /* \"#utility.yul\":15902:15924   */\n      add\n        /* \"#utility.yul\":15892:15924   */\n      swap2\n      pop\n        /* \"#utility.yul\":15962:15969   */\n      dup6\n        /* \"#utility.yul\":15955:15959   */\n      0x1f\n        /* \"#utility.yul\":15951:15953   */\n      dup4\n        /* \"#utility.yul\":15947:15960   */\n      add\n        /* \"#utility.yul\":15943:15970   */\n      slt\n        /* \"#utility.yul\":15933:15988   */\n      tag_651\n      jumpi\n        /* \"#utility.yul\":15984:15985   */\n      0x00\n        /* \"#utility.yul\":15981:15982   */\n      dup1\n        /* \"#utility.yul\":15974:15986   */\n      revert\n        /* \"#utility.yul\":15933:15988   */\n    tag_651:\n        /* \"#utility.yul\":16013:16015   */\n      dup2\n        /* \"#utility.yul\":16007:16016   */\n      mload\n        /* \"#utility.yul\":16035:16037   */\n      dup2\n        /* \"#utility.yul\":16031:16033   */\n      dup2\n        /* \"#utility.yul\":16028:16038   */\n      gt\n        /* \"#utility.yul\":16025:16061   */\n      iszero\n      tag_653\n      jumpi\n        /* \"#utility.yul\":16041:16059   */\n      tag_653\n      tag_482\n      jump\t// in\n    tag_653:\n        /* \"#utility.yul\":16087:16089   */\n      dup1\n        /* \"#utility.yul\":16084:16085   */\n      0x05\n        /* \"#utility.yul\":16080:16090   */\n      shl\n        /* \"#utility.yul\":16070:16090   */\n      swap2\n      pop\n        /* \"#utility.yul\":16110:16138   */\n      tag_654\n        /* \"#utility.yul\":16134:16136   */\n      dup5\n        /* \"#utility.yul\":16130:16132   */\n      dup4\n        /* \"#utility.yul\":16126:16137   */\n      add\n        /* \"#utility.yul\":16110:16138   */\n      tag_520\n      jump\t// in\n    tag_654:\n        /* \"#utility.yul\":16172:16187   */\n      dup2\n      dup2\n      mstore\n        /* \"#utility.yul\":16242:16253   */\n      swap2\n      dup4\n      add\n        /* \"#utility.yul\":16238:16258   */\n      dup5\n      add\n      swap2\n        /* \"#utility.yul\":16203:16215   */\n      dup5\n      dup2\n      add\n      swap1\n        /* \"#utility.yul\":16270:16289   */\n      dup9\n      dup5\n      gt\n        /* \"#utility.yul\":16267:16306   */\n      iszero\n      tag_655\n      jumpi\n        /* \"#utility.yul\":16302:16303   */\n      0x00\n        /* \"#utility.yul\":16299:16300   */\n      dup1\n        /* \"#utility.yul\":16292:16304   */\n      revert\n        /* \"#utility.yul\":16267:16306   */\n    tag_655:\n        /* \"#utility.yul\":16326:16337   */\n      swap4\n      dup6\n      add\n      swap4\n        /* \"#utility.yul\":16346:16481   */\n    tag_656:\n        /* \"#utility.yul\":16362:16368   */\n      dup4\n        /* \"#utility.yul\":16357:16360   */\n      dup6\n        /* \"#utility.yul\":16354:16369   */\n      lt\n        /* \"#utility.yul\":16346:16481   */\n      iszero\n      tag_658\n      jumpi\n        /* \"#utility.yul\":16428:16438   */\n      dup5\n      mload\n        /* \"#utility.yul\":16416:16439   */\n      dup3\n      mstore\n        /* \"#utility.yul\":16379:16391   */\n      swap4\n      dup6\n      add\n      swap4\n        /* \"#utility.yul\":16459:16471   */\n      swap1\n      dup6\n      add\n      swap1\n        /* \"#utility.yul\":16346:16481   */\n      jump(tag_656)\n    tag_658:\n        /* \"#utility.yul\":16500:16505   */\n      swap9\n        /* \"#utility.yul\":15575:16511   */\n      swap8\n      pop\n      pop\n      pop\n      pop\n      pop\n      pop\n      pop\n      pop\n      jump\t// out\n        /* \"#utility.yul\":16516:16643   */\n    tag_343:\n        /* \"#utility.yul\":16577:16587   */\n      0x4e487b71\n        /* \"#utility.yul\":16572:16575   */\n      0xe0\n        /* \"#utility.yul\":16568:16588   */\n      shl\n        /* \"#utility.yul\":16565:16566   */\n      0x00\n        /* \"#utility.yul\":16558:16589   */\n      mstore\n        /* \"#utility.yul\":16608:16612   */\n      0x32\n        /* \"#utility.yul\":16605:16606   */\n      0x04\n        /* \"#utility.yul\":16598:16613   */\n      mstore\n        /* \"#utility.yul\":16632:16636   */\n      0x24\n        /* \"#utility.yul\":16629:16630   */\n      0x00\n        /* \"#utility.yul\":16622:16637   */\n      revert\n        /* \"#utility.yul\":18256:18745   */\n    tag_426:\n      sub(shl(0xa0, 0x01), 0x01)\n        /* \"#utility.yul\":18525:18540   */\n      dup6\n      dup2\n      and\n        /* \"#utility.yul\":18507:18541   */\n      dup3\n      mstore\n        /* \"#utility.yul\":18577:18592   */\n      dup5\n      and\n        /* \"#utility.yul\":18572:18574   */\n      0x20\n        /* \"#utility.yul\":18557:18575   */\n      dup3\n      add\n        /* \"#utility.yul\":18550:18593   */\n      mstore\n        /* \"#utility.yul\":18624:18626   */\n      0x40\n        /* \"#utility.yul\":18609:18627   */\n      dup2\n      add\n        /* \"#utility.yul\":18602:18636   */\n      dup4\n      swap1\n      mstore\n        /* \"#utility.yul\":18672:18675   */\n      0x80\n        /* \"#utility.yul\":18667:18669   */\n      0x60\n        /* \"#utility.yul\":18652:18670   */\n      dup3\n      add\n        /* \"#utility.yul\":18645:18676   */\n      dup2\n      swap1\n      mstore\n        /* \"#utility.yul\":18450:18454   */\n      0x00\n      swap1\n        /* \"#utility.yul\":18693:18739   */\n      tag_665\n      swap1\n        /* \"#utility.yul\":18719:18738   */\n      dup4\n      add\n        /* \"#utility.yul\":18711:18717   */\n      dup5\n        /* \"#utility.yul\":18693:18739   */\n      tag_518\n      jump\t// in\n    tag_665:\n        /* \"#utility.yul\":18685:18739   */\n      swap7\n        /* \"#utility.yul\":18256:18745   */\n      swap6\n      pop\n      pop\n      pop\n      pop\n      pop\n      pop\n      jump\t// out\n        /* \"#utility.yul\":18750:18999   */\n    tag_429:\n        /* \"#utility.yul\":18819:18825   */\n      0x00\n        /* \"#utility.yul\":18872:18874   */\n      0x20\n        /* \"#utility.yul\":18860:18869   */\n      dup3\n        /* \"#utility.yul\":18851:18858   */\n      dup5\n        /* \"#utility.yul\":18847:18870   */\n      sub\n        /* \"#utility.yul\":18843:18875   */\n      slt\n        /* \"#utility.yul\":18840:18892   */\n      iszero\n      tag_667\n      jumpi\n        /* \"#utility.yul\":18888:18889   */\n      0x00\n        /* \"#utility.yul\":18885:18886   */\n      dup1\n        /* \"#utility.yul\":18878:18890   */\n      revert\n        /* \"#utility.yul\":18840:18892   */\n    tag_667:\n        /* \"#utility.yul\":18920:18929   */\n      dup2\n        /* \"#utility.yul\":18914:18930   */\n      mload\n        /* \"#utility.yul\":18939:18969   */\n      tag_452\n        /* \"#utility.yul\":18963:18968   */\n      dup2\n        /* \"#utility.yul\":18939:18969   */\n      tag_516\n      jump\t// in\n\n    auxdata: 0xa2646970667358221220e32469017a0b684326ac9aad48910169e568d2669c3407decbe8853ead84414264736f6c63430008140033\n}\n",
				"bytecode": {
					"linkReferences": {},
					"object": "608060405234801562000010575f80fd5b506040516200272b3803806200272b8339810160408190526200003391620001db565b3384845f62000043838262000313565b50600162000052828262000313565b5050506001600160a01b0381166200008357604051631e4fbdf760e01b81525f600482015260240160405180910390fd5b6200008e81620000cc565b5060086200009d828262000313565b5050600a80546001600160a01b0319166001600160a01b039290921691909117905550506001600955620003db565b600780546001600160a01b038381166001600160a01b0319831681179093556040519116919082907f8be0079c531659141344cd1fd0a4f28419497f9722a3daafe3b4186f6b6457e0905f90a35050565b634e487b7160e01b5f52604160045260245ffd5b5f82601f83011262000141575f80fd5b81516001600160401b03808211156200015e576200015e6200011d565b604051601f8301601f19908116603f011681019082821181831017156200018957620001896200011d565b81604052838152602092508683858801011115620001a5575f80fd5b5f91505b83821015620001c85785820183015181830184015290820190620001a9565b5f93810190920192909252949350505050565b5f805f8060808587031215620001ef575f80fd5b84516001600160401b038082111562000206575f80fd5b620002148883890162000131565b955060208701519150808211156200022a575f80fd5b620002388883890162000131565b604088015190955091506001600160a01b038216821462000257575f80fd5b6060870151919350808211156200026c575f80fd5b506200027b8782880162000131565b91505092959194509250565b600181811c908216806200029c57607f821691505b602082108103620002bb57634e487b7160e01b5f52602260045260245ffd5b50919050565b601f8211156200030e575f81815260208120601f850160051c81016020861015620002e95750805b601f850160051c820191505b818110156200030a57828155600101620002f5565b5050505b505050565b81516001600160401b038111156200032f576200032f6200011d565b620003478162000340845462000287565b84620002c1565b602080601f8311600181146200037d575f8415620003655750858301515b5f19600386901b1c1916600185901b1785556200030a565b5f85815260208120601f198616915b82811015620003ad578886015182559484019460019091019084016200038c565b5085821015620003cb57878501515f19600388901b60f8161c191681555b5050505050600190811b01905550565b61234280620003e95f395ff3fe608060405260043610610146575f3560e01c806301ffc9a71461014a57806306fdde031461017e578063081812fc1461019f578063095ea7b3146101cb578063162094c4146101ec57806317f692221461020b57806323b872dd1461021e57806324c9cd4e1461023d5780633d14a02b1461025c57806340c10f191461027b57806342842e0e1461029a57806345714684146102b957806355f804b3146102d85780636352211e146102f75780636c0360eb1461031657806370a082311461032a578063715018a6146103575780638da5cb5b1461036b57806395d89b411461037f578063a22cb46514610393578063b384abef146103b2578063b88d4fde146103d1578063c87b56dd146103f0578063d312998f1461040f578063d8d7c1691461042e578063ded6338b1461044d578063e985e9c51461046c578063f2fde38b1461048b575b5f80fd5b348015610155575f80fd5b50610169610164366004611c15565b6104aa565b60405190151581526020015b60405180910390f35b348015610189575f80fd5b506101926104d4565b6040516101759190611c7d565b3480156101aa575f80fd5b506101be6101b9366004611c8f565b610563565b6040516101759190611ca6565b3480156101d6575f80fd5b506101ea6101e5366004611cd5565b610577565b005b3480156101f7575f80fd5b506101ea610206366004611db3565b610586565b6101ea610219366004611df6565b610598565b348015610229575f80fd5b506101ea610238366004611e26565b6107f4565b348015610248575f80fd5b506101ea610257366004611e5f565b610877565b348015610267575f80fd5b506101ea610276366004611cd5565b61096e565b348015610286575f80fd5b506101ea610295366004611cd5565b610ad0565b3480156102a5575f80fd5b506101ea6102b4366004611e26565b610ae2565b3480156102c4575f80fd5b506101ea6102d3366004611c8f565b610b01565b3480156102e3575f80fd5b506101ea6102f2366004611e7f565b610b9e565b348015610302575f80fd5b506101be610311366004611c8f565b610bb2565b348015610321575f80fd5b50610192610bbc565b348015610335575f80fd5b50610349610344366004611eb0565b610c48565b604051908152602001610175565b348015610362575f80fd5b506101ea610c8d565b348015610376575f80fd5b506101be610ca0565b34801561038a575f80fd5b50610192610caf565b34801561039e575f80fd5b506101ea6103ad366004611ec9565b610cbe565b3480156103bd575f80fd5b506101ea6103cc366004611e5f565b610cc9565b3480156103dc575f80fd5b506101ea6103eb366004611f02565b610d70565b3480156103fb575f80fd5b5061019261040a366004611c8f565b610d87565b34801561041a575f80fd5b506101ea610429366004611eb0565b610e86565b348015610439575f80fd5b506101ea610448366004611c8f565b610f3d565b348015610458575f80fd5b50610349610467366004611cd5565b61118b565b348015610477575f80fd5b50610169610486366004611f78565b61134f565b348015610496575f80fd5b506101ea6104a5366004611eb0565b61137c565b5f6001600160e01b03198216632483248360e11b14806104ce57506104ce826113b9565b92915050565b60605f80546104e290611fa9565b80601f016020809104026020016040519081016040528092919081815260200182805461050e90611fa9565b80156105595780601f1061053057610100808354040283529160200191610559565b820191905f5260205f20905b81548152906001019060200180831161053c57829003601f168201915b5050505050905090565b5f61056d82611408565b506104ce8261143f565b610582828233611459565b5050565b61058e611466565b6105828282611498565b6105a1826114e7565b6105c65760405162461bcd60e51b81526004016105bd90611fe1565b60405180910390fd5b5f828152600c602052604090206002015460ff1661063f5760405162461bcd60e51b815260206004820152603060248201527f46756e6452616973696e673a206173736574206973206e6f74206c6f636b656460448201526f20666f722066756e6472616973696e6760801b60648201526084016105bd565b5f828152600c60205260409020805460019091015461065f908390612036565b11156106be5760405162461bcd60e51b815260206004820152602860248201527f46756e6452616973696e673a206e6f7420656e6f7567682073686172657320616044820152677661696c61626c6560c01b60648201526084016105bd565b5f828152600c6020526040812060010180548392906106de908490612036565b90915550505f828152600c60205260409020805460019091015403610719575f828152600c60205260409020600201805460ff191660011790555b604080516080810182526001600160a01b038581168252602080830186815260098054858701818152606087018981525f8b8152600f87528981209381529290955290879020955186546001600160a01b03191690861617865591516001860155905160028501559051600390930192909255600a549154925163a29f697760e01b8152600481018690526024810193909352169063a29f6977906044015f604051808303815f87803b1580156107ce575f80fd5b505af11580156107e0573d5f803e3d5ffd5b505050506107ee838361118b565b50505050565b6001600160a01b03821661081d575f604051633250574960e11b81526004016105bd9190611ca6565b5f610829838333611503565b9050836001600160a01b0316816001600160a01b0316146107ee576040516364283d7b60e01b81526001600160a01b03808616600483015260248201849052821660448201526064016105bd565b61087f611466565b610888826114e7565b6108a45760405162461bcd60e51b81526004016105bd90611fe1565b5f828152600c602052604090206002015460ff16156109225760405162461bcd60e51b815260206004820152603460248201527f46756e6452616973696e673a20617373657420697320616c7265616479206c6f604482015273636b656420666f722066756e6472616973696e6760601b60648201526084016105bd565b604080516060810182529182525f60208084018281526001858501818152968452600c909252929091209251835590519082015590516002909101805460ff1916911515919091179055565b5f818152600d60205260409020546001600160a01b031633146109e75760405162461bcd60e51b815260206004820152602b60248201527f46756e6452616973696e673a6f6e6c79206f776e65722063616e20696e69746960448201526a6174652073656c6c696e6760a81b60648201526084016105bd565b6109f0816114e7565b610a0c5760405162461bcd60e51b81526004016105bd90612049565b5f818152600e602052604090205460ff1615610a685760405162461bcd60e51b815260206004820152601b60248201527a233ab7322930b4b9b4b7339d102b37ba34b7339034b99037b832b760291b60448201526064016105bd565b5f8181526010602052604090205460ff16610ac55760405162461bcd60e51b815260206004820152601d60248201527f46756e6452616973696e673a2053616c65206973206e6f74206f70656e00000060448201526064016105bd565b610582338383610ae2565b610ad8611466565b61058282826115f0565b610afc83838360405180602001604052805f815250610d70565b505050565b610b0a816114e7565b610b265760405162461bcd60e51b81526004016105bd90612080565b5f818152600e602052604090205460ff1615610b845760405162461bcd60e51b815260206004820152601f60248201527f46756e6452616973696e673a566f74696e6720616c7265616479206f70656e0060448201526064016105bd565b5f908152600e60205260409020805460ff19166001179055565b610ba6611466565b60086105828282612100565b5f6104ce82611408565b60088054610bc990611fa9565b80601f0160208091040260200160405190810160405280929190818152602001828054610bf590611fa9565b8015610c405780601f10610c1757610100808354040283529160200191610c40565b820191905f5260205f20905b815481529060010190602001808311610c2357829003601f168201915b505050505081565b5f6001600160a01b038216610c72575f6040516322718ad960e21b81526004016105bd9190611ca6565b506001600160a01b03165f9081526003602052604090205490565b610c95611466565b610c9e5f611651565b565b6007546001600160a01b031690565b6060600180546104e290611fa9565b6105823383836116a2565b610cd2826114e7565b610cee5760405162461bcd60e51b81526004016105bd90612080565b5f828152600e602052604090205460ff16610d4b5760405162461bcd60e51b815260206004820152601e60248201527f46756e6452616973696e673a566f74696e67206973206e6f74206f70656e000060448201526064016105bd565b5f918252600b602090815260408084209284529190529020805460ff19166001179055565b610d7b8484846107f4565b6107ee84848484611737565b6060610d9282611408565b505f8281526006602052604081208054610dab90611fa9565b80601f0160208091040260200160405190810160405280929190818152602001828054610dd790611fa9565b8015610e225780601f10610df957610100808354040283529160200191610e22565b820191905f5260205f20905b815481529060010190602001808311610e0557829003601f168201915b505050505090505f610e3261184b565b905080515f03610e43575092915050565b815115610e75578082604051602001610e5d9291906121bb565b60405160208183030381529060405292505050919050565b610e7e8461185a565b949350505050565b6001600160a01b038116610edc5760405162461bcd60e51b815260206004820152601d60248201527f496e7665736f74723a206e6f7420612076616c6964206164647265737300000060448201526064016105bd565b610ee8816009546115f0565b600980545f908152600e60209081526040808320805460ff1916905583548352600d909152812080546001600160a01b0319166001600160a01b03851617905581549190610f35836121e9565b919050555050565b610f45611466565b610f4e816114e7565b610f6a5760405162461bcd60e51b81526004016105bd90612049565b5f818152600e602052604090205460ff16610fc75760405162461bcd60e51b815260206004820152601f60248201527f46756e6452616973696e673a20566f74696e67206973206e6f74206f70656e0060448201526064016105bd565b5f818152600c602052604080822060010154600a54915163ab35ec6360e01b8152600481018590529092916001600160a01b03169063ab35ec63906024015f60405180830381865afa15801561101f573d5f803e3d5ffd5b505050506040513d5f823e601f3d908101601f191682016040526110469190810190612201565b90505f5b828110156110ff575f828281518110611065576110656122a1565b6020908102919091018101515f878152600b83526040808220838352909352919091205490915060ff166110ec5760405162461bcd60e51b815260206004820152602860248201527f46756e6452616973696e673a20416c6c20736861726564206f776e657273206d60448201526775737420766f746560c01b60648201526084016105bd565b50806110f7816121e9565b91505061104a565b505f838152601060205260408120805460ff191660011790555b82811015611171575f828281518110611134576111346122a1565b6020908102919091018101515f878152600b83526040808220928252919092529020805460ff191690555080611169816121e9565b915050611119565b5050505f908152600e60205260409020805460ff19169055565b5f6001600160a01b0383166111e25760405162461bcd60e51b815260206004820181905260248201527f4552433732313a206d696e7420746f20746865207a65726f206164647265737360448201526064016105bd565b6111eb826114e7565b61124e5760405162461bcd60e51b815260206004820152602e60248201527f536861726561626c654552433732313a20746f6b656e20746f2062652073686160448201526d1c9959081b5d5cdd08195e1a5cdd60921b60648201526084016105bd565b3361125883610bb2565b6001600160a01b0316146112cd5760405162461bcd60e51b815260206004820152603660248201527f536861726561626c654552433732313a2073656e646572206d757374206265206044820152753a34329037bbb732b91037b3103a3432903a37b5b2b760511b60648201526084016105bd565b5f6112d783610d87565b90506112e5846009546115f0565b6112f160095482611498565b6009546040518481526001600160a01b0386169033907fc9a349c2b09c746e2edebb75faaf556c1c0c89d2c196a1f988ece46ee152bd529060200160405180910390a460098054905f611343836121e9565b90915550949350505050565b6001600160a01b039182165f90815260056020908152604080832093909416825291909152205460ff1690565b611384611466565b6001600160a01b0381166113ad575f604051631e4fbdf760e01b81526004016105bd9190611ca6565b6113b681611651565b50565b5f6001600160e01b031982166380ac58cd60e01b14806113e957506001600160e01b03198216635b5e139f60e01b145b806104ce57506301ffc9a760e01b6001600160e01b03198316146104ce565b5f80611413836118bf565b90506001600160a01b0381166104ce57604051637e27328960e01b8152600481018490526024016105bd565b5f908152600460205260409020546001600160a01b031690565b610afc83838360016118d9565b3361146f610ca0565b6001600160a01b031614610c9e573360405163118cdaa760e01b81526004016105bd9190611ca6565b5f8281526006602052604090206114af8282612100565b506040518281527ff8e1a15aba9398e019f0b49df1a4fde98ee17ae345cb5f6b5e2c27f5033e8ce79060200160405180910390a15050565b5f908152601160205260409020546001600160a01b0316151590565b5f8061150e846118bf565b90506001600160a01b0383161561152a5761152a8184866119d4565b6001600160a01b03811615611564576115455f855f806118d9565b6001600160a01b0381165f90815260036020526040902080545f190190555b6001600160a01b03851615611592576001600160a01b0385165f908152600360205260409020805460010190555b5f8481526002602052604080822080546001600160a01b0319166001600160a01b0389811691821790925591518793918516917fddf252ad1be2c89b69c2b068fc378daa952ba7f163c4a11628f55a4df523b3ef91a4949350505050565b6001600160a01b038216611619575f604051633250574960e11b81526004016105bd9190611ca6565b5f61162583835f611503565b90506001600160a01b03811615610afc575f6040516339e3563760e11b81526004016105bd9190611ca6565b600780546001600160a01b038381166001600160a01b0319831681179093556040519116919082907f8be0079c531659141344cd1fd0a4f28419497f9722a3daafe3b4186f6b6457e0905f90a35050565b6001600160a01b0382166116cb5781604051630b61174360e31b81526004016105bd9190611ca6565b6001600160a01b038381165f81815260056020908152604080832094871680845294825291829020805460ff191686151590811790915591519182527f17307eab39ab6107e8899845ad3d59bd9653f200f220920489ca2b5937696c31910160405180910390a3505050565b6001600160a01b0383163b156107ee57604051630a85bd0160e11b81526001600160a01b0384169063150b7a02906117799033908890879087906004016122b5565b6020604051808303815f875af19250505080156117b3575060408051601f3d908101601f191682019092526117b0918101906122f1565b60015b611811573d8080156117e0576040519150601f19603f3d011682016040523d82523d5f602084013e6117e5565b606091505b5080515f036118095783604051633250574960e11b81526004016105bd9190611ca6565b805181602001fd5b6001600160e01b03198116630a85bd0160e11b146118445783604051633250574960e11b81526004016105bd9190611ca6565b5050505050565b6060600880546104e290611fa9565b606061186582611408565b505f61186f61184b565b90505f81511161188d5760405180602001604052805f8152506118b8565b8061189784611a38565b6040516020016118a89291906121bb565b6040516020818303038152906040525b9392505050565b5f908152600260205260409020546001600160a01b031690565b80806118ed57506001600160a01b03821615155b156119a5575f6118fc84611408565b90506001600160a01b038316158015906119285750826001600160a01b0316816001600160a01b031614155b801561193b5750611939818461134f565b155b1561195b578260405163a9fbf51f60e01b81526004016105bd9190611ca6565b81156119a35783856001600160a01b0316826001600160a01b03167f8c5be1e5ebec7d5bd14f71427d1e84f3dd0314c0f7b2291e5b200ac8c7c3b92560405160405180910390a45b505b50505f90815260046020526040902080546001600160a01b0319166001600160a01b0392909216919091179055565b6119df838383611ac7565b610afc576001600160a01b038316611a0d57604051637e27328960e01b8152600481018290526024016105bd565b60405163177e802f60e01b81526001600160a01b0383166004820152602481018290526044016105bd565b60605f611a4483611b2b565b60010190505f816001600160401b03811115611a6257611a62611cfd565b6040519080825280601f01601f191660200182016040528015611a8c576020820181803683370190505b5090508181016020015b5f19016f181899199a1a9b1b9c1cb0b131b232b360811b600a86061a8153600a8504945084611a9657509392505050565b5f6001600160a01b03831615801590610e7e5750826001600160a01b0316846001600160a01b03161480611b005750611b00848461134f565b80610e7e5750826001600160a01b0316611b198361143f565b6001600160a01b031614949350505050565b5f8072184f03e93ff9f4daa797ed6e38ed64bf6a1f0160401b8310611b695772184f03e93ff9f4daa797ed6e38ed64bf6a1f0160401b830492506040015b6904ee2d6d415b85acef8160201b8310611b93576904ee2d6d415b85acef8160201b830492506020015b662386f26fc100008310611bb157662386f26fc10000830492506010015b6305f5e1008310611bc9576305f5e100830492506008015b6127108310611bdd57612710830492506004015b60648310611bef576064830492506002015b600a83106104ce5760010192915050565b6001600160e01b0319811681146113b6575f80fd5b5f60208284031215611c25575f80fd5b81356118b881611c00565b5f5b83811015611c4a578181015183820152602001611c32565b50505f910152565b5f8151808452611c69816020860160208601611c30565b601f01601f19169290920160200192915050565b602081525f6118b86020830184611c52565b5f60208284031215611c9f575f80fd5b5035919050565b6001600160a01b0391909116815260200190565b80356001600160a01b0381168114611cd0575f80fd5b919050565b5f8060408385031215611ce6575f80fd5b611cef83611cba565b946020939093013593505050565b634e487b7160e01b5f52604160045260245ffd5b604051601f8201601f191681016001600160401b0381118282101715611d3957611d39611cfd565b604052919050565b5f6001600160401b03831115611d5957611d59611cfd565b611d6c601f8401601f1916602001611d11565b9050828152838383011115611d7f575f80fd5b828260208301375f602084830101529392505050565b5f82601f830112611da4575f80fd5b6118b883833560208501611d41565b5f8060408385031215611dc4575f80fd5b8235915060208301356001600160401b03811115611de0575f80fd5b611dec85828601611d95565b9150509250929050565b5f805f60608486031215611e08575f80fd5b611e1184611cba565b95602085013595506040909401359392505050565b5f805f60608486031215611e38575f80fd5b611e4184611cba565b9250611e4f60208501611cba565b9150604084013590509250925092565b5f8060408385031215611e70575f80fd5b50508035926020909101359150565b5f60208284031215611e8f575f80fd5b81356001600160401b03811115611ea4575f80fd5b610e7e84828501611d95565b5f60208284031215611ec0575f80fd5b6118b882611cba565b5f8060408385031215611eda575f80fd5b611ee383611cba565b915060208301358015158114611ef7575f80fd5b809150509250929050565b5f805f8060808587031215611f15575f80fd5b611f1e85611cba565b9350611f2c60208601611cba565b92506040850135915060608501356001600160401b03811115611f4d575f80fd5b8501601f81018713611f5d575f80fd5b611f6c87823560208401611d41565b91505092959194509250565b5f8060408385031215611f89575f80fd5b611f9283611cba565b9150611fa060208401611cba565b90509250929050565b600181811c90821680611fbd57607f821691505b602082108103611fdb57634e487b7160e01b5f52602260045260245ffd5b50919050565b60208082526021908201527f536861726561626c654552433732313a20746f6b656e206d75737420657869736040820152601d60fa1b606082015260800190565b634e487b7160e01b5f52601160045260245ffd5b808201808211156104ce576104ce612022565b6020808252601d908201527f46756e6452616973696e673a20746f6b656e206d757374206578697374000000604082015260600190565b602080825260199082015278115490cd4c0c8cce881d1bdad95b881b5d5cdd08195e1a5cdd603a1b604082015260600190565b601f821115610afc575f81815260208120601f850160051c810160208610156120d95750805b601f850160051c820191505b818110156120f8578281556001016120e5565b505050505050565b81516001600160401b0381111561211957612119611cfd565b61212d816121278454611fa9565b846120b3565b602080601f831160018114612160575f84156121495750858301515b5f19600386901b1c1916600185901b1785556120f8565b5f85815260208120601f198616915b8281101561218e5788860151825594840194600190910190840161216f565b50858210156121ab57878501515f19600388901b60f8161c191681555b5050505050600190811b01905550565b5f83516121cc818460208801611c30565b8351908301906121e0818360208801611c30565b01949350505050565b5f600182016121fa576121fa612022565b5060010190565b5f6020808385031215612212575f80fd5b82516001600160401b0380821115612228575f80fd5b818501915085601f83011261223b575f80fd5b81518181111561224d5761224d611cfd565b8060051b915061225e848301611d11565b8181529183018401918481019088841115612277575f80fd5b938501935b838510156122955784518252938501939085019061227c565b98975050505050505050565b634e487b7160e01b5f52603260045260245ffd5b6001600160a01b03858116825284166020820152604081018390526080606082018190525f906122e790830184611c52565b9695505050505050565b5f60208284031215612301575f80fd5b81516118b881611c0056fea2646970667358221220e32469017a0b684326ac9aad48910169e568d2669c3407decbe8853ead84414264736f6c63430008140033",
					"opcodes": "PUSH1 0x80 PUSH1 0x40 MSTORE CALLVALUE DUP1 ISZERO PUSH3 0x10 JUMPI PUSH0 DUP1 REVERT JUMPDEST POP PUSH1 0x40 MLOAD PUSH3 0x272B CODESIZE SUB DUP1 PUSH3 0x272B DUP4 CODECOPY DUP2 ADD PUSH1 0x40 DUP2 SWAP1 MSTORE PUSH3 0x33 SWAP2 PUSH3 0x1DB JUMP JUMPDEST CALLER DUP5 DUP5 PUSH0 PUSH3 0x43 DUP4 DUP3 PUSH3 0x313 JUMP JUMPDEST POP PUSH1 0x1 PUSH3 0x52 DUP3 DUP3 PUSH3 0x313 JUMP JUMPDEST POP POP POP PUSH1 0x1 PUSH1 0x1 PUSH1 0xA0 SHL SUB DUP2 AND PUSH3 0x83 JUMPI PUSH1 0x40 MLOAD PUSH4 0x1E4FBDF7 PUSH1 0xE0 SHL DUP2 MSTORE PUSH0 PUSH1 0x4 DUP3 ADD MSTORE PUSH1 0x24 ADD PUSH1 0x40 MLOAD DUP1 SWAP2 SUB SWAP1 REVERT JUMPDEST PUSH3 0x8E DUP2 PUSH3 0xCC JUMP JUMPDEST POP PUSH1 0x8 PUSH3 0x9D DUP3 DUP3 PUSH3 0x313 JUMP JUMPDEST POP POP PUSH1 0xA DUP1 SLOAD PUSH1 0x1 PUSH1 0x1 PUSH1 0xA0 SHL SUB NOT AND PUSH1 0x1 PUSH1 0x1 PUSH1 0xA0 SHL SUB SWAP3 SWAP1 SWAP3 AND SWAP2 SWAP1 SWAP2 OR SWAP1 SSTORE POP POP PUSH1 0x1 PUSH1 0x9 SSTORE PUSH3 0x3DB JUMP JUMPDEST PUSH1 0x7 DUP1 SLOAD PUSH1 0x1 PUSH1 0x1 PUSH1 0xA0 SHL SUB DUP4 DUP2 AND PUSH1 0x1 PUSH1 0x1 PUSH1 0xA0 SHL SUB NOT DUP4 AND DUP2 OR SWAP1 SWAP4 SSTORE PUSH1 0x40 MLOAD SWAP2 AND SWAP2 SWAP1 DUP3 SWAP1 PUSH32 0x8BE0079C531659141344CD1FD0A4F28419497F9722A3DAAFE3B4186F6B6457E0 SWAP1 PUSH0 SWAP1 LOG3 POP POP JUMP JUMPDEST PUSH4 0x4E487B71 PUSH1 0xE0 SHL PUSH0 MSTORE PUSH1 0x41 PUSH1 0x4 MSTORE PUSH1 0x24 PUSH0 REVERT JUMPDEST PUSH0 DUP3 PUSH1 0x1F DUP4 ADD SLT PUSH3 0x141 JUMPI PUSH0 DUP1 REVERT JUMPDEST DUP2 MLOAD PUSH1 0x1 PUSH1 0x1 PUSH1 0x40 SHL SUB DUP1 DUP3 GT ISZERO PUSH3 0x15E JUMPI PUSH3 0x15E PUSH3 0x11D JUMP JUMPDEST PUSH1 0x40 MLOAD PUSH1 0x1F DUP4 ADD PUSH1 0x1F NOT SWAP1 DUP2 AND PUSH1 0x3F ADD AND DUP2 ADD SWAP1 DUP3 DUP3 GT DUP2 DUP4 LT OR ISZERO PUSH3 0x189 JUMPI PUSH3 0x189 PUSH3 0x11D JUMP JUMPDEST DUP2 PUSH1 0x40 MSTORE DUP4 DUP2 MSTORE PUSH1 0x20 SWAP3 POP DUP7 DUP4 DUP6 DUP9 ADD ADD GT ISZERO PUSH3 0x1A5 JUMPI PUSH0 DUP1 REVERT JUMPDEST PUSH0 SWAP2 POP JUMPDEST DUP4 DUP3 LT ISZERO PUSH3 0x1C8 JUMPI DUP6 DUP3 ADD DUP4 ADD MLOAD DUP2 DUP4 ADD DUP5 ADD MSTORE SWAP1 DUP3 ADD SWAP1 PUSH3 0x1A9 JUMP JUMPDEST PUSH0 SWAP4 DUP2 ADD SWAP1 SWAP3 ADD SWAP3 SWAP1 SWAP3 MSTORE SWAP5 SWAP4 POP POP POP POP JUMP JUMPDEST PUSH0 DUP1 PUSH0 DUP1 PUSH1 0x80 DUP6 DUP8 SUB SLT ISZERO PUSH3 0x1EF JUMPI PUSH0 DUP1 REVERT JUMPDEST DUP5 MLOAD PUSH1 0x1 PUSH1 0x1 PUSH1 0x40 SHL SUB DUP1 DUP3 GT ISZERO PUSH3 0x206 JUMPI PUSH0 DUP1 REVERT JUMPDEST PUSH3 0x214 DUP9 DUP4 DUP10 ADD PUSH3 0x131 JUMP JUMPDEST SWAP6 POP PUSH1 0x20 DUP8 ADD MLOAD SWAP2 POP DUP1 DUP3 GT ISZERO PUSH3 0x22A JUMPI PUSH0 DUP1 REVERT JUMPDEST PUSH3 0x238 DUP9 DUP4 DUP10 ADD PUSH3 0x131 JUMP JUMPDEST PUSH1 0x40 DUP9 ADD MLOAD SWAP1 SWAP6 POP SWAP2 POP PUSH1 0x1 PUSH1 0x1 PUSH1 0xA0 SHL SUB DUP3 AND DUP3 EQ PUSH3 0x257 JUMPI PUSH0 DUP1 REVERT JUMPDEST PUSH1 0x60 DUP8 ADD MLOAD SWAP2 SWAP4 POP DUP1 DUP3 GT ISZERO PUSH3 0x26C JUMPI PUSH0 DUP1 REVERT JUMPDEST POP PUSH3 0x27B DUP8 DUP3 DUP9 ADD PUSH3 0x131 JUMP JUMPDEST SWAP2 POP POP SWAP3 SWAP6 SWAP2 SWAP5 POP SWAP3 POP JUMP JUMPDEST PUSH1 0x1 DUP2 DUP2 SHR SWAP1 DUP3 AND DUP1 PUSH3 0x29C JUMPI PUSH1 0x7F DUP3 AND SWAP2 POP JUMPDEST PUSH1 0x20 DUP3 LT DUP2 SUB PUSH3 0x2BB JUMPI PUSH4 0x4E487B71 PUSH1 0xE0 SHL PUSH0 MSTORE PUSH1 0x22 PUSH1 0x4 MSTORE PUSH1 0x24 PUSH0 REVERT JUMPDEST POP SWAP2 SWAP1 POP JUMP JUMPDEST PUSH1 0x1F DUP3 GT ISZERO PUSH3 0x30E JUMPI PUSH0 DUP2 DUP2 MSTORE PUSH1 0x20 DUP2 KECCAK256 PUSH1 0x1F DUP6 ADD PUSH1 0x5 SHR DUP2 ADD PUSH1 0x20 DUP7 LT ISZERO PUSH3 0x2E9 JUMPI POP DUP1 JUMPDEST PUSH1 0x1F DUP6 ADD PUSH1 0x5 SHR DUP3 ADD SWAP2 POP JUMPDEST DUP2 DUP2 LT ISZERO PUSH3 0x30A JUMPI DUP3 DUP2 SSTORE PUSH1 0x1 ADD PUSH3 0x2F5 JUMP JUMPDEST POP POP POP JUMPDEST POP POP POP JUMP JUMPDEST DUP2 MLOAD PUSH1 0x1 PUSH1 0x1 PUSH1 0x40 SHL SUB DUP2 GT ISZERO PUSH3 0x32F JUMPI PUSH3 0x32F PUSH3 0x11D JUMP JUMPDEST PUSH3 0x347 DUP2 PUSH3 0x340 DUP5 SLOAD PUSH3 0x287 JUMP JUMPDEST DUP5 PUSH3 0x2C1 JUMP JUMPDEST PUSH1 0x20 DUP1 PUSH1 0x1F DUP4 GT PUSH1 0x1 DUP2 EQ PUSH3 0x37D JUMPI PUSH0 DUP5 ISZERO PUSH3 0x365 JUMPI POP DUP6 DUP4 ADD MLOAD JUMPDEST PUSH0 NOT PUSH1 0x3 DUP7 SWAP1 SHL SHR NOT AND PUSH1 0x1 DUP6 SWAP1 SHL OR DUP6 SSTORE PUSH3 0x30A JUMP JUMPDEST PUSH0 DUP6 DUP2 MSTORE PUSH1 0x20 DUP2 KECCAK256 PUSH1 0x1F NOT DUP7 AND SWAP2 JUMPDEST DUP3 DUP2 LT ISZERO PUSH3 0x3AD JUMPI DUP9 DUP7 ADD MLOAD DUP3 SSTORE SWAP5 DUP5 ADD SWAP5 PUSH1 0x1 SWAP1 SWAP2 ADD SWAP1 DUP5 ADD PUSH3 0x38C JUMP JUMPDEST POP DUP6 DUP3 LT ISZERO PUSH3 0x3CB JUMPI DUP8 DUP6 ADD MLOAD PUSH0 NOT PUSH1 0x3 DUP9 SWAP1 SHL PUSH1 0xF8 AND SHR NOT AND DUP2 SSTORE JUMPDEST POP POP POP POP POP PUSH1 0x1 SWAP1 DUP2 SHL ADD SWAP1 SSTORE POP JUMP JUMPDEST PUSH2 0x2342 DUP1 PUSH3 0x3E9 PUSH0 CODECOPY PUSH0 RETURN INVALID PUSH1 0x80 PUSH1 0x40 MSTORE PUSH1 0x4 CALLDATASIZE LT PUSH2 0x146 JUMPI PUSH0 CALLDATALOAD PUSH1 0xE0 SHR DUP1 PUSH4 0x1FFC9A7 EQ PUSH2 0x14A JUMPI DUP1 PUSH4 0x6FDDE03 EQ PUSH2 0x17E JUMPI DUP1 PUSH4 0x81812FC EQ PUSH2 0x19F JUMPI DUP1 PUSH4 0x95EA7B3 EQ PUSH2 0x1CB JUMPI DUP1 PUSH4 0x162094C4 EQ PUSH2 0x1EC JUMPI DUP1 PUSH4 0x17F69222 EQ PUSH2 0x20B JUMPI DUP1 PUSH4 0x23B872DD EQ PUSH2 0x21E JUMPI DUP1 PUSH4 0x24C9CD4E EQ PUSH2 0x23D JUMPI DUP1 PUSH4 0x3D14A02B EQ PUSH2 0x25C JUMPI DUP1 PUSH4 0x40C10F19 EQ PUSH2 0x27B JUMPI DUP1 PUSH4 0x42842E0E EQ PUSH2 0x29A JUMPI DUP1 PUSH4 0x45714684 EQ PUSH2 0x2B9 JUMPI DUP1 PUSH4 0x55F804B3 EQ PUSH2 0x2D8 JUMPI DUP1 PUSH4 0x6352211E EQ PUSH2 0x2F7 JUMPI DUP1 PUSH4 0x6C0360EB EQ PUSH2 0x316 JUMPI DUP1 PUSH4 0x70A08231 EQ PUSH2 0x32A JUMPI DUP1 PUSH4 0x715018A6 EQ PUSH2 0x357 JUMPI DUP1 PUSH4 0x8DA5CB5B EQ PUSH2 0x36B JUMPI DUP1 PUSH4 0x95D89B41 EQ PUSH2 0x37F JUMPI DUP1 PUSH4 0xA22CB465 EQ PUSH2 0x393 JUMPI DUP1 PUSH4 0xB384ABEF EQ PUSH2 0x3B2 JUMPI DUP1 PUSH4 0xB88D4FDE EQ PUSH2 0x3D1 JUMPI DUP1 PUSH4 0xC87B56DD EQ PUSH2 0x3F0 JUMPI DUP1 PUSH4 0xD312998F EQ PUSH2 0x40F JUMPI DUP1 PUSH4 0xD8D7C169 EQ PUSH2 0x42E JUMPI DUP1 PUSH4 0xDED6338B EQ PUSH2 0x44D JUMPI DUP1 PUSH4 0xE985E9C5 EQ PUSH2 0x46C JUMPI DUP1 PUSH4 0xF2FDE38B EQ PUSH2 0x48B JUMPI JUMPDEST PUSH0 DUP1 REVERT JUMPDEST CALLVALUE DUP1 ISZERO PUSH2 0x155 JUMPI PUSH0 DUP1 REVERT JUMPDEST POP PUSH2 0x169 PUSH2 0x164 CALLDATASIZE PUSH1 0x4 PUSH2 0x1C15 JUMP JUMPDEST PUSH2 0x4AA JUMP JUMPDEST PUSH1 0x40 MLOAD SWAP1 ISZERO ISZERO DUP2 MSTORE PUSH1 0x20 ADD JUMPDEST PUSH1 0x40 MLOAD DUP1 SWAP2 SUB SWAP1 RETURN JUMPDEST CALLVALUE DUP1 ISZERO PUSH2 0x189 JUMPI PUSH0 DUP1 REVERT JUMPDEST POP PUSH2 0x192 PUSH2 0x4D4 JUMP JUMPDEST PUSH1 0x40 MLOAD PUSH2 0x175 SWAP2 SWAP1 PUSH2 0x1C7D JUMP JUMPDEST CALLVALUE DUP1 ISZERO PUSH2 0x1AA JUMPI PUSH0 DUP1 REVERT JUMPDEST POP PUSH2 0x1BE PUSH2 0x1B9 CALLDATASIZE PUSH1 0x4 PUSH2 0x1C8F JUMP JUMPDEST PUSH2 0x563 JUMP JUMPDEST PUSH1 0x40 MLOAD PUSH2 0x175 SWAP2 SWAP1 PUSH2 0x1CA6 JUMP JUMPDEST CALLVALUE DUP1 ISZERO PUSH2 0x1D6 JUMPI PUSH0 DUP1 REVERT JUMPDEST POP PUSH2 0x1EA PUSH2 0x1E5 CALLDATASIZE PUSH1 0x4 PUSH2 0x1CD5 JUMP JUMPDEST PUSH2 0x577 JUMP JUMPDEST STOP JUMPDEST CALLVALUE DUP1 ISZERO PUSH2 0x1F7 JUMPI PUSH0 DUP1 REVERT JUMPDEST POP PUSH2 0x1EA PUSH2 0x206 CALLDATASIZE PUSH1 0x4 PUSH2 0x1DB3 JUMP JUMPDEST PUSH2 0x586 JUMP JUMPDEST PUSH2 0x1EA PUSH2 0x219 CALLDATASIZE PUSH1 0x4 PUSH2 0x1DF6 JUMP JUMPDEST PUSH2 0x598 JUMP JUMPDEST CALLVALUE DUP1 ISZERO PUSH2 0x229 JUMPI PUSH0 DUP1 REVERT JUMPDEST POP PUSH2 0x1EA PUSH2 0x238 CALLDATASIZE PUSH1 0x4 PUSH2 0x1E26 JUMP JUMPDEST PUSH2 0x7F4 JUMP JUMPDEST CALLVALUE DUP1 ISZERO PUSH2 0x248 JUMPI PUSH0 DUP1 REVERT JUMPDEST POP PUSH2 0x1EA PUSH2 0x257 CALLDATASIZE PUSH1 0x4 PUSH2 0x1E5F JUMP JUMPDEST PUSH2 0x877 JUMP JUMPDEST CALLVALUE DUP1 ISZERO PUSH2 0x267 JUMPI PUSH0 DUP1 REVERT JUMPDEST POP PUSH2 0x1EA PUSH2 0x276 CALLDATASIZE PUSH1 0x4 PUSH2 0x1CD5 JUMP JUMPDEST PUSH2 0x96E JUMP JUMPDEST CALLVALUE DUP1 ISZERO PUSH2 0x286 JUMPI PUSH0 DUP1 REVERT JUMPDEST POP PUSH2 0x1EA PUSH2 0x295 CALLDATASIZE PUSH1 0x4 PUSH2 0x1CD5 JUMP JUMPDEST PUSH2 0xAD0 JUMP JUMPDEST CALLVALUE DUP1 ISZERO PUSH2 0x2A5 JUMPI PUSH0 DUP1 REVERT JUMPDEST POP PUSH2 0x1EA PUSH2 0x2B4 CALLDATASIZE PUSH1 0x4 PUSH2 0x1E26 JUMP JUMPDEST PUSH2 0xAE2 JUMP JUMPDEST CALLVALUE DUP1 ISZERO PUSH2 0x2C4 JUMPI PUSH0 DUP1 REVERT JUMPDEST POP PUSH2 0x1EA PUSH2 0x2D3 CALLDATASIZE PUSH1 0x4 PUSH2 0x1C8F JUMP JUMPDEST PUSH2 0xB01 JUMP JUMPDEST CALLVALUE DUP1 ISZERO PUSH2 0x2E3 JUMPI PUSH0 DUP1 REVERT JUMPDEST POP PUSH2 0x1EA PUSH2 0x2F2 CALLDATASIZE PUSH1 0x4 PUSH2 0x1E7F JUMP JUMPDEST PUSH2 0xB9E JUMP JUMPDEST CALLVALUE DUP1 ISZERO PUSH2 0x302 JUMPI PUSH0 DUP1 REVERT JUMPDEST POP PUSH2 0x1BE PUSH2 0x311 CALLDATASIZE PUSH1 0x4 PUSH2 0x1C8F JUMP JUMPDEST PUSH2 0xBB2 JUMP JUMPDEST CALLVALUE DUP1 ISZERO PUSH2 0x321 JUMPI PUSH0 DUP1 REVERT JUMPDEST POP PUSH2 0x192 PUSH2 0xBBC JUMP JUMPDEST CALLVALUE DUP1 ISZERO PUSH2 0x335 JUMPI PUSH0 DUP1 REVERT JUMPDEST POP PUSH2 0x349 PUSH2 0x344 CALLDATASIZE PUSH1 0x4 PUSH2 0x1EB0 JUMP JUMPDEST PUSH2 0xC48 JUMP JUMPDEST PUSH1 0x40 MLOAD SWAP1 DUP2 MSTORE PUSH1 0x20 ADD PUSH2 0x175 JUMP JUMPDEST CALLVALUE DUP1 ISZERO PUSH2 0x362 JUMPI PUSH0 DUP1 REVERT JUMPDEST POP PUSH2 0x1EA PUSH2 0xC8D JUMP JUMPDEST CALLVALUE DUP1 ISZERO PUSH2 0x376 JUMPI PUSH0 DUP1 REVERT JUMPDEST POP PUSH2 0x1BE PUSH2 0xCA0 JUMP JUMPDEST CALLVALUE DUP1 ISZERO PUSH2 0x38A JUMPI PUSH0 DUP1 REVERT JUMPDEST POP PUSH2 0x192 PUSH2 0xCAF JUMP JUMPDEST CALLVALUE DUP1 ISZERO PUSH2 0x39E JUMPI PUSH0 DUP1 REVERT JUMPDEST POP PUSH2 0x1EA PUSH2 0x3AD CALLDATASIZE PUSH1 0x4 PUSH2 0x1EC9 JUMP JUMPDEST PUSH2 0xCBE JUMP JUMPDEST CALLVALUE DUP1 ISZERO PUSH2 0x3BD JUMPI PUSH0 DUP1 REVERT JUMPDEST POP PUSH2 0x1EA PUSH2 0x3CC CALLDATASIZE PUSH1 0x4 PUSH2 0x1E5F JUMP JUMPDEST PUSH2 0xCC9 JUMP JUMPDEST CALLVALUE DUP1 ISZERO PUSH2 0x3DC JUMPI PUSH0 DUP1 REVERT JUMPDEST POP PUSH2 0x1EA PUSH2 0x3EB CALLDATASIZE PUSH1 0x4 PUSH2 0x1F02 JUMP JUMPDEST PUSH2 0xD70 JUMP JUMPDEST CALLVALUE DUP1 ISZERO PUSH2 0x3FB JUMPI PUSH0 DUP1 REVERT JUMPDEST POP PUSH2 0x192 PUSH2 0x40A CALLDATASIZE PUSH1 0x4 PUSH2 0x1C8F JUMP JUMPDEST PUSH2 0xD87 JUMP JUMPDEST CALLVALUE DUP1 ISZERO PUSH2 0x41A JUMPI PUSH0 DUP1 REVERT JUMPDEST POP PUSH2 0x1EA PUSH2 0x429 CALLDATASIZE PUSH1 0x4 PUSH2 0x1EB0 JUMP JUMPDEST PUSH2 0xE86 JUMP JUMPDEST CALLVALUE DUP1 ISZERO PUSH2 0x439 JUMPI PUSH0 DUP1 REVERT JUMPDEST POP PUSH2 0x1EA PUSH2 0x448 CALLDATASIZE PUSH1 0x4 PUSH2 0x1C8F JUMP JUMPDEST PUSH2 0xF3D JUMP JUMPDEST CALLVALUE DUP1 ISZERO PUSH2 0x458 JUMPI PUSH0 DUP1 REVERT JUMPDEST POP PUSH2 0x349 PUSH2 0x467 CALLDATASIZE PUSH1 0x4 PUSH2 0x1CD5 JUMP JUMPDEST PUSH2 0x118B JUMP JUMPDEST CALLVALUE DUP1 ISZERO PUSH2 0x477 JUMPI PUSH0 DUP1 REVERT JUMPDEST POP PUSH2 0x169 PUSH2 0x486 CALLDATASIZE PUSH1 0x4 PUSH2 0x1F78 JUMP JUMPDEST PUSH2 0x134F JUMP JUMPDEST CALLVALUE DUP1 ISZERO PUSH2 0x496 JUMPI PUSH0 DUP1 REVERT JUMPDEST POP PUSH2 0x1EA PUSH2 0x4A5 CALLDATASIZE PUSH1 0x4 PUSH2 0x1EB0 JUMP JUMPDEST PUSH2 0x137C JUMP JUMPDEST PUSH0 PUSH1 0x1 PUSH1 0x1 PUSH1 0xE0 SHL SUB NOT DUP3 AND PUSH4 0x24832483 PUSH1 0xE1 SHL EQ DUP1 PUSH2 0x4CE JUMPI POP PUSH2 0x4CE DUP3 PUSH2 0x13B9 JUMP JUMPDEST SWAP3 SWAP2 POP POP JUMP JUMPDEST PUSH1 0x60 PUSH0 DUP1 SLOAD PUSH2 0x4E2 SWAP1 PUSH2 0x1FA9 JUMP JUMPDEST DUP1 PUSH1 0x1F ADD PUSH1 0x20 DUP1 SWAP2 DIV MUL PUSH1 0x20 ADD PUSH1 0x40 MLOAD SWAP1 DUP2 ADD PUSH1 0x40 MSTORE DUP1 SWAP3 SWAP2 SWAP1 DUP2 DUP2 MSTORE PUSH1 0x20 ADD DUP3 DUP1 SLOAD PUSH2 0x50E SWAP1 PUSH2 0x1FA9 JUMP JUMPDEST DUP1 ISZERO PUSH2 0x559 JUMPI DUP1 PUSH1 0x1F LT PUSH2 0x530 JUMPI PUSH2 0x100 DUP1 DUP4 SLOAD DIV MUL DUP4 MSTORE SWAP2 PUSH1 0x20 ADD SWAP2 PUSH2 0x559 JUMP JUMPDEST DUP3 ADD SWAP2 SWAP1 PUSH0 MSTORE PUSH1 0x20 PUSH0 KECCAK256 SWAP1 JUMPDEST DUP2 SLOAD DUP2 MSTORE SWAP1 PUSH1 0x1 ADD SWAP1 PUSH1 0x20 ADD DUP1 DUP4 GT PUSH2 0x53C JUMPI DUP3 SWAP1 SUB PUSH1 0x1F AND DUP3 ADD SWAP2 JUMPDEST POP POP POP POP POP SWAP1 POP SWAP1 JUMP JUMPDEST PUSH0 PUSH2 0x56D DUP3 PUSH2 0x1408 JUMP JUMPDEST POP PUSH2 0x4CE DUP3 PUSH2 0x143F JUMP JUMPDEST PUSH2 0x582 DUP3 DUP3 CALLER PUSH2 0x1459 JUMP JUMPDEST POP POP JUMP JUMPDEST PUSH2 0x58E PUSH2 0x1466 JUMP JUMPDEST PUSH2 0x582 DUP3 DUP3 PUSH2 0x1498 JUMP JUMPDEST PUSH2 0x5A1 DUP3 PUSH2 0x14E7 JUMP JUMPDEST PUSH2 0x5C6 JUMPI PUSH1 0x40 MLOAD PUSH3 0x461BCD PUSH1 0xE5 SHL DUP2 MSTORE PUSH1 0x4 ADD PUSH2 0x5BD SWAP1 PUSH2 0x1FE1 JUMP JUMPDEST PUSH1 0x40 MLOAD DUP1 SWAP2 SUB SWAP1 REVERT JUMPDEST PUSH0 DUP3 DUP2 MSTORE PUSH1 0xC PUSH1 0x20 MSTORE PUSH1 0x40 SWAP1 KECCAK256 PUSH1 0x2 ADD SLOAD PUSH1 0xFF AND PUSH2 0x63F JUMPI PUSH1 0x40 MLOAD PUSH3 0x461BCD PUSH1 0xE5 SHL DUP2 MSTORE PUSH1 0x20 PUSH1 0x4 DUP3 ADD MSTORE PUSH1 0x30 PUSH1 0x24 DUP3 ADD MSTORE PUSH32 0x46756E6452616973696E673A206173736574206973206E6F74206C6F636B6564 PUSH1 0x44 DUP3 ADD MSTORE PUSH16 0x20666F722066756E6472616973696E67 PUSH1 0x80 SHL PUSH1 0x64 DUP3 ADD MSTORE PUSH1 0x84 ADD PUSH2 0x5BD JUMP JUMPDEST PUSH0 DUP3 DUP2 MSTORE PUSH1 0xC PUSH1 0x20 MSTORE PUSH1 0x40 SWAP1 KECCAK256 DUP1 SLOAD PUSH1 0x1 SWAP1 SWAP2 ADD SLOAD PUSH2 0x65F SWAP1 DUP4 SWAP1 PUSH2 0x2036 JUMP JUMPDEST GT ISZERO PUSH2 0x6BE JUMPI PUSH1 0x40 MLOAD PUSH3 0x461BCD PUSH1 0xE5 SHL DUP2 MSTORE PUSH1 0x20 PUSH1 0x4 DUP3 ADD MSTORE PUSH1 0x28 PUSH1 0x24 DUP3 ADD MSTORE PUSH32 0x46756E6452616973696E673A206E6F7420656E6F756768207368617265732061 PUSH1 0x44 DUP3 ADD MSTORE PUSH8 0x7661696C61626C65 PUSH1 0xC0 SHL PUSH1 0x64 DUP3 ADD MSTORE PUSH1 0x84 ADD PUSH2 0x5BD JUMP JUMPDEST PUSH0 DUP3 DUP2 MSTORE PUSH1 0xC PUSH1 0x20 MSTORE PUSH1 0x40 DUP2 KECCAK256 PUSH1 0x1 ADD DUP1 SLOAD DUP4 SWAP3 SWAP1 PUSH2 0x6DE SWAP1 DUP5 SWAP1 PUSH2 0x2036 JUMP JUMPDEST SWAP1 SWAP2 SSTORE POP POP PUSH0 DUP3 DUP2 MSTORE PUSH1 0xC PUSH1 0x20 MSTORE PUSH1 0x40 SWAP1 KECCAK256 DUP1 SLOAD PUSH1 0x1 SWAP1 SWAP2 ADD SLOAD SUB PUSH2 0x719 JUMPI PUSH0 DUP3 DUP2 MSTORE PUSH1 0xC PUSH1 0x20 MSTORE PUSH1 0x40 SWAP1 KECCAK256 PUSH1 0x2 ADD DUP1 SLOAD PUSH1 0xFF NOT AND PUSH1 0x1 OR SWAP1 SSTORE JUMPDEST PUSH1 0x40 DUP1 MLOAD PUSH1 0x80 DUP2 ADD DUP3 MSTORE PUSH1 0x1 PUSH1 0x1 PUSH1 0xA0 SHL SUB DUP6 DUP2 AND DUP3 MSTORE PUSH1 0x20 DUP1 DUP4 ADD DUP7 DUP2 MSTORE PUSH1 0x9 DUP1 SLOAD DUP6 DUP8 ADD DUP2 DUP2 MSTORE PUSH1 0x60 DUP8 ADD DUP10 DUP2 MSTORE PUSH0 DUP12 DUP2 MSTORE PUSH1 0xF DUP8 MSTORE DUP10 DUP2 KECCAK256 SWAP4 DUP2 MSTORE SWAP3 SWAP1 SWAP6 MSTORE SWAP1 DUP8 SWAP1 KECCAK256 SWAP6 MLOAD DUP7 SLOAD PUSH1 0x1 PUSH1 0x1 PUSH1 0xA0 SHL SUB NOT AND SWAP1 DUP7 AND OR DUP7 SSTORE SWAP2 MLOAD PUSH1 0x1 DUP7 ADD SSTORE SWAP1 MLOAD PUSH1 0x2 DUP6 ADD SSTORE SWAP1 MLOAD PUSH1 0x3 SWAP1 SWAP4 ADD SWAP3 SWAP1 SWAP3 SSTORE PUSH1 0xA SLOAD SWAP2 SLOAD SWAP3 MLOAD PUSH4 0xA29F6977 PUSH1 0xE0 SHL DUP2 MSTORE PUSH1 0x4 DUP2 ADD DUP7 SWAP1 MSTORE PUSH1 0x24 DUP2 ADD SWAP4 SWAP1 SWAP4 MSTORE AND SWAP1 PUSH4 0xA29F6977 SWAP1 PUSH1 0x44 ADD PUSH0 PUSH1 0x40 MLOAD DUP1 DUP4 SUB DUP2 PUSH0 DUP8 DUP1 EXTCODESIZE ISZERO DUP1 ISZERO PUSH2 0x7CE JUMPI PUSH0 DUP1 REVERT JUMPDEST POP GAS CALL ISZERO DUP1 ISZERO PUSH2 0x7E0 JUMPI RETURNDATASIZE PUSH0 DUP1 RETURNDATACOPY RETURNDATASIZE PUSH0 REVERT JUMPDEST POP POP POP POP PUSH2 0x7EE DUP4 DUP4 PUSH2 0x118B JUMP JUMPDEST POP POP POP POP JUMP JUMPDEST PUSH1 0x1 PUSH1 0x1 PUSH1 0xA0 SHL SUB DUP3 AND PUSH2 0x81D JUMPI PUSH0 PUSH1 0x40 MLOAD PUSH4 0x32505749 PUSH1 0xE1 SHL DUP2 MSTORE PUSH1 0x4 ADD PUSH2 0x5BD SWAP2 SWAP1 PUSH2 0x1CA6 JUMP JUMPDEST PUSH0 PUSH2 0x829 DUP4 DUP4 CALLER PUSH2 0x1503 JUMP JUMPDEST SWAP1 POP DUP4 PUSH1 0x1 PUSH1 0x1 PUSH1 0xA0 SHL SUB AND DUP2 PUSH1 0x1 PUSH1 0x1 PUSH1 0xA0 SHL SUB AND EQ PUSH2 0x7EE JUMPI PUSH1 0x40 MLOAD PUSH4 0x64283D7B PUSH1 0xE0 SHL DUP2 MSTORE PUSH1 0x1 PUSH1 0x1 PUSH1 0xA0 SHL SUB DUP1 DUP7 AND PUSH1 0x4 DUP4 ADD MSTORE PUSH1 0x24 DUP3 ADD DUP5 SWAP1 MSTORE DUP3 AND PUSH1 0x44 DUP3 ADD MSTORE PUSH1 0x64 ADD PUSH2 0x5BD JUMP JUMPDEST PUSH2 0x87F PUSH2 0x1466 JUMP JUMPDEST PUSH2 0x888 DUP3 PUSH2 0x14E7 JUMP JUMPDEST PUSH2 0x8A4 JUMPI PUSH1 0x40 MLOAD PUSH3 0x461BCD PUSH1 0xE5 SHL DUP2 MSTORE PUSH1 0x4 ADD PUSH2 0x5BD SWAP1 PUSH2 0x1FE1 JUMP JUMPDEST PUSH0 DUP3 DUP2 MSTORE PUSH1 0xC PUSH1 0x20 MSTORE PUSH1 0x40 SWAP1 KECCAK256 PUSH1 0x2 ADD SLOAD PUSH1 0xFF AND ISZERO PUSH2 0x922 JUMPI PUSH1 0x40 MLOAD PUSH3 0x461BCD PUSH1 0xE5 SHL DUP2 MSTORE PUSH1 0x20 PUSH1 0x4 DUP3 ADD MSTORE PUSH1 0x34 PUSH1 0x24 DUP3 ADD MSTORE PUSH32 0x46756E6452616973696E673A20617373657420697320616C7265616479206C6F PUSH1 0x44 DUP3 ADD MSTORE PUSH20 0x636B656420666F722066756E6472616973696E67 PUSH1 0x60 SHL PUSH1 0x64 DUP3 ADD MSTORE PUSH1 0x84 ADD PUSH2 0x5BD JUMP JUMPDEST PUSH1 0x40 DUP1 MLOAD PUSH1 0x60 DUP2 ADD DUP3 MSTORE SWAP2 DUP3 MSTORE PUSH0 PUSH1 0x20 DUP1 DUP5 ADD DUP3 DUP2 MSTORE PUSH1 0x1 DUP6 DUP6 ADD DUP2 DUP2 MSTORE SWAP7 DUP5 MSTORE PUSH1 0xC SWAP1 SWAP3 MSTORE SWAP3 SWAP1 SWAP2 KECCAK256 SWAP3 MLOAD DUP4 SSTORE SWAP1 MLOAD SWAP1 DUP3 ADD SSTORE SWAP1 MLOAD PUSH1 0x2 SWAP1 SWAP2 ADD DUP1 SLOAD PUSH1 0xFF NOT AND SWAP2 ISZERO ISZERO SWAP2 SWAP1 SWAP2 OR SWAP1 SSTORE JUMP JUMPDEST PUSH0 DUP2 DUP2 MSTORE PUSH1 0xD PUSH1 0x20 MSTORE PUSH1 0x40 SWAP1 KECCAK256 SLOAD PUSH1 0x1 PUSH1 0x1 PUSH1 0xA0 SHL SUB AND CALLER EQ PUSH2 0x9E7 JUMPI PUSH1 0x40 MLOAD PUSH3 0x461BCD PUSH1 0xE5 SHL DUP2 MSTORE PUSH1 0x20 PUSH1 0x4 DUP3 ADD MSTORE PUSH1 0x2B PUSH1 0x24 DUP3 ADD MSTORE PUSH32 0x46756E6452616973696E673A6F6E6C79206F776E65722063616E20696E697469 PUSH1 0x44 DUP3 ADD MSTORE PUSH11 0x6174652073656C6C696E67 PUSH1 0xA8 SHL PUSH1 0x64 DUP3 ADD MSTORE PUSH1 0x84 ADD PUSH2 0x5BD JUMP JUMPDEST PUSH2 0x9F0 DUP2 PUSH2 0x14E7 JUMP JUMPDEST PUSH2 0xA0C JUMPI PUSH1 0x40 MLOAD PUSH3 0x461BCD PUSH1 0xE5 SHL DUP2 MSTORE PUSH1 0x4 ADD PUSH2 0x5BD SWAP1 PUSH2 0x2049 JUMP JUMPDEST PUSH0 DUP2 DUP2 MSTORE PUSH1 0xE PUSH1 0x20 MSTORE PUSH1 0x40 SWAP1 KECCAK256 SLOAD PUSH1 0xFF AND ISZERO PUSH2 0xA68 JUMPI PUSH1 0x40 MLOAD PUSH3 0x461BCD PUSH1 0xE5 SHL DUP2 MSTORE PUSH1 0x20 PUSH1 0x4 DUP3 ADD MSTORE PUSH1 0x1B PUSH1 0x24 DUP3 ADD MSTORE PUSH27 0x233AB7322930B4B9B4B7339D102B37BA34B7339034B99037B832B7 PUSH1 0x29 SHL PUSH1 0x44 DUP3 ADD MSTORE PUSH1 0x64 ADD PUSH2 0x5BD JUMP JUMPDEST PUSH0 DUP2 DUP2 MSTORE PUSH1 0x10 PUSH1 0x20 MSTORE PUSH1 0x40 SWAP1 KECCAK256 SLOAD PUSH1 0xFF AND PUSH2 0xAC5 JUMPI PUSH1 0x40 MLOAD PUSH3 0x461BCD PUSH1 0xE5 SHL DUP2 MSTORE PUSH1 0x20 PUSH1 0x4 DUP3 ADD MSTORE PUSH1 0x1D PUSH1 0x24 DUP3 ADD MSTORE PUSH32 0x46756E6452616973696E673A2053616C65206973206E6F74206F70656E000000 PUSH1 0x44 DUP3 ADD MSTORE PUSH1 0x64 ADD PUSH2 0x5BD JUMP JUMPDEST PUSH2 0x582 CALLER DUP4 DUP4 PUSH2 0xAE2 JUMP JUMPDEST PUSH2 0xAD8 PUSH2 0x1466 JUMP JUMPDEST PUSH2 0x582 DUP3 DUP3 PUSH2 0x15F0 JUMP JUMPDEST PUSH2 0xAFC DUP4 DUP4 DUP4 PUSH1 0x40 MLOAD DUP1 PUSH1 0x20 ADD PUSH1 0x40 MSTORE DUP1 PUSH0 DUP2 MSTORE POP PUSH2 0xD70 JUMP JUMPDEST POP POP POP JUMP JUMPDEST PUSH2 0xB0A DUP2 PUSH2 0x14E7 JUMP JUMPDEST PUSH2 0xB26 JUMPI PUSH1 0x40 MLOAD PUSH3 0x461BCD PUSH1 0xE5 SHL DUP2 MSTORE PUSH1 0x4 ADD PUSH2 0x5BD SWAP1 PUSH2 0x2080 JUMP JUMPDEST PUSH0 DUP2 DUP2 MSTORE PUSH1 0xE PUSH1 0x20 MSTORE PUSH1 0x40 SWAP1 KECCAK256 SLOAD PUSH1 0xFF AND ISZERO PUSH2 0xB84 JUMPI PUSH1 0x40 MLOAD PUSH3 0x461BCD PUSH1 0xE5 SHL DUP2 MSTORE PUSH1 0x20 PUSH1 0x4 DUP3 ADD MSTORE PUSH1 0x1F PUSH1 0x24 DUP3 ADD MSTORE PUSH32 0x46756E6452616973696E673A566F74696E6720616C7265616479206F70656E00 PUSH1 0x44 DUP3 ADD MSTORE PUSH1 0x64 ADD PUSH2 0x5BD JUMP JUMPDEST PUSH0 SWAP1 DUP2 MSTORE PUSH1 0xE PUSH1 0x20 MSTORE PUSH1 0x40 SWAP1 KECCAK256 DUP1 SLOAD PUSH1 0xFF NOT AND PUSH1 0x1 OR SWAP1 SSTORE JUMP JUMPDEST PUSH2 0xBA6 PUSH2 0x1466 JUMP JUMPDEST PUSH1 0x8 PUSH2 0x582 DUP3 DUP3 PUSH2 0x2100 JUMP JUMPDEST PUSH0 PUSH2 0x4CE DUP3 PUSH2 0x1408 JUMP JUMPDEST PUSH1 0x8 DUP1 SLOAD PUSH2 0xBC9 SWAP1 PUSH2 0x1FA9 JUMP JUMPDEST DUP1 PUSH1 0x1F ADD PUSH1 0x20 DUP1 SWAP2 DIV MUL PUSH1 0x20 ADD PUSH1 0x40 MLOAD SWAP1 DUP2 ADD PUSH1 0x40 MSTORE DUP1 SWAP3 SWAP2 SWAP1 DUP2 DUP2 MSTORE PUSH1 0x20 ADD DUP3 DUP1 SLOAD PUSH2 0xBF5 SWAP1 PUSH2 0x1FA9 JUMP JUMPDEST DUP1 ISZERO PUSH2 0xC40 JUMPI DUP1 PUSH1 0x1F LT PUSH2 0xC17 JUMPI PUSH2 0x100 DUP1 DUP4 SLOAD DIV MUL DUP4 MSTORE SWAP2 PUSH1 0x20 ADD SWAP2 PUSH2 0xC40 JUMP JUMPDEST DUP3 ADD SWAP2 SWAP1 PUSH0 MSTORE PUSH1 0x20 PUSH0 KECCAK256 SWAP1 JUMPDEST DUP2 SLOAD DUP2 MSTORE SWAP1 PUSH1 0x1 ADD SWAP1 PUSH1 0x20 ADD DUP1 DUP4 GT PUSH2 0xC23 JUMPI DUP3 SWAP1 SUB PUSH1 0x1F AND DUP3 ADD SWAP2 JUMPDEST POP POP POP POP POP DUP2 JUMP JUMPDEST PUSH0 PUSH1 0x1 PUSH1 0x1 PUSH1 0xA0 SHL SUB DUP3 AND PUSH2 0xC72 JUMPI PUSH0 PUSH1 0x40 MLOAD PUSH4 0x22718AD9 PUSH1 0xE2 SHL DUP2 MSTORE PUSH1 0x4 ADD PUSH2 0x5BD SWAP2 SWAP1 PUSH2 0x1CA6 JUMP JUMPDEST POP PUSH1 0x1 PUSH1 0x1 PUSH1 0xA0 SHL SUB AND PUSH0 SWAP1 DUP2 MSTORE PUSH1 0x3 PUSH1 0x20 MSTORE PUSH1 0x40 SWAP1 KECCAK256 SLOAD SWAP1 JUMP JUMPDEST PUSH2 0xC95 PUSH2 0x1466 JUMP JUMPDEST PUSH2 0xC9E PUSH0 PUSH2 0x1651 JUMP JUMPDEST JUMP JUMPDEST PUSH1 0x7 SLOAD PUSH1 0x1 PUSH1 0x1 PUSH1 0xA0 SHL SUB AND SWAP1 JUMP JUMPDEST PUSH1 0x60 PUSH1 0x1 DUP1 SLOAD PUSH2 0x4E2 SWAP1 PUSH2 0x1FA9 JUMP JUMPDEST PUSH2 0x582 CALLER DUP4 DUP4 PUSH2 0x16A2 JUMP JUMPDEST PUSH2 0xCD2 DUP3 PUSH2 0x14E7 JUMP JUMPDEST PUSH2 0xCEE JUMPI PUSH1 0x40 MLOAD PUSH3 0x461BCD PUSH1 0xE5 SHL DUP2 MSTORE PUSH1 0x4 ADD PUSH2 0x5BD SWAP1 PUSH2 0x2080 JUMP JUMPDEST PUSH0 DUP3 DUP2 MSTORE PUSH1 0xE PUSH1 0x20 MSTORE PUSH1 0x40 SWAP1 KECCAK256 SLOAD PUSH1 0xFF AND PUSH2 0xD4B JUMPI PUSH1 0x40 MLOAD PUSH3 0x461BCD PUSH1 0xE5 SHL DUP2 MSTORE PUSH1 0x20 PUSH1 0x4 DUP3 ADD MSTORE PUSH1 0x1E PUSH1 0x24 DUP3 ADD MSTORE PUSH32 0x46756E6452616973696E673A566F74696E67206973206E6F74206F70656E0000 PUSH1 0x44 DUP3 ADD MSTORE PUSH1 0x64 ADD PUSH2 0x5BD JUMP JUMPDEST PUSH0 SWAP2 DUP3 MSTORE PUSH1 0xB PUSH1 0x20 SWAP1 DUP2 MSTORE PUSH1 0x40 DUP1 DUP5 KECCAK256 SWAP3 DUP5 MSTORE SWAP2 SWAP1 MSTORE SWAP1 KECCAK256 DUP1 SLOAD PUSH1 0xFF NOT AND PUSH1 0x1 OR SWAP1 SSTORE JUMP JUMPDEST PUSH2 0xD7B DUP5 DUP5 DUP5 PUSH2 0x7F4 JUMP JUMPDEST PUSH2 0x7EE DUP5 DUP5 DUP5 DUP5 PUSH2 0x1737 JUMP JUMPDEST PUSH1 0x60 PUSH2 0xD92 DUP3 PUSH2 0x1408 JUMP JUMPDEST POP PUSH0 DUP3 DUP2 MSTORE PUSH1 0x6 PUSH1 0x20 MSTORE PUSH1 0x40 DUP2 KECCAK256 DUP1 SLOAD PUSH2 0xDAB SWAP1 PUSH2 0x1FA9 JUMP JUMPDEST DUP1 PUSH1 0x1F ADD PUSH1 0x20 DUP1 SWAP2 DIV MUL PUSH1 0x20 ADD PUSH1 0x40 MLOAD SWAP1 DUP2 ADD PUSH1 0x40 MSTORE DUP1 SWAP3 SWAP2 SWAP1 DUP2 DUP2 MSTORE PUSH1 0x20 ADD DUP3 DUP1 SLOAD PUSH2 0xDD7 SWAP1 PUSH2 0x1FA9 JUMP JUMPDEST DUP1 ISZERO PUSH2 0xE22 JUMPI DUP1 PUSH1 0x1F LT PUSH2 0xDF9 JUMPI PUSH2 0x100 DUP1 DUP4 SLOAD DIV MUL DUP4 MSTORE SWAP2 PUSH1 0x20 ADD SWAP2 PUSH2 0xE22 JUMP JUMPDEST DUP3 ADD SWAP2 SWAP1 PUSH0 MSTORE PUSH1 0x20 PUSH0 KECCAK256 SWAP1 JUMPDEST DUP2 SLOAD DUP2 MSTORE SWAP1 PUSH1 0x1 ADD SWAP1 PUSH1 0x20 ADD DUP1 DUP4 GT PUSH2 0xE05 JUMPI DUP3 SWAP1 SUB PUSH1 0x1F AND DUP3 ADD SWAP2 JUMPDEST POP POP POP POP POP SWAP1 POP PUSH0 PUSH2 0xE32 PUSH2 0x184B JUMP JUMPDEST SWAP1 POP DUP1 MLOAD PUSH0 SUB PUSH2 0xE43 JUMPI POP SWAP3 SWAP2 POP POP JUMP JUMPDEST DUP2 MLOAD ISZERO PUSH2 0xE75 JUMPI DUP1 DUP3 PUSH1 0x40 MLOAD PUSH1 0x20 ADD PUSH2 0xE5D SWAP3 SWAP2 SWAP1 PUSH2 0x21BB JUMP JUMPDEST PUSH1 0x40 MLOAD PUSH1 0x20 DUP2 DUP4 SUB SUB DUP2 MSTORE SWAP1 PUSH1 0x40 MSTORE SWAP3 POP POP POP SWAP2 SWAP1 POP JUMP JUMPDEST PUSH2 0xE7E DUP5 PUSH2 0x185A JUMP JUMPDEST SWAP5 SWAP4 POP POP POP POP JUMP JUMPDEST PUSH1 0x1 PUSH1 0x1 PUSH1 0xA0 SHL SUB DUP2 AND PUSH2 0xEDC JUMPI PUSH1 0x40 MLOAD PUSH3 0x461BCD PUSH1 0xE5 SHL DUP2 MSTORE PUSH1 0x20 PUSH1 0x4 DUP3 ADD MSTORE PUSH1 0x1D PUSH1 0x24 DUP3 ADD MSTORE PUSH32 0x496E7665736F74723A206E6F7420612076616C69642061646472657373000000 PUSH1 0x44 DUP3 ADD MSTORE PUSH1 0x64 ADD PUSH2 0x5BD JUMP JUMPDEST PUSH2 0xEE8 DUP2 PUSH1 0x9 SLOAD PUSH2 0x15F0 JUMP JUMPDEST PUSH1 0x9 DUP1 SLOAD PUSH0 SWAP1 DUP2 MSTORE PUSH1 0xE PUSH1 0x20 SWAP1 DUP2 MSTORE PUSH1 0x40 DUP1 DUP4 KECCAK256 DUP1 SLOAD PUSH1 0xFF NOT AND SWAP1 SSTORE DUP4 SLOAD DUP4 MSTORE PUSH1 0xD SWAP1 SWAP2 MSTORE DUP2 KECCAK256 DUP1 SLOAD PUSH1 0x1 PUSH1 0x1 PUSH1 0xA0 SHL SUB NOT AND PUSH1 0x1 PUSH1 0x1 PUSH1 0xA0 SHL SUB DUP6 AND OR SWAP1 SSTORE DUP2 SLOAD SWAP2 SWAP1 PUSH2 0xF35 DUP4 PUSH2 0x21E9 JUMP JUMPDEST SWAP2 SWAP1 POP SSTORE POP POP JUMP JUMPDEST PUSH2 0xF45 PUSH2 0x1466 JUMP JUMPDEST PUSH2 0xF4E DUP2 PUSH2 0x14E7 JUMP JUMPDEST PUSH2 0xF6A JUMPI PUSH1 0x40 MLOAD PUSH3 0x461BCD PUSH1 0xE5 SHL DUP2 MSTORE PUSH1 0x4 ADD PUSH2 0x5BD SWAP1 PUSH2 0x2049 JUMP JUMPDEST PUSH0 DUP2 DUP2 MSTORE PUSH1 0xE PUSH1 0x20 MSTORE PUSH1 0x40 SWAP1 KECCAK256 SLOAD PUSH1 0xFF AND PUSH2 0xFC7 JUMPI PUSH1 0x40 MLOAD PUSH3 0x461BCD PUSH1 0xE5 SHL DUP2 MSTORE PUSH1 0x20 PUSH1 0x4 DUP3 ADD MSTORE PUSH1 0x1F PUSH1 0x24 DUP3 ADD MSTORE PUSH32 0x46756E6452616973696E673A20566F74696E67206973206E6F74206F70656E00 PUSH1 0x44 DUP3 ADD MSTORE PUSH1 0x64 ADD PUSH2 0x5BD JUMP JUMPDEST PUSH0 DUP2 DUP2 MSTORE PUSH1 0xC PUSH1 0x20 MSTORE PUSH1 0x40 DUP1 DUP3 KECCAK256 PUSH1 0x1 ADD SLOAD PUSH1 0xA SLOAD SWAP2 MLOAD PUSH4 0xAB35EC63 PUSH1 0xE0 SHL DUP2 MSTORE PUSH1 0x4 DUP2 ADD DUP6 SWAP1 MSTORE SWAP1 SWAP3 SWAP2 PUSH1 0x1 PUSH1 0x1 PUSH1 0xA0 SHL SUB AND SWAP1 PUSH4 0xAB35EC63 SWAP1 PUSH1 0x24 ADD PUSH0 PUSH1 0x40 MLOAD DUP1 DUP4 SUB DUP2 DUP7 GAS STATICCALL ISZERO DUP1 ISZERO PUSH2 0x101F JUMPI RETURNDATASIZE PUSH0 DUP1 RETURNDATACOPY RETURNDATASIZE PUSH0 REVERT JUMPDEST POP POP POP POP PUSH1 0x40 MLOAD RETURNDATASIZE PUSH0 DUP3 RETURNDATACOPY PUSH1 0x1F RETURNDATASIZE SWAP1 DUP2 ADD PUSH1 0x1F NOT AND DUP3 ADD PUSH1 0x40 MSTORE PUSH2 0x1046 SWAP2 SWAP1 DUP2 ADD SWAP1 PUSH2 0x2201 JUMP JUMPDEST SWAP1 POP PUSH0 JUMPDEST DUP3 DUP2 LT ISZERO PUSH2 0x10FF JUMPI PUSH0 DUP3 DUP3 DUP2 MLOAD DUP2 LT PUSH2 0x1065 JUMPI PUSH2 0x1065 PUSH2 0x22A1 JUMP JUMPDEST PUSH1 0x20 SWAP1 DUP2 MUL SWAP2 SWAP1 SWAP2 ADD DUP2 ADD MLOAD PUSH0 DUP8 DUP2 MSTORE PUSH1 0xB DUP4 MSTORE PUSH1 0x40 DUP1 DUP3 KECCAK256 DUP4 DUP4 MSTORE SWAP1 SWAP4 MSTORE SWAP2 SWAP1 SWAP2 KECCAK256 SLOAD SWAP1 SWAP2 POP PUSH1 0xFF AND PUSH2 0x10EC JUMPI PUSH1 0x40 MLOAD PUSH3 0x461BCD PUSH1 0xE5 SHL DUP2 MSTORE PUSH1 0x20 PUSH1 0x4 DUP3 ADD MSTORE PUSH1 0x28 PUSH1 0x24 DUP3 ADD MSTORE PUSH32 0x46756E6452616973696E673A20416C6C20736861726564206F776E657273206D PUSH1 0x44 DUP3 ADD MSTORE PUSH8 0x75737420766F7465 PUSH1 0xC0 SHL PUSH1 0x64 DUP3 ADD MSTORE PUSH1 0x84 ADD PUSH2 0x5BD JUMP JUMPDEST POP DUP1 PUSH2 0x10F7 DUP2 PUSH2 0x21E9 JUMP JUMPDEST SWAP2 POP POP PUSH2 0x104A JUMP JUMPDEST POP PUSH0 DUP4 DUP2 MSTORE PUSH1 0x10 PUSH1 0x20 MSTORE PUSH1 0x40 DUP2 KECCAK256 DUP1 SLOAD PUSH1 0xFF NOT AND PUSH1 0x1 OR SWAP1 SSTORE JUMPDEST DUP3 DUP2 LT ISZERO PUSH2 0x1171 JUMPI PUSH0 DUP3 DUP3 DUP2 MLOAD DUP2 LT PUSH2 0x1134 JUMPI PUSH2 0x1134 PUSH2 0x22A1 JUMP JUMPDEST PUSH1 0x20 SWAP1 DUP2 MUL SWAP2 SWAP1 SWAP2 ADD DUP2 ADD MLOAD PUSH0 DUP8 DUP2 MSTORE PUSH1 0xB DUP4 MSTORE PUSH1 0x40 DUP1 DUP3 KECCAK256 SWAP3 DUP3 MSTORE SWAP2 SWAP1 SWAP3 MSTORE SWAP1 KECCAK256 DUP1 SLOAD PUSH1 0xFF NOT AND SWAP1 SSTORE POP DUP1 PUSH2 0x1169 DUP2 PUSH2 0x21E9 JUMP JUMPDEST SWAP2 POP POP PUSH2 0x1119 JUMP JUMPDEST POP POP POP PUSH0 SWAP1 DUP2 MSTORE PUSH1 0xE PUSH1 0x20 MSTORE PUSH1 0x40 SWAP1 KECCAK256 DUP1 SLOAD PUSH1 0xFF NOT AND SWAP1 SSTORE JUMP JUMPDEST PUSH0 PUSH1 0x1 PUSH1 0x1 PUSH1 0xA0 SHL SUB DUP4 AND PUSH2 0x11E2 JUMPI PUSH1 0x40 MLOAD PUSH3 0x461BCD PUSH1 0xE5 SHL DUP2 MSTORE PUSH1 0x20 PUSH1 0x4 DUP3 ADD DUP2 SWAP1 MSTORE PUSH1 0x24 DUP3 ADD MSTORE PUSH32 0x4552433732313A206D696E7420746F20746865207A65726F2061646472657373 PUSH1 0x44 DUP3 ADD MSTORE PUSH1 0x64 ADD PUSH2 0x5BD JUMP JUMPDEST PUSH2 0x11EB DUP3 PUSH2 0x14E7 JUMP JUMPDEST PUSH2 0x124E JUMPI PUSH1 0x40 MLOAD PUSH3 0x461BCD PUSH1 0xE5 SHL DUP2 MSTORE PUSH1 0x20 PUSH1 0x4 DUP3 ADD MSTORE PUSH1 0x2E PUSH1 0x24 DUP3 ADD MSTORE PUSH32 0x536861726561626C654552433732313A20746F6B656E20746F20626520736861 PUSH1 0x44 DUP3 ADD MSTORE PUSH14 0x1C9959081B5D5CDD08195E1A5CDD PUSH1 0x92 SHL PUSH1 0x64 DUP3 ADD MSTORE PUSH1 0x84 ADD PUSH2 0x5BD JUMP JUMPDEST CALLER PUSH2 0x1258 DUP4 PUSH2 0xBB2 JUMP JUMPDEST PUSH1 0x1 PUSH1 0x1 PUSH1 0xA0 SHL SUB AND EQ PUSH2 0x12CD JUMPI PUSH1 0x40 MLOAD PUSH3 0x461BCD PUSH1 0xE5 SHL DUP2 MSTORE PUSH1 0x20 PUSH1 0x4 DUP3 ADD MSTORE PUSH1 0x36 PUSH1 0x24 DUP3 ADD MSTORE PUSH32 0x536861726561626C654552433732313A2073656E646572206D75737420626520 PUSH1 0x44 DUP3 ADD MSTORE PUSH22 0x3A34329037BBB732B91037B3103A3432903A37B5B2B7 PUSH1 0x51 SHL PUSH1 0x64 DUP3 ADD MSTORE PUSH1 0x84 ADD PUSH2 0x5BD JUMP JUMPDEST PUSH0 PUSH2 0x12D7 DUP4 PUSH2 0xD87 JUMP JUMPDEST SWAP1 POP PUSH2 0x12E5 DUP5 PUSH1 0x9 SLOAD PUSH2 0x15F0 JUMP JUMPDEST PUSH2 0x12F1 PUSH1 0x9 SLOAD DUP3 PUSH2 0x1498 JUMP JUMPDEST PUSH1 0x9 SLOAD PUSH1 0x40 MLOAD DUP5 DUP2 MSTORE PUSH1 0x1 PUSH1 0x1 PUSH1 0xA0 SHL SUB DUP7 AND SWAP1 CALLER SWAP1 PUSH32 0xC9A349C2B09C746E2EDEBB75FAAF556C1C0C89D2C196A1F988ECE46EE152BD52 SWAP1 PUSH1 0x20 ADD PUSH1 0x40 MLOAD DUP1 SWAP2 SUB SWAP1 LOG4 PUSH1 0x9 DUP1 SLOAD SWAP1 PUSH0 PUSH2 0x1343 DUP4 PUSH2 0x21E9 JUMP JUMPDEST SWAP1 SWAP2 SSTORE POP SWAP5 SWAP4 POP POP POP POP JUMP JUMPDEST PUSH1 0x1 PUSH1 0x1 PUSH1 0xA0 SHL SUB SWAP2 DUP3 AND PUSH0 SWAP1 DUP2 MSTORE PUSH1 0x5 PUSH1 0x20 SWAP1 DUP2 MSTORE PUSH1 0x40 DUP1 DUP4 KECCAK256 SWAP4 SWAP1 SWAP5 AND DUP3 MSTORE SWAP2 SWAP1 SWAP2 MSTORE KECCAK256 SLOAD PUSH1 0xFF AND SWAP1 JUMP JUMPDEST PUSH2 0x1384 PUSH2 0x1466 JUMP JUMPDEST PUSH1 0x1 PUSH1 0x1 PUSH1 0xA0 SHL SUB DUP2 AND PUSH2 0x13AD JUMPI PUSH0 PUSH1 0x40 MLOAD PUSH4 0x1E4FBDF7 PUSH1 0xE0 SHL DUP2 MSTORE PUSH1 0x4 ADD PUSH2 0x5BD SWAP2 SWAP1 PUSH2 0x1CA6 JUMP JUMPDEST PUSH2 0x13B6 DUP2 PUSH2 0x1651 JUMP JUMPDEST POP JUMP JUMPDEST PUSH0 PUSH1 0x1 PUSH1 0x1 PUSH1 0xE0 SHL SUB NOT DUP3 AND PUSH4 0x80AC58CD PUSH1 0xE0 SHL EQ DUP1 PUSH2 0x13E9 JUMPI POP PUSH1 0x1 PUSH1 0x1 PUSH1 0xE0 SHL SUB NOT DUP3 AND PUSH4 0x5B5E139F PUSH1 0xE0 SHL EQ JUMPDEST DUP1 PUSH2 0x4CE JUMPI POP PUSH4 0x1FFC9A7 PUSH1 0xE0 SHL PUSH1 0x1 PUSH1 0x1 PUSH1 0xE0 SHL SUB NOT DUP4 AND EQ PUSH2 0x4CE JUMP JUMPDEST PUSH0 DUP1 PUSH2 0x1413 DUP4 PUSH2 0x18BF JUMP JUMPDEST SWAP1 POP PUSH1 0x1 PUSH1 0x1 PUSH1 0xA0 SHL SUB DUP2 AND PUSH2 0x4CE JUMPI PUSH1 0x40 MLOAD PUSH4 0x7E273289 PUSH1 0xE0 SHL DUP2 MSTORE PUSH1 0x4 DUP2 ADD DUP5 SWAP1 MSTORE PUSH1 0x24 ADD PUSH2 0x5BD JUMP JUMPDEST PUSH0 SWAP1 DUP2 MSTORE PUSH1 0x4 PUSH1 0x20 MSTORE PUSH1 0x40 SWAP1 KECCAK256 SLOAD PUSH1 0x1 PUSH1 0x1 PUSH1 0xA0 SHL SUB AND SWAP1 JUMP JUMPDEST PUSH2 0xAFC DUP4 DUP4 DUP4 PUSH1 0x1 PUSH2 0x18D9 JUMP JUMPDEST CALLER PUSH2 0x146F PUSH2 0xCA0 JUMP JUMPDEST PUSH1 0x1 PUSH1 0x1 PUSH1 0xA0 SHL SUB AND EQ PUSH2 0xC9E JUMPI CALLER PUSH1 0x40 MLOAD PUSH4 0x118CDAA7 PUSH1 0xE0 SHL DUP2 MSTORE PUSH1 0x4 ADD PUSH2 0x5BD SWAP2 SWAP1 PUSH2 0x1CA6 JUMP JUMPDEST PUSH0 DUP3 DUP2 MSTORE PUSH1 0x6 PUSH1 0x20 MSTORE PUSH1 0x40 SWAP1 KECCAK256 PUSH2 0x14AF DUP3 DUP3 PUSH2 0x2100 JUMP JUMPDEST POP PUSH1 0x40 MLOAD DUP3 DUP2 MSTORE PUSH32 0xF8E1A15ABA9398E019F0B49DF1A4FDE98EE17AE345CB5F6B5E2C27F5033E8CE7 SWAP1 PUSH1 0x20 ADD PUSH1 0x40 MLOAD DUP1 SWAP2 SUB SWAP1 LOG1 POP POP JUMP JUMPDEST PUSH0 SWAP1 DUP2 MSTORE PUSH1 0x11 PUSH1 0x20 MSTORE PUSH1 0x40 SWAP1 KECCAK256 SLOAD PUSH1 0x1 PUSH1 0x1 PUSH1 0xA0 SHL SUB AND ISZERO ISZERO SWAP1 JUMP JUMPDEST PUSH0 DUP1 PUSH2 0x150E DUP5 PUSH2 0x18BF JUMP JUMPDEST SWAP1 POP PUSH1 0x1 PUSH1 0x1 PUSH1 0xA0 SHL SUB DUP4 AND ISZERO PUSH2 0x152A JUMPI PUSH2 0x152A DUP2 DUP5 DUP7 PUSH2 0x19D4 JUMP JUMPDEST PUSH1 0x1 PUSH1 0x1 PUSH1 0xA0 SHL SUB DUP2 AND ISZERO PUSH2 0x1564 JUMPI PUSH2 0x1545 PUSH0 DUP6 PUSH0 DUP1 PUSH2 0x18D9 JUMP JUMPDEST PUSH1 0x1 PUSH1 0x1 PUSH1 0xA0 SHL SUB DUP2 AND PUSH0 SWAP1 DUP2 MSTORE PUSH1 0x3 PUSH1 0x20 MSTORE PUSH1 0x40 SWAP1 KECCAK256 DUP1 SLOAD PUSH0 NOT ADD SWAP1 SSTORE JUMPDEST PUSH1 0x1 PUSH1 0x1 PUSH1 0xA0 SHL SUB DUP6 AND ISZERO PUSH2 0x1592 JUMPI PUSH1 0x1 PUSH1 0x1 PUSH1 0xA0 SHL SUB DUP6 AND PUSH0 SWAP1 DUP2 MSTORE PUSH1 0x3 PUSH1 0x20 MSTORE PUSH1 0x40 SWAP1 KECCAK256 DUP1 SLOAD PUSH1 0x1 ADD SWAP1 SSTORE JUMPDEST PUSH0 DUP5 DUP2 MSTORE PUSH1 0x2 PUSH1 0x20 MSTORE PUSH1 0x40 DUP1 DUP3 KECCAK256 DUP1 SLOAD PUSH1 0x1 PUSH1 0x1 PUSH1 0xA0 SHL SUB NOT AND PUSH1 0x1 PUSH1 0x1 PUSH1 0xA0 SHL SUB DUP10 DUP2 AND SWAP2 DUP3 OR SWAP1 SWAP3 SSTORE SWAP2 MLOAD DUP8 SWAP4 SWAP2 DUP6 AND SWAP2 PUSH32 0xDDF252AD1BE2C89B69C2B068FC378DAA952BA7F163C4A11628F55A4DF523B3EF SWAP2 LOG4 SWAP5 SWAP4 POP POP POP POP JUMP JUMPDEST PUSH1 0x1 PUSH1 0x1 PUSH1 0xA0 SHL SUB DUP3 AND PUSH2 0x1619 JUMPI PUSH0 PUSH1 0x40 MLOAD PUSH4 0x32505749 PUSH1 0xE1 SHL DUP2 MSTORE PUSH1 0x4 ADD PUSH2 0x5BD SWAP2 SWAP1 PUSH2 0x1CA6 JUMP JUMPDEST PUSH0 PUSH2 0x1625 DUP4 DUP4 PUSH0 PUSH2 0x1503 JUMP JUMPDEST SWAP1 POP PUSH1 0x1 PUSH1 0x1 PUSH1 0xA0 SHL SUB DUP2 AND ISZERO PUSH2 0xAFC JUMPI PUSH0 PUSH1 0x40 MLOAD PUSH4 0x39E35637 PUSH1 0xE1 SHL DUP2 MSTORE PUSH1 0x4 ADD PUSH2 0x5BD SWAP2 SWAP1 PUSH2 0x1CA6 JUMP JUMPDEST PUSH1 0x7 DUP1 SLOAD PUSH1 0x1 PUSH1 0x1 PUSH1 0xA0 SHL SUB DUP4 DUP2 AND PUSH1 0x1 PUSH1 0x1 PUSH1 0xA0 SHL SUB NOT DUP4 AND DUP2 OR SWAP1 SWAP4 SSTORE PUSH1 0x40 MLOAD SWAP2 AND SWAP2 SWAP1 DUP3 SWAP1 PUSH32 0x8BE0079C531659141344CD1FD0A4F28419497F9722A3DAAFE3B4186F6B6457E0 SWAP1 PUSH0 SWAP1 LOG3 POP POP JUMP JUMPDEST PUSH1 0x1 PUSH1 0x1 PUSH1 0xA0 SHL SUB DUP3 AND PUSH2 0x16CB JUMPI DUP2 PUSH1 0x40 MLOAD PUSH4 0xB611743 PUSH1 0xE3 SHL DUP2 MSTORE PUSH1 0x4 ADD PUSH2 0x5BD SWAP2 SWAP1 PUSH2 0x1CA6 JUMP JUMPDEST PUSH1 0x1 PUSH1 0x1 PUSH1 0xA0 SHL SUB DUP4 DUP2 AND PUSH0 DUP2 DUP2 MSTORE PUSH1 0x5 PUSH1 0x20 SWAP1 DUP2 MSTORE PUSH1 0x40 DUP1 DUP4 KECCAK256 SWAP5 DUP8 AND DUP1 DUP5 MSTORE SWAP5 DUP3 MSTORE SWAP2 DUP3 SWAP1 KECCAK256 DUP1 SLOAD PUSH1 0xFF NOT AND DUP7 ISZERO ISZERO SWAP1 DUP2 OR SWAP1 SWAP2 SSTORE SWAP2 MLOAD SWAP2 DUP3 MSTORE PUSH32 0x17307EAB39AB6107E8899845AD3D59BD9653F200F220920489CA2B5937696C31 SWAP2 ADD PUSH1 0x40 MLOAD DUP1 SWAP2 SUB SWAP1 LOG3 POP POP POP JUMP JUMPDEST PUSH1 0x1 PUSH1 0x1 PUSH1 0xA0 SHL SUB DUP4 AND EXTCODESIZE ISZERO PUSH2 0x7EE JUMPI PUSH1 0x40 MLOAD PUSH4 0xA85BD01 PUSH1 0xE1 SHL DUP2 MSTORE PUSH1 0x1 PUSH1 0x1 PUSH1 0xA0 SHL SUB DUP5 AND SWAP1 PUSH4 0x150B7A02 SWAP1 PUSH2 0x1779 SWAP1 CALLER SWAP1 DUP9 SWAP1 DUP8 SWAP1 DUP8 SWAP1 PUSH1 0x4 ADD PUSH2 0x22B5 JUMP JUMPDEST PUSH1 0x20 PUSH1 0x40 MLOAD DUP1 DUP4 SUB DUP2 PUSH0 DUP8 GAS CALL SWAP3 POP POP POP DUP1 ISZERO PUSH2 0x17B3 JUMPI POP PUSH1 0x40 DUP1 MLOAD PUSH1 0x1F RETURNDATASIZE SWAP1 DUP2 ADD PUSH1 0x1F NOT AND DUP3 ADD SWAP1 SWAP3 MSTORE PUSH2 0x17B0 SWAP2 DUP2 ADD SWAP1 PUSH2 0x22F1 JUMP JUMPDEST PUSH1 0x1 JUMPDEST PUSH2 0x1811 JUMPI RETURNDATASIZE DUP1 DUP1 ISZERO PUSH2 0x17E0 JUMPI PUSH1 0x40 MLOAD SWAP2 POP PUSH1 0x1F NOT PUSH1 0x3F RETURNDATASIZE ADD AND DUP3 ADD PUSH1 0x40 MSTORE RETURNDATASIZE DUP3 MSTORE RETURNDATASIZE PUSH0 PUSH1 0x20 DUP5 ADD RETURNDATACOPY PUSH2 0x17E5 JUMP JUMPDEST PUSH1 0x60 SWAP2 POP JUMPDEST POP DUP1 MLOAD PUSH0 SUB PUSH2 0x1809 JUMPI DUP4 PUSH1 0x40 MLOAD PUSH4 0x32505749 PUSH1 0xE1 SHL DUP2 MSTORE PUSH1 0x4 ADD PUSH2 0x5BD SWAP2 SWAP1 PUSH2 0x1CA6 JUMP JUMPDEST DUP1 MLOAD DUP2 PUSH1 0x20 ADD REVERT JUMPDEST PUSH1 0x1 PUSH1 0x1 PUSH1 0xE0 SHL SUB NOT DUP2 AND PUSH4 0xA85BD01 PUSH1 0xE1 SHL EQ PUSH2 0x1844 JUMPI DUP4 PUSH1 0x40 MLOAD PUSH4 0x32505749 PUSH1 0xE1 SHL DUP2 MSTORE PUSH1 0x4 ADD PUSH2 0x5BD SWAP2 SWAP1 PUSH2 0x1CA6 JUMP JUMPDEST POP POP POP POP POP JUMP JUMPDEST PUSH1 0x60 PUSH1 0x8 DUP1 SLOAD PUSH2 0x4E2 SWAP1 PUSH2 0x1FA9 JUMP JUMPDEST PUSH1 0x60 PUSH2 0x1865 DUP3 PUSH2 0x1408 JUMP JUMPDEST POP PUSH0 PUSH2 0x186F PUSH2 0x184B JUMP JUMPDEST SWAP1 POP PUSH0 DUP2 MLOAD GT PUSH2 0x188D JUMPI PUSH1 0x40 MLOAD DUP1 PUSH1 0x20 ADD PUSH1 0x40 MSTORE DUP1 PUSH0 DUP2 MSTORE POP PUSH2 0x18B8 JUMP JUMPDEST DUP1 PUSH2 0x1897 DUP5 PUSH2 0x1A38 JUMP JUMPDEST PUSH1 0x40 MLOAD PUSH1 0x20 ADD PUSH2 0x18A8 SWAP3 SWAP2 SWAP1 PUSH2 0x21BB JUMP JUMPDEST PUSH1 0x40 MLOAD PUSH1 0x20 DUP2 DUP4 SUB SUB DUP2 MSTORE SWAP1 PUSH1 0x40 MSTORE JUMPDEST SWAP4 SWAP3 POP POP POP JUMP JUMPDEST PUSH0 SWAP1 DUP2 MSTORE PUSH1 0x2 PUSH1 0x20 MSTORE PUSH1 0x40 SWAP1 KECCAK256 SLOAD PUSH1 0x1 PUSH1 0x1 PUSH1 0xA0 SHL SUB AND SWAP1 JUMP JUMPDEST DUP1 DUP1 PUSH2 0x18ED JUMPI POP PUSH1 0x1 PUSH1 0x1 PUSH1 0xA0 SHL SUB DUP3 AND ISZERO ISZERO JUMPDEST ISZERO PUSH2 0x19A5 JUMPI PUSH0 PUSH2 0x18FC DUP5 PUSH2 0x1408 JUMP JUMPDEST SWAP1 POP PUSH1 0x1 PUSH1 0x1 PUSH1 0xA0 SHL SUB DUP4 AND ISZERO DUP1 ISZERO SWAP1 PUSH2 0x1928 JUMPI POP DUP3 PUSH1 0x1 PUSH1 0x1 PUSH1 0xA0 SHL SUB AND DUP2 PUSH1 0x1 PUSH1 0x1 PUSH1 0xA0 SHL SUB AND EQ ISZERO JUMPDEST DUP1 ISZERO PUSH2 0x193B JUMPI POP PUSH2 0x1939 DUP2 DUP5 PUSH2 0x134F JUMP JUMPDEST ISZERO JUMPDEST ISZERO PUSH2 0x195B JUMPI DUP3 PUSH1 0x40 MLOAD PUSH4 0xA9FBF51F PUSH1 0xE0 SHL DUP2 MSTORE PUSH1 0x4 ADD PUSH2 0x5BD SWAP2 SWAP1 PUSH2 0x1CA6 JUMP JUMPDEST DUP2 ISZERO PUSH2 0x19A3 JUMPI DUP4 DUP6 PUSH1 0x1 PUSH1 0x1 PUSH1 0xA0 SHL SUB AND DUP3 PUSH1 0x1 PUSH1 0x1 PUSH1 0xA0 SHL SUB AND PUSH32 0x8C5BE1E5EBEC7D5BD14F71427D1E84F3DD0314C0F7B2291E5B200AC8C7C3B925 PUSH1 0x40 MLOAD PUSH1 0x40 MLOAD DUP1 SWAP2 SUB SWAP1 LOG4 JUMPDEST POP JUMPDEST POP POP PUSH0 SWAP1 DUP2 MSTORE PUSH1 0x4 PUSH1 0x20 MSTORE PUSH1 0x40 SWAP1 KECCAK256 DUP1 SLOAD PUSH1 0x1 PUSH1 0x1 PUSH1 0xA0 SHL SUB NOT AND PUSH1 0x1 PUSH1 0x1 PUSH1 0xA0 SHL SUB SWAP3 SWAP1 SWAP3 AND SWAP2 SWAP1 SWAP2 OR SWAP1 SSTORE JUMP JUMPDEST PUSH2 0x19DF DUP4 DUP4 DUP4 PUSH2 0x1AC7 JUMP JUMPDEST PUSH2 0xAFC JUMPI PUSH1 0x1 PUSH1 0x1 PUSH1 0xA0 SHL SUB DUP4 AND PUSH2 0x1A0D JUMPI PUSH1 0x40 MLOAD PUSH4 0x7E273289 PUSH1 0xE0 SHL DUP2 MSTORE PUSH1 0x4 DUP2 ADD DUP3 SWAP1 MSTORE PUSH1 0x24 ADD PUSH2 0x5BD JUMP JUMPDEST PUSH1 0x40 MLOAD PUSH4 0x177E802F PUSH1 0xE0 SHL DUP2 MSTORE PUSH1 0x1 PUSH1 0x1 PUSH1 0xA0 SHL SUB DUP4 AND PUSH1 0x4 DUP3 ADD MSTORE PUSH1 0x24 DUP2 ADD DUP3 SWAP1 MSTORE PUSH1 0x44 ADD PUSH2 0x5BD JUMP JUMPDEST PUSH1 0x60 PUSH0 PUSH2 0x1A44 DUP4 PUSH2 0x1B2B JUMP JUMPDEST PUSH1 0x1 ADD SWAP1 POP PUSH0 DUP2 PUSH1 0x1 PUSH1 0x1 PUSH1 0x40 SHL SUB DUP2 GT ISZERO PUSH2 0x1A62 JUMPI PUSH2 0x1A62 PUSH2 0x1CFD JUMP JUMPDEST PUSH1 0x40 MLOAD SWAP1 DUP1 DUP3 MSTORE DUP1 PUSH1 0x1F ADD PUSH1 0x1F NOT AND PUSH1 0x20 ADD DUP3 ADD PUSH1 0x40 MSTORE DUP1 ISZERO PUSH2 0x1A8C JUMPI PUSH1 0x20 DUP3 ADD DUP2 DUP1 CALLDATASIZE DUP4 CALLDATACOPY ADD SWAP1 POP JUMPDEST POP SWAP1 POP DUP2 DUP2 ADD PUSH1 0x20 ADD JUMPDEST PUSH0 NOT ADD PUSH16 0x181899199A1A9B1B9C1CB0B131B232B3 PUSH1 0x81 SHL PUSH1 0xA DUP7 MOD BYTE DUP2 MSTORE8 PUSH1 0xA DUP6 DIV SWAP5 POP DUP5 PUSH2 0x1A96 JUMPI POP SWAP4 SWAP3 POP POP POP JUMP JUMPDEST PUSH0 PUSH1 0x1 PUSH1 0x1 PUSH1 0xA0 SHL SUB DUP4 AND ISZERO DUP1 ISZERO SWAP1 PUSH2 0xE7E JUMPI POP DUP3 PUSH1 0x1 PUSH1 0x1 PUSH1 0xA0 SHL SUB AND DUP5 PUSH1 0x1 PUSH1 0x1 PUSH1 0xA0 SHL SUB AND EQ DUP1 PUSH2 0x1B00 JUMPI POP PUSH2 0x1B00 DUP5 DUP5 PUSH2 0x134F JUMP JUMPDEST DUP1 PUSH2 0xE7E JUMPI POP DUP3 PUSH1 0x1 PUSH1 0x1 PUSH1 0xA0 SHL SUB AND PUSH2 0x1B19 DUP4 PUSH2 0x143F JUMP JUMPDEST PUSH1 0x1 PUSH1 0x1 PUSH1 0xA0 SHL SUB AND EQ SWAP5 SWAP4 POP POP POP POP JUMP JUMPDEST PUSH0 DUP1 PUSH19 0x184F03E93FF9F4DAA797ED6E38ED64BF6A1F01 PUSH1 0x40 SHL DUP4 LT PUSH2 0x1B69 JUMPI PUSH19 0x184F03E93FF9F4DAA797ED6E38ED64BF6A1F01 PUSH1 0x40 SHL DUP4 DIV SWAP3 POP PUSH1 0x40 ADD JUMPDEST PUSH10 0x4EE2D6D415B85ACEF81 PUSH1 0x20 SHL DUP4 LT PUSH2 0x1B93 JUMPI PUSH10 0x4EE2D6D415B85ACEF81 PUSH1 0x20 SHL DUP4 DIV SWAP3 POP PUSH1 0x20 ADD JUMPDEST PUSH7 0x2386F26FC10000 DUP4 LT PUSH2 0x1BB1 JUMPI PUSH7 0x2386F26FC10000 DUP4 DIV SWAP3 POP PUSH1 0x10 ADD JUMPDEST PUSH4 0x5F5E100 DUP4 LT PUSH2 0x1BC9 JUMPI PUSH4 0x5F5E100 DUP4 DIV SWAP3 POP PUSH1 0x8 ADD JUMPDEST PUSH2 0x2710 DUP4 LT PUSH2 0x1BDD JUMPI PUSH2 0x2710 DUP4 DIV SWAP3 POP PUSH1 0x4 ADD JUMPDEST PUSH1 0x64 DUP4 LT PUSH2 0x1BEF JUMPI PUSH1 0x64 DUP4 DIV SWAP3 POP PUSH1 0x2 ADD JUMPDEST PUSH1 0xA DUP4 LT PUSH2 0x4CE JUMPI PUSH1 0x1 ADD SWAP3 SWAP2 POP POP JUMP JUMPDEST PUSH1 0x1 PUSH1 0x1 PUSH1 0xE0 SHL SUB NOT DUP2 AND DUP2 EQ PUSH2 0x13B6 JUMPI PUSH0 DUP1 REVERT JUMPDEST PUSH0 PUSH1 0x20 DUP3 DUP5 SUB SLT ISZERO PUSH2 0x1C25 JUMPI PUSH0 DUP1 REVERT JUMPDEST DUP2 CALLDATALOAD PUSH2 0x18B8 DUP2 PUSH2 0x1C00 JUMP JUMPDEST PUSH0 JUMPDEST DUP4 DUP2 LT ISZERO PUSH2 0x1C4A JUMPI DUP2 DUP2 ADD MLOAD DUP4 DUP3 ADD MSTORE PUSH1 0x20 ADD PUSH2 0x1C32 JUMP JUMPDEST POP POP PUSH0 SWAP2 ADD MSTORE JUMP JUMPDEST PUSH0 DUP2 MLOAD DUP1 DUP5 MSTORE PUSH2 0x1C69 DUP2 PUSH1 0x20 DUP7 ADD PUSH1 0x20 DUP7 ADD PUSH2 0x1C30 JUMP JUMPDEST PUSH1 0x1F ADD PUSH1 0x1F NOT AND SWAP3 SWAP1 SWAP3 ADD PUSH1 0x20 ADD SWAP3 SWAP2 POP POP JUMP JUMPDEST PUSH1 0x20 DUP2 MSTORE PUSH0 PUSH2 0x18B8 PUSH1 0x20 DUP4 ADD DUP5 PUSH2 0x1C52 JUMP JUMPDEST PUSH0 PUSH1 0x20 DUP3 DUP5 SUB SLT ISZERO PUSH2 0x1C9F JUMPI PUSH0 DUP1 REVERT JUMPDEST POP CALLDATALOAD SWAP2 SWAP1 POP JUMP JUMPDEST PUSH1 0x1 PUSH1 0x1 PUSH1 0xA0 SHL SUB SWAP2 SWAP1 SWAP2 AND DUP2 MSTORE PUSH1 0x20 ADD SWAP1 JUMP JUMPDEST DUP1 CALLDATALOAD PUSH1 0x1 PUSH1 0x1 PUSH1 0xA0 SHL SUB DUP2 AND DUP2 EQ PUSH2 0x1CD0 JUMPI PUSH0 DUP1 REVERT JUMPDEST SWAP2 SWAP1 POP JUMP JUMPDEST PUSH0 DUP1 PUSH1 0x40 DUP4 DUP6 SUB SLT ISZERO PUSH2 0x1CE6 JUMPI PUSH0 DUP1 REVERT JUMPDEST PUSH2 0x1CEF DUP4 PUSH2 0x1CBA JUMP JUMPDEST SWAP5 PUSH1 0x20 SWAP4 SWAP1 SWAP4 ADD CALLDATALOAD SWAP4 POP POP POP JUMP JUMPDEST PUSH4 0x4E487B71 PUSH1 0xE0 SHL PUSH0 MSTORE PUSH1 0x41 PUSH1 0x4 MSTORE PUSH1 0x24 PUSH0 REVERT JUMPDEST PUSH1 0x40 MLOAD PUSH1 0x1F DUP3 ADD PUSH1 0x1F NOT AND DUP2 ADD PUSH1 0x1 PUSH1 0x1 PUSH1 0x40 SHL SUB DUP2 GT DUP3 DUP3 LT OR ISZERO PUSH2 0x1D39 JUMPI PUSH2 0x1D39 PUSH2 0x1CFD JUMP JUMPDEST PUSH1 0x40 MSTORE SWAP2 SWAP1 POP JUMP JUMPDEST PUSH0 PUSH1 0x1 PUSH1 0x1 PUSH1 0x40 SHL SUB DUP4 GT ISZERO PUSH2 0x1D59 JUMPI PUSH2 0x1D59 PUSH2 0x1CFD JUMP JUMPDEST PUSH2 0x1D6C PUSH1 0x1F DUP5 ADD PUSH1 0x1F NOT AND PUSH1 0x20 ADD PUSH2 0x1D11 JUMP JUMPDEST SWAP1 POP DUP3 DUP2 MSTORE DUP4 DUP4 DUP4 ADD GT ISZERO PUSH2 0x1D7F JUMPI PUSH0 DUP1 REVERT JUMPDEST DUP3 DUP3 PUSH1 0x20 DUP4 ADD CALLDATACOPY PUSH0 PUSH1 0x20 DUP5 DUP4 ADD ADD MSTORE SWAP4 SWAP3 POP POP POP JUMP JUMPDEST PUSH0 DUP3 PUSH1 0x1F DUP4 ADD SLT PUSH2 0x1DA4 JUMPI PUSH0 DUP1 REVERT JUMPDEST PUSH2 0x18B8 DUP4 DUP4 CALLDATALOAD PUSH1 0x20 DUP6 ADD PUSH2 0x1D41 JUMP JUMPDEST PUSH0 DUP1 PUSH1 0x40 DUP4 DUP6 SUB SLT ISZERO PUSH2 0x1DC4 JUMPI PUSH0 DUP1 REVERT JUMPDEST DUP3 CALLDATALOAD SWAP2 POP PUSH1 0x20 DUP4 ADD CALLDATALOAD PUSH1 0x1 PUSH1 0x1 PUSH1 0x40 SHL SUB DUP2 GT ISZERO PUSH2 0x1DE0 JUMPI PUSH0 DUP1 REVERT JUMPDEST PUSH2 0x1DEC DUP6 DUP3 DUP7 ADD PUSH2 0x1D95 JUMP JUMPDEST SWAP2 POP POP SWAP3 POP SWAP3 SWAP1 POP JUMP JUMPDEST PUSH0 DUP1 PUSH0 PUSH1 0x60 DUP5 DUP7 SUB SLT ISZERO PUSH2 0x1E08 JUMPI PUSH0 DUP1 REVERT JUMPDEST PUSH2 0x1E11 DUP5 PUSH2 0x1CBA JUMP JUMPDEST SWAP6 PUSH1 0x20 DUP6 ADD CALLDATALOAD SWAP6 POP PUSH1 0x40 SWAP1 SWAP5 ADD CALLDATALOAD SWAP4 SWAP3 POP POP POP JUMP JUMPDEST PUSH0 DUP1 PUSH0 PUSH1 0x60 DUP5 DUP7 SUB SLT ISZERO PUSH2 0x1E38 JUMPI PUSH0 DUP1 REVERT JUMPDEST PUSH2 0x1E41 DUP5 PUSH2 0x1CBA JUMP JUMPDEST SWAP3 POP PUSH2 0x1E4F PUSH1 0x20 DUP6 ADD PUSH2 0x1CBA JUMP JUMPDEST SWAP2 POP PUSH1 0x40 DUP5 ADD CALLDATALOAD SWAP1 POP SWAP3 POP SWAP3 POP SWAP3 JUMP JUMPDEST PUSH0 DUP1 PUSH1 0x40 DUP4 DUP6 SUB SLT ISZERO PUSH2 0x1E70 JUMPI PUSH0 DUP1 REVERT JUMPDEST POP POP DUP1 CALLDATALOAD SWAP3 PUSH1 0x20 SWAP1 SWAP2 ADD CALLDATALOAD SWAP2 POP JUMP JUMPDEST PUSH0 PUSH1 0x20 DUP3 DUP5 SUB SLT ISZERO PUSH2 0x1E8F JUMPI PUSH0 DUP1 REVERT JUMPDEST DUP2 CALLDATALOAD PUSH1 0x1 PUSH1 0x1 PUSH1 0x40 SHL SUB DUP2 GT ISZERO PUSH2 0x1EA4 JUMPI PUSH0 DUP1 REVERT JUMPDEST PUSH2 0xE7E DUP5 DUP3 DUP6 ADD PUSH2 0x1D95 JUMP JUMPDEST PUSH0 PUSH1 0x20 DUP3 DUP5 SUB SLT ISZERO PUSH2 0x1EC0 JUMPI PUSH0 DUP1 REVERT JUMPDEST PUSH2 0x18B8 DUP3 PUSH2 0x1CBA JUMP JUMPDEST PUSH0 DUP1 PUSH1 0x40 DUP4 DUP6 SUB SLT ISZERO PUSH2 0x1EDA JUMPI PUSH0 DUP1 REVERT JUMPDEST PUSH2 0x1EE3 DUP4 PUSH2 0x1CBA JUMP JUMPDEST SWAP2 POP PUSH1 0x20 DUP4 ADD CALLDATALOAD DUP1 ISZERO ISZERO DUP2 EQ PUSH2 0x1EF7 JUMPI PUSH0 DUP1 REVERT JUMPDEST DUP1 SWAP2 POP POP SWAP3 POP SWAP3 SWAP1 POP JUMP JUMPDEST PUSH0 DUP1 PUSH0 DUP1 PUSH1 0x80 DUP6 DUP8 SUB SLT ISZERO PUSH2 0x1F15 JUMPI PUSH0 DUP1 REVERT JUMPDEST PUSH2 0x1F1E DUP6 PUSH2 0x1CBA JUMP JUMPDEST SWAP4 POP PUSH2 0x1F2C PUSH1 0x20 DUP7 ADD PUSH2 0x1CBA JUMP JUMPDEST SWAP3 POP PUSH1 0x40 DUP6 ADD CALLDATALOAD SWAP2 POP PUSH1 0x60 DUP6 ADD CALLDATALOAD PUSH1 0x1 PUSH1 0x1 PUSH1 0x40 SHL SUB DUP2 GT ISZERO PUSH2 0x1F4D JUMPI PUSH0 DUP1 REVERT JUMPDEST DUP6 ADD PUSH1 0x1F DUP2 ADD DUP8 SGT PUSH2 0x1F5D JUMPI PUSH0 DUP1 REVERT JUMPDEST PUSH2 0x1F6C DUP8 DUP3 CALLDATALOAD PUSH1 0x20 DUP5 ADD PUSH2 0x1D41 JUMP JUMPDEST SWAP2 POP POP SWAP3 SWAP6 SWAP2 SWAP5 POP SWAP3 POP JUMP JUMPDEST PUSH0 DUP1 PUSH1 0x40 DUP4 DUP6 SUB SLT ISZERO PUSH2 0x1F89 JUMPI PUSH0 DUP1 REVERT JUMPDEST PUSH2 0x1F92 DUP4 PUSH2 0x1CBA JUMP JUMPDEST SWAP2 POP PUSH2 0x1FA0 PUSH1 0x20 DUP5 ADD PUSH2 0x1CBA JUMP JUMPDEST SWAP1 POP SWAP3 POP SWAP3 SWAP1 POP JUMP JUMPDEST PUSH1 0x1 DUP2 DUP2 SHR SWAP1 DUP3 AND DUP1 PUSH2 0x1FBD JUMPI PUSH1 0x7F DUP3 AND SWAP2 POP JUMPDEST PUSH1 0x20 DUP3 LT DUP2 SUB PUSH2 0x1FDB JUMPI PUSH4 0x4E487B71 PUSH1 0xE0 SHL PUSH0 MSTORE PUSH1 0x22 PUSH1 0x4 MSTORE PUSH1 0x24 PUSH0 REVERT JUMPDEST POP SWAP2 SWAP1 POP JUMP JUMPDEST PUSH1 0x20 DUP1 DUP3 MSTORE PUSH1 0x21 SWAP1 DUP3 ADD MSTORE PUSH32 0x536861726561626C654552433732313A20746F6B656E206D7573742065786973 PUSH1 0x40 DUP3 ADD MSTORE PUSH1 0x1D PUSH1 0xFA SHL PUSH1 0x60 DUP3 ADD MSTORE PUSH1 0x80 ADD SWAP1 JUMP JUMPDEST PUSH4 0x4E487B71 PUSH1 0xE0 SHL PUSH0 MSTORE PUSH1 0x11 PUSH1 0x4 MSTORE PUSH1 0x24 PUSH0 REVERT JUMPDEST DUP1 DUP3 ADD DUP1 DUP3 GT ISZERO PUSH2 0x4CE JUMPI PUSH2 0x4CE PUSH2 0x2022 JUMP JUMPDEST PUSH1 0x20 DUP1 DUP3 MSTORE PUSH1 0x1D SWAP1 DUP3 ADD MSTORE PUSH32 0x46756E6452616973696E673A20746F6B656E206D757374206578697374000000 PUSH1 0x40 DUP3 ADD MSTORE PUSH1 0x60 ADD SWAP1 JUMP JUMPDEST PUSH1 0x20 DUP1 DUP3 MSTORE PUSH1 0x19 SWAP1 DUP3 ADD MSTORE PUSH25 0x115490CD4C0C8CCE881D1BDAD95B881B5D5CDD08195E1A5CDD PUSH1 0x3A SHL PUSH1 0x40 DUP3 ADD MSTORE PUSH1 0x60 ADD SWAP1 JUMP JUMPDEST PUSH1 0x1F DUP3 GT ISZERO PUSH2 0xAFC JUMPI PUSH0 DUP2 DUP2 MSTORE PUSH1 0x20 DUP2 KECCAK256 PUSH1 0x1F DUP6 ADD PUSH1 0x5 SHR DUP2 ADD PUSH1 0x20 DUP7 LT ISZERO PUSH2 0x20D9 JUMPI POP DUP1 JUMPDEST PUSH1 0x1F DUP6 ADD PUSH1 0x5 SHR DUP3 ADD SWAP2 POP JUMPDEST DUP2 DUP2 LT ISZERO PUSH2 0x20F8 JUMPI DUP3 DUP2 SSTORE PUSH1 0x1 ADD PUSH2 0x20E5 JUMP JUMPDEST POP POP POP POP POP POP JUMP JUMPDEST DUP2 MLOAD PUSH1 0x1 PUSH1 0x1 PUSH1 0x40 SHL SUB DUP2 GT ISZERO PUSH2 0x2119 JUMPI PUSH2 0x2119 PUSH2 0x1CFD JUMP JUMPDEST PUSH2 0x212D DUP2 PUSH2 0x2127 DUP5 SLOAD PUSH2 0x1FA9 JUMP JUMPDEST DUP5 PUSH2 0x20B3 JUMP JUMPDEST PUSH1 0x20 DUP1 PUSH1 0x1F DUP4 GT PUSH1 0x1 DUP2 EQ PUSH2 0x2160 JUMPI PUSH0 DUP5 ISZERO PUSH2 0x2149 JUMPI POP DUP6 DUP4 ADD MLOAD JUMPDEST PUSH0 NOT PUSH1 0x3 DUP7 SWAP1 SHL SHR NOT AND PUSH1 0x1 DUP6 SWAP1 SHL OR DUP6 SSTORE PUSH2 0x20F8 JUMP JUMPDEST PUSH0 DUP6 DUP2 MSTORE PUSH1 0x20 DUP2 KECCAK256 PUSH1 0x1F NOT DUP7 AND SWAP2 JUMPDEST DUP3 DUP2 LT ISZERO PUSH2 0x218E JUMPI DUP9 DUP7 ADD MLOAD DUP3 SSTORE SWAP5 DUP5 ADD SWAP5 PUSH1 0x1 SWAP1 SWAP2 ADD SWAP1 DUP5 ADD PUSH2 0x216F JUMP JUMPDEST POP DUP6 DUP3 LT ISZERO PUSH2 0x21AB JUMPI DUP8 DUP6 ADD MLOAD PUSH0 NOT PUSH1 0x3 DUP9 SWAP1 SHL PUSH1 0xF8 AND SHR NOT AND DUP2 SSTORE JUMPDEST POP POP POP POP POP PUSH1 0x1 SWAP1 DUP2 SHL ADD SWAP1 SSTORE POP JUMP JUMPDEST PUSH0 DUP4 MLOAD PUSH2 0x21CC DUP2 DUP5 PUSH1 0x20 DUP9 ADD PUSH2 0x1C30 JUMP JUMPDEST DUP4 MLOAD SWAP1 DUP4 ADD SWAP1 PUSH2 0x21E0 DUP2 DUP4 PUSH1 0x20 DUP9 ADD PUSH2 0x1C30 JUMP JUMPDEST ADD SWAP5 SWAP4 POP POP POP POP JUMP JUMPDEST PUSH0 PUSH1 0x1 DUP3 ADD PUSH2 0x21FA JUMPI PUSH2 0x21FA PUSH2 0x2022 JUMP JUMPDEST POP PUSH1 0x1 ADD SWAP1 JUMP JUMPDEST PUSH0 PUSH1 0x20 DUP1 DUP4 DUP6 SUB SLT ISZERO PUSH2 0x2212 JUMPI PUSH0 DUP1 REVERT JUMPDEST DUP3 MLOAD PUSH1 0x1 PUSH1 0x1 PUSH1 0x40 SHL SUB DUP1 DUP3 GT ISZERO PUSH2 0x2228 JUMPI PUSH0 DUP1 REVERT JUMPDEST DUP2 DUP6 ADD SWAP2 POP DUP6 PUSH1 0x1F DUP4 ADD SLT PUSH2 0x223B JUMPI PUSH0 DUP1 REVERT JUMPDEST DUP2 MLOAD DUP2 DUP2 GT ISZERO PUSH2 0x224D JUMPI PUSH2 0x224D PUSH2 0x1CFD JUMP JUMPDEST DUP1 PUSH1 0x5 SHL SWAP2 POP PUSH2 0x225E DUP5 DUP4 ADD PUSH2 0x1D11 JUMP JUMPDEST DUP2 DUP2 MSTORE SWAP2 DUP4 ADD DUP5 ADD SWAP2 DUP5 DUP2 ADD SWAP1 DUP9 DUP5 GT ISZERO PUSH2 0x2277 JUMPI PUSH0 DUP1 REVERT JUMPDEST SWAP4 DUP6 ADD SWAP4 JUMPDEST DUP4 DUP6 LT ISZERO PUSH2 0x2295 JUMPI DUP5 MLOAD DUP3 MSTORE SWAP4 DUP6 ADD SWAP4 SWAP1 DUP6 ADD SWAP1 PUSH2 0x227C JUMP JUMPDEST SWAP9 SWAP8 POP POP POP POP POP POP POP POP JUMP JUMPDEST PUSH4 0x4E487B71 PUSH1 0xE0 SHL PUSH0 MSTORE PUSH1 0x32 PUSH1 0x4 MSTORE PUSH1 0x24 PUSH0 REVERT JUMPDEST PUSH1 0x1 PUSH1 0x1 PUSH1 0xA0 SHL SUB DUP6 DUP2 AND DUP3 MSTORE DUP5 AND PUSH1 0x20 DUP3 ADD MSTORE PUSH1 0x40 DUP2 ADD DUP4 SWAP1 MSTORE PUSH1 0x80 PUSH1 0x60 DUP3 ADD DUP2 SWAP1 MSTORE PUSH0 SWAP1 PUSH2 0x22E7 SWAP1 DUP4 ADD DUP5 PUSH2 0x1C52 JUMP JUMPDEST SWAP7 SWAP6 POP POP POP POP POP POP JUMP JUMPDEST PUSH0 PUSH1 0x20 DUP3 DUP5 SUB SLT ISZERO PUSH2 0x2301 JUMPI PUSH0 DUP1 REVERT JUMPDEST DUP2 MLOAD PUSH2 0x18B8 DUP2 PUSH2 0x1C00 JUMP INVALID LOG2 PUSH5 0x6970667358 0x22 SLT KECCAK256 0xE3 0x24 PUSH10 0x17A0B684326AC9AAD48 SWAP2 ADD PUSH10 0xE568D2669C3407DECBE8 DUP6 RETURNDATACOPY 0xAD DUP5 COINBASE TIMESTAMP PUSH5 0x736F6C6343 STOP ADDMOD EQ STOP CALLER "
				},
				"gasEstimates": {
					"creation": {
						"codeDepositCost": "1805200",
						"executionCost": "infinite",
						"totalCost": "infinite"
					},
					"external": {
						"approve(address,uint256)": "31543",
						"balanceOf(address)": "2893",
						"baseURI()": "infinite",
						"buyShares(address,uint256,uint256)": "infinite",
						"getApproved(uint256)": "infinite",
						"initiateSelling(address,uint256)": "infinite",
						"initiateVoting(uint256)": "29155",
						"isApprovedForAll(address,address)": "infinite",
						"makeDecisionForSelling(uint256)": "infinite",
						"mint(address,uint256)": "104592",
						"name()": "infinite",
						"owner()": "2721",
						"ownerOf(uint256)": "infinite",
						"registerAsset(address)": "181801",
						"registerAssetForFundraising(uint256,uint256)": "58555",
						"renounceOwnership()": "infinite",
						"safeTransferFrom(address,address,uint256)": "infinite",
						"safeTransferFrom(address,address,uint256,bytes)": "infinite",
						"setApprovalForAll(address,bool)": "27052",
						"setBaseURI(string)": "infinite",
						"setTokenURI(uint256,string)": "infinite",
						"share(address,uint256)": "infinite",
						"supportsInterface(bytes4)": "infinite",
						"symbol()": "infinite",
						"tokenURI(uint256)": "infinite",
						"transferFrom(address,address,uint256)": "infinite",
						"transferOwnership(address)": "28950",
						"vote(uint256,uint256)": "29445"
					},
					"internal": {
						"_baseURI()": "infinite",
						"_exists(uint256)": "2210"
					}
				},
				"methodIdentifiers": {
					"approve(address,uint256)": "095ea7b3",
					"balanceOf(address)": "70a08231",
					"baseURI()": "6c0360eb",
					"buyShares(address,uint256,uint256)": "17f69222",
					"getApproved(uint256)": "081812fc",
					"initiateSelling(address,uint256)": "3d14a02b",
					"initiateVoting(uint256)": "45714684",
					"isApprovedForAll(address,address)": "e985e9c5",
					"makeDecisionForSelling(uint256)": "d8d7c169",
					"mint(address,uint256)": "40c10f19",
					"name()": "06fdde03",
					"owner()": "8da5cb5b",
					"ownerOf(uint256)": "6352211e",
					"registerAsset(address)": "d312998f",
					"registerAssetForFundraising(uint256,uint256)": "24c9cd4e",
					"renounceOwnership()": "715018a6",
					"safeTransferFrom(address,address,uint256)": "42842e0e",
					"safeTransferFrom(address,address,uint256,bytes)": "b88d4fde",
					"setApprovalForAll(address,bool)": "a22cb465",
					"setBaseURI(string)": "55f804b3",
					"setTokenURI(uint256,string)": "162094c4",
					"share(address,uint256)": "ded6338b",
					"supportsInterface(bytes4)": "01ffc9a7",
					"symbol()": "95d89b41",
					"tokenURI(uint256)": "c87b56dd",
					"transferFrom(address,address,uint256)": "23b872dd",
					"transferOwnership(address)": "f2fde38b",
					"vote(uint256,uint256)": "b384abef"
				}
			},
			"storageLayout": {
				"storage": [
					{
						"astId": 349,
						"contract": "FundRaising.sol:FundRaising",
						"label": "_name",
						"offset": 0,
						"slot": "0",
						"type": "t_string_storage"
					},
					{
						"astId": 351,
						"contract": "FundRaising.sol:FundRaising",
						"label": "_symbol",
						"offset": 0,
						"slot": "1",
						"type": "t_string_storage"
					},
					{
						"astId": 355,
						"contract": "FundRaising.sol:FundRaising",
						"label": "_owners",
						"offset": 0,
						"slot": "2",
						"type": "t_mapping(t_uint256,t_address)"
					},
					{
						"astId": 359,
						"contract": "FundRaising.sol:FundRaising",
						"label": "_balances",
						"offset": 0,
						"slot": "3",
						"type": "t_mapping(t_address,t_uint256)"
					},
					{
						"astId": 363,
						"contract": "FundRaising.sol:FundRaising",
						"label": "_tokenApprovals",
						"offset": 0,
						"slot": "4",
						"type": "t_mapping(t_uint256,t_address)"
					},
					{
						"astId": 369,
						"contract": "FundRaising.sol:FundRaising",
						"label": "_operatorApprovals",
						"offset": 0,
						"slot": "5",
						"type": "t_mapping(t_address,t_mapping(t_address,t_bool))"
					},
					{
						"astId": 1488,
						"contract": "FundRaising.sol:FundRaising",
						"label": "_tokenURIs",
						"offset": 0,
						"slot": "6",
						"type": "t_mapping(t_uint256,t_string_storage)"
					},
					{
						"astId": 8,
						"contract": "FundRaising.sol:FundRaising",
						"label": "_owner",
						"offset": 0,
						"slot": "7",
						"type": "t_address"
					},
					{
						"astId": 3108,
						"contract": "FundRaising.sol:FundRaising",
						"label": "baseURI",
						"offset": 0,
						"slot": "8",
						"type": "t_string_storage"
					},
					{
						"astId": 3110,
						"contract": "FundRaising.sol:FundRaising",
						"label": "_currentIndex",
						"offset": 0,
						"slot": "9",
						"type": "t_uint256"
					},
					{
						"astId": 3113,
						"contract": "FundRaising.sol:FundRaising",
						"label": "mappingToArray",
						"offset": 0,
						"slot": "10",
						"type": "t_contract(MappingToArrays)3749"
					},
					{
						"astId": 3119,
						"contract": "FundRaising.sol:FundRaising",
						"label": "_votingStatus",
						"offset": 0,
						"slot": "11",
						"type": "t_mapping(t_uint256,t_mapping(t_uint256,t_bool))"
					},
					{
						"astId": 3124,
						"contract": "FundRaising.sol:FundRaising",
						"label": "_FundRaisingDetails",
						"offset": 0,
						"slot": "12",
						"type": "t_mapping(t_uint256,t_struct(FundRaisingDetails)3139_storage)"
					},
					{
						"astId": 3128,
						"contract": "FundRaising.sol:FundRaising",
						"label": "assetOwners",
						"offset": 0,
						"slot": "13",
						"type": "t_mapping(t_uint256,t_address)"
					},
					{
						"astId": 3132,
						"contract": "FundRaising.sol:FundRaising",
						"label": "_votingOpen",
						"offset": 0,
						"slot": "14",
						"type": "t_mapping(t_uint256,t_bool)"
					},
					{
						"astId": 3155,
						"contract": "FundRaising.sol:FundRaising",
						"label": "sharedOwners",
						"offset": 0,
						"slot": "15",
						"type": "t_mapping(t_uint256,t_mapping(t_uint256,t_struct(SharedOwnersDetails)3148_storage))"
					},
					{
						"astId": 3527,
						"contract": "FundRaising.sol:FundRaising",
						"label": "_saleIsOpen",
						"offset": 0,
						"slot": "16",
						"type": "t_mapping(t_uint256,t_bool)"
					},
					{
						"astId": 3682,
						"contract": "FundRaising.sol:FundRaising",
						"label": "_owners",
						"offset": 0,
						"slot": "17",
						"type": "t_mapping(t_uint256,t_address)"
					}
				],
				"types": {
					"t_address": {
						"encoding": "inplace",
						"label": "address",
						"numberOfBytes": "20"
					},
					"t_bool": {
						"encoding": "inplace",
						"label": "bool",
						"numberOfBytes": "1"
					},
					"t_contract(MappingToArrays)3749": {
						"encoding": "inplace",
						"label": "contract MappingToArrays",
						"numberOfBytes": "20"
					},
					"t_mapping(t_address,t_bool)": {
						"encoding": "mapping",
						"key": "t_address",
						"label": "mapping(address => bool)",
						"numberOfBytes": "32",
						"value": "t_bool"
					},
					"t_mapping(t_address,t_mapping(t_address,t_bool))": {
						"encoding": "mapping",
						"key": "t_address",
						"label": "mapping(address => mapping(address => bool))",
						"numberOfBytes": "32",
						"value": "t_mapping(t_address,t_bool)"
					},
					"t_mapping(t_address,t_uint256)": {
						"encoding": "mapping",
						"key": "t_address",
						"label": "mapping(address => uint256)",
						"numberOfBytes": "32",
						"value": "t_uint256"
					},
					"t_mapping(t_uint256,t_address)": {
						"encoding": "mapping",
						"key": "t_uint256",
						"label": "mapping(uint256 => address)",
						"numberOfBytes": "32",
						"value": "t_address"
					},
					"t_mapping(t_uint256,t_bool)": {
						"encoding": "mapping",
						"key": "t_uint256",
						"label": "mapping(uint256 => bool)",
						"numberOfBytes": "32",
						"value": "t_bool"
					},
					"t_mapping(t_uint256,t_mapping(t_uint256,t_bool))": {
						"encoding": "mapping",
						"key": "t_uint256",
						"label": "mapping(uint256 => mapping(uint256 => bool))",
						"numberOfBytes": "32",
						"value": "t_mapping(t_uint256,t_bool)"
					},
					"t_mapping(t_uint256,t_mapping(t_uint256,t_struct(SharedOwnersDetails)3148_storage))": {
						"encoding": "mapping",
						"key": "t_uint256",
						"label": "mapping(uint256 => mapping(uint256 => struct FundRaising.SharedOwnersDetails))",
						"numberOfBytes": "32",
						"value": "t_mapping(t_uint256,t_struct(SharedOwnersDetails)3148_storage)"
					},
					"t_mapping(t_uint256,t_string_storage)": {
						"encoding": "mapping",
						"key": "t_uint256",
						"label": "mapping(uint256 => string)",
						"numberOfBytes": "32",
						"value": "t_string_storage"
					},
					"t_mapping(t_uint256,t_struct(FundRaisingDetails)3139_storage)": {
						"encoding": "mapping",
						"key": "t_uint256",
						"label": "mapping(uint256 => struct FundRaising.FundRaisingDetails)",
						"numberOfBytes": "32",
						"value": "t_struct(FundRaisingDetails)3139_storage"
					},
					"t_mapping(t_uint256,t_struct(SharedOwnersDetails)3148_storage)": {
						"encoding": "mapping",
						"key": "t_uint256",
						"label": "mapping(uint256 => struct FundRaising.SharedOwnersDetails)",
						"numberOfBytes": "32",
						"value": "t_struct(SharedOwnersDetails)3148_storage"
					},
					"t_string_storage": {
						"encoding": "bytes",
						"label": "string",
						"numberOfBytes": "32"
					},
					"t_struct(FundRaisingDetails)3139_storage": {
						"encoding": "inplace",
						"label": "struct FundRaising.FundRaisingDetails",
						"members": [
							{
								"astId": 3134,
								"contract": "FundRaising.sol:FundRaising",
								"label": "totalShares",
								"offset": 0,
								"slot": "0",
								"type": "t_uint256"
							},
							{
								"astId": 3136,
								"contract": "FundRaising.sol:FundRaising",
								"label": "sharesSold",
								"offset": 0,
								"slot": "1",
								"type": "t_uint256"
							},
							{
								"astId": 3138,
								"contract": "FundRaising.sol:FundRaising",
								"label": "assetLocked",
								"offset": 0,
								"slot": "2",
								"type": "t_bool"
							}
						],
						"numberOfBytes": "96"
					},
					"t_struct(SharedOwnersDetails)3148_storage": {
						"encoding": "inplace",
						"label": "struct FundRaising.SharedOwnersDetails",
						"members": [
							{
								"astId": 3141,
								"contract": "FundRaising.sol:FundRaising",
								"label": "sharedowner",
								"offset": 0,
								"slot": "0",
								"type": "t_address"
							},
							{
								"astId": 3143,
								"contract": "FundRaising.sol:FundRaising",
								"label": "assetId",
								"offset": 0,
								"slot": "1",
								"type": "t_uint256"
							},
							{
								"astId": 3145,
								"contract": "FundRaising.sol:FundRaising",
								"label": "sharedId",
								"offset": 0,
								"slot": "2",
								"type": "t_uint256"
							},
							{
								"astId": 3147,
								"contract": "FundRaising.sol:FundRaising",
								"label": "shareHolded",
								"offset": 0,
								"slot": "3",
								"type": "t_uint256"
							}
						],
						"numberOfBytes": "128"
					},
					"t_uint256": {
						"encoding": "inplace",
						"label": "uint256",
						"numberOfBytes": "32"
					}
				}
			},
			"userdoc": {
				"kind": "user",
				"methods": {},
				"version": 1
			}
		}
	}
}