{
	"data": {
		"bytecode": {
			"linkReferences": {},
			"object": "608060405234801562000010575f80fd5b506040516200272b3803806200272b8339810160408190526200003391620001db565b3384845f62000043838262000313565b50600162000052828262000313565b5050506001600160a01b0381166200008357604051631e4fbdf760e01b81525f600482015260240160405180910390fd5b6200008e81620000cc565b5060086200009d828262000313565b5050600a80546001600160a01b0319166001600160a01b039290921691909117905550506001600955620003db565b600780546001600160a01b038381166001600160a01b0319831681179093556040519116919082907f8be0079c531659141344cd1fd0a4f28419497f9722a3daafe3b4186f6b6457e0905f90a35050565b634e487b7160e01b5f52604160045260245ffd5b5f82601f83011262000141575f80fd5b81516001600160401b03808211156200015e576200015e6200011d565b604051601f8301601f19908116603f011681019082821181831017156200018957620001896200011d565b81604052838152602092508683858801011115620001a5575f80fd5b5f91505b83821015620001c85785820183015181830184015290820190620001a9565b5f93810190920192909252949350505050565b5f805f8060808587031215620001ef575f80fd5b84516001600160401b038082111562000206575f80fd5b620002148883890162000131565b955060208701519150808211156200022a575f80fd5b620002388883890162000131565b604088015190955091506001600160a01b038216821462000257575f80fd5b6060870151919350808211156200026c575f80fd5b506200027b8782880162000131565b91505092959194509250565b600181811c908216806200029c57607f821691505b602082108103620002bb57634e487b7160e01b5f52602260045260245ffd5b50919050565b601f8211156200030e575f81815260208120601f850160051c81016020861015620002e95750805b601f850160051c820191505b818110156200030a57828155600101620002f5565b5050505b505050565b81516001600160401b038111156200032f576200032f6200011d565b620003478162000340845462000287565b84620002c1565b602080601f8311600181146200037d575f8415620003655750858301515b5f19600386901b1c1916600185901b1785556200030a565b5f85815260208120601f198616915b82811015620003ad578886015182559484019460019091019084016200038c565b5085821015620003cb57878501515f19600388901b60f8161c191681555b5050505050600190811b01905550565b61234280620003e95f395ff3fe608060405260043610610146575f3560e01c806301ffc9a71461014a57806306fdde031461017e578063081812fc1461019f578063095ea7b3146101cb578063162094c4146101ec57806317f692221461020b57806323b872dd1461021e57806324c9cd4e1461023d5780633d14a02b1461025c57806340c10f191461027b57806342842e0e1461029a57806345714684146102b957806355f804b3146102d85780636352211e146102f75780636c0360eb1461031657806370a082311461032a578063715018a6146103575780638da5cb5b1461036b57806395d89b411461037f578063a22cb46514610393578063b384abef146103b2578063b88d4fde146103d1578063c87b56dd146103f0578063d312998f1461040f578063d8d7c1691461042e578063ded6338b1461044d578063e985e9c51461046c578063f2fde38b1461048b575b5f80fd5b348015610155575f80fd5b50610169610164366004611c15565b6104aa565b60405190151581526020015b60405180910390f35b348015610189575f80fd5b506101926104d4565b6040516101759190611c7d565b3480156101aa575f80fd5b506101be6101b9366004611c8f565b610563565b6040516101759190611ca6565b3480156101d6575f80fd5b506101ea6101e5366004611cd5565b610577565b005b3480156101f7575f80fd5b506101ea610206366004611db3565b610586565b6101ea610219366004611df6565b610598565b348015610229575f80fd5b506101ea610238366004611e26565b6107f4565b348015610248575f80fd5b506101ea610257366004611e5f565b610877565b348015610267575f80fd5b506101ea610276366004611cd5565b61096e565b348015610286575f80fd5b506101ea610295366004611cd5565b610ad0565b3480156102a5575f80fd5b506101ea6102b4366004611e26565b610ae2565b3480156102c4575f80fd5b506101ea6102d3366004611c8f565b610b01565b3480156102e3575f80fd5b506101ea6102f2366004611e7f565b610b9e565b348015610302575f80fd5b506101be610311366004611c8f565b610bb2565b348015610321575f80fd5b50610192610bbc565b348015610335575f80fd5b50610349610344366004611eb0565b610c48565b604051908152602001610175565b348015610362575f80fd5b506101ea610c8d565b348015610376575f80fd5b506101be610ca0565b34801561038a575f80fd5b50610192610caf565b34801561039e575f80fd5b506101ea6103ad366004611ec9565b610cbe565b3480156103bd575f80fd5b506101ea6103cc366004611e5f565b610cc9565b3480156103dc575f80fd5b506101ea6103eb366004611f02565b610d70565b3480156103fb575f80fd5b5061019261040a366004611c8f565b610d87565b34801561041a575f80fd5b506101ea610429366004611eb0565b610e86565b348015610439575f80fd5b506101ea610448366004611c8f565b610f3d565b348015610458575f80fd5b50610349610467366004611cd5565b61118b565b348015610477575f80fd5b50610169610486366004611f78565b61134f565b348015610496575f80fd5b506101ea6104a5366004611eb0565b61137c565b5f6001600160e01b03198216632483248360e11b14806104ce57506104ce826113b9565b92915050565b60605f80546104e290611fa9565b80601f016020809104026020016040519081016040528092919081815260200182805461050e90611fa9565b80156105595780601f1061053057610100808354040283529160200191610559565b820191905f5260205f20905b81548152906001019060200180831161053c57829003601f168201915b5050505050905090565b5f61056d82611408565b506104ce8261143f565b610582828233611459565b5050565b61058e611466565b6105828282611498565b6105a1826114e7565b6105c65760405162461bcd60e51b81526004016105bd90611fe1565b60405180910390fd5b5f828152600c602052604090206002015460ff1661063f5760405162461bcd60e51b815260206004820152603060248201527f46756e6452616973696e673a206173736574206973206e6f74206c6f636b656460448201526f20666f722066756e6472616973696e6760801b60648201526084016105bd565b5f828152600c60205260409020805460019091015461065f908390612036565b11156106be5760405162461bcd60e51b815260206004820152602860248201527f46756e6452616973696e673a206e6f7420656e6f7567682073686172657320616044820152677661696c61626c6560c01b60648201526084016105bd565b5f828152600c6020526040812060010180548392906106de908490612036565b90915550505f828152600c60205260409020805460019091015403610719575f828152600c60205260409020600201805460ff191660011790555b604080516080810182526001600160a01b038581168252602080830186815260098054858701818152606087018981525f8b8152600f87528981209381529290955290879020955186546001600160a01b03191690861617865591516001860155905160028501559051600390930192909255600a549154925163a29f697760e01b8152600481018690526024810193909352169063a29f6977906044015f604051808303815f87803b1580156107ce575f80fd5b505af11580156107e0573d5f803e3d5ffd5b505050506107ee838361118b565b50505050565b6001600160a01b03821661081d575f604051633250574960e11b81526004016105bd9190611ca6565b5f610829838333611503565b9050836001600160a01b0316816001600160a01b0316146107ee576040516364283d7b60e01b81526001600160a01b03808616600483015260248201849052821660448201526064016105bd565b61087f611466565b610888826114e7565b6108a45760405162461bcd60e51b81526004016105bd90611fe1565b5f828152600c602052604090206002015460ff16156109225760405162461bcd60e51b815260206004820152603460248201527f46756e6452616973696e673a20617373657420697320616c7265616479206c6f604482015273636b656420666f722066756e6472616973696e6760601b60648201526084016105bd565b604080516060810182529182525f60208084018281526001858501818152968452600c909252929091209251835590519082015590516002909101805460ff1916911515919091179055565b5f818152600d60205260409020546001600160a01b031633146109e75760405162461bcd60e51b815260206004820152602b60248201527f46756e6452616973696e673a6f6e6c79206f776e65722063616e20696e69746960448201526a6174652073656c6c696e6760a81b60648201526084016105bd565b6109f0816114e7565b610a0c5760405162461bcd60e51b81526004016105bd90612049565b5f818152600e602052604090205460ff1615610a685760405162461bcd60e51b815260206004820152601b60248201527a233ab7322930b4b9b4b7339d102b37ba34b7339034b99037b832b760291b60448201526064016105bd565b5f8181526010602052604090205460ff16610ac55760405162461bcd60e51b815260206004820152601d60248201527f46756e6452616973696e673a2053616c65206973206e6f74206f70656e00000060448201526064016105bd565b610582338383610ae2565b610ad8611466565b61058282826115f0565b610afc83838360405180602001604052805f815250610d70565b505050565b610b0a816114e7565b610b265760405162461bcd60e51b81526004016105bd90612080565b5f818152600e602052604090205460ff1615610b845760405162461bcd60e51b815260206004820152601f60248201527f46756e6452616973696e673a566f74696e6720616c7265616479206f70656e0060448201526064016105bd565b5f908152600e60205260409020805460ff19166001179055565b610ba6611466565b60086105828282612100565b5f6104ce82611408565b60088054610bc990611fa9565b80601f0160208091040260200160405190810160405280929190818152602001828054610bf590611fa9565b8015610c405780601f10610c1757610100808354040283529160200191610c40565b820191905f5260205f20905b815481529060010190602001808311610c2357829003601f168201915b505050505081565b5f6001600160a01b038216610c72575f6040516322718ad960e21b81526004016105bd9190611ca6565b506001600160a01b03165f9081526003602052604090205490565b610c95611466565b610c9e5f611651565b565b6007546001600160a01b031690565b6060600180546104e290611fa9565b6105823383836116a2565b610cd2826114e7565b610cee5760405162461bcd60e51b81526004016105bd90612080565b5f828152600e602052604090205460ff16610d4b5760405162461bcd60e51b815260206004820152601e60248201527f46756e6452616973696e673a566f74696e67206973206e6f74206f70656e000060448201526064016105bd565b5f918252600b602090815260408084209284529190529020805460ff19166001179055565b610d7b8484846107f4565b6107ee84848484611737565b6060610d9282611408565b505f8281526006602052604081208054610dab90611fa9565b80601f0160208091040260200160405190810160405280929190818152602001828054610dd790611fa9565b8015610e225780601f10610df957610100808354040283529160200191610e22565b820191905f5260205f20905b815481529060010190602001808311610e0557829003601f168201915b505050505090505f610e3261184b565b905080515f03610e43575092915050565b815115610e75578082604051602001610e5d9291906121bb565b60405160208183030381529060405292505050919050565b610e7e8461185a565b949350505050565b6001600160a01b038116610edc5760405162461bcd60e51b815260206004820152601d60248201527f496e7665736f74723a206e6f7420612076616c6964206164647265737300000060448201526064016105bd565b610ee8816009546115f0565b600980545f908152600e60209081526040808320805460ff1916905583548352600d909152812080546001600160a01b0319166001600160a01b03851617905581549190610f35836121e9565b919050555050565b610f45611466565b610f4e816114e7565b610f6a5760405162461bcd60e51b81526004016105bd90612049565b5f818152600e602052604090205460ff16610fc75760405162461bcd60e51b815260206004820152601f60248201527f46756e6452616973696e673a20566f74696e67206973206e6f74206f70656e0060448201526064016105bd565b5f818152600c602052604080822060010154600a54915163ab35ec6360e01b8152600481018590529092916001600160a01b03169063ab35ec63906024015f60405180830381865afa15801561101f573d5f803e3d5ffd5b505050506040513d5f823e601f3d908101601f191682016040526110469190810190612201565b90505f5b828110156110ff575f828281518110611065576110656122a1565b6020908102919091018101515f878152600b83526040808220838352909352919091205490915060ff166110ec5760405162461bcd60e51b815260206004820152602860248201527f46756e6452616973696e673a20416c6c20736861726564206f776e657273206d60448201526775737420766f746560c01b60648201526084016105bd565b50806110f7816121e9565b91505061104a565b505f838152601060205260408120805460ff191660011790555b82811015611171575f828281518110611134576111346122a1565b6020908102919091018101515f878152600b83526040808220928252919092529020805460ff191690555080611169816121e9565b915050611119565b5050505f908152600e60205260409020805460ff19169055565b5f6001600160a01b0383166111e25760405162461bcd60e51b815260206004820181905260248201527f4552433732313a206d696e7420746f20746865207a65726f206164647265737360448201526064016105bd565b6111eb826114e7565b61124e5760405162461bcd60e51b815260206004820152602e60248201527f536861726561626c654552433732313a20746f6b656e20746f2062652073686160448201526d1c9959081b5d5cdd08195e1a5cdd60921b60648201526084016105bd565b3361125883610bb2565b6001600160a01b0316146112cd5760405162461bcd60e51b815260206004820152603660248201527f536861726561626c654552433732313a2073656e646572206d757374206265206044820152753a34329037bbb732b91037b3103a3432903a37b5b2b760511b60648201526084016105bd565b5f6112d783610d87565b90506112e5846009546115f0565b6112f160095482611498565b6009546040518481526001600160a01b0386169033907fc9a349c2b09c746e2edebb75faaf556c1c0c89d2c196a1f988ece46ee152bd529060200160405180910390a460098054905f611343836121e9565b90915550949350505050565b6001600160a01b039182165f90815260056020908152604080832093909416825291909152205460ff1690565b611384611466565b6001600160a01b0381166113ad575f604051631e4fbdf760e01b81526004016105bd9190611ca6565b6113b681611651565b50565b5f6001600160e01b031982166380ac58cd60e01b14806113e957506001600160e01b03198216635b5e139f60e01b145b806104ce57506301ffc9a760e01b6001600160e01b03198316146104ce565b5f80611413836118bf565b90506001600160a01b0381166104ce57604051637e27328960e01b8152600481018490526024016105bd565b5f908152600460205260409020546001600160a01b031690565b610afc83838360016118d9565b3361146f610ca0565b6001600160a01b031614610c9e573360405163118cdaa760e01b81526004016105bd9190611ca6565b5f8281526006602052604090206114af8282612100565b506040518281527ff8e1a15aba9398e019f0b49df1a4fde98ee17ae345cb5f6b5e2c27f5033e8ce79060200160405180910390a15050565b5f908152601160205260409020546001600160a01b0316151590565b5f8061150e846118bf565b90506001600160a01b0383161561152a5761152a8184866119d4565b6001600160a01b03811615611564576115455f855f806118d9565b6001600160a01b0381165f90815260036020526040902080545f190190555b6001600160a01b03851615611592576001600160a01b0385165f908152600360205260409020805460010190555b5f8481526002602052604080822080546001600160a01b0319166001600160a01b0389811691821790925591518793918516917fddf252ad1be2c89b69c2b068fc378daa952ba7f163c4a11628f55a4df523b3ef91a4949350505050565b6001600160a01b038216611619575f604051633250574960e11b81526004016105bd9190611ca6565b5f61162583835f611503565b90506001600160a01b03811615610afc575f6040516339e3563760e11b81526004016105bd9190611ca6565b600780546001600160a01b038381166001600160a01b0319831681179093556040519116919082907f8be0079c531659141344cd1fd0a4f28419497f9722a3daafe3b4186f6b6457e0905f90a35050565b6001600160a01b0382166116cb5781604051630b61174360e31b81526004016105bd9190611ca6565b6001600160a01b038381165f81815260056020908152604080832094871680845294825291829020805460ff191686151590811790915591519182527f17307eab39ab6107e8899845ad3d59bd9653f200f220920489ca2b5937696c31910160405180910390a3505050565b6001600160a01b0383163b156107ee57604051630a85bd0160e11b81526001600160a01b0384169063150b7a02906117799033908890879087906004016122b5565b6020604051808303815f875af19250505080156117b3575060408051601f3d908101601f191682019092526117b0918101906122f1565b60015b611811573d8080156117e0576040519150601f19603f3d011682016040523d82523d5f602084013e6117e5565b606091505b5080515f036118095783604051633250574960e11b81526004016105bd9190611ca6565b805181602001fd5b6001600160e01b03198116630a85bd0160e11b146118445783604051633250574960e11b81526004016105bd9190611ca6565b5050505050565b6060600880546104e290611fa9565b606061186582611408565b505f61186f61184b565b90505f81511161188d5760405180602001604052805f8152506118b8565b8061189784611a38565b6040516020016118a89291906121bb565b6040516020818303038152906040525b9392505050565b5f908152600260205260409020546001600160a01b031690565b80806118ed57506001600160a01b03821615155b156119a5575f6118fc84611408565b90506001600160a01b038316158015906119285750826001600160a01b0316816001600160a01b031614155b801561193b5750611939818461134f565b155b1561195b578260405163a9fbf51f60e01b81526004016105bd9190611ca6565b81156119a35783856001600160a01b0316826001600160a01b03167f8c5be1e5ebec7d5bd14f71427d1e84f3dd0314c0f7b2291e5b200ac8c7c3b92560405160405180910390a45b505b50505f90815260046020526040902080546001600160a01b0319166001600160a01b0392909216919091179055565b6119df838383611ac7565b610afc576001600160a01b038316611a0d57604051637e27328960e01b8152600481018290526024016105bd565b60405163177e802f60e01b81526001600160a01b0383166004820152602481018290526044016105bd565b60605f611a4483611b2b565b60010190505f816001600160401b03811115611a6257611a62611cfd565b6040519080825280601f01601f191660200182016040528015611a8c576020820181803683370190505b5090508181016020015b5f19016f181899199a1a9b1b9c1cb0b131b232b360811b600a86061a8153600a8504945084611a9657509392505050565b5f6001600160a01b03831615801590610e7e5750826001600160a01b0316846001600160a01b03161480611b005750611b00848461134f565b80610e7e5750826001600160a01b0316611b198361143f565b6001600160a01b031614949350505050565b5f8072184f03e93ff9f4daa797ed6e38ed64bf6a1f0160401b8310611b695772184f03e93ff9f4daa797ed6e38ed64bf6a1f0160401b830492506040015b6904ee2d6d415b85acef8160201b8310611b93576904ee2d6d415b85acef8160201b830492506020015b662386f26fc100008310611bb157662386f26fc10000830492506010015b6305f5e1008310611bc9576305f5e100830492506008015b6127108310611bdd57612710830492506004015b60648310611bef576064830492506002015b600a83106104ce5760010192915050565b6001600160e01b0319811681146113b6575f80fd5b5f60208284031215611c25575f80fd5b81356118b881611c00565b5f5b83811015611c4a578181015183820152602001611c32565b50505f910152565b5f8151808452611c69816020860160208601611c30565b601f01601f19169290920160200192915050565b602081525f6118b86020830184611c52565b5f60208284031215611c9f575f80fd5b5035919050565b6001600160a01b0391909116815260200190565b80356001600160a01b0381168114611cd0575f80fd5b919050565b5f8060408385031215611ce6575f80fd5b611cef83611cba565b946020939093013593505050565b634e487b7160e01b5f52604160045260245ffd5b604051601f8201601f191681016001600160401b0381118282101715611d3957611d39611cfd565b604052919050565b5f6001600160401b03831115611d5957611d59611cfd565b611d6c601f8401601f1916602001611d11565b9050828152838383011115611d7f575f80fd5b828260208301375f602084830101529392505050565b5f82601f830112611da4575f80fd5b6118b883833560208501611d41565b5f8060408385031215611dc4575f80fd5b8235915060208301356001600160401b03811115611de0575f80fd5b611dec85828601611d95565b9150509250929050565b5f805f60608486031215611e08575f80fd5b611e1184611cba565b95602085013595506040909401359392505050565b5f805f60608486031215611e38575f80fd5b611e4184611cba565b9250611e4f60208501611cba565b9150604084013590509250925092565b5f8060408385031215611e70575f80fd5b50508035926020909101359150565b5f60208284031215611e8f575f80fd5b81356001600160401b03811115611ea4575f80fd5b610e7e84828501611d95565b5f60208284031215611ec0575f80fd5b6118b882611cba565b5f8060408385031215611eda575f80fd5b611ee383611cba565b915060208301358015158114611ef7575f80fd5b809150509250929050565b5f805f8060808587031215611f15575f80fd5b611f1e85611cba565b9350611f2c60208601611cba565b92506040850135915060608501356001600160401b03811115611f4d575f80fd5b8501601f81018713611f5d575f80fd5b611f6c87823560208401611d41565b91505092959194509250565b5f8060408385031215611f89575f80fd5b611f9283611cba565b9150611fa060208401611cba565b90509250929050565b600181811c90821680611fbd57607f821691505b602082108103611fdb57634e487b7160e01b5f52602260045260245ffd5b50919050565b60208082526021908201527f536861726561626c654552433732313a20746f6b656e206d75737420657869736040820152601d60fa1b606082015260800190565b634e487b7160e01b5f52601160045260245ffd5b808201808211156104ce576104ce612022565b6020808252601d908201527f46756e6452616973696e673a20746f6b656e206d757374206578697374000000604082015260600190565b602080825260199082015278115490cd4c0c8cce881d1bdad95b881b5d5cdd08195e1a5cdd603a1b604082015260600190565b601f821115610afc575f81815260208120601f850160051c810160208610156120d95750805b601f850160051c820191505b818110156120f8578281556001016120e5565b505050505050565b81516001600160401b0381111561211957612119611cfd565b61212d816121278454611fa9565b846120b3565b602080601f831160018114612160575f84156121495750858301515b5f19600386901b1c1916600185901b1785556120f8565b5f85815260208120601f198616915b8281101561218e5788860151825594840194600190910190840161216f565b50858210156121ab57878501515f19600388901b60f8161c191681555b5050505050600190811b01905550565b5f83516121cc818460208801611c30565b8351908301906121e0818360208801611c30565b01949350505050565b5f600182016121fa576121fa612022565b5060010190565b5f6020808385031215612212575f80fd5b82516001600160401b0380821115612228575f80fd5b818501915085601f83011261223b575f80fd5b81518181111561224d5761224d611cfd565b8060051b915061225e848301611d11565b8181529183018401918481019088841115612277575f80fd5b938501935b838510156122955784518252938501939085019061227c565b98975050505050505050565b634e487b7160e01b5f52603260045260245ffd5b6001600160a01b03858116825284166020820152604081018390526080606082018190525f906122e790830184611c52565b9695505050505050565b5f60208284031215612301575f80fd5b81516118b881611c0056fea2646970667358221220e32469017a0b684326ac9aad48910169e568d2669c3407decbe8853ead84414264736f6c63430008140033",
			"opcodes": "PUSH1 0x80 PUSH1 0x40 MSTORE CALLVALUE DUP1 ISZERO PUSH3 0x10 JUMPI PUSH0 DUP1 REVERT JUMPDEST POP PUSH1 0x40 MLOAD PUSH3 0x272B CODESIZE SUB DUP1 PUSH3 0x272B DUP4 CODECOPY DUP2 ADD PUSH1 0x40 DUP2 SWAP1 MSTORE PUSH3 0x33 SWAP2 PUSH3 0x1DB JUMP JUMPDEST CALLER DUP5 DUP5 PUSH0 PUSH3 0x43 DUP4 DUP3 PUSH3 0x313 JUMP JUMPDEST POP PUSH1 0x1 PUSH3 0x52 DUP3 DUP3 PUSH3 0x313 JUMP JUMPDEST POP POP POP PUSH1 0x1 PUSH1 0x1 PUSH1 0xA0 SHL SUB DUP2 AND PUSH3 0x83 JUMPI PUSH1 0x40 MLOAD PUSH4 0x1E4FBDF7 PUSH1 0xE0 SHL DUP2 MSTORE PUSH0 PUSH1 0x4 DUP3 ADD MSTORE PUSH1 0x24 ADD PUSH1 0x40 MLOAD DUP1 SWAP2 SUB SWAP1 REVERT JUMPDEST PUSH3 0x8E DUP2 PUSH3 0xCC JUMP JUMPDEST POP PUSH1 0x8 PUSH3 0x9D DUP3 DUP3 PUSH3 0x313 JUMP JUMPDEST POP POP PUSH1 0xA DUP1 SLOAD PUSH1 0x1 PUSH1 0x1 PUSH1 0xA0 SHL SUB NOT AND PUSH1 0x1 PUSH1 0x1 PUSH1 0xA0 SHL SUB SWAP3 SWAP1 SWAP3 AND SWAP2 SWAP1 SWAP2 OR SWAP1 SSTORE POP POP PUSH1 0x1 PUSH1 0x9 SSTORE PUSH3 0x3DB JUMP JUMPDEST PUSH1 0x7 DUP1 SLOAD PUSH1 0x1 PUSH1 0x1 PUSH1 0xA0 SHL SUB DUP4 DUP2 AND PUSH1 0x1 PUSH1 0x1 PUSH1 0xA0 SHL SUB NOT DUP4 AND DUP2 OR SWAP1 SWAP4 SSTORE PUSH1 0x40 MLOAD SWAP2 AND SWAP2 SWAP1 DUP3 SWAP1 PUSH32 0x8BE0079C531659141344CD1FD0A4F28419497F9722A3DAAFE3B4186F6B6457E0 SWAP1 PUSH0 SWAP1 LOG3 POP POP JUMP JUMPDEST PUSH4 0x4E487B71 PUSH1 0xE0 SHL PUSH0 MSTORE PUSH1 0x41 PUSH1 0x4 MSTORE PUSH1 0x24 PUSH0 REVERT JUMPDEST PUSH0 DUP3 PUSH1 0x1F DUP4 ADD SLT PUSH3 0x141 JUMPI PUSH0 DUP1 REVERT JUMPDEST DUP2 MLOAD PUSH1 0x1 PUSH1 0x1 PUSH1 0x40 SHL SUB DUP1 DUP3 GT ISZERO PUSH3 0x15E JUMPI PUSH3 0x15E PUSH3 0x11D JUMP JUMPDEST PUSH1 0x40 MLOAD PUSH1 0x1F DUP4 ADD PUSH1 0x1F NOT SWAP1 DUP2 AND PUSH1 0x3F ADD AND DUP2 ADD SWAP1 DUP3 DUP3 GT DUP2 DUP4 LT OR ISZERO PUSH3 0x189 JUMPI PUSH3 0x189 PUSH3 0x11D JUMP JUMPDEST DUP2 PUSH1 0x40 MSTORE DUP4 DUP2 MSTORE PUSH1 0x20 SWAP3 POP DUP7 DUP4 DUP6 DUP9 ADD ADD GT ISZERO PUSH3 0x1A5 JUMPI PUSH0 DUP1 REVERT JUMPDEST PUSH0 SWAP2 POP JUMPDEST DUP4 DUP3 LT ISZERO PUSH3 0x1C8 JUMPI DUP6 DUP3 ADD DUP4 ADD MLOAD DUP2 DUP4 ADD DUP5 ADD MSTORE SWAP1 DUP3 ADD SWAP1 PUSH3 0x1A9 JUMP JUMPDEST PUSH0 SWAP4 DUP2 ADD SWAP1 SWAP3 ADD SWAP3 SWAP1 SWAP3 MSTORE SWAP5 SWAP4 POP POP POP POP JUMP JUMPDEST PUSH0 DUP1 PUSH0 DUP1 PUSH1 0x80 DUP6 DUP8 SUB SLT ISZERO PUSH3 0x1EF JUMPI PUSH0 DUP1 REVERT JUMPDEST DUP5 MLOAD PUSH1 0x1 PUSH1 0x1 PUSH1 0x40 SHL SUB DUP1 DUP3 GT ISZERO PUSH3 0x206 JUMPI PUSH0 DUP1 REVERT JUMPDEST PUSH3 0x214 DUP9 DUP4 DUP10 ADD PUSH3 0x131 JUMP JUMPDEST SWAP6 POP PUSH1 0x20 DUP8 ADD MLOAD SWAP2 POP DUP1 DUP3 GT ISZERO PUSH3 0x22A JUMPI PUSH0 DUP1 REVERT JUMPDEST PUSH3 0x238 DUP9 DUP4 DUP10 ADD PUSH3 0x131 JUMP JUMPDEST PUSH1 0x40 DUP9 ADD MLOAD SWAP1 SWAP6 POP SWAP2 POP PUSH1 0x1 PUSH1 0x1 PUSH1 0xA0 SHL SUB DUP3 AND DUP3 EQ PUSH3 0x257 JUMPI PUSH0 DUP1 REVERT JUMPDEST PUSH1 0x60 DUP8 ADD MLOAD SWAP2 SWAP4 POP DUP1 DUP3 GT ISZERO PUSH3 0x26C JUMPI PUSH0 DUP1 REVERT JUMPDEST POP PUSH3 0x27B DUP8 DUP3 DUP9 ADD PUSH3 0x131 JUMP JUMPDEST SWAP2 POP POP SWAP3 SWAP6 SWAP2 SWAP5 POP SWAP3 POP JUMP JUMPDEST PUSH1 0x1 DUP2 DUP2 SHR SWAP1 DUP3 AND DUP1 PUSH3 0x29C JUMPI PUSH1 0x7F DUP3 AND SWAP2 POP JUMPDEST PUSH1 0x20 DUP3 LT DUP2 SUB PUSH3 0x2BB JUMPI PUSH4 0x4E487B71 PUSH1 0xE0 SHL PUSH0 MSTORE PUSH1 0x22 PUSH1 0x4 MSTORE PUSH1 0x24 PUSH0 REVERT JUMPDEST POP SWAP2 SWAP1 POP JUMP JUMPDEST PUSH1 0x1F DUP3 GT ISZERO PUSH3 0x30E JUMPI PUSH0 DUP2 DUP2 MSTORE PUSH1 0x20 DUP2 KECCAK256 PUSH1 0x1F DUP6 ADD PUSH1 0x5 SHR DUP2 ADD PUSH1 0x20 DUP7 LT ISZERO PUSH3 0x2E9 JUMPI POP DUP1 JUMPDEST PUSH1 0x1F DUP6 ADD PUSH1 0x5 SHR DUP3 ADD SWAP2 POP JUMPDEST DUP2 DUP2 LT ISZERO PUSH3 0x30A JUMPI DUP3 DUP2 SSTORE PUSH1 0x1 ADD PUSH3 0x2F5 JUMP JUMPDEST POP POP POP JUMPDEST POP POP POP JUMP JUMPDEST DUP2 MLOAD PUSH1 0x1 PUSH1 0x1 PUSH1 0x40 SHL SUB DUP2 GT ISZERO PUSH3 0x32F JUMPI PUSH3 0x32F PUSH3 0x11D JUMP JUMPDEST PUSH3 0x347 DUP2 PUSH3 0x340 DUP5 SLOAD PUSH3 0x287 JUMP JUMPDEST DUP5 PUSH3 0x2C1 JUMP JUMPDEST PUSH1 0x20 DUP1 PUSH1 0x1F DUP4 GT PUSH1 0x1 DUP2 EQ PUSH3 0x37D JUMPI PUSH0 DUP5 ISZERO PUSH3 0x365 JUMPI POP DUP6 DUP4 ADD MLOAD JUMPDEST PUSH0 NOT PUSH1 0x3 DUP7 SWAP1 SHL SHR NOT AND PUSH1 0x1 DUP6 SWAP1 SHL OR DUP6 SSTORE PUSH3 0x30A JUMP JUMPDEST PUSH0 DUP6 DUP2 MSTORE PUSH1 0x20 DUP2 KECCAK256 PUSH1 0x1F NOT DUP7 AND SWAP2 JUMPDEST DUP3 DUP2 LT ISZERO PUSH3 0x3AD JUMPI DUP9 DUP7 ADD MLOAD DUP3 SSTORE SWAP5 DUP5 ADD SWAP5 PUSH1 0x1 SWAP1 SWAP2 ADD SWAP1 DUP5 ADD PUSH3 0x38C JUMP JUMPDEST POP DUP6 DUP3 LT ISZERO PUSH3 0x3CB JUMPI DUP8 DUP6 ADD MLOAD PUSH0 NOT PUSH1 0x3 DUP9 SWAP1 SHL PUSH1 0xF8 AND SHR NOT AND DUP2 SSTORE JUMPDEST POP POP POP POP POP PUSH1 0x1 SWAP1 DUP2 SHL ADD SWAP1 SSTORE POP JUMP JUMPDEST PUSH2 0x2342 DUP1 PUSH3 0x3E9 PUSH0 CODECOPY PUSH0 RETURN INVALID PUSH1 0x80 PUSH1 0x40 MSTORE PUSH1 0x4 CALLDATASIZE LT PUSH2 0x146 JUMPI PUSH0 CALLDATALOAD PUSH1 0xE0 SHR DUP1 PUSH4 0x1FFC9A7 EQ PUSH2 0x14A JUMPI DUP1 PUSH4 0x6FDDE03 EQ PUSH2 0x17E JUMPI DUP1 PUSH4 0x81812FC EQ PUSH2 0x19F JUMPI DUP1 PUSH4 0x95EA7B3 EQ PUSH2 0x1CB JUMPI DUP1 PUSH4 0x162094C4 EQ PUSH2 0x1EC JUMPI DUP1 PUSH4 0x17F69222 EQ PUSH2 0x20B JUMPI DUP1 PUSH4 0x23B872DD EQ PUSH2 0x21E JUMPI DUP1 PUSH4 0x24C9CD4E EQ PUSH2 0x23D JUMPI DUP1 PUSH4 0x3D14A02B EQ PUSH2 0x25C JUMPI DUP1 PUSH4 0x40C10F19 EQ PUSH2 0x27B JUMPI DUP1 PUSH4 0x42842E0E EQ PUSH2 0x29A JUMPI DUP1 PUSH4 0x45714684 EQ PUSH2 0x2B9 JUMPI DUP1 PUSH4 0x55F804B3 EQ PUSH2 0x2D8 JUMPI DUP1 PUSH4 0x6352211E EQ PUSH2 0x2F7 JUMPI DUP1 PUSH4 0x6C0360EB EQ PUSH2 0x316 JUMPI DUP1 PUSH4 0x70A08231 EQ PUSH2 0x32A JUMPI DUP1 PUSH4 0x715018A6 EQ PUSH2 0x357 JUMPI DUP1 PUSH4 0x8DA5CB5B EQ PUSH2 0x36B JUMPI DUP1 PUSH4 0x95D89B41 EQ PUSH2 0x37F JUMPI DUP1 PUSH4 0xA22CB465 EQ PUSH2 0x393 JUMPI DUP1 PUSH4 0xB384ABEF EQ PUSH2 0x3B2 JUMPI DUP1 PUSH4 0xB88D4FDE EQ PUSH2 0x3D1 JUMPI DUP1 PUSH4 0xC87B56DD EQ PUSH2 0x3F0 JUMPI DUP1 PUSH4 0xD312998F EQ PUSH2 0x40F JUMPI DUP1 PUSH4 0xD8D7C169 EQ PUSH2 0x42E JUMPI DUP1 PUSH4 0xDED6338B EQ PUSH2 0x44D JUMPI DUP1 PUSH4 0xE985E9C5 EQ PUSH2 0x46C JUMPI DUP1 PUSH4 0xF2FDE38B EQ PUSH2 0x48B JUMPI JUMPDEST PUSH0 DUP1 REVERT JUMPDEST CALLVALUE DUP1 ISZERO PUSH2 0x155 JUMPI PUSH0 DUP1 REVERT JUMPDEST POP PUSH2 0x169 PUSH2 0x164 CALLDATASIZE PUSH1 0x4 PUSH2 0x1C15 JUMP JUMPDEST PUSH2 0x4AA JUMP JUMPDEST PUSH1 0x40 MLOAD SWAP1 ISZERO ISZERO DUP2 MSTORE PUSH1 0x20 ADD JUMPDEST PUSH1 0x40 MLOAD DUP1 SWAP2 SUB SWAP1 RETURN JUMPDEST CALLVALUE DUP1 ISZERO PUSH2 0x189 JUMPI PUSH0 DUP1 REVERT JUMPDEST POP PUSH2 0x192 PUSH2 0x4D4 JUMP JUMPDEST PUSH1 0x40 MLOAD PUSH2 0x175 SWAP2 SWAP1 PUSH2 0x1C7D JUMP JUMPDEST CALLVALUE DUP1 ISZERO PUSH2 0x1AA JUMPI PUSH0 DUP1 REVERT JUMPDEST POP PUSH2 0x1BE PUSH2 0x1B9 CALLDATASIZE PUSH1 0x4 PUSH2 0x1C8F JUMP JUMPDEST PUSH2 0x563 JUMP JUMPDEST PUSH1 0x40 MLOAD PUSH2 0x175 SWAP2 SWAP1 PUSH2 0x1CA6 JUMP JUMPDEST CALLVALUE DUP1 ISZERO PUSH2 0x1D6 JUMPI PUSH0 DUP1 REVERT JUMPDEST POP PUSH2 0x1EA PUSH2 0x1E5 CALLDATASIZE PUSH1 0x4 PUSH2 0x1CD5 JUMP JUMPDEST PUSH2 0x577 JUMP JUMPDEST STOP JUMPDEST CALLVALUE DUP1 ISZERO PUSH2 0x1F7 JUMPI PUSH0 DUP1 REVERT JUMPDEST POP PUSH2 0x1EA PUSH2 0x206 CALLDATASIZE PUSH1 0x4 PUSH2 0x1DB3 JUMP JUMPDEST PUSH2 0x586 JUMP JUMPDEST PUSH2 0x1EA PUSH2 0x219 CALLDATASIZE PUSH1 0x4 PUSH2 0x1DF6 JUMP JUMPDEST PUSH2 0x598 JUMP JUMPDEST CALLVALUE DUP1 ISZERO PUSH2 0x229 JUMPI PUSH0 DUP1 REVERT JUMPDEST POP PUSH2 0x1EA PUSH2 0x238 CALLDATASIZE PUSH1 0x4 PUSH2 0x1E26 JUMP JUMPDEST PUSH2 0x7F4 JUMP JUMPDEST CALLVALUE DUP1 ISZERO PUSH2 0x248 JUMPI PUSH0 DUP1 REVERT JUMPDEST POP PUSH2 0x1EA PUSH2 0x257 CALLDATASIZE PUSH1 0x4 PUSH2 0x1E5F JUMP JUMPDEST PUSH2 0x877 JUMP JUMPDEST CALLVALUE DUP1 ISZERO PUSH2 0x267 JUMPI PUSH0 DUP1 REVERT JUMPDEST POP PUSH2 0x1EA PUSH2 0x276 CALLDATASIZE PUSH1 0x4 PUSH2 0x1CD5 JUMP JUMPDEST PUSH2 0x96E JUMP JUMPDEST CALLVALUE DUP1 ISZERO PUSH2 0x286 JUMPI PUSH0 DUP1 REVERT JUMPDEST POP PUSH2 0x1EA PUSH2 0x295 CALLDATASIZE PUSH1 0x4 PUSH2 0x1CD5 JUMP JUMPDEST PUSH2 0xAD0 JUMP JUMPDEST CALLVALUE DUP1 ISZERO PUSH2 0x2A5 JUMPI PUSH0 DUP1 REVERT JUMPDEST POP PUSH2 0x1EA PUSH2 0x2B4 CALLDATASIZE PUSH1 0x4 PUSH2 0x1E26 JUMP JUMPDEST PUSH2 0xAE2 JUMP JUMPDEST CALLVALUE DUP1 ISZERO PUSH2 0x2C4 JUMPI PUSH0 DUP1 REVERT JUMPDEST POP PUSH2 0x1EA PUSH2 0x2D3 CALLDATASIZE PUSH1 0x4 PUSH2 0x1C8F JUMP JUMPDEST PUSH2 0xB01 JUMP JUMPDEST CALLVALUE DUP1 ISZERO PUSH2 0x2E3 JUMPI PUSH0 DUP1 REVERT JUMPDEST POP PUSH2 0x1EA PUSH2 0x2F2 CALLDATASIZE PUSH1 0x4 PUSH2 0x1E7F JUMP JUMPDEST PUSH2 0xB9E JUMP JUMPDEST CALLVALUE DUP1 ISZERO PUSH2 0x302 JUMPI PUSH0 DUP1 REVERT JUMPDEST POP PUSH2 0x1BE PUSH2 0x311 CALLDATASIZE PUSH1 0x4 PUSH2 0x1C8F JUMP JUMPDEST PUSH2 0xBB2 JUMP JUMPDEST CALLVALUE DUP1 ISZERO PUSH2 0x321 JUMPI PUSH0 DUP1 REVERT JUMPDEST POP PUSH2 0x192 PUSH2 0xBBC JUMP JUMPDEST CALLVALUE DUP1 ISZERO PUSH2 0x335 JUMPI PUSH0 DUP1 REVERT JUMPDEST POP PUSH2 0x349 PUSH2 0x344 CALLDATASIZE PUSH1 0x4 PUSH2 0x1EB0 JUMP JUMPDEST PUSH2 0xC48 JUMP JUMPDEST PUSH1 0x40 MLOAD SWAP1 DUP2 MSTORE PUSH1 0x20 ADD PUSH2 0x175 JUMP JUMPDEST CALLVALUE DUP1 ISZERO PUSH2 0x362 JUMPI PUSH0 DUP1 REVERT JUMPDEST POP PUSH2 0x1EA PUSH2 0xC8D JUMP JUMPDEST CALLVALUE DUP1 ISZERO PUSH2 0x376 JUMPI PUSH0 DUP1 REVERT JUMPDEST POP PUSH2 0x1BE PUSH2 0xCA0 JUMP JUMPDEST CALLVALUE DUP1 ISZERO PUSH2 0x38A JUMPI PUSH0 DUP1 REVERT JUMPDEST POP PUSH2 0x192 PUSH2 0xCAF JUMP JUMPDEST CALLVALUE DUP1 ISZERO PUSH2 0x39E JUMPI PUSH0 DUP1 REVERT JUMPDEST POP PUSH2 0x1EA PUSH2 0x3AD CALLDATASIZE PUSH1 0x4 PUSH2 0x1EC9 JUMP JUMPDEST PUSH2 0xCBE JUMP JUMPDEST CALLVALUE DUP1 ISZERO PUSH2 0x3BD JUMPI PUSH0 DUP1 REVERT JUMPDEST POP PUSH2 0x1EA PUSH2 0x3CC CALLDATASIZE PUSH1 0x4 PUSH2 0x1E5F JUMP JUMPDEST PUSH2 0xCC9 JUMP JUMPDEST CALLVALUE DUP1 ISZERO PUSH2 0x3DC JUMPI PUSH0 DUP1 REVERT JUMPDEST POP PUSH2 0x1EA PUSH2 0x3EB CALLDATASIZE PUSH1 0x4 PUSH2 0x1F02 JUMP JUMPDEST PUSH2 0xD70 JUMP JUMPDEST CALLVALUE DUP1 ISZERO PUSH2 0x3FB JUMPI PUSH0 DUP1 REVERT JUMPDEST POP PUSH2 0x192 PUSH2 0x40A CALLDATASIZE PUSH1 0x4 PUSH2 0x1C8F JUMP JUMPDEST PUSH2 0xD87 JUMP JUMPDEST CALLVALUE DUP1 ISZERO PUSH2 0x41A JUMPI PUSH0 DUP1 REVERT JUMPDEST POP PUSH2 0x1EA PUSH2 0x429 CALLDATASIZE PUSH1 0x4 PUSH2 0x1EB0 JUMP JUMPDEST PUSH2 0xE86 JUMP JUMPDEST CALLVALUE DUP1 ISZERO PUSH2 0x439 JUMPI PUSH0 DUP1 REVERT JUMPDEST POP PUSH2 0x1EA PUSH2 0x448 CALLDATASIZE PUSH1 0x4 PUSH2 0x1C8F JUMP JUMPDEST PUSH2 0xF3D JUMP JUMPDEST CALLVALUE DUP1 ISZERO PUSH2 0x458 JUMPI PUSH0 DUP1 REVERT JUMPDEST POP PUSH2 0x349 PUSH2 0x467 CALLDATASIZE PUSH1 0x4 PUSH2 0x1CD5 JUMP JUMPDEST PUSH2 0x118B JUMP JUMPDEST CALLVALUE DUP1 ISZERO PUSH2 0x477 JUMPI PUSH0 DUP1 REVERT JUMPDEST POP PUSH2 0x169 PUSH2 0x486 CALLDATASIZE PUSH1 0x4 PUSH2 0x1F78 JUMP JUMPDEST PUSH2 0x134F JUMP JUMPDEST CALLVALUE DUP1 ISZERO PUSH2 0x496 JUMPI PUSH0 DUP1 REVERT JUMPDEST POP PUSH2 0x1EA PUSH2 0x4A5 CALLDATASIZE PUSH1 0x4 PUSH2 0x1EB0 JUMP JUMPDEST PUSH2 0x137C JUMP JUMPDEST PUSH0 PUSH1 0x1 PUSH1 0x1 PUSH1 0xE0 SHL SUB NOT DUP3 AND PUSH4 0x24832483 PUSH1 0xE1 SHL EQ DUP1 PUSH2 0x4CE JUMPI POP PUSH2 0x4CE DUP3 PUSH2 0x13B9 JUMP JUMPDEST SWAP3 SWAP2 POP POP JUMP JUMPDEST PUSH1 0x60 PUSH0 DUP1 SLOAD PUSH2 0x4E2 SWAP1 PUSH2 0x1FA9 JUMP JUMPDEST DUP1 PUSH1 0x1F ADD PUSH1 0x20 DUP1 SWAP2 DIV MUL PUSH1 0x20 ADD PUSH1 0x40 MLOAD SWAP1 DUP2 ADD PUSH1 0x40 MSTORE DUP1 SWAP3 SWAP2 SWAP1 DUP2 DUP2 MSTORE PUSH1 0x20 ADD DUP3 DUP1 SLOAD PUSH2 0x50E SWAP1 PUSH2 0x1FA9 JUMP JUMPDEST DUP1 ISZERO PUSH2 0x559 JUMPI DUP1 PUSH1 0x1F LT PUSH2 0x530 JUMPI PUSH2 0x100 DUP1 DUP4 SLOAD DIV MUL DUP4 MSTORE SWAP2 PUSH1 0x20 ADD SWAP2 PUSH2 0x559 JUMP JUMPDEST DUP3 ADD SWAP2 SWAP1 PUSH0 MSTORE PUSH1 0x20 PUSH0 KECCAK256 SWAP1 JUMPDEST DUP2 SLOAD DUP2 MSTORE SWAP1 PUSH1 0x1 ADD SWAP1 PUSH1 0x20 ADD DUP1 DUP4 GT PUSH2 0x53C JUMPI DUP3 SWAP1 SUB PUSH1 0x1F AND DUP3 ADD SWAP2 JUMPDEST POP POP POP POP POP SWAP1 POP SWAP1 JUMP JUMPDEST PUSH0 PUSH2 0x56D DUP3 PUSH2 0x1408 JUMP JUMPDEST POP PUSH2 0x4CE DUP3 PUSH2 0x143F JUMP JUMPDEST PUSH2 0x582 DUP3 DUP3 CALLER PUSH2 0x1459 JUMP JUMPDEST POP POP JUMP JUMPDEST PUSH2 0x58E PUSH2 0x1466 JUMP JUMPDEST PUSH2 0x582 DUP3 DUP3 PUSH2 0x1498 JUMP JUMPDEST PUSH2 0x5A1 DUP3 PUSH2 0x14E7 JUMP JUMPDEST PUSH2 0x5C6 JUMPI PUSH1 0x40 MLOAD PUSH3 0x461BCD PUSH1 0xE5 SHL DUP2 MSTORE PUSH1 0x4 ADD PUSH2 0x5BD SWAP1 PUSH2 0x1FE1 JUMP JUMPDEST PUSH1 0x40 MLOAD DUP1 SWAP2 SUB SWAP1 REVERT JUMPDEST PUSH0 DUP3 DUP2 MSTORE PUSH1 0xC PUSH1 0x20 MSTORE PUSH1 0x40 SWAP1 KECCAK256 PUSH1 0x2 ADD SLOAD PUSH1 0xFF AND PUSH2 0x63F JUMPI PUSH1 0x40 MLOAD PUSH3 0x461BCD PUSH1 0xE5 SHL DUP2 MSTORE PUSH1 0x20 PUSH1 0x4 DUP3 ADD MSTORE PUSH1 0x30 PUSH1 0x24 DUP3 ADD MSTORE PUSH32 0x46756E6452616973696E673A206173736574206973206E6F74206C6F636B6564 PUSH1 0x44 DUP3 ADD MSTORE PUSH16 0x20666F722066756E6472616973696E67 PUSH1 0x80 SHL PUSH1 0x64 DUP3 ADD MSTORE PUSH1 0x84 ADD PUSH2 0x5BD JUMP JUMPDEST PUSH0 DUP3 DUP2 MSTORE PUSH1 0xC PUSH1 0x20 MSTORE PUSH1 0x40 SWAP1 KECCAK256 DUP1 SLOAD PUSH1 0x1 SWAP1 SWAP2 ADD SLOAD PUSH2 0x65F SWAP1 DUP4 SWAP1 PUSH2 0x2036 JUMP JUMPDEST GT ISZERO PUSH2 0x6BE JUMPI PUSH1 0x40 MLOAD PUSH3 0x461BCD PUSH1 0xE5 SHL DUP2 MSTORE PUSH1 0x20 PUSH1 0x4 DUP3 ADD MSTORE PUSH1 0x28 PUSH1 0x24 DUP3 ADD MSTORE PUSH32 0x46756E6452616973696E673A206E6F7420656E6F756768207368617265732061 PUSH1 0x44 DUP3 ADD MSTORE PUSH8 0x7661696C61626C65 PUSH1 0xC0 SHL PUSH1 0x64 DUP3 ADD MSTORE PUSH1 0x84 ADD PUSH2 0x5BD JUMP JUMPDEST PUSH0 DUP3 DUP2 MSTORE PUSH1 0xC PUSH1 0x20 MSTORE PUSH1 0x40 DUP2 KECCAK256 PUSH1 0x1 ADD DUP1 SLOAD DUP4 SWAP3 SWAP1 PUSH2 0x6DE SWAP1 DUP5 SWAP1 PUSH2 0x2036 JUMP JUMPDEST SWAP1 SWAP2 SSTORE POP POP PUSH0 DUP3 DUP2 MSTORE PUSH1 0xC PUSH1 0x20 MSTORE PUSH1 0x40 SWAP1 KECCAK256 DUP1 SLOAD PUSH1 0x1 SWAP1 SWAP2 ADD SLOAD SUB PUSH2 0x719 JUMPI PUSH0 DUP3 DUP2 MSTORE PUSH1 0xC PUSH1 0x20 MSTORE PUSH1 0x40 SWAP1 KECCAK256 PUSH1 0x2 ADD DUP1 SLOAD PUSH1 0xFF NOT AND PUSH1 0x1 OR SWAP1 SSTORE JUMPDEST PUSH1 0x40 DUP1 MLOAD PUSH1 0x80 DUP2 ADD DUP3 MSTORE PUSH1 0x1 PUSH1 0x1 PUSH1 0xA0 SHL SUB DUP6 DUP2 AND DUP3 MSTORE PUSH1 0x20 DUP1 DUP4 ADD DUP7 DUP2 MSTORE PUSH1 0x9 DUP1 SLOAD DUP6 DUP8 ADD DUP2 DUP2 MSTORE PUSH1 0x60 DUP8 ADD DUP10 DUP2 MSTORE PUSH0 DUP12 DUP2 MSTORE PUSH1 0xF DUP8 MSTORE DUP10 DUP2 KECCAK256 SWAP4 DUP2 MSTORE SWAP3 SWAP1 SWAP6 MSTORE SWAP1 DUP8 SWAP1 KECCAK256 SWAP6 MLOAD DUP7 SLOAD PUSH1 0x1 PUSH1 0x1 PUSH1 0xA0 SHL SUB NOT AND SWAP1 DUP7 AND OR DUP7 SSTORE SWAP2 MLOAD PUSH1 0x1 DUP7 ADD SSTORE SWAP1 MLOAD PUSH1 0x2 DUP6 ADD SSTORE SWAP1 MLOAD PUSH1 0x3 SWAP1 SWAP4 ADD SWAP3 SWAP1 SWAP3 SSTORE PUSH1 0xA SLOAD SWAP2 SLOAD SWAP3 MLOAD PUSH4 0xA29F6977 PUSH1 0xE0 SHL DUP2 MSTORE PUSH1 0x4 DUP2 ADD DUP7 SWAP1 MSTORE PUSH1 0x24 DUP2 ADD SWAP4 SWAP1 SWAP4 MSTORE AND SWAP1 PUSH4 0xA29F6977 SWAP1 PUSH1 0x44 ADD PUSH0 PUSH1 0x40 MLOAD DUP1 DUP4 SUB DUP2 PUSH0 DUP8 DUP1 EXTCODESIZE ISZERO DUP1 ISZERO PUSH2 0x7CE JUMPI PUSH0 DUP1 REVERT JUMPDEST POP GAS CALL ISZERO DUP1 ISZERO PUSH2 0x7E0 JUMPI RETURNDATASIZE PUSH0 DUP1 RETURNDATACOPY RETURNDATASIZE PUSH0 REVERT JUMPDEST POP POP POP POP PUSH2 0x7EE DUP4 DUP4 PUSH2 0x118B JUMP JUMPDEST POP POP POP POP JUMP JUMPDEST PUSH1 0x1 PUSH1 0x1 PUSH1 0xA0 SHL SUB DUP3 AND PUSH2 0x81D JUMPI PUSH0 PUSH1 0x40 MLOAD PUSH4 0x32505749 PUSH1 0xE1 SHL DUP2 MSTORE PUSH1 0x4 ADD PUSH2 0x5BD SWAP2 SWAP1 PUSH2 0x1CA6 JUMP JUMPDEST PUSH0 PUSH2 0x829 DUP4 DUP4 CALLER PUSH2 0x1503 JUMP JUMPDEST SWAP1 POP DUP4 PUSH1 0x1 PUSH1 0x1 PUSH1 0xA0 SHL SUB AND DUP2 PUSH1 0x1 PUSH1 0x1 PUSH1 0xA0 SHL SUB AND EQ PUSH2 0x7EE JUMPI PUSH1 0x40 MLOAD PUSH4 0x64283D7B PUSH1 0xE0 SHL DUP2 MSTORE PUSH1 0x1 PUSH1 0x1 PUSH1 0xA0 SHL SUB DUP1 DUP7 AND PUSH1 0x4 DUP4 ADD MSTORE PUSH1 0x24 DUP3 ADD DUP5 SWAP1 MSTORE DUP3 AND PUSH1 0x44 DUP3 ADD MSTORE PUSH1 0x64 ADD PUSH2 0x5BD JUMP JUMPDEST PUSH2 0x87F PUSH2 0x1466 JUMP JUMPDEST PUSH2 0x888 DUP3 PUSH2 0x14E7 JUMP JUMPDEST PUSH2 0x8A4 JUMPI PUSH1 0x40 MLOAD PUSH3 0x461BCD PUSH1 0xE5 SHL DUP2 MSTORE PUSH1 0x4 ADD PUSH2 0x5BD SWAP1 PUSH2 0x1FE1 JUMP JUMPDEST PUSH0 DUP3 DUP2 MSTORE PUSH1 0xC PUSH1 0x20 MSTORE PUSH1 0x40 SWAP1 KECCAK256 PUSH1 0x2 ADD SLOAD PUSH1 0xFF AND ISZERO PUSH2 0x922 JUMPI PUSH1 0x40 MLOAD PUSH3 0x461BCD PUSH1 0xE5 SHL DUP2 MSTORE PUSH1 0x20 PUSH1 0x4 DUP3 ADD MSTORE PUSH1 0x34 PUSH1 0x24 DUP3 ADD MSTORE PUSH32 0x46756E6452616973696E673A20617373657420697320616C7265616479206C6F PUSH1 0x44 DUP3 ADD MSTORE PUSH20 0x636B656420666F722066756E6472616973696E67 PUSH1 0x60 SHL PUSH1 0x64 DUP3 ADD MSTORE PUSH1 0x84 ADD PUSH2 0x5BD JUMP JUMPDEST PUSH1 0x40 DUP1 MLOAD PUSH1 0x60 DUP2 ADD DUP3 MSTORE SWAP2 DUP3 MSTORE PUSH0 PUSH1 0x20 DUP1 DUP5 ADD DUP3 DUP2 MSTORE PUSH1 0x1 DUP6 DUP6 ADD DUP2 DUP2 MSTORE SWAP7 DUP5 MSTORE PUSH1 0xC SWAP1 SWAP3 MSTORE SWAP3 SWAP1 SWAP2 KECCAK256 SWAP3 MLOAD DUP4 SSTORE SWAP1 MLOAD SWAP1 DUP3 ADD SSTORE SWAP1 MLOAD PUSH1 0x2 SWAP1 SWAP2 ADD DUP1 SLOAD PUSH1 0xFF NOT AND SWAP2 ISZERO ISZERO SWAP2 SWAP1 SWAP2 OR SWAP1 SSTORE JUMP JUMPDEST PUSH0 DUP2 DUP2 MSTORE PUSH1 0xD PUSH1 0x20 MSTORE PUSH1 0x40 SWAP1 KECCAK256 SLOAD PUSH1 0x1 PUSH1 0x1 PUSH1 0xA0 SHL SUB AND CALLER EQ PUSH2 0x9E7 JUMPI PUSH1 0x40 MLOAD PUSH3 0x461BCD PUSH1 0xE5 SHL DUP2 MSTORE PUSH1 0x20 PUSH1 0x4 DUP3 ADD MSTORE PUSH1 0x2B PUSH1 0x24 DUP3 ADD MSTORE PUSH32 0x46756E6452616973696E673A6F6E6C79206F776E65722063616E20696E697469 PUSH1 0x44 DUP3 ADD MSTORE PUSH11 0x6174652073656C6C696E67 PUSH1 0xA8 SHL PUSH1 0x64 DUP3 ADD MSTORE PUSH1 0x84 ADD PUSH2 0x5BD JUMP JUMPDEST PUSH2 0x9F0 DUP2 PUSH2 0x14E7 JUMP JUMPDEST PUSH2 0xA0C JUMPI PUSH1 0x40 MLOAD PUSH3 0x461BCD PUSH1 0xE5 SHL DUP2 MSTORE PUSH1 0x4 ADD PUSH2 0x5BD SWAP1 PUSH2 0x2049 JUMP JUMPDEST PUSH0 DUP2 DUP2 MSTORE PUSH1 0xE PUSH1 0x20 MSTORE PUSH1 0x40 SWAP1 KECCAK256 SLOAD PUSH1 0xFF AND ISZERO PUSH2 0xA68 JUMPI PUSH1 0x40 MLOAD PUSH3 0x461BCD PUSH1 0xE5 SHL DUP2 MSTORE PUSH1 0x20 PUSH1 0x4 DUP3 ADD MSTORE PUSH1 0x1B PUSH1 0x24 DUP3 ADD MSTORE PUSH27 0x233AB7322930B4B9B4B7339D102B37BA34B7339034B99037B832B7 PUSH1 0x29 SHL PUSH1 0x44 DUP3 ADD MSTORE PUSH1 0x64 ADD PUSH2 0x5BD JUMP JUMPDEST PUSH0 DUP2 DUP2 MSTORE PUSH1 0x10 PUSH1 0x20 MSTORE PUSH1 0x40 SWAP1 KECCAK256 SLOAD PUSH1 0xFF AND PUSH2 0xAC5 JUMPI PUSH1 0x40 MLOAD PUSH3 0x461BCD PUSH1 0xE5 SHL DUP2 MSTORE PUSH1 0x20 PUSH1 0x4 DUP3 ADD MSTORE PUSH1 0x1D PUSH1 0x24 DUP3 ADD MSTORE PUSH32 0x46756E6452616973696E673A2053616C65206973206E6F74206F70656E000000 PUSH1 0x44 DUP3 ADD MSTORE PUSH1 0x64 ADD PUSH2 0x5BD JUMP JUMPDEST PUSH2 0x582 CALLER DUP4 DUP4 PUSH2 0xAE2 JUMP JUMPDEST PUSH2 0xAD8 PUSH2 0x1466 JUMP JUMPDEST PUSH2 0x582 DUP3 DUP3 PUSH2 0x15F0 JUMP JUMPDEST PUSH2 0xAFC DUP4 DUP4 DUP4 PUSH1 0x40 MLOAD DUP1 PUSH1 0x20 ADD PUSH1 0x40 MSTORE DUP1 PUSH0 DUP2 MSTORE POP PUSH2 0xD70 JUMP JUMPDEST POP POP POP JUMP JUMPDEST PUSH2 0xB0A DUP2 PUSH2 0x14E7 JUMP JUMPDEST PUSH2 0xB26 JUMPI PUSH1 0x40 MLOAD PUSH3 0x461BCD PUSH1 0xE5 SHL DUP2 MSTORE PUSH1 0x4 ADD PUSH2 0x5BD SWAP1 PUSH2 0x2080 JUMP JUMPDEST PUSH0 DUP2 DUP2 MSTORE PUSH1 0xE PUSH1 0x20 MSTORE PUSH1 0x40 SWAP1 KECCAK256 SLOAD PUSH1 0xFF AND ISZERO PUSH2 0xB84 JUMPI PUSH1 0x40 MLOAD PUSH3 0x461BCD PUSH1 0xE5 SHL DUP2 MSTORE PUSH1 0x20 PUSH1 0x4 DUP3 ADD MSTORE PUSH1 0x1F PUSH1 0x24 DUP3 ADD MSTORE PUSH32 0x46756E6452616973696E673A566F74696E6720616C7265616479206F70656E00 PUSH1 0x44 DUP3 ADD MSTORE PUSH1 0x64 ADD PUSH2 0x5BD JUMP JUMPDEST PUSH0 SWAP1 DUP2 MSTORE PUSH1 0xE PUSH1 0x20 MSTORE PUSH1 0x40 SWAP1 KECCAK256 DUP1 SLOAD PUSH1 0xFF NOT AND PUSH1 0x1 OR SWAP1 SSTORE JUMP JUMPDEST PUSH2 0xBA6 PUSH2 0x1466 JUMP JUMPDEST PUSH1 0x8 PUSH2 0x582 DUP3 DUP3 PUSH2 0x2100 JUMP JUMPDEST PUSH0 PUSH2 0x4CE DUP3 PUSH2 0x1408 JUMP JUMPDEST PUSH1 0x8 DUP1 SLOAD PUSH2 0xBC9 SWAP1 PUSH2 0x1FA9 JUMP JUMPDEST DUP1 PUSH1 0x1F ADD PUSH1 0x20 DUP1 SWAP2 DIV MUL PUSH1 0x20 ADD PUSH1 0x40 MLOAD SWAP1 DUP2 ADD PUSH1 0x40 MSTORE DUP1 SWAP3 SWAP2 SWAP1 DUP2 DUP2 MSTORE PUSH1 0x20 ADD DUP3 DUP1 SLOAD PUSH2 0xBF5 SWAP1 PUSH2 0x1FA9 JUMP JUMPDEST DUP1 ISZERO PUSH2 0xC40 JUMPI DUP1 PUSH1 0x1F LT PUSH2 0xC17 JUMPI PUSH2 0x100 DUP1 DUP4 SLOAD DIV MUL DUP4 MSTORE SWAP2 PUSH1 0x20 ADD SWAP2 PUSH2 0xC40 JUMP JUMPDEST DUP3 ADD SWAP2 SWAP1 PUSH0 MSTORE PUSH1 0x20 PUSH0 KECCAK256 SWAP1 JUMPDEST DUP2 SLOAD DUP2 MSTORE SWAP1 PUSH1 0x1 ADD SWAP1 PUSH1 0x20 ADD DUP1 DUP4 GT PUSH2 0xC23 JUMPI DUP3 SWAP1 SUB PUSH1 0x1F AND DUP3 ADD SWAP2 JUMPDEST POP POP POP POP POP DUP2 JUMP JUMPDEST PUSH0 PUSH1 0x1 PUSH1 0x1 PUSH1 0xA0 SHL SUB DUP3 AND PUSH2 0xC72 JUMPI PUSH0 PUSH1 0x40 MLOAD PUSH4 0x22718AD9 PUSH1 0xE2 SHL DUP2 MSTORE PUSH1 0x4 ADD PUSH2 0x5BD SWAP2 SWAP1 PUSH2 0x1CA6 JUMP JUMPDEST POP PUSH1 0x1 PUSH1 0x1 PUSH1 0xA0 SHL SUB AND PUSH0 SWAP1 DUP2 MSTORE PUSH1 0x3 PUSH1 0x20 MSTORE PUSH1 0x40 SWAP1 KECCAK256 SLOAD SWAP1 JUMP JUMPDEST PUSH2 0xC95 PUSH2 0x1466 JUMP JUMPDEST PUSH2 0xC9E PUSH0 PUSH2 0x1651 JUMP JUMPDEST JUMP JUMPDEST PUSH1 0x7 SLOAD PUSH1 0x1 PUSH1 0x1 PUSH1 0xA0 SHL SUB AND SWAP1 JUMP JUMPDEST PUSH1 0x60 PUSH1 0x1 DUP1 SLOAD PUSH2 0x4E2 SWAP1 PUSH2 0x1FA9 JUMP JUMPDEST PUSH2 0x582 CALLER DUP4 DUP4 PUSH2 0x16A2 JUMP JUMPDEST PUSH2 0xCD2 DUP3 PUSH2 0x14E7 JUMP JUMPDEST PUSH2 0xCEE JUMPI PUSH1 0x40 MLOAD PUSH3 0x461BCD PUSH1 0xE5 SHL DUP2 MSTORE PUSH1 0x4 ADD PUSH2 0x5BD SWAP1 PUSH2 0x2080 JUMP JUMPDEST PUSH0 DUP3 DUP2 MSTORE PUSH1 0xE PUSH1 0x20 MSTORE PUSH1 0x40 SWAP1 KECCAK256 SLOAD PUSH1 0xFF AND PUSH2 0xD4B JUMPI PUSH1 0x40 MLOAD PUSH3 0x461BCD PUSH1 0xE5 SHL DUP2 MSTORE PUSH1 0x20 PUSH1 0x4 DUP3 ADD MSTORE PUSH1 0x1E PUSH1 0x24 DUP3 ADD MSTORE PUSH32 0x46756E6452616973696E673A566F74696E67206973206E6F74206F70656E0000 PUSH1 0x44 DUP3 ADD MSTORE PUSH1 0x64 ADD PUSH2 0x5BD JUMP JUMPDEST PUSH0 SWAP2 DUP3 MSTORE PUSH1 0xB PUSH1 0x20 SWAP1 DUP2 MSTORE PUSH1 0x40 DUP1 DUP5 KECCAK256 SWAP3 DUP5 MSTORE SWAP2 SWAP1 MSTORE SWAP1 KECCAK256 DUP1 SLOAD PUSH1 0xFF NOT AND PUSH1 0x1 OR SWAP1 SSTORE JUMP JUMPDEST PUSH2 0xD7B DUP5 DUP5 DUP5 PUSH2 0x7F4 JUMP JUMPDEST PUSH2 0x7EE DUP5 DUP5 DUP5 DUP5 PUSH2 0x1737 JUMP JUMPDEST PUSH1 0x60 PUSH2 0xD92 DUP3 PUSH2 0x1408 JUMP JUMPDEST POP PUSH0 DUP3 DUP2 MSTORE PUSH1 0x6 PUSH1 0x20 MSTORE PUSH1 0x40 DUP2 KECCAK256 DUP1 SLOAD PUSH2 0xDAB SWAP1 PUSH2 0x1FA9 JUMP JUMPDEST DUP1 PUSH1 0x1F ADD PUSH1 0x20 DUP1 SWAP2 DIV MUL PUSH1 0x20 ADD PUSH1 0x40 MLOAD SWAP1 DUP2 ADD PUSH1 0x40 MSTORE DUP1 SWAP3 SWAP2 SWAP1 DUP2 DUP2 MSTORE PUSH1 0x20 ADD DUP3 DUP1 SLOAD PUSH2 0xDD7 SWAP1 PUSH2 0x1FA9 JUMP JUMPDEST DUP1 ISZERO PUSH2 0xE22 JUMPI DUP1 PUSH1 0x1F LT PUSH2 0xDF9 JUMPI PUSH2 0x100 DUP1 DUP4 SLOAD DIV MUL DUP4 MSTORE SWAP2 PUSH1 0x20 ADD SWAP2 PUSH2 0xE22 JUMP JUMPDEST DUP3 ADD SWAP2 SWAP1 PUSH0 MSTORE PUSH1 0x20 PUSH0 KECCAK256 SWAP1 JUMPDEST DUP2 SLOAD DUP2 MSTORE SWAP1 PUSH1 0x1 ADD SWAP1 PUSH1 0x20 ADD DUP1 DUP4 GT PUSH2 0xE05 JUMPI DUP3 SWAP1 SUB PUSH1 0x1F AND DUP3 ADD SWAP2 JUMPDEST POP POP POP POP POP SWAP1 POP PUSH0 PUSH2 0xE32 PUSH2 0x184B JUMP JUMPDEST SWAP1 POP DUP1 MLOAD PUSH0 SUB PUSH2 0xE43 JUMPI POP SWAP3 SWAP2 POP POP JUMP JUMPDEST DUP2 MLOAD ISZERO PUSH2 0xE75 JUMPI DUP1 DUP3 PUSH1 0x40 MLOAD PUSH1 0x20 ADD PUSH2 0xE5D SWAP3 SWAP2 SWAP1 PUSH2 0x21BB JUMP JUMPDEST PUSH1 0x40 MLOAD PUSH1 0x20 DUP2 DUP4 SUB SUB DUP2 MSTORE SWAP1 PUSH1 0x40 MSTORE SWAP3 POP POP POP SWAP2 SWAP1 POP JUMP JUMPDEST PUSH2 0xE7E DUP5 PUSH2 0x185A JUMP JUMPDEST SWAP5 SWAP4 POP POP POP POP JUMP JUMPDEST PUSH1 0x1 PUSH1 0x1 PUSH1 0xA0 SHL SUB DUP2 AND PUSH2 0xEDC JUMPI PUSH1 0x40 MLOAD PUSH3 0x461BCD PUSH1 0xE5 SHL DUP2 MSTORE PUSH1 0x20 PUSH1 0x4 DUP3 ADD MSTORE PUSH1 0x1D PUSH1 0x24 DUP3 ADD MSTORE PUSH32 0x496E7665736F74723A206E6F7420612076616C69642061646472657373000000 PUSH1 0x44 DUP3 ADD MSTORE PUSH1 0x64 ADD PUSH2 0x5BD JUMP JUMPDEST PUSH2 0xEE8 DUP2 PUSH1 0x9 SLOAD PUSH2 0x15F0 JUMP JUMPDEST PUSH1 0x9 DUP1 SLOAD PUSH0 SWAP1 DUP2 MSTORE PUSH1 0xE PUSH1 0x20 SWAP1 DUP2 MSTORE PUSH1 0x40 DUP1 DUP4 KECCAK256 DUP1 SLOAD PUSH1 0xFF NOT AND SWAP1 SSTORE DUP4 SLOAD DUP4 MSTORE PUSH1 0xD SWAP1 SWAP2 MSTORE DUP2 KECCAK256 DUP1 SLOAD PUSH1 0x1 PUSH1 0x1 PUSH1 0xA0 SHL SUB NOT AND PUSH1 0x1 PUSH1 0x1 PUSH1 0xA0 SHL SUB DUP6 AND OR SWAP1 SSTORE DUP2 SLOAD SWAP2 SWAP1 PUSH2 0xF35 DUP4 PUSH2 0x21E9 JUMP JUMPDEST SWAP2 SWAP1 POP SSTORE POP POP JUMP JUMPDEST PUSH2 0xF45 PUSH2 0x1466 JUMP JUMPDEST PUSH2 0xF4E DUP2 PUSH2 0x14E7 JUMP JUMPDEST PUSH2 0xF6A JUMPI PUSH1 0x40 MLOAD PUSH3 0x461BCD PUSH1 0xE5 SHL DUP2 MSTORE PUSH1 0x4 ADD PUSH2 0x5BD SWAP1 PUSH2 0x2049 JUMP JUMPDEST PUSH0 DUP2 DUP2 MSTORE PUSH1 0xE PUSH1 0x20 MSTORE PUSH1 0x40 SWAP1 KECCAK256 SLOAD PUSH1 0xFF AND PUSH2 0xFC7 JUMPI PUSH1 0x40 MLOAD PUSH3 0x461BCD PUSH1 0xE5 SHL DUP2 MSTORE PUSH1 0x20 PUSH1 0x4 DUP3 ADD MSTORE PUSH1 0x1F PUSH1 0x24 DUP3 ADD MSTORE PUSH32 0x46756E6452616973696E673A20566F74696E67206973206E6F74206F70656E00 PUSH1 0x44 DUP3 ADD MSTORE PUSH1 0x64 ADD PUSH2 0x5BD JUMP JUMPDEST PUSH0 DUP2 DUP2 MSTORE PUSH1 0xC PUSH1 0x20 MSTORE PUSH1 0x40 DUP1 DUP3 KECCAK256 PUSH1 0x1 ADD SLOAD PUSH1 0xA SLOAD SWAP2 MLOAD PUSH4 0xAB35EC63 PUSH1 0xE0 SHL DUP2 MSTORE PUSH1 0x4 DUP2 ADD DUP6 SWAP1 MSTORE SWAP1 SWAP3 SWAP2 PUSH1 0x1 PUSH1 0x1 PUSH1 0xA0 SHL SUB AND SWAP1 PUSH4 0xAB35EC63 SWAP1 PUSH1 0x24 ADD PUSH0 PUSH1 0x40 MLOAD DUP1 DUP4 SUB DUP2 DUP7 GAS STATICCALL ISZERO DUP1 ISZERO PUSH2 0x101F JUMPI RETURNDATASIZE PUSH0 DUP1 RETURNDATACOPY RETURNDATASIZE PUSH0 REVERT JUMPDEST POP POP POP POP PUSH1 0x40 MLOAD RETURNDATASIZE PUSH0 DUP3 RETURNDATACOPY PUSH1 0x1F RETURNDATASIZE SWAP1 DUP2 ADD PUSH1 0x1F NOT AND DUP3 ADD PUSH1 0x40 MSTORE PUSH2 0x1046 SWAP2 SWAP1 DUP2 ADD SWAP1 PUSH2 0x2201 JUMP JUMPDEST SWAP1 POP PUSH0 JUMPDEST DUP3 DUP2 LT ISZERO PUSH2 0x10FF JUMPI PUSH0 DUP3 DUP3 DUP2 MLOAD DUP2 LT PUSH2 0x1065 JUMPI PUSH2 0x1065 PUSH2 0x22A1 JUMP JUMPDEST PUSH1 0x20 SWAP1 DUP2 MUL SWAP2 SWAP1 SWAP2 ADD DUP2 ADD MLOAD PUSH0 DUP8 DUP2 MSTORE PUSH1 0xB DUP4 MSTORE PUSH1 0x40 DUP1 DUP3 KECCAK256 DUP4 DUP4 MSTORE SWAP1 SWAP4 MSTORE SWAP2 SWAP1 SWAP2 KECCAK256 SLOAD SWAP1 SWAP2 POP PUSH1 0xFF AND PUSH2 0x10EC JUMPI PUSH1 0x40 MLOAD PUSH3 0x461BCD PUSH1 0xE5 SHL DUP2 MSTORE PUSH1 0x20 PUSH1 0x4 DUP3 ADD MSTORE PUSH1 0x28 PUSH1 0x24 DUP3 ADD MSTORE PUSH32 0x46756E6452616973696E673A20416C6C20736861726564206F776E657273206D PUSH1 0x44 DUP3 ADD MSTORE PUSH8 0x75737420766F7465 PUSH1 0xC0 SHL PUSH1 0x64 DUP3 ADD MSTORE PUSH1 0x84 ADD PUSH2 0x5BD JUMP JUMPDEST POP DUP1 PUSH2 0x10F7 DUP2 PUSH2 0x21E9 JUMP JUMPDEST SWAP2 POP POP PUSH2 0x104A JUMP JUMPDEST POP PUSH0 DUP4 DUP2 MSTORE PUSH1 0x10 PUSH1 0x20 MSTORE PUSH1 0x40 DUP2 KECCAK256 DUP1 SLOAD PUSH1 0xFF NOT AND PUSH1 0x1 OR SWAP1 SSTORE JUMPDEST DUP3 DUP2 LT ISZERO PUSH2 0x1171 JUMPI PUSH0 DUP3 DUP3 DUP2 MLOAD DUP2 LT PUSH2 0x1134 JUMPI PUSH2 0x1134 PUSH2 0x22A1 JUMP JUMPDEST PUSH1 0x20 SWAP1 DUP2 MUL SWAP2 SWAP1 SWAP2 ADD DUP2 ADD MLOAD PUSH0 DUP8 DUP2 MSTORE PUSH1 0xB DUP4 MSTORE PUSH1 0x40 DUP1 DUP3 KECCAK256 SWAP3 DUP3 MSTORE SWAP2 SWAP1 SWAP3 MSTORE SWAP1 KECCAK256 DUP1 SLOAD PUSH1 0xFF NOT AND SWAP1 SSTORE POP DUP1 PUSH2 0x1169 DUP2 PUSH2 0x21E9 JUMP JUMPDEST SWAP2 POP POP PUSH2 0x1119 JUMP JUMPDEST POP POP POP PUSH0 SWAP1 DUP2 MSTORE PUSH1 0xE PUSH1 0x20 MSTORE PUSH1 0x40 SWAP1 KECCAK256 DUP1 SLOAD PUSH1 0xFF NOT AND SWAP1 SSTORE JUMP JUMPDEST PUSH0 PUSH1 0x1 PUSH1 0x1 PUSH1 0xA0 SHL SUB DUP4 AND PUSH2 0x11E2 JUMPI PUSH1 0x40 MLOAD PUSH3 0x461BCD PUSH1 0xE5 SHL DUP2 MSTORE PUSH1 0x20 PUSH1 0x4 DUP3 ADD DUP2 SWAP1 MSTORE PUSH1 0x24 DUP3 ADD MSTORE PUSH32 0x4552433732313A206D696E7420746F20746865207A65726F2061646472657373 PUSH1 0x44 DUP3 ADD MSTORE PUSH1 0x64 ADD PUSH2 0x5BD JUMP JUMPDEST PUSH2 0x11EB DUP3 PUSH2 0x14E7 JUMP JUMPDEST PUSH2 0x124E JUMPI PUSH1 0x40 MLOAD PUSH3 0x461BCD PUSH1 0xE5 SHL DUP2 MSTORE PUSH1 0x20 PUSH1 0x4 DUP3 ADD MSTORE PUSH1 0x2E PUSH1 0x24 DUP3 ADD MSTORE PUSH32 0x536861726561626C654552433732313A20746F6B656E20746F20626520736861 PUSH1 0x44 DUP3 ADD MSTORE PUSH14 0x1C9959081B5D5CDD08195E1A5CDD PUSH1 0x92 SHL PUSH1 0x64 DUP3 ADD MSTORE PUSH1 0x84 ADD PUSH2 0x5BD JUMP JUMPDEST CALLER PUSH2 0x1258 DUP4 PUSH2 0xBB2 JUMP JUMPDEST PUSH1 0x1 PUSH1 0x1 PUSH1 0xA0 SHL SUB AND EQ PUSH2 0x12CD JUMPI PUSH1 0x40 MLOAD PUSH3 0x461BCD PUSH1 0xE5 SHL DUP2 MSTORE PUSH1 0x20 PUSH1 0x4 DUP3 ADD MSTORE PUSH1 0x36 PUSH1 0x24 DUP3 ADD MSTORE PUSH32 0x536861726561626C654552433732313A2073656E646572206D75737420626520 PUSH1 0x44 DUP3 ADD MSTORE PUSH22 0x3A34329037BBB732B91037B3103A3432903A37B5B2B7 PUSH1 0x51 SHL PUSH1 0x64 DUP3 ADD MSTORE PUSH1 0x84 ADD PUSH2 0x5BD JUMP JUMPDEST PUSH0 PUSH2 0x12D7 DUP4 PUSH2 0xD87 JUMP JUMPDEST SWAP1 POP PUSH2 0x12E5 DUP5 PUSH1 0x9 SLOAD PUSH2 0x15F0 JUMP JUMPDEST PUSH2 0x12F1 PUSH1 0x9 SLOAD DUP3 PUSH2 0x1498 JUMP JUMPDEST PUSH1 0x9 SLOAD PUSH1 0x40 MLOAD DUP5 DUP2 MSTORE PUSH1 0x1 PUSH1 0x1 PUSH1 0xA0 SHL SUB DUP7 AND SWAP1 CALLER SWAP1 PUSH32 0xC9A349C2B09C746E2EDEBB75FAAF556C1C0C89D2C196A1F988ECE46EE152BD52 SWAP1 PUSH1 0x20 ADD PUSH1 0x40 MLOAD DUP1 SWAP2 SUB SWAP1 LOG4 PUSH1 0x9 DUP1 SLOAD SWAP1 PUSH0 PUSH2 0x1343 DUP4 PUSH2 0x21E9 JUMP JUMPDEST SWAP1 SWAP2 SSTORE POP SWAP5 SWAP4 POP POP POP POP JUMP JUMPDEST PUSH1 0x1 PUSH1 0x1 PUSH1 0xA0 SHL SUB SWAP2 DUP3 AND PUSH0 SWAP1 DUP2 MSTORE PUSH1 0x5 PUSH1 0x20 SWAP1 DUP2 MSTORE PUSH1 0x40 DUP1 DUP4 KECCAK256 SWAP4 SWAP1 SWAP5 AND DUP3 MSTORE SWAP2 SWAP1 SWAP2 MSTORE KECCAK256 SLOAD PUSH1 0xFF AND SWAP1 JUMP JUMPDEST PUSH2 0x1384 PUSH2 0x1466 JUMP JUMPDEST PUSH1 0x1 PUSH1 0x1 PUSH1 0xA0 SHL SUB DUP2 AND PUSH2 0x13AD JUMPI PUSH0 PUSH1 0x40 MLOAD PUSH4 0x1E4FBDF7 PUSH1 0xE0 SHL DUP2 MSTORE PUSH1 0x4 ADD PUSH2 0x5BD SWAP2 SWAP1 PUSH2 0x1CA6 JUMP JUMPDEST PUSH2 0x13B6 DUP2 PUSH2 0x1651 JUMP JUMPDEST POP JUMP JUMPDEST PUSH0 PUSH1 0x1 PUSH1 0x1 PUSH1 0xE0 SHL SUB NOT DUP3 AND PUSH4 0x80AC58CD PUSH1 0xE0 SHL EQ DUP1 PUSH2 0x13E9 JUMPI POP PUSH1 0x1 PUSH1 0x1 PUSH1 0xE0 SHL SUB NOT DUP3 AND PUSH4 0x5B5E139F PUSH1 0xE0 SHL EQ JUMPDEST DUP1 PUSH2 0x4CE JUMPI POP PUSH4 0x1FFC9A7 PUSH1 0xE0 SHL PUSH1 0x1 PUSH1 0x1 PUSH1 0xE0 SHL SUB NOT DUP4 AND EQ PUSH2 0x4CE JUMP JUMPDEST PUSH0 DUP1 PUSH2 0x1413 DUP4 PUSH2 0x18BF JUMP JUMPDEST SWAP1 POP PUSH1 0x1 PUSH1 0x1 PUSH1 0xA0 SHL SUB DUP2 AND PUSH2 0x4CE JUMPI PUSH1 0x40 MLOAD PUSH4 0x7E273289 PUSH1 0xE0 SHL DUP2 MSTORE PUSH1 0x4 DUP2 ADD DUP5 SWAP1 MSTORE PUSH1 0x24 ADD PUSH2 0x5BD JUMP JUMPDEST PUSH0 SWAP1 DUP2 MSTORE PUSH1 0x4 PUSH1 0x20 MSTORE PUSH1 0x40 SWAP1 KECCAK256 SLOAD PUSH1 0x1 PUSH1 0x1 PUSH1 0xA0 SHL SUB AND SWAP1 JUMP JUMPDEST PUSH2 0xAFC DUP4 DUP4 DUP4 PUSH1 0x1 PUSH2 0x18D9 JUMP JUMPDEST CALLER PUSH2 0x146F PUSH2 0xCA0 JUMP JUMPDEST PUSH1 0x1 PUSH1 0x1 PUSH1 0xA0 SHL SUB AND EQ PUSH2 0xC9E JUMPI CALLER PUSH1 0x40 MLOAD PUSH4 0x118CDAA7 PUSH1 0xE0 SHL DUP2 MSTORE PUSH1 0x4 ADD PUSH2 0x5BD SWAP2 SWAP1 PUSH2 0x1CA6 JUMP JUMPDEST PUSH0 DUP3 DUP2 MSTORE PUSH1 0x6 PUSH1 0x20 MSTORE PUSH1 0x40 SWAP1 KECCAK256 PUSH2 0x14AF DUP3 DUP3 PUSH2 0x2100 JUMP JUMPDEST POP PUSH1 0x40 MLOAD DUP3 DUP2 MSTORE PUSH32 0xF8E1A15ABA9398E019F0B49DF1A4FDE98EE17AE345CB5F6B5E2C27F5033E8CE7 SWAP1 PUSH1 0x20 ADD PUSH1 0x40 MLOAD DUP1 SWAP2 SUB SWAP1 LOG1 POP POP JUMP JUMPDEST PUSH0 SWAP1 DUP2 MSTORE PUSH1 0x11 PUSH1 0x20 MSTORE PUSH1 0x40 SWAP1 KECCAK256 SLOAD PUSH1 0x1 PUSH1 0x1 PUSH1 0xA0 SHL SUB AND ISZERO ISZERO SWAP1 JUMP JUMPDEST PUSH0 DUP1 PUSH2 0x150E DUP5 PUSH2 0x18BF JUMP JUMPDEST SWAP1 POP PUSH1 0x1 PUSH1 0x1 PUSH1 0xA0 SHL SUB DUP4 AND ISZERO PUSH2 0x152A JUMPI PUSH2 0x152A DUP2 DUP5 DUP7 PUSH2 0x19D4 JUMP JUMPDEST PUSH1 0x1 PUSH1 0x1 PUSH1 0xA0 SHL SUB DUP2 AND ISZERO PUSH2 0x1564 JUMPI PUSH2 0x1545 PUSH0 DUP6 PUSH0 DUP1 PUSH2 0x18D9 JUMP JUMPDEST PUSH1 0x1 PUSH1 0x1 PUSH1 0xA0 SHL SUB DUP2 AND PUSH0 SWAP1 DUP2 MSTORE PUSH1 0x3 PUSH1 0x20 MSTORE PUSH1 0x40 SWAP1 KECCAK256 DUP1 SLOAD PUSH0 NOT ADD SWAP1 SSTORE JUMPDEST PUSH1 0x1 PUSH1 0x1 PUSH1 0xA0 SHL SUB DUP6 AND ISZERO PUSH2 0x1592 JUMPI PUSH1 0x1 PUSH1 0x1 PUSH1 0xA0 SHL SUB DUP6 AND PUSH0 SWAP1 DUP2 MSTORE PUSH1 0x3 PUSH1 0x20 MSTORE PUSH1 0x40 SWAP1 KECCAK256 DUP1 SLOAD PUSH1 0x1 ADD SWAP1 SSTORE JUMPDEST PUSH0 DUP5 DUP2 MSTORE PUSH1 0x2 PUSH1 0x20 MSTORE PUSH1 0x40 DUP1 DUP3 KECCAK256 DUP1 SLOAD PUSH1 0x1 PUSH1 0x1 PUSH1 0xA0 SHL SUB NOT AND PUSH1 0x1 PUSH1 0x1 PUSH1 0xA0 SHL SUB DUP10 DUP2 AND SWAP2 DUP3 OR SWAP1 SWAP3 SSTORE SWAP2 MLOAD DUP8 SWAP4 SWAP2 DUP6 AND SWAP2 PUSH32 0xDDF252AD1BE2C89B69C2B068FC378DAA952BA7F163C4A11628F55A4DF523B3EF SWAP2 LOG4 SWAP5 SWAP4 POP POP POP POP JUMP JUMPDEST PUSH1 0x1 PUSH1 0x1 PUSH1 0xA0 SHL SUB DUP3 AND PUSH2 0x1619 JUMPI PUSH0 PUSH1 0x40 MLOAD PUSH4 0x32505749 PUSH1 0xE1 SHL DUP2 MSTORE PUSH1 0x4 ADD PUSH2 0x5BD SWAP2 SWAP1 PUSH2 0x1CA6 JUMP JUMPDEST PUSH0 PUSH2 0x1625 DUP4 DUP4 PUSH0 PUSH2 0x1503 JUMP JUMPDEST SWAP1 POP PUSH1 0x1 PUSH1 0x1 PUSH1 0xA0 SHL SUB DUP2 AND ISZERO PUSH2 0xAFC JUMPI PUSH0 PUSH1 0x40 MLOAD PUSH4 0x39E35637 PUSH1 0xE1 SHL DUP2 MSTORE PUSH1 0x4 ADD PUSH2 0x5BD SWAP2 SWAP1 PUSH2 0x1CA6 JUMP JUMPDEST PUSH1 0x7 DUP1 SLOAD PUSH1 0x1 PUSH1 0x1 PUSH1 0xA0 SHL SUB DUP4 DUP2 AND PUSH1 0x1 PUSH1 0x1 PUSH1 0xA0 SHL SUB NOT DUP4 AND DUP2 OR SWAP1 SWAP4 SSTORE PUSH1 0x40 MLOAD SWAP2 AND SWAP2 SWAP1 DUP3 SWAP1 PUSH32 0x8BE0079C531659141344CD1FD0A4F28419497F9722A3DAAFE3B4186F6B6457E0 SWAP1 PUSH0 SWAP1 LOG3 POP POP JUMP JUMPDEST PUSH1 0x1 PUSH1 0x1 PUSH1 0xA0 SHL SUB DUP3 AND PUSH2 0x16CB JUMPI DUP2 PUSH1 0x40 MLOAD PUSH4 0xB611743 PUSH1 0xE3 SHL DUP2 MSTORE PUSH1 0x4 ADD PUSH2 0x5BD SWAP2 SWAP1 PUSH2 0x1CA6 JUMP JUMPDEST PUSH1 0x1 PUSH1 0x1 PUSH1 0xA0 SHL SUB DUP4 DUP2 AND PUSH0 DUP2 DUP2 MSTORE PUSH1 0x5 PUSH1 0x20 SWAP1 DUP2 MSTORE PUSH1 0x40 DUP1 DUP4 KECCAK256 SWAP5 DUP8 AND DUP1 DUP5 MSTORE SWAP5 DUP3 MSTORE SWAP2 DUP3 SWAP1 KECCAK256 DUP1 SLOAD PUSH1 0xFF NOT AND DUP7 ISZERO ISZERO SWAP1 DUP2 OR SWAP1 SWAP2 SSTORE SWAP2 MLOAD SWAP2 DUP3 MSTORE PUSH32 0x17307EAB39AB6107E8899845AD3D59BD9653F200F220920489CA2B5937696C31 SWAP2 ADD PUSH1 0x40 MLOAD DUP1 SWAP2 SUB SWAP1 LOG3 POP POP POP JUMP JUMPDEST PUSH1 0x1 PUSH1 0x1 PUSH1 0xA0 SHL SUB DUP4 AND EXTCODESIZE ISZERO PUSH2 0x7EE JUMPI PUSH1 0x40 MLOAD PUSH4 0xA85BD01 PUSH1 0xE1 SHL DUP2 MSTORE PUSH1 0x1 PUSH1 0x1 PUSH1 0xA0 SHL SUB DUP5 AND SWAP1 PUSH4 0x150B7A02 SWAP1 PUSH2 0x1779 SWAP1 CALLER SWAP1 DUP9 SWAP1 DUP8 SWAP1 DUP8 SWAP1 PUSH1 0x4 ADD PUSH2 0x22B5 JUMP JUMPDEST PUSH1 0x20 PUSH1 0x40 MLOAD DUP1 DUP4 SUB DUP2 PUSH0 DUP8 GAS CALL SWAP3 POP POP POP DUP1 ISZERO PUSH2 0x17B3 JUMPI POP PUSH1 0x40 DUP1 MLOAD PUSH1 0x1F RETURNDATASIZE SWAP1 DUP2 ADD PUSH1 0x1F NOT AND DUP3 ADD SWAP1 SWAP3 MSTORE PUSH2 0x17B0 SWAP2 DUP2 ADD SWAP1 PUSH2 0x22F1 JUMP JUMPDEST PUSH1 0x1 JUMPDEST PUSH2 0x1811 JUMPI RETURNDATASIZE DUP1 DUP1 ISZERO PUSH2 0x17E0 JUMPI PUSH1 0x40 MLOAD SWAP2 POP PUSH1 0x1F NOT PUSH1 0x3F RETURNDATASIZE ADD AND DUP3 ADD PUSH1 0x40 MSTORE RETURNDATASIZE DUP3 MSTORE RETURNDATASIZE PUSH0 PUSH1 0x20 DUP5 ADD RETURNDATACOPY PUSH2 0x17E5 JUMP JUMPDEST PUSH1 0x60 SWAP2 POP JUMPDEST POP DUP1 MLOAD PUSH0 SUB PUSH2 0x1809 JUMPI DUP4 PUSH1 0x40 MLOAD PUSH4 0x32505749 PUSH1 0xE1 SHL DUP2 MSTORE PUSH1 0x4 ADD PUSH2 0x5BD SWAP2 SWAP1 PUSH2 0x1CA6 JUMP JUMPDEST DUP1 MLOAD DUP2 PUSH1 0x20 ADD REVERT JUMPDEST PUSH1 0x1 PUSH1 0x1 PUSH1 0xE0 SHL SUB NOT DUP2 AND PUSH4 0xA85BD01 PUSH1 0xE1 SHL EQ PUSH2 0x1844 JUMPI DUP4 PUSH1 0x40 MLOAD PUSH4 0x32505749 PUSH1 0xE1 SHL DUP2 MSTORE PUSH1 0x4 ADD PUSH2 0x5BD SWAP2 SWAP1 PUSH2 0x1CA6 JUMP JUMPDEST POP POP POP POP POP JUMP JUMPDEST PUSH1 0x60 PUSH1 0x8 DUP1 SLOAD PUSH2 0x4E2 SWAP1 PUSH2 0x1FA9 JUMP JUMPDEST PUSH1 0x60 PUSH2 0x1865 DUP3 PUSH2 0x1408 JUMP JUMPDEST POP PUSH0 PUSH2 0x186F PUSH2 0x184B JUMP JUMPDEST SWAP1 POP PUSH0 DUP2 MLOAD GT PUSH2 0x188D JUMPI PUSH1 0x40 MLOAD DUP1 PUSH1 0x20 ADD PUSH1 0x40 MSTORE DUP1 PUSH0 DUP2 MSTORE POP PUSH2 0x18B8 JUMP JUMPDEST DUP1 PUSH2 0x1897 DUP5 PUSH2 0x1A38 JUMP JUMPDEST PUSH1 0x40 MLOAD PUSH1 0x20 ADD PUSH2 0x18A8 SWAP3 SWAP2 SWAP1 PUSH2 0x21BB JUMP JUMPDEST PUSH1 0x40 MLOAD PUSH1 0x20 DUP2 DUP4 SUB SUB DUP2 MSTORE SWAP1 PUSH1 0x40 MSTORE JUMPDEST SWAP4 SWAP3 POP POP POP JUMP JUMPDEST PUSH0 SWAP1 DUP2 MSTORE PUSH1 0x2 PUSH1 0x20 MSTORE PUSH1 0x40 SWAP1 KECCAK256 SLOAD PUSH1 0x1 PUSH1 0x1 PUSH1 0xA0 SHL SUB AND SWAP1 JUMP JUMPDEST DUP1 DUP1 PUSH2 0x18ED JUMPI POP PUSH1 0x1 PUSH1 0x1 PUSH1 0xA0 SHL SUB DUP3 AND ISZERO ISZERO JUMPDEST ISZERO PUSH2 0x19A5 JUMPI PUSH0 PUSH2 0x18FC DUP5 PUSH2 0x1408 JUMP JUMPDEST SWAP1 POP PUSH1 0x1 PUSH1 0x1 PUSH1 0xA0 SHL SUB DUP4 AND ISZERO DUP1 ISZERO SWAP1 PUSH2 0x1928 JUMPI POP DUP3 PUSH1 0x1 PUSH1 0x1 PUSH1 0xA0 SHL SUB AND DUP2 PUSH1 0x1 PUSH1 0x1 PUSH1 0xA0 SHL SUB AND EQ ISZERO JUMPDEST DUP1 ISZERO PUSH2 0x193B JUMPI POP PUSH2 0x1939 DUP2 DUP5 PUSH2 0x134F JUMP JUMPDEST ISZERO JUMPDEST ISZERO PUSH2 0x195B JUMPI DUP3 PUSH1 0x40 MLOAD PUSH4 0xA9FBF51F PUSH1 0xE0 SHL DUP2 MSTORE PUSH1 0x4 ADD PUSH2 0x5BD SWAP2 SWAP1 PUSH2 0x1CA6 JUMP JUMPDEST DUP2 ISZERO PUSH2 0x19A3 JUMPI DUP4 DUP6 PUSH1 0x1 PUSH1 0x1 PUSH1 0xA0 SHL SUB AND DUP3 PUSH1 0x1 PUSH1 0x1 PUSH1 0xA0 SHL SUB AND PUSH32 0x8C5BE1E5EBEC7D5BD14F71427D1E84F3DD0314C0F7B2291E5B200AC8C7C3B925 PUSH1 0x40 MLOAD PUSH1 0x40 MLOAD DUP1 SWAP2 SUB SWAP1 LOG4 JUMPDEST POP JUMPDEST POP POP PUSH0 SWAP1 DUP2 MSTORE PUSH1 0x4 PUSH1 0x20 MSTORE PUSH1 0x40 SWAP1 KECCAK256 DUP1 SLOAD PUSH1 0x1 PUSH1 0x1 PUSH1 0xA0 SHL SUB NOT AND PUSH1 0x1 PUSH1 0x1 PUSH1 0xA0 SHL SUB SWAP3 SWAP1 SWAP3 AND SWAP2 SWAP1 SWAP2 OR SWAP1 SSTORE JUMP JUMPDEST PUSH2 0x19DF DUP4 DUP4 DUP4 PUSH2 0x1AC7 JUMP JUMPDEST PUSH2 0xAFC JUMPI PUSH1 0x1 PUSH1 0x1 PUSH1 0xA0 SHL SUB DUP4 AND PUSH2 0x1A0D JUMPI PUSH1 0x40 MLOAD PUSH4 0x7E273289 PUSH1 0xE0 SHL DUP2 MSTORE PUSH1 0x4 DUP2 ADD DUP3 SWAP1 MSTORE PUSH1 0x24 ADD PUSH2 0x5BD JUMP JUMPDEST PUSH1 0x40 MLOAD PUSH4 0x177E802F PUSH1 0xE0 SHL DUP2 MSTORE PUSH1 0x1 PUSH1 0x1 PUSH1 0xA0 SHL SUB DUP4 AND PUSH1 0x4 DUP3 ADD MSTORE PUSH1 0x24 DUP2 ADD DUP3 SWAP1 MSTORE PUSH1 0x44 ADD PUSH2 0x5BD JUMP JUMPDEST PUSH1 0x60 PUSH0 PUSH2 0x1A44 DUP4 PUSH2 0x1B2B JUMP JUMPDEST PUSH1 0x1 ADD SWAP1 POP PUSH0 DUP2 PUSH1 0x1 PUSH1 0x1 PUSH1 0x40 SHL SUB DUP2 GT ISZERO PUSH2 0x1A62 JUMPI PUSH2 0x1A62 PUSH2 0x1CFD JUMP JUMPDEST PUSH1 0x40 MLOAD SWAP1 DUP1 DUP3 MSTORE DUP1 PUSH1 0x1F ADD PUSH1 0x1F NOT AND PUSH1 0x20 ADD DUP3 ADD PUSH1 0x40 MSTORE DUP1 ISZERO PUSH2 0x1A8C JUMPI PUSH1 0x20 DUP3 ADD DUP2 DUP1 CALLDATASIZE DUP4 CALLDATACOPY ADD SWAP1 POP JUMPDEST POP SWAP1 POP DUP2 DUP2 ADD PUSH1 0x20 ADD JUMPDEST PUSH0 NOT ADD PUSH16 0x181899199A1A9B1B9C1CB0B131B232B3 PUSH1 0x81 SHL PUSH1 0xA DUP7 MOD BYTE DUP2 MSTORE8 PUSH1 0xA DUP6 DIV SWAP5 POP DUP5 PUSH2 0x1A96 JUMPI POP SWAP4 SWAP3 POP POP POP JUMP JUMPDEST PUSH0 PUSH1 0x1 PUSH1 0x1 PUSH1 0xA0 SHL SUB DUP4 AND ISZERO DUP1 ISZERO SWAP1 PUSH2 0xE7E JUMPI POP DUP3 PUSH1 0x1 PUSH1 0x1 PUSH1 0xA0 SHL SUB AND DUP5 PUSH1 0x1 PUSH1 0x1 PUSH1 0xA0 SHL SUB AND EQ DUP1 PUSH2 0x1B00 JUMPI POP PUSH2 0x1B00 DUP5 DUP5 PUSH2 0x134F JUMP JUMPDEST DUP1 PUSH2 0xE7E JUMPI POP DUP3 PUSH1 0x1 PUSH1 0x1 PUSH1 0xA0 SHL SUB AND PUSH2 0x1B19 DUP4 PUSH2 0x143F JUMP JUMPDEST PUSH1 0x1 PUSH1 0x1 PUSH1 0xA0 SHL SUB AND EQ SWAP5 SWAP4 POP POP POP POP JUMP JUMPDEST PUSH0 DUP1 PUSH19 0x184F03E93FF9F4DAA797ED6E38ED64BF6A1F01 PUSH1 0x40 SHL DUP4 LT PUSH2 0x1B69 JUMPI PUSH19 0x184F03E93FF9F4DAA797ED6E38ED64BF6A1F01 PUSH1 0x40 SHL DUP4 DIV SWAP3 POP PUSH1 0x40 ADD JUMPDEST PUSH10 0x4EE2D6D415B85ACEF81 PUSH1 0x20 SHL DUP4 LT PUSH2 0x1B93 JUMPI PUSH10 0x4EE2D6D415B85ACEF81 PUSH1 0x20 SHL DUP4 DIV SWAP3 POP PUSH1 0x20 ADD JUMPDEST PUSH7 0x2386F26FC10000 DUP4 LT PUSH2 0x1BB1 JUMPI PUSH7 0x2386F26FC10000 DUP4 DIV SWAP3 POP PUSH1 0x10 ADD JUMPDEST PUSH4 0x5F5E100 DUP4 LT PUSH2 0x1BC9 JUMPI PUSH4 0x5F5E100 DUP4 DIV SWAP3 POP PUSH1 0x8 ADD JUMPDEST PUSH2 0x2710 DUP4 LT PUSH2 0x1BDD JUMPI PUSH2 0x2710 DUP4 DIV SWAP3 POP PUSH1 0x4 ADD JUMPDEST PUSH1 0x64 DUP4 LT PUSH2 0x1BEF JUMPI PUSH1 0x64 DUP4 DIV SWAP3 POP PUSH1 0x2 ADD JUMPDEST PUSH1 0xA DUP4 LT PUSH2 0x4CE JUMPI PUSH1 0x1 ADD SWAP3 SWAP2 POP POP JUMP JUMPDEST PUSH1 0x1 PUSH1 0x1 PUSH1 0xE0 SHL SUB NOT DUP2 AND DUP2 EQ PUSH2 0x13B6 JUMPI PUSH0 DUP1 REVERT JUMPDEST PUSH0 PUSH1 0x20 DUP3 DUP5 SUB SLT ISZERO PUSH2 0x1C25 JUMPI PUSH0 DUP1 REVERT JUMPDEST DUP2 CALLDATALOAD PUSH2 0x18B8 DUP2 PUSH2 0x1C00 JUMP JUMPDEST PUSH0 JUMPDEST DUP4 DUP2 LT ISZERO PUSH2 0x1C4A JUMPI DUP2 DUP2 ADD MLOAD DUP4 DUP3 ADD MSTORE PUSH1 0x20 ADD PUSH2 0x1C32 JUMP JUMPDEST POP POP PUSH0 SWAP2 ADD MSTORE JUMP JUMPDEST PUSH0 DUP2 MLOAD DUP1 DUP5 MSTORE PUSH2 0x1C69 DUP2 PUSH1 0x20 DUP7 ADD PUSH1 0x20 DUP7 ADD PUSH2 0x1C30 JUMP JUMPDEST PUSH1 0x1F ADD PUSH1 0x1F NOT AND SWAP3 SWAP1 SWAP3 ADD PUSH1 0x20 ADD SWAP3 SWAP2 POP POP JUMP JUMPDEST PUSH1 0x20 DUP2 MSTORE PUSH0 PUSH2 0x18B8 PUSH1 0x20 DUP4 ADD DUP5 PUSH2 0x1C52 JUMP JUMPDEST PUSH0 PUSH1 0x20 DUP3 DUP5 SUB SLT ISZERO PUSH2 0x1C9F JUMPI PUSH0 DUP1 REVERT JUMPDEST POP CALLDATALOAD SWAP2 SWAP1 POP JUMP JUMPDEST PUSH1 0x1 PUSH1 0x1 PUSH1 0xA0 SHL SUB SWAP2 SWAP1 SWAP2 AND DUP2 MSTORE PUSH1 0x20 ADD SWAP1 JUMP JUMPDEST DUP1 CALLDATALOAD PUSH1 0x1 PUSH1 0x1 PUSH1 0xA0 SHL SUB DUP2 AND DUP2 EQ PUSH2 0x1CD0 JUMPI PUSH0 DUP1 REVERT JUMPDEST SWAP2 SWAP1 POP JUMP JUMPDEST PUSH0 DUP1 PUSH1 0x40 DUP4 DUP6 SUB SLT ISZERO PUSH2 0x1CE6 JUMPI PUSH0 DUP1 REVERT JUMPDEST PUSH2 0x1CEF DUP4 PUSH2 0x1CBA JUMP JUMPDEST SWAP5 PUSH1 0x20 SWAP4 SWAP1 SWAP4 ADD CALLDATALOAD SWAP4 POP POP POP JUMP JUMPDEST PUSH4 0x4E487B71 PUSH1 0xE0 SHL PUSH0 MSTORE PUSH1 0x41 PUSH1 0x4 MSTORE PUSH1 0x24 PUSH0 REVERT JUMPDEST PUSH1 0x40 MLOAD PUSH1 0x1F DUP3 ADD PUSH1 0x1F NOT AND DUP2 ADD PUSH1 0x1 PUSH1 0x1 PUSH1 0x40 SHL SUB DUP2 GT DUP3 DUP3 LT OR ISZERO PUSH2 0x1D39 JUMPI PUSH2 0x1D39 PUSH2 0x1CFD JUMP JUMPDEST PUSH1 0x40 MSTORE SWAP2 SWAP1 POP JUMP JUMPDEST PUSH0 PUSH1 0x1 PUSH1 0x1 PUSH1 0x40 SHL SUB DUP4 GT ISZERO PUSH2 0x1D59 JUMPI PUSH2 0x1D59 PUSH2 0x1CFD JUMP JUMPDEST PUSH2 0x1D6C PUSH1 0x1F DUP5 ADD PUSH1 0x1F NOT AND PUSH1 0x20 ADD PUSH2 0x1D11 JUMP JUMPDEST SWAP1 POP DUP3 DUP2 MSTORE DUP4 DUP4 DUP4 ADD GT ISZERO PUSH2 0x1D7F JUMPI PUSH0 DUP1 REVERT JUMPDEST DUP3 DUP3 PUSH1 0x20 DUP4 ADD CALLDATACOPY PUSH0 PUSH1 0x20 DUP5 DUP4 ADD ADD MSTORE SWAP4 SWAP3 POP POP POP JUMP JUMPDEST PUSH0 DUP3 PUSH1 0x1F DUP4 ADD SLT PUSH2 0x1DA4 JUMPI PUSH0 DUP1 REVERT JUMPDEST PUSH2 0x18B8 DUP4 DUP4 CALLDATALOAD PUSH1 0x20 DUP6 ADD PUSH2 0x1D41 JUMP JUMPDEST PUSH0 DUP1 PUSH1 0x40 DUP4 DUP6 SUB SLT ISZERO PUSH2 0x1DC4 JUMPI PUSH0 DUP1 REVERT JUMPDEST DUP3 CALLDATALOAD SWAP2 POP PUSH1 0x20 DUP4 ADD CALLDATALOAD PUSH1 0x1 PUSH1 0x1 PUSH1 0x40 SHL SUB DUP2 GT ISZERO PUSH2 0x1DE0 JUMPI PUSH0 DUP1 REVERT JUMPDEST PUSH2 0x1DEC DUP6 DUP3 DUP7 ADD PUSH2 0x1D95 JUMP JUMPDEST SWAP2 POP POP SWAP3 POP SWAP3 SWAP1 POP JUMP JUMPDEST PUSH0 DUP1 PUSH0 PUSH1 0x60 DUP5 DUP7 SUB SLT ISZERO PUSH2 0x1E08 JUMPI PUSH0 DUP1 REVERT JUMPDEST PUSH2 0x1E11 DUP5 PUSH2 0x1CBA JUMP JUMPDEST SWAP6 PUSH1 0x20 DUP6 ADD CALLDATALOAD SWAP6 POP PUSH1 0x40 SWAP1 SWAP5 ADD CALLDATALOAD SWAP4 SWAP3 POP POP POP JUMP JUMPDEST PUSH0 DUP1 PUSH0 PUSH1 0x60 DUP5 DUP7 SUB SLT ISZERO PUSH2 0x1E38 JUMPI PUSH0 DUP1 REVERT JUMPDEST PUSH2 0x1E41 DUP5 PUSH2 0x1CBA JUMP JUMPDEST SWAP3 POP PUSH2 0x1E4F PUSH1 0x20 DUP6 ADD PUSH2 0x1CBA JUMP JUMPDEST SWAP2 POP PUSH1 0x40 DUP5 ADD CALLDATALOAD SWAP1 POP SWAP3 POP SWAP3 POP SWAP3 JUMP JUMPDEST PUSH0 DUP1 PUSH1 0x40 DUP4 DUP6 SUB SLT ISZERO PUSH2 0x1E70 JUMPI PUSH0 DUP1 REVERT JUMPDEST POP POP DUP1 CALLDATALOAD SWAP3 PUSH1 0x20 SWAP1 SWAP2 ADD CALLDATALOAD SWAP2 POP JUMP JUMPDEST PUSH0 PUSH1 0x20 DUP3 DUP5 SUB SLT ISZERO PUSH2 0x1E8F JUMPI PUSH0 DUP1 REVERT JUMPDEST DUP2 CALLDATALOAD PUSH1 0x1 PUSH1 0x1 PUSH1 0x40 SHL SUB DUP2 GT ISZERO PUSH2 0x1EA4 JUMPI PUSH0 DUP1 REVERT JUMPDEST PUSH2 0xE7E DUP5 DUP3 DUP6 ADD PUSH2 0x1D95 JUMP JUMPDEST PUSH0 PUSH1 0x20 DUP3 DUP5 SUB SLT ISZERO PUSH2 0x1EC0 JUMPI PUSH0 DUP1 REVERT JUMPDEST PUSH2 0x18B8 DUP3 PUSH2 0x1CBA JUMP JUMPDEST PUSH0 DUP1 PUSH1 0x40 DUP4 DUP6 SUB SLT ISZERO PUSH2 0x1EDA JUMPI PUSH0 DUP1 REVERT JUMPDEST PUSH2 0x1EE3 DUP4 PUSH2 0x1CBA JUMP JUMPDEST SWAP2 POP PUSH1 0x20 DUP4 ADD CALLDATALOAD DUP1 ISZERO ISZERO DUP2 EQ PUSH2 0x1EF7 JUMPI PUSH0 DUP1 REVERT JUMPDEST DUP1 SWAP2 POP POP SWAP3 POP SWAP3 SWAP1 POP JUMP JUMPDEST PUSH0 DUP1 PUSH0 DUP1 PUSH1 0x80 DUP6 DUP8 SUB SLT ISZERO PUSH2 0x1F15 JUMPI PUSH0 DUP1 REVERT JUMPDEST PUSH2 0x1F1E DUP6 PUSH2 0x1CBA JUMP JUMPDEST SWAP4 POP PUSH2 0x1F2C PUSH1 0x20 DUP7 ADD PUSH2 0x1CBA JUMP JUMPDEST SWAP3 POP PUSH1 0x40 DUP6 ADD CALLDATALOAD SWAP2 POP PUSH1 0x60 DUP6 ADD CALLDATALOAD PUSH1 0x1 PUSH1 0x1 PUSH1 0x40 SHL SUB DUP2 GT ISZERO PUSH2 0x1F4D JUMPI PUSH0 DUP1 REVERT JUMPDEST DUP6 ADD PUSH1 0x1F DUP2 ADD DUP8 SGT PUSH2 0x1F5D JUMPI PUSH0 DUP1 REVERT JUMPDEST PUSH2 0x1F6C DUP8 DUP3 CALLDATALOAD PUSH1 0x20 DUP5 ADD PUSH2 0x1D41 JUMP JUMPDEST SWAP2 POP POP SWAP3 SWAP6 SWAP2 SWAP5 POP SWAP3 POP JUMP JUMPDEST PUSH0 DUP1 PUSH1 0x40 DUP4 DUP6 SUB SLT ISZERO PUSH2 0x1F89 JUMPI PUSH0 DUP1 REVERT JUMPDEST PUSH2 0x1F92 DUP4 PUSH2 0x1CBA JUMP JUMPDEST SWAP2 POP PUSH2 0x1FA0 PUSH1 0x20 DUP5 ADD PUSH2 0x1CBA JUMP JUMPDEST SWAP1 POP SWAP3 POP SWAP3 SWAP1 POP JUMP JUMPDEST PUSH1 0x1 DUP2 DUP2 SHR SWAP1 DUP3 AND DUP1 PUSH2 0x1FBD JUMPI PUSH1 0x7F DUP3 AND SWAP2 POP JUMPDEST PUSH1 0x20 DUP3 LT DUP2 SUB PUSH2 0x1FDB JUMPI PUSH4 0x4E487B71 PUSH1 0xE0 SHL PUSH0 MSTORE PUSH1 0x22 PUSH1 0x4 MSTORE PUSH1 0x24 PUSH0 REVERT JUMPDEST POP SWAP2 SWAP1 POP JUMP JUMPDEST PUSH1 0x20 DUP1 DUP3 MSTORE PUSH1 0x21 SWAP1 DUP3 ADD MSTORE PUSH32 0x536861726561626C654552433732313A20746F6B656E206D7573742065786973 PUSH1 0x40 DUP3 ADD MSTORE PUSH1 0x1D PUSH1 0xFA SHL PUSH1 0x60 DUP3 ADD MSTORE PUSH1 0x80 ADD SWAP1 JUMP JUMPDEST PUSH4 0x4E487B71 PUSH1 0xE0 SHL PUSH0 MSTORE PUSH1 0x11 PUSH1 0x4 MSTORE PUSH1 0x24 PUSH0 REVERT JUMPDEST DUP1 DUP3 ADD DUP1 DUP3 GT ISZERO PUSH2 0x4CE JUMPI PUSH2 0x4CE PUSH2 0x2022 JUMP JUMPDEST PUSH1 0x20 DUP1 DUP3 MSTORE PUSH1 0x1D SWAP1 DUP3 ADD MSTORE PUSH32 0x46756E6452616973696E673A20746F6B656E206D757374206578697374000000 PUSH1 0x40 DUP3 ADD MSTORE PUSH1 0x60 ADD SWAP1 JUMP JUMPDEST PUSH1 0x20 DUP1 DUP3 MSTORE PUSH1 0x19 SWAP1 DUP3 ADD MSTORE PUSH25 0x115490CD4C0C8CCE881D1BDAD95B881B5D5CDD08195E1A5CDD PUSH1 0x3A SHL PUSH1 0x40 DUP3 ADD MSTORE PUSH1 0x60 ADD SWAP1 JUMP JUMPDEST PUSH1 0x1F DUP3 GT ISZERO PUSH2 0xAFC JUMPI PUSH0 DUP2 DUP2 MSTORE PUSH1 0x20 DUP2 KECCAK256 PUSH1 0x1F DUP6 ADD PUSH1 0x5 SHR DUP2 ADD PUSH1 0x20 DUP7 LT ISZERO PUSH2 0x20D9 JUMPI POP DUP1 JUMPDEST PUSH1 0x1F DUP6 ADD PUSH1 0x5 SHR DUP3 ADD SWAP2 POP JUMPDEST DUP2 DUP2 LT ISZERO PUSH2 0x20F8 JUMPI DUP3 DUP2 SSTORE PUSH1 0x1 ADD PUSH2 0x20E5 JUMP JUMPDEST POP POP POP POP POP POP JUMP JUMPDEST DUP2 MLOAD PUSH1 0x1 PUSH1 0x1 PUSH1 0x40 SHL SUB DUP2 GT ISZERO PUSH2 0x2119 JUMPI PUSH2 0x2119 PUSH2 0x1CFD JUMP JUMPDEST PUSH2 0x212D DUP2 PUSH2 0x2127 DUP5 SLOAD PUSH2 0x1FA9 JUMP JUMPDEST DUP5 PUSH2 0x20B3 JUMP JUMPDEST PUSH1 0x20 DUP1 PUSH1 0x1F DUP4 GT PUSH1 0x1 DUP2 EQ PUSH2 0x2160 JUMPI PUSH0 DUP5 ISZERO PUSH2 0x2149 JUMPI POP DUP6 DUP4 ADD MLOAD JUMPDEST PUSH0 NOT PUSH1 0x3 DUP7 SWAP1 SHL SHR NOT AND PUSH1 0x1 DUP6 SWAP1 SHL OR DUP6 SSTORE PUSH2 0x20F8 JUMP JUMPDEST PUSH0 DUP6 DUP2 MSTORE PUSH1 0x20 DUP2 KECCAK256 PUSH1 0x1F NOT DUP7 AND SWAP2 JUMPDEST DUP3 DUP2 LT ISZERO PUSH2 0x218E JUMPI DUP9 DUP7 ADD MLOAD DUP3 SSTORE SWAP5 DUP5 ADD SWAP5 PUSH1 0x1 SWAP1 SWAP2 ADD SWAP1 DUP5 ADD PUSH2 0x216F JUMP JUMPDEST POP DUP6 DUP3 LT ISZERO PUSH2 0x21AB JUMPI DUP8 DUP6 ADD MLOAD PUSH0 NOT PUSH1 0x3 DUP9 SWAP1 SHL PUSH1 0xF8 AND SHR NOT AND DUP2 SSTORE JUMPDEST POP POP POP POP POP PUSH1 0x1 SWAP1 DUP2 SHL ADD SWAP1 SSTORE POP JUMP JUMPDEST PUSH0 DUP4 MLOAD PUSH2 0x21CC DUP2 DUP5 PUSH1 0x20 DUP9 ADD PUSH2 0x1C30 JUMP JUMPDEST DUP4 MLOAD SWAP1 DUP4 ADD SWAP1 PUSH2 0x21E0 DUP2 DUP4 PUSH1 0x20 DUP9 ADD PUSH2 0x1C30 JUMP JUMPDEST ADD SWAP5 SWAP4 POP POP POP POP JUMP JUMPDEST PUSH0 PUSH1 0x1 DUP3 ADD PUSH2 0x21FA JUMPI PUSH2 0x21FA PUSH2 0x2022 JUMP JUMPDEST POP PUSH1 0x1 ADD SWAP1 JUMP JUMPDEST PUSH0 PUSH1 0x20 DUP1 DUP4 DUP6 SUB SLT ISZERO PUSH2 0x2212 JUMPI PUSH0 DUP1 REVERT JUMPDEST DUP3 MLOAD PUSH1 0x1 PUSH1 0x1 PUSH1 0x40 SHL SUB DUP1 DUP3 GT ISZERO PUSH2 0x2228 JUMPI PUSH0 DUP1 REVERT JUMPDEST DUP2 DUP6 ADD SWAP2 POP DUP6 PUSH1 0x1F DUP4 ADD SLT PUSH2 0x223B JUMPI PUSH0 DUP1 REVERT JUMPDEST DUP2 MLOAD DUP2 DUP2 GT ISZERO PUSH2 0x224D JUMPI PUSH2 0x224D PUSH2 0x1CFD JUMP JUMPDEST DUP1 PUSH1 0x5 SHL SWAP2 POP PUSH2 0x225E DUP5 DUP4 ADD PUSH2 0x1D11 JUMP JUMPDEST DUP2 DUP2 MSTORE SWAP2 DUP4 ADD DUP5 ADD SWAP2 DUP5 DUP2 ADD SWAP1 DUP9 DUP5 GT ISZERO PUSH2 0x2277 JUMPI PUSH0 DUP1 REVERT JUMPDEST SWAP4 DUP6 ADD SWAP4 JUMPDEST DUP4 DUP6 LT ISZERO PUSH2 0x2295 JUMPI DUP5 MLOAD DUP3 MSTORE SWAP4 DUP6 ADD SWAP4 SWAP1 DUP6 ADD SWAP1 PUSH2 0x227C JUMP JUMPDEST SWAP9 SWAP8 POP POP POP POP POP POP POP POP JUMP JUMPDEST PUSH4 0x4E487B71 PUSH1 0xE0 SHL PUSH0 MSTORE PUSH1 0x32 PUSH1 0x4 MSTORE PUSH1 0x24 PUSH0 REVERT JUMPDEST PUSH1 0x1 PUSH1 0x1 PUSH1 0xA0 SHL SUB DUP6 DUP2 AND DUP3 MSTORE DUP5 AND PUSH1 0x20 DUP3 ADD MSTORE PUSH1 0x40 DUP2 ADD DUP4 SWAP1 MSTORE PUSH1 0x80 PUSH1 0x60 DUP3 ADD DUP2 SWAP1 MSTORE PUSH0 SWAP1 PUSH2 0x22E7 SWAP1 DUP4 ADD DUP5 PUSH2 0x1C52 JUMP JUMPDEST SWAP7 SWAP6 POP POP POP POP POP POP JUMP JUMPDEST PUSH0 PUSH1 0x20 DUP3 DUP5 SUB SLT ISZERO PUSH2 0x2301 JUMPI PUSH0 DUP1 REVERT JUMPDEST DUP2 MLOAD PUSH2 0x18B8 DUP2 PUSH2 0x1C00 JUMP INVALID LOG2 PUSH5 0x6970667358 0x22 SLT KECCAK256 0xE3 0x24 PUSH10 0x17A0B684326AC9AAD48 SWAP2 ADD PUSH10 0xE568D2669C3407DECBE8 DUP6 RETURNDATACOPY 0xAD DUP5 COINBASE TIMESTAMP PUSH5 0x736F6C6343 STOP ADDMOD EQ STOP CALLER "
		},
		"gasEstimates": {
			"creation": {
				"codeDepositCost": "1805200",
				"executionCost": "infinite",
				"totalCost": "infinite"
			},
			"external": {
				"approve(address,uint256)": "31543",
				"balanceOf(address)": "2893",
				"baseURI()": "infinite",
				"buyShares(address,uint256,uint256)": "infinite",
				"getApproved(uint256)": "infinite",
				"initiateSelling(address,uint256)": "infinite",
				"initiateVoting(uint256)": "29155",
				"isApprovedForAll(address,address)": "infinite",
				"makeDecisionForSelling(uint256)": "infinite",
				"mint(address,uint256)": "104592",
				"name()": "infinite",
				"owner()": "2721",
				"ownerOf(uint256)": "infinite",
				"registerAsset(address)": "181801",
				"registerAssetForFundraising(uint256,uint256)": "58555",
				"renounceOwnership()": "infinite",
				"safeTransferFrom(address,address,uint256)": "infinite",
				"safeTransferFrom(address,address,uint256,bytes)": "infinite",
				"setApprovalForAll(address,bool)": "27052",
				"setBaseURI(string)": "infinite",
				"setTokenURI(uint256,string)": "infinite",
				"share(address,uint256)": "infinite",
				"supportsInterface(bytes4)": "infinite",
				"symbol()": "infinite",
				"tokenURI(uint256)": "infinite",
				"transferFrom(address,address,uint256)": "infinite",
				"transferOwnership(address)": "28950",
				"vote(uint256,uint256)": "29445"
			},
			"internal": {
				"_baseURI()": "infinite",
				"_exists(uint256)": "2210"
			}
		},
		"methodIdentifiers": {
			"approve(address,uint256)": "095ea7b3",
			"balanceOf(address)": "70a08231",
			"baseURI()": "6c0360eb",
			"buyShares(address,uint256,uint256)": "17f69222",
			"getApproved(uint256)": "081812fc",
			"initiateSelling(address,uint256)": "3d14a02b",
			"initiateVoting(uint256)": "45714684",
			"isApprovedForAll(address,address)": "e985e9c5",
			"makeDecisionForSelling(uint256)": "d8d7c169",
			"mint(address,uint256)": "40c10f19",
			"name()": "06fdde03",
			"owner()": "8da5cb5b",
			"ownerOf(uint256)": "6352211e",
			"registerAsset(address)": "d312998f",
			"registerAssetForFundraising(uint256,uint256)": "24c9cd4e",
			"renounceOwnership()": "715018a6",
			"safeTransferFrom(address,address,uint256)": "42842e0e",
			"safeTransferFrom(address,address,uint256,bytes)": "b88d4fde",
			"setApprovalForAll(address,bool)": "a22cb465",
			"setBaseURI(string)": "55f804b3",
			"setTokenURI(uint256,string)": "162094c4",
			"share(address,uint256)": "ded6338b",
			"supportsInterface(bytes4)": "01ffc9a7",
			"symbol()": "95d89b41",
			"tokenURI(uint256)": "c87b56dd",
			"transferFrom(address,address,uint256)": "23b872dd",
			"transferOwnership(address)": "f2fde38b",
			"vote(uint256,uint256)": "b384abef"
		}
	},
	"abi": [
		{
			"inputs": [
				{
					"internalType": "string",
					"name": "_name",
					"type": "string"
				},
				{
					"internalType": "string",
					"name": "_symbol",
					"type": "string"
				},
				{
					"internalType": "address",
					"name": "_mappingTOArray",
					"type": "address"
				},
				{
					"internalType": "string",
					"name": "_baseURI",
					"type": "string"
				}
			],
			"stateMutability": "nonpayable",
			"type": "constructor"
		},
		{
			"inputs": [
				{
					"internalType": "address",
					"name": "sender",
					"type": "address"
				},
				{
					"internalType": "uint256",
					"name": "tokenId",
					"type": "uint256"
				},
				{
					"internalType": "address",
					"name": "owner",
					"type": "address"
				}
			],
			"name": "ERC721IncorrectOwner",
			"type": "error"
		},
		{
			"inputs": [
				{
					"internalType": "address",
					"name": "operator",
					"type": "address"
				},
				{
					"internalType": "uint256",
					"name": "tokenId",
					"type": "uint256"
				}
			],
			"name": "ERC721InsufficientApproval",
			"type": "error"
		},
		{
			"inputs": [
				{
					"internalType": "address",
					"name": "approver",
					"type": "address"
				}
			],
			"name": "ERC721InvalidApprover",
			"type": "error"
		},
		{
			"inputs": [
				{
					"internalType": "address",
					"name": "operator",
					"type": "address"
				}
			],
			"name": "ERC721InvalidOperator",
			"type": "error"
		},
		{
			"inputs": [
				{
					"internalType": "address",
					"name": "owner",
					"type": "address"
				}
			],
			"name": "ERC721InvalidOwner",
			"type": "error"
		},
		{
			"inputs": [
				{
					"internalType": "address",
					"name": "receiver",
					"type": "address"
				}
			],
			"name": "ERC721InvalidReceiver",
			"type": "error"
		},
		{
			"inputs": [
				{
					"internalType": "address",
					"name": "sender",
					"type": "address"
				}
			],
			"name": "ERC721InvalidSender",
			"type": "error"
		},
		{
			"inputs": [
				{
					"internalType": "uint256",
					"name": "tokenId",
					"type": "uint256"
				}
			],
			"name": "ERC721NonexistentToken",
			"type": "error"
		},
		{
			"inputs": [
				{
					"internalType": "address",
					"name": "owner",
					"type": "address"
				}
			],
			"name": "OwnableInvalidOwner",
			"type": "error"
		},
		{
			"inputs": [
				{
					"internalType": "address",
					"name": "account",
					"type": "address"
				}
			],
			"name": "OwnableUnauthorizedAccount",
			"type": "error"
		},
		{
			"anonymous": false,
			"inputs": [
				{
					"indexed": true,
					"internalType": "address",
					"name": "owner",
					"type": "address"
				},
				{
					"indexed": true,
					"internalType": "address",
					"name": "approved",
					"type": "address"
				},
				{
					"indexed": true,
					"internalType": "uint256",
					"name": "tokenId",
					"type": "uint256"
				}
			],
			"name": "Approval",
			"type": "event"
		},
		{
			"anonymous": false,
			"inputs": [
				{
					"indexed": true,
					"internalType": "address",
					"name": "owner",
					"type": "address"
				},
				{
					"indexed": true,
					"internalType": "address",
					"name": "operator",
					"type": "address"
				},
				{
					"indexed": false,
					"internalType": "bool",
					"name": "approved",
					"type": "bool"
				}
			],
			"name": "ApprovalForAll",
			"type": "event"
		},
		{
			"anonymous": false,
			"inputs": [
				{
					"indexed": false,
					"internalType": "uint256",
					"name": "_fromTokenId",
					"type": "uint256"
				},
				{
					"indexed": false,
					"internalType": "uint256",
					"name": "_toTokenId",
					"type": "uint256"
				}
			],
			"name": "BatchMetadataUpdate",
			"type": "event"
		},
		{
			"anonymous": false,
			"inputs": [
				{
					"indexed": false,
					"internalType": "uint256",
					"name": "_tokenId",
					"type": "uint256"
				}
			],
			"name": "MetadataUpdate",
			"type": "event"
		},
		{
			"anonymous": false,
			"inputs": [
				{
					"indexed": true,
					"internalType": "address",
					"name": "previousOwner",
					"type": "address"
				},
				{
					"indexed": true,
					"internalType": "address",
					"name": "newOwner",
					"type": "address"
				}
			],
			"name": "OwnershipTransferred",
			"type": "event"
		},
		{
			"anonymous": false,
			"inputs": [
				{
					"indexed": true,
					"internalType": "address",
					"name": "from",
					"type": "address"
				},
				{
					"indexed": true,
					"internalType": "address",
					"name": "to",
					"type": "address"
				},
				{
					"indexed": true,
					"internalType": "uint256",
					"name": "tokenId",
					"type": "uint256"
				},
				{
					"indexed": false,
					"internalType": "uint256",
					"name": "derivedFromtokenId",
					"type": "uint256"
				}
			],
			"name": "Share",
			"type": "event"
		},
		{
			"anonymous": false,
			"inputs": [
				{
					"indexed": true,
					"internalType": "address",
					"name": "from",
					"type": "address"
				},
				{
					"indexed": true,
					"internalType": "address",
					"name": "to",
					"type": "address"
				},
				{
					"indexed": true,
					"internalType": "uint256",
					"name": "tokenId",
					"type": "uint256"
				}
			],
			"name": "Transfer",
			"type": "event"
		},
		{
			"inputs": [
				{
					"internalType": "address",
					"name": "to",
					"type": "address"
				},
				{
					"internalType": "uint256",
					"name": "tokenId",
					"type": "uint256"
				}
			],
			"name": "approve",
			"outputs": [],
			"stateMutability": "nonpayable",
			"type": "function"
		},
		{
			"inputs": [
				{
					"internalType": "address",
					"name": "owner",
					"type": "address"
				}
			],
			"name": "balanceOf",
			"outputs": [
				{
					"internalType": "uint256",
					"name": "",
					"type": "uint256"
				}
			],
			"stateMutability": "view",
			"type": "function"
		},
		{
			"inputs": [],
			"name": "baseURI",
			"outputs": [
				{
					"internalType": "string",
					"name": "",
					"type": "string"
				}
			],
			"stateMutability": "view",
			"type": "function"
		},
		{
			"inputs": [
				{
					"internalType": "address",
					"name": "to",
					"type": "address"
				},
				{
					"internalType": "uint256",
					"name": "tokenIdToBeShared",
					"type": "uint256"
				},
				{
					"internalType": "uint256",
					"name": "numberOfShares",
					"type": "uint256"
				}
			],
			"name": "buyShares",
			"outputs": [],
			"stateMutability": "payable",
			"type": "function"
		},
		{
			"inputs": [
				{
					"internalType": "uint256",
					"name": "tokenId",
					"type": "uint256"
				}
			],
			"name": "getApproved",
			"outputs": [
				{
					"internalType": "address",
					"name": "",
					"type": "address"
				}
			],
			"stateMutability": "view",
			"type": "function"
		},
		{
			"inputs": [
				{
					"internalType": "address",
					"name": "to",
					"type": "address"
				},
				{
					"internalType": "uint256",
					"name": "tokenId",
					"type": "uint256"
				}
			],
			"name": "initiateSelling",
			"outputs": [],
			"stateMutability": "nonpayable",
			"type": "function"
		},
		{
			"inputs": [
				{
					"internalType": "uint256",
					"name": "tokenId",
					"type": "uint256"
				}
			],
			"name": "initiateVoting",
			"outputs": [],
			"stateMutability": "nonpayable",
			"type": "function"
		},
		{
			"inputs": [
				{
					"internalType": "address",
					"name": "owner",
					"type": "address"
				},
				{
					"internalType": "address",
					"name": "operator",
					"type": "address"
				}
			],
			"name": "isApprovedForAll",
			"outputs": [
				{
					"internalType": "bool",
					"name": "",
					"type": "bool"
				}
			],
			"stateMutability": "view",
			"type": "function"
		},
		{
			"inputs": [
				{
					"internalType": "uint256",
					"name": "tokenId",
					"type": "uint256"
				}
			],
			"name": "makeDecisionForSelling",
			"outputs": [],
			"stateMutability": "nonpayable",
			"type": "function"
		},
		{
			"inputs": [
				{
					"internalType": "address",
					"name": "account",
					"type": "address"
				},
				{
					"internalType": "uint256",
					"name": "tokenId",
					"type": "uint256"
				}
			],
			"name": "mint",
			"outputs": [],
			"stateMutability": "nonpayable",
			"type": "function"
		},
		{
			"inputs": [],
			"name": "name",
			"outputs": [
				{
					"internalType": "string",
					"name": "",
					"type": "string"
				}
			],
			"stateMutability": "view",
			"type": "function"
		},
		{
			"inputs": [],
			"name": "owner",
			"outputs": [
				{
					"internalType": "address",
					"name": "",
					"type": "address"
				}
			],
			"stateMutability": "view",
			"type": "function"
		},
		{
			"inputs": [
				{
					"internalType": "uint256",
					"name": "tokenId",
					"type": "uint256"
				}
			],
			"name": "ownerOf",
			"outputs": [
				{
					"internalType": "address",
					"name": "",
					"type": "address"
				}
			],
			"stateMutability": "view",
			"type": "function"
		},
		{
			"inputs": [
				{
					"internalType": "address",
					"name": "Investor",
					"type": "address"
				}
			],
			"name": "registerAsset",
			"outputs": [],
			"stateMutability": "nonpayable",
			"type": "function"
		},
		{
			"inputs": [
				{
					"internalType": "uint256",
					"name": "tokenId",
					"type": "uint256"
				},
				{
					"internalType": "uint256",
					"name": "totalShares",
					"type": "uint256"
				}
			],
			"name": "registerAssetForFundraising",
			"outputs": [],
			"stateMutability": "nonpayable",
			"type": "function"
		},
		{
			"inputs": [],
			"name": "renounceOwnership",
			"outputs": [],
			"stateMutability": "nonpayable",
			"type": "function"
		},
		{
			"inputs": [
				{
					"internalType": "address",
					"name": "from",
					"type": "address"
				},
				{
					"internalType": "address",
					"name": "to",
					"type": "address"
				},
				{
					"internalType": "uint256",
					"name": "tokenId",
					"type": "uint256"
				}
			],
			"name": "safeTransferFrom",
			"outputs": [],
			"stateMutability": "nonpayable",
			"type": "function"
		},
		{
			"inputs": [
				{
					"internalType": "address",
					"name": "from",
					"type": "address"
				},
				{
					"internalType": "address",
					"name": "to",
					"type": "address"
				},
				{
					"internalType": "uint256",
					"name": "tokenId",
					"type": "uint256"
				},
				{
					"internalType": "bytes",
					"name": "data",
					"type": "bytes"
				}
			],
			"name": "safeTransferFrom",
			"outputs": [],
			"stateMutability": "nonpayable",
			"type": "function"
		},
		{
			"inputs": [
				{
					"internalType": "address",
					"name": "operator",
					"type": "address"
				},
				{
					"internalType": "bool",
					"name": "approved",
					"type": "bool"
				}
			],
			"name": "setApprovalForAll",
			"outputs": [],
			"stateMutability": "nonpayable",
			"type": "function"
		},
		{
			"inputs": [
				{
					"internalType": "string",
					"name": "baseURI_",
					"type": "string"
				}
			],
			"name": "setBaseURI",
			"outputs": [],
			"stateMutability": "nonpayable",
			"type": "function"
		},
		{
			"inputs": [
				{
					"internalType": "uint256",
					"name": "tokenId",
					"type": "uint256"
				},
				{
					"internalType": "string",
					"name": "tokenURI",
					"type": "string"
				}
			],
			"name": "setTokenURI",
			"outputs": [],
			"stateMutability": "nonpayable",
			"type": "function"
		},
		{
			"inputs": [
				{
					"internalType": "address",
					"name": "to",
					"type": "address"
				},
				{
					"internalType": "uint256",
					"name": "tokenIdToBeShared",
					"type": "uint256"
				}
			],
			"name": "share",
			"outputs": [
				{
					"internalType": "uint256",
					"name": "newTokenId",
					"type": "uint256"
				}
			],
			"stateMutability": "nonpayable",
			"type": "function"
		},
		{
			"inputs": [
				{
					"internalType": "bytes4",
					"name": "interfaceId",
					"type": "bytes4"
				}
			],
			"name": "supportsInterface",
			"outputs": [
				{
					"internalType": "bool",
					"name": "",
					"type": "bool"
				}
			],
			"stateMutability": "view",
			"type": "function"
		},
		{
			"inputs": [],
			"name": "symbol",
			"outputs": [
				{
					"internalType": "string",
					"name": "",
					"type": "string"
				}
			],
			"stateMutability": "view",
			"type": "function"
		},
		{
			"inputs": [
				{
					"internalType": "uint256",
					"name": "tokenId",
					"type": "uint256"
				}
			],
			"name": "tokenURI",
			"outputs": [
				{
					"internalType": "string",
					"name": "",
					"type": "string"
				}
			],
			"stateMutability": "view",
			"type": "function"
		},
		{
			"inputs": [
				{
					"internalType": "address",
					"name": "from",
					"type": "address"
				},
				{
					"internalType": "address",
					"name": "to",
					"type": "address"
				},
				{
					"internalType": "uint256",
					"name": "tokenId",
					"type": "uint256"
				}
			],
			"name": "transferFrom",
			"outputs": [],
			"stateMutability": "nonpayable",
			"type": "function"
		},
		{
			"inputs": [
				{
					"internalType": "address",
					"name": "newOwner",
					"type": "address"
				}
			],
			"name": "transferOwnership",
			"outputs": [],
			"stateMutability": "nonpayable",
			"type": "function"
		},
		{
			"inputs": [
				{
					"internalType": "uint256",
					"name": "tokenId",
					"type": "uint256"
				},
				{
					"internalType": "uint256",
					"name": "sharedTokenId",
					"type": "uint256"
				}
			],
			"name": "vote",
			"outputs": [],
			"stateMutability": "nonpayable",
			"type": "function"
		}
	]
}